{
	"data": {
		"bytecode": {
			"linkReferences": {
				"src/utils/Utils.sol": {
					"Utils": [
						{
							"length": 20,
							"start": 329
						},
						{
							"length": 20,
							"start": 666
						},
						{
							"length": 20,
							"start": 804
						},
						{
							"length": 20,
							"start": 942
						}
					]
				}
			},
			"object": "608060405234801561001057600080fd5b50611d5b806100206000396000f3fe608060405234801561001057600080fd5b506004361061002b5760003560e01c806308485a8314610030575b600080fd5b61004a60048036038101906100459190611225565b610060565b60405161005791906112fe565b60405180910390f35b606061006a6110be565b6040518060200160405280848060000190610085919061132f565b8080601f016020809104026020016040519081016040528093929190818152602001838380828437600081840152601f19601f8201169050808301925050505050505081525081600001819052508260200160208101906100e691906113d2565b816020019067ffffffffffffffff16908167ffffffffffffffff16815250508260400160208101906101189190611437565b81604001901515908115158152505073__$b775366deb48fb607c6478532aa64b7c40$__638ce70c68306040518263ffffffff1660e01b815260040161015e91906114a5565b600060405180830381865af415801561017b573d6000803e3d6000fd5b505050506040513d6000823e3d601f19601f820116820180604052508101906101a49190611648565b81606001819052506101b66000610428565b816080018190525060405180604001604052808480606001906101d99190611691565b8080601f016020809104026020016040519081016040528093929190818152602001838380828437600081840152601f19601f820116905080830192505050505050508152602001600115158152508160a00181905250826080016020810190610243919061172d565b8160c0019060070b908160070b815250508260a0016020810190610267919061172d565b8160e0019060070b908160070b8152505073__$b775366deb48fb607c6478532aa64b7c40$__636f0389718460c001356040518263ffffffff1660e01b81526004016102b39190611773565b600060405180830381865af41580156102d0573d6000803e3d6000fd5b505050506040513d6000823e3d601f19601f820116820180604052508101906102f9919061180f565b81610100018190525073__$b775366deb48fb607c6478532aa64b7c40$__636f0389718460e001356040518263ffffffff1660e01b815260040161033d9190611773565b600060405180830381865af415801561035a573d6000803e3d6000fd5b505050506040513d6000823e3d601f19601f82011682018060405250810190610383919061180f565b81610120018190525073__$b775366deb48fb607c6478532aa64b7c40$__636f0389718461010001356040518263ffffffff1660e01b81526004016103c89190611773565b600060405180830381865af41580156103e5573d6000803e3d6000fd5b505050506040513d6000823e3d601f19601f8201168201806040525081019061040e919061180f565b81610140018190525061042081610477565b915050919050565b610430611154565b600061043b83610721565b90506040518060200160405280826000015160405160200161045d91906118cb565b604051602081830303815290604052815250915050919050565b606060008061048a846101000151610799565b9050600061049c856101200151610799565b905060006104ae866101400151610799565b90506104ba600b610906565b846104c5919061191c565b93506104d886600001516000015161095a565b846104e3919061191c565b93506104fc866020015167ffffffffffffffff16610906565b84610507919061191c565b9350610511610979565b8461051c919061191c565b935061052f86606001516000015161098a565b8461053a919061191c565b935061054d86608001516000015161098a565b84610558919061191c565b935061056b8660a001516000015161098a565b84610576919061191c565b93506105858660c001516109a9565b84610590919061191c565b935061059f8660e001516109a9565b846105aa919061191c565b93506105b58361098a565b846105c0919061191c565b93506105cb8261098a565b846105d6919061191c565b93506105e18161098a565b846105ec919061191c565b935060006105f985610a1c565b905061060f600b82610a4390919063ffffffff16565b61062a87600001516000015182610a5390919063ffffffff16565b610641876020015182610ac590919063ffffffff16565b610658876040015182610ad590919063ffffffff16565b61067387606001516000015182610af190919063ffffffff16565b61068e87608001516000015182610af190919063ffffffff16565b6106a58760a0015182610b1a90919063ffffffff16565b6106bc8760c0015182610b5b90919063ffffffff16565b6106d38760e0015182610b5b90919063ffffffff16565b6106e68482610af190919063ffffffff16565b6106f98382610af190919063ffffffff16565b61070c8282610af190919063ffffffff16565b61071581610b72565b95505050505050919050565b610729611167565b5b600115610793576000607f8316905060078367ffffffffffffffff16901c925060008367ffffffffffffffff16036107765761076f8183610bcb90919063ffffffff16565b5050610794565b61078c6080821783610bcb90919063ffffffff16565b505061072a565b5b919050565b6060600060018360000151516107af919061191c565b67ffffffffffffffff8111156107c8576107c76114c5565b5b6040519080825280601f01601f1916602001820160405280156107fa5781602001600182028036833780820191505090505b50905060011515836020015115151461081757600060f81b61081d565b600160f81b5b8160008151811061083157610830611950565b5b60200101907effffffffffffffffffffffffffffffffffffffffffffffffffffffffffffff1916908160001a90535060006001905060005b8460000151518110156108fb578460000151818151811061088d5761088c611950565b5b602001015160f81c60f81b8383815181106108ab576108aa611950565b5b60200101907effffffffffffffffffffffffffffffffffffffffffffffffffffffffffffff1916908160001a90535081806108e59061197f565b92505080806108f39061197f565b915050610869565b508192505050919050565b6000601782116109195760019050610955565b60ff821161092a5760029050610955565b61ffff821161093c5760039050610955565b63ffffffff82116109505760059050610955565b600990505b919050565b600081516109686002610906565b610972919061191c565b9050919050565b60006109856001610906565b905090565b600081516109988351610906565b6109a2919061191c565b9050919050565b60008082905060008160070b126109d5576109cd8167ffffffffffffffff16610906565b915050610a17565b610a13817fffffffffffffffffffffffffffffffffffffffffffffffffffffffffffffffff610a0491906119c7565b67ffffffffffffffff16610906565b9150505b919050565b610a24611181565b610a32816000015183610c35565b506000816020018181525050919050565b610a4f82600483610cae565b5050565b610a7560186005600660ff16901b178360000151610bcb90919063ffffffff16565b50610a8e602a8360000151610bcb90919063ffffffff16565b50610ac181604051602001610aa39190611a2e565b60405160208183030381529060405283610af190919063ffffffff16565b5050565b610ad182600083610cbe565b5050565b610aed8282610ae5576014610ae8565b60155b610e67565b5050565b610afe8260028351610cbe565b610b15818360000151610e8d90919063ffffffff16565b505050565b8060200151610b3f57610b3a816000015183610af190919063ffffffff16565b610b57565b610b56816000015183610ea990919063ffffffff16565b5b5050565b610b6e8183610ed290919063ffffffff16565b5050565b60606000826020015114610bbb576040517f08c379a0000000000000000000000000000000000000000000000000000000008152600401610bb290611ab1565b60405180910390fd5b8160000151600001519050919050565b610bd3611167565b600083600001515190506000600182610bec919061191c565b905084602001518210610c1057610c0f85600283610c0a9190611ad1565b610f2a565b5b84516020838201018581538151831115610c28578282525b5050849250505092915050565b610c3d611167565b6000602083610c4c9190611b42565b14610c7857602082610c5e9190611b42565b6020610c6a9190611b73565b82610c75919061191c565b91505b818360200181815250506040518084526000815282810160200181811015610c9f57600080fd5b80604052505082905092915050565b610cb9838383610cbe565b505050565b60178167ffffffffffffffff1611610cf957610cf38160058460ff16901b60ff16178460000151610bcb90919063ffffffff16565b50610e62565b60ff8167ffffffffffffffff1611610d5757610d2c601860058460ff16901b178460000151610bcb90919063ffffffff16565b50610d518167ffffffffffffffff1660018560000151610f4e9092919063ffffffff16565b50610e61565b61ffff8167ffffffffffffffff1611610db657610d8b601960058460ff16901b178460000151610bcb90919063ffffffff16565b50610db08167ffffffffffffffff1660028560000151610f4e9092919063ffffffff16565b50610e60565b63ffffffff8167ffffffffffffffff1611610e1757610dec601a60058460ff16901b178460000151610bcb90919063ffffffff16565b50610e118167ffffffffffffffff1660048560000151610f4e9092919063ffffffff16565b50610e5f565b610e38601b60058460ff16901b178460000151610bcb90919063ffffffff16565b50610e5d8167ffffffffffffffff1660088560000151610f4e9092919063ffffffff16565b505b5b5b5b505050565b610e88816005600760ff16901b178360000151610bcb90919063ffffffff16565b505050565b610e95611167565b610ea183838451610fdb565b905092915050565b610eb68260038351610cbe565b610ecd818360000151610e8d90919063ffffffff16565b505050565b60008160070b12610eee57610ee982600083610cbe565b610f26565b610f25826001837fffffffffffffffffffffffffffffffffffffffffffffffffffffffffffffffff610f2091906119c7565b610cbe565b5b5050565b600082600001519050610f3d8383610c35565b50610f488382610e8d565b50505050565b610f56611167565b6000846000015151905060008184610f6e919061191c565b90508560200151811115610f9357610f9286600283610f8d9190611ad1565b610f2a565b5b6000600185610100610fa59190611cda565b610faf9190611b73565b905086518281018783198251161781528151841115610fcc578382525b50508693505050509392505050565b610fe3611167565b8251821115610ff157600080fd5b6000846000015151905060008382611009919061191c565b9050856020015181111561102e5761102d866002836110289190611ad1565b610f2a565b5b60008087518051856020830101935080851115611049578482525b60208901925050505b60208610611090578051825260208261106b919061191c565b915060208161107a919061191c565b90506020866110899190611b73565b9550611052565b60006001876020036101000a0390508019825116818451168181178552505050879450505050509392505050565b6040518061016001604052806110d26111a1565b8152602001600067ffffffffffffffff1681526020016000151581526020016110f9611154565b8152602001611106611154565b81526020016111136111b4565b8152602001600060070b8152602001600060070b81526020016111346111d0565b81526020016111416111d0565b815260200161114e6111d0565b81525090565b6040518060200160405280606081525090565b604051806040016040528060608152602001600081525090565b6040518060400160405280611194611167565b8152602001600081525090565b6040518060200160405280606081525090565b6040518060400160405280606081526020016000151581525090565b6040518060400160405280606081526020016000151581525090565b6000604051905090565b600080fd5b600080fd5b600080fd5b6000610180828403121561121c5761121b611200565b5b81905092915050565b60006020828403121561123b5761123a6111f6565b5b600082013567ffffffffffffffff811115611259576112586111fb565b5b61126584828501611205565b91505092915050565b600081519050919050565b600082825260208201905092915050565b60005b838110156112a857808201518184015260208101905061128d565b60008484015250505050565b6000601f19601f8301169050919050565b60006112d08261126e565b6112da8185611279565b93506112ea81856020860161128a565b6112f3816112b4565b840191505092915050565b6000602082019050818103600083015261131881846112c5565b905092915050565b600080fd5b600080fd5b600080fd5b6000808335600160200384360303811261134c5761134b611320565b5b80840192508235915067ffffffffffffffff82111561136e5761136d611325565b5b60208301925060018202360383131561138a5761138961132a565b5b509250929050565b600067ffffffffffffffff82169050919050565b6113af81611392565b81146113ba57600080fd5b50565b6000813590506113cc816113a6565b92915050565b6000602082840312156113e8576113e76111f6565b5b60006113f6848285016113bd565b91505092915050565b60008115159050919050565b611414816113ff565b811461141f57600080fd5b50565b6000813590506114318161140b565b92915050565b60006020828403121561144d5761144c6111f6565b5b600061145b84828501611422565b91505092915050565b600073ffffffffffffffffffffffffffffffffffffffff82169050919050565b600061148f82611464565b9050919050565b61149f81611484565b82525050565b60006020820190506114ba6000830184611496565b92915050565b600080fd5b7f4e487b7100000000000000000000000000000000000000000000000000000000600052604160045260246000fd5b6114fd826112b4565b810181811067ffffffffffffffff8211171561151c5761151b6114c5565b5b80604052505050565b600061152f6111ec565b905061153b82826114f4565b919050565b600080fd5b600080fd5b600080fd5b600067ffffffffffffffff82111561156a576115696114c5565b5b611573826112b4565b9050602081019050919050565b600061159361158e8461154f565b611525565b9050828152602081018484840111156115af576115ae61154a565b5b6115ba84828561128a565b509392505050565b600082601f8301126115d7576115d6611545565b5b81516115e7848260208601611580565b91505092915050565b600060208284031215611606576116056114c0565b5b6116106020611525565b9050600082015167ffffffffffffffff8111156116305761162f611540565b5b61163c848285016115c2565b60008301525092915050565b60006020828403121561165e5761165d6111f6565b5b600082015167ffffffffffffffff81111561167c5761167b6111fb565b5b611688848285016115f0565b91505092915050565b600080833560016020038436030381126116ae576116ad611320565b5b80840192508235915067ffffffffffffffff8211156116d0576116cf611325565b5b6020830192506001820236038313156116ec576116eb61132a565b5b509250929050565b60008160070b9050919050565b61170a816116f4565b811461171557600080fd5b50565b60008135905061172781611701565b92915050565b600060208284031215611743576117426111f6565b5b600061175184828501611718565b91505092915050565b6000819050919050565b61176d8161175a565b82525050565b60006020820190506117886000830184611764565b92915050565b60008151905061179d8161140b565b92915050565b6000604082840312156117b9576117b86114c0565b5b6117c36040611525565b9050600082015167ffffffffffffffff8111156117e3576117e2611540565b5b6117ef848285016115c2565b60008301525060206118038482850161178e565b60208301525092915050565b600060208284031215611825576118246111f6565b5b600082015167ffffffffffffffff811115611843576118426111fb565b5b61184f848285016117a3565b91505092915050565b600081905092915050565b60008082015250565b6000611879600183611858565b915061188482611863565b600182019050919050565b600081905092915050565b60006118a58261126e565b6118af818561188f565b93506118bf81856020860161128a565b80840191505092915050565b60006118d68261186c565b91506118e2828461189a565b915081905092915050565b7f4e487b7100000000000000000000000000000000000000000000000000000000600052601160045260246000fd5b60006119278261175a565b91506119328361175a565b925082820190508082111561194a576119496118ed565b5b92915050565b7f4e487b7100000000000000000000000000000000000000000000000000000000600052603260045260246000fd5b600061198a8261175a565b91507fffffffffffffffffffffffffffffffffffffffffffffffffffffffffffffffff82036119bc576119bb6118ed565b5b600182019050919050565b60006119d2826116f4565b91506119dd836116f4565b92508282039050677fffffffffffffff81137fffffffffffffffffffffffffffffffffffffffffffffffff800000000000000082121715611a2157611a206118ed565b5b92915050565b6000815250565b6000611a3982611a27565b600182019150611a49828461189a565b915081905092915050565b600082825260208201905092915050565b7f496e76616c69642043424f520000000000000000000000000000000000000000600082015250565b6000611a9b600c83611a54565b9150611aa682611a65565b602082019050919050565b60006020820190508181036000830152611aca81611a8e565b9050919050565b6000611adc8261175a565b9150611ae78361175a565b9250828202611af58161175a565b91508282048414831517611b0c57611b0b6118ed565b5b5092915050565b7f4e487b7100000000000000000000000000000000000000000000000000000000600052601260045260246000fd5b6000611b4d8261175a565b9150611b588361175a565b925082611b6857611b67611b13565b5b828206905092915050565b6000611b7e8261175a565b9150611b898361175a565b9250828203905081811115611ba157611ba06118ed565b5b92915050565b60008160011c9050919050565b6000808291508390505b6001851115611bfe57808604811115611bda57611bd96118ed565b5b6001851615611be95780820291505b8081029050611bf785611ba7565b9450611bbe565b94509492505050565b600082611c175760019050611cd3565b81611c255760009050611cd3565b8160018114611c3b5760028114611c4557611c74565b6001915050611cd3565b60ff841115611c5757611c566118ed565b5b8360020a915084821115611c6e57611c6d6118ed565b5b50611cd3565b5060208310610133831016604e8410600b8410161715611ca95782820a905083811115611ca457611ca36118ed565b5b611cd3565b611cb68484846001611bb4565b92509050818404811115611ccd57611ccc6118ed565b5b81810290505b9392505050565b6000611ce58261175a565b9150611cf08361175a565b9250611d1d7fffffffffffffffffffffffffffffffffffffffffffffffffffffffffffffffff8484611c07565b90509291505056fea2646970667358221220f4927a22385835195429265b480489f7af65492fa8bf7b16b7bab21f79ab315764736f6c63430008110033",
			"opcodes": "PUSH1 0x80 PUSH1 0x40 MSTORE CALLVALUE DUP1 ISZERO PUSH2 0x10 JUMPI PUSH1 0x0 DUP1 REVERT JUMPDEST POP PUSH2 0x1D5B DUP1 PUSH2 0x20 PUSH1 0x0 CODECOPY PUSH1 0x0 RETURN INVALID PUSH1 0x80 PUSH1 0x40 MSTORE CALLVALUE DUP1 ISZERO PUSH2 0x10 JUMPI PUSH1 0x0 DUP1 REVERT JUMPDEST POP PUSH1 0x4 CALLDATASIZE LT PUSH2 0x2B JUMPI PUSH1 0x0 CALLDATALOAD PUSH1 0xE0 SHR DUP1 PUSH4 0x8485A83 EQ PUSH2 0x30 JUMPI JUMPDEST PUSH1 0x0 DUP1 REVERT JUMPDEST PUSH2 0x4A PUSH1 0x4 DUP1 CALLDATASIZE SUB DUP2 ADD SWAP1 PUSH2 0x45 SWAP2 SWAP1 PUSH2 0x1225 JUMP JUMPDEST PUSH2 0x60 JUMP JUMPDEST PUSH1 0x40 MLOAD PUSH2 0x57 SWAP2 SWAP1 PUSH2 0x12FE JUMP JUMPDEST PUSH1 0x40 MLOAD DUP1 SWAP2 SUB SWAP1 RETURN JUMPDEST PUSH1 0x60 PUSH2 0x6A PUSH2 0x10BE JUMP JUMPDEST PUSH1 0x40 MLOAD DUP1 PUSH1 0x20 ADD PUSH1 0x40 MSTORE DUP1 DUP5 DUP1 PUSH1 0x0 ADD SWAP1 PUSH2 0x85 SWAP2 SWAP1 PUSH2 0x132F JUMP JUMPDEST DUP1 DUP1 PUSH1 0x1F ADD PUSH1 0x20 DUP1 SWAP2 DIV MUL PUSH1 0x20 ADD PUSH1 0x40 MLOAD SWAP1 DUP2 ADD PUSH1 0x40 MSTORE DUP1 SWAP4 SWAP3 SWAP2 SWAP1 DUP2 DUP2 MSTORE PUSH1 0x20 ADD DUP4 DUP4 DUP1 DUP3 DUP5 CALLDATACOPY PUSH1 0x0 DUP2 DUP5 ADD MSTORE PUSH1 0x1F NOT PUSH1 0x1F DUP3 ADD AND SWAP1 POP DUP1 DUP4 ADD SWAP3 POP POP POP POP POP POP POP DUP2 MSTORE POP DUP2 PUSH1 0x0 ADD DUP2 SWAP1 MSTORE POP DUP3 PUSH1 0x20 ADD PUSH1 0x20 DUP2 ADD SWAP1 PUSH2 0xE6 SWAP2 SWAP1 PUSH2 0x13D2 JUMP JUMPDEST DUP2 PUSH1 0x20 ADD SWAP1 PUSH8 0xFFFFFFFFFFFFFFFF AND SWAP1 DUP2 PUSH8 0xFFFFFFFFFFFFFFFF AND DUP2 MSTORE POP POP DUP3 PUSH1 0x40 ADD PUSH1 0x20 DUP2 ADD SWAP1 PUSH2 0x118 SWAP2 SWAP1 PUSH2 0x1437 JUMP JUMPDEST DUP2 PUSH1 0x40 ADD SWAP1 ISZERO ISZERO SWAP1 DUP2 ISZERO ISZERO DUP2 MSTORE POP POP PUSH20 0x0 PUSH4 0x8CE70C68 ADDRESS PUSH1 0x40 MLOAD DUP3 PUSH4 0xFFFFFFFF AND PUSH1 0xE0 SHL DUP2 MSTORE PUSH1 0x4 ADD PUSH2 0x15E SWAP2 SWAP1 PUSH2 0x14A5 JUMP JUMPDEST PUSH1 0x0 PUSH1 0x40 MLOAD DUP1 DUP4 SUB DUP2 DUP7 GAS DELEGATECALL ISZERO DUP1 ISZERO PUSH2 0x17B JUMPI RETURNDATASIZE PUSH1 0x0 DUP1 RETURNDATACOPY RETURNDATASIZE PUSH1 0x0 REVERT JUMPDEST POP POP POP POP PUSH1 0x40 MLOAD RETURNDATASIZE PUSH1 0x0 DUP3 RETURNDATACOPY RETURNDATASIZE PUSH1 0x1F NOT PUSH1 0x1F DUP3 ADD AND DUP3 ADD DUP1 PUSH1 0x40 MSTORE POP DUP2 ADD SWAP1 PUSH2 0x1A4 SWAP2 SWAP1 PUSH2 0x1648 JUMP JUMPDEST DUP2 PUSH1 0x60 ADD DUP2 SWAP1 MSTORE POP PUSH2 0x1B6 PUSH1 0x0 PUSH2 0x428 JUMP JUMPDEST DUP2 PUSH1 0x80 ADD DUP2 SWAP1 MSTORE POP PUSH1 0x40 MLOAD DUP1 PUSH1 0x40 ADD PUSH1 0x40 MSTORE DUP1 DUP5 DUP1 PUSH1 0x60 ADD SWAP1 PUSH2 0x1D9 SWAP2 SWAP1 PUSH2 0x1691 JUMP JUMPDEST DUP1 DUP1 PUSH1 0x1F ADD PUSH1 0x20 DUP1 SWAP2 DIV MUL PUSH1 0x20 ADD PUSH1 0x40 MLOAD SWAP1 DUP2 ADD PUSH1 0x40 MSTORE DUP1 SWAP4 SWAP3 SWAP2 SWAP1 DUP2 DUP2 MSTORE PUSH1 0x20 ADD DUP4 DUP4 DUP1 DUP3 DUP5 CALLDATACOPY PUSH1 0x0 DUP2 DUP5 ADD MSTORE PUSH1 0x1F NOT PUSH1 0x1F DUP3 ADD AND SWAP1 POP DUP1 DUP4 ADD SWAP3 POP POP POP POP POP POP POP DUP2 MSTORE PUSH1 0x20 ADD PUSH1 0x1 ISZERO ISZERO DUP2 MSTORE POP DUP2 PUSH1 0xA0 ADD DUP2 SWAP1 MSTORE POP DUP3 PUSH1 0x80 ADD PUSH1 0x20 DUP2 ADD SWAP1 PUSH2 0x243 SWAP2 SWAP1 PUSH2 0x172D JUMP JUMPDEST DUP2 PUSH1 0xC0 ADD SWAP1 PUSH1 0x7 SIGNEXTEND SWAP1 DUP2 PUSH1 0x7 SIGNEXTEND DUP2 MSTORE POP POP DUP3 PUSH1 0xA0 ADD PUSH1 0x20 DUP2 ADD SWAP1 PUSH2 0x267 SWAP2 SWAP1 PUSH2 0x172D JUMP JUMPDEST DUP2 PUSH1 0xE0 ADD SWAP1 PUSH1 0x7 SIGNEXTEND SWAP1 DUP2 PUSH1 0x7 SIGNEXTEND DUP2 MSTORE POP POP PUSH20 0x0 PUSH4 0x6F038971 DUP5 PUSH1 0xC0 ADD CALLDATALOAD PUSH1 0x40 MLOAD DUP3 PUSH4 0xFFFFFFFF AND PUSH1 0xE0 SHL DUP2 MSTORE PUSH1 0x4 ADD PUSH2 0x2B3 SWAP2 SWAP1 PUSH2 0x1773 JUMP JUMPDEST PUSH1 0x0 PUSH1 0x40 MLOAD DUP1 DUP4 SUB DUP2 DUP7 GAS DELEGATECALL ISZERO DUP1 ISZERO PUSH2 0x2D0 JUMPI RETURNDATASIZE PUSH1 0x0 DUP1 RETURNDATACOPY RETURNDATASIZE PUSH1 0x0 REVERT JUMPDEST POP POP POP POP PUSH1 0x40 MLOAD RETURNDATASIZE PUSH1 0x0 DUP3 RETURNDATACOPY RETURNDATASIZE PUSH1 0x1F NOT PUSH1 0x1F DUP3 ADD AND DUP3 ADD DUP1 PUSH1 0x40 MSTORE POP DUP2 ADD SWAP1 PUSH2 0x2F9 SWAP2 SWAP1 PUSH2 0x180F JUMP JUMPDEST DUP2 PUSH2 0x100 ADD DUP2 SWAP1 MSTORE POP PUSH20 0x0 PUSH4 0x6F038971 DUP5 PUSH1 0xE0 ADD CALLDATALOAD PUSH1 0x40 MLOAD DUP3 PUSH4 0xFFFFFFFF AND PUSH1 0xE0 SHL DUP2 MSTORE PUSH1 0x4 ADD PUSH2 0x33D SWAP2 SWAP1 PUSH2 0x1773 JUMP JUMPDEST PUSH1 0x0 PUSH1 0x40 MLOAD DUP1 DUP4 SUB DUP2 DUP7 GAS DELEGATECALL ISZERO DUP1 ISZERO PUSH2 0x35A JUMPI RETURNDATASIZE PUSH1 0x0 DUP1 RETURNDATACOPY RETURNDATASIZE PUSH1 0x0 REVERT JUMPDEST POP POP POP POP PUSH1 0x40 MLOAD RETURNDATASIZE PUSH1 0x0 DUP3 RETURNDATACOPY RETURNDATASIZE PUSH1 0x1F NOT PUSH1 0x1F DUP3 ADD AND DUP3 ADD DUP1 PUSH1 0x40 MSTORE POP DUP2 ADD SWAP1 PUSH2 0x383 SWAP2 SWAP1 PUSH2 0x180F JUMP JUMPDEST DUP2 PUSH2 0x120 ADD DUP2 SWAP1 MSTORE POP PUSH20 0x0 PUSH4 0x6F038971 DUP5 PUSH2 0x100 ADD CALLDATALOAD PUSH1 0x40 MLOAD DUP3 PUSH4 0xFFFFFFFF AND PUSH1 0xE0 SHL DUP2 MSTORE PUSH1 0x4 ADD PUSH2 0x3C8 SWAP2 SWAP1 PUSH2 0x1773 JUMP JUMPDEST PUSH1 0x0 PUSH1 0x40 MLOAD DUP1 DUP4 SUB DUP2 DUP7 GAS DELEGATECALL ISZERO DUP1 ISZERO PUSH2 0x3E5 JUMPI RETURNDATASIZE PUSH1 0x0 DUP1 RETURNDATACOPY RETURNDATASIZE PUSH1 0x0 REVERT JUMPDEST POP POP POP POP PUSH1 0x40 MLOAD RETURNDATASIZE PUSH1 0x0 DUP3 RETURNDATACOPY RETURNDATASIZE PUSH1 0x1F NOT PUSH1 0x1F DUP3 ADD AND DUP3 ADD DUP1 PUSH1 0x40 MSTORE POP DUP2 ADD SWAP1 PUSH2 0x40E SWAP2 SWAP1 PUSH2 0x180F JUMP JUMPDEST DUP2 PUSH2 0x140 ADD DUP2 SWAP1 MSTORE POP PUSH2 0x420 DUP2 PUSH2 0x477 JUMP JUMPDEST SWAP2 POP POP SWAP2 SWAP1 POP JUMP JUMPDEST PUSH2 0x430 PUSH2 0x1154 JUMP JUMPDEST PUSH1 0x0 PUSH2 0x43B DUP4 PUSH2 0x721 JUMP JUMPDEST SWAP1 POP PUSH1 0x40 MLOAD DUP1 PUSH1 0x20 ADD PUSH1 0x40 MSTORE DUP1 DUP3 PUSH1 0x0 ADD MLOAD PUSH1 0x40 MLOAD PUSH1 0x20 ADD PUSH2 0x45D SWAP2 SWAP1 PUSH2 0x18CB JUMP JUMPDEST PUSH1 0x40 MLOAD PUSH1 0x20 DUP2 DUP4 SUB SUB DUP2 MSTORE SWAP1 PUSH1 0x40 MSTORE DUP2 MSTORE POP SWAP2 POP POP SWAP2 SWAP1 POP JUMP JUMPDEST PUSH1 0x60 PUSH1 0x0 DUP1 PUSH2 0x48A DUP5 PUSH2 0x100 ADD MLOAD PUSH2 0x799 JUMP JUMPDEST SWAP1 POP PUSH1 0x0 PUSH2 0x49C DUP6 PUSH2 0x120 ADD MLOAD PUSH2 0x799 JUMP JUMPDEST SWAP1 POP PUSH1 0x0 PUSH2 0x4AE DUP7 PUSH2 0x140 ADD MLOAD PUSH2 0x799 JUMP JUMPDEST SWAP1 POP PUSH2 0x4BA PUSH1 0xB PUSH2 0x906 JUMP JUMPDEST DUP5 PUSH2 0x4C5 SWAP2 SWAP1 PUSH2 0x191C JUMP JUMPDEST SWAP4 POP PUSH2 0x4D8 DUP7 PUSH1 0x0 ADD MLOAD PUSH1 0x0 ADD MLOAD PUSH2 0x95A JUMP JUMPDEST DUP5 PUSH2 0x4E3 SWAP2 SWAP1 PUSH2 0x191C JUMP JUMPDEST SWAP4 POP PUSH2 0x4FC DUP7 PUSH1 0x20 ADD MLOAD PUSH8 0xFFFFFFFFFFFFFFFF AND PUSH2 0x906 JUMP JUMPDEST DUP5 PUSH2 0x507 SWAP2 SWAP1 PUSH2 0x191C JUMP JUMPDEST SWAP4 POP PUSH2 0x511 PUSH2 0x979 JUMP JUMPDEST DUP5 PUSH2 0x51C SWAP2 SWAP1 PUSH2 0x191C JUMP JUMPDEST SWAP4 POP PUSH2 0x52F DUP7 PUSH1 0x60 ADD MLOAD PUSH1 0x0 ADD MLOAD PUSH2 0x98A JUMP JUMPDEST DUP5 PUSH2 0x53A SWAP2 SWAP1 PUSH2 0x191C JUMP JUMPDEST SWAP4 POP PUSH2 0x54D DUP7 PUSH1 0x80 ADD MLOAD PUSH1 0x0 ADD MLOAD PUSH2 0x98A JUMP JUMPDEST DUP5 PUSH2 0x558 SWAP2 SWAP1 PUSH2 0x191C JUMP JUMPDEST SWAP4 POP PUSH2 0x56B DUP7 PUSH1 0xA0 ADD MLOAD PUSH1 0x0 ADD MLOAD PUSH2 0x98A JUMP JUMPDEST DUP5 PUSH2 0x576 SWAP2 SWAP1 PUSH2 0x191C JUMP JUMPDEST SWAP4 POP PUSH2 0x585 DUP7 PUSH1 0xC0 ADD MLOAD PUSH2 0x9A9 JUMP JUMPDEST DUP5 PUSH2 0x590 SWAP2 SWAP1 PUSH2 0x191C JUMP JUMPDEST SWAP4 POP PUSH2 0x59F DUP7 PUSH1 0xE0 ADD MLOAD PUSH2 0x9A9 JUMP JUMPDEST DUP5 PUSH2 0x5AA SWAP2 SWAP1 PUSH2 0x191C JUMP JUMPDEST SWAP4 POP PUSH2 0x5B5 DUP4 PUSH2 0x98A JUMP JUMPDEST DUP5 PUSH2 0x5C0 SWAP2 SWAP1 PUSH2 0x191C JUMP JUMPDEST SWAP4 POP PUSH2 0x5CB DUP3 PUSH2 0x98A JUMP JUMPDEST DUP5 PUSH2 0x5D6 SWAP2 SWAP1 PUSH2 0x191C JUMP JUMPDEST SWAP4 POP PUSH2 0x5E1 DUP2 PUSH2 0x98A JUMP JUMPDEST DUP5 PUSH2 0x5EC SWAP2 SWAP1 PUSH2 0x191C JUMP JUMPDEST SWAP4 POP PUSH1 0x0 PUSH2 0x5F9 DUP6 PUSH2 0xA1C JUMP JUMPDEST SWAP1 POP PUSH2 0x60F PUSH1 0xB DUP3 PUSH2 0xA43 SWAP1 SWAP2 SWAP1 PUSH4 0xFFFFFFFF AND JUMP JUMPDEST PUSH2 0x62A DUP8 PUSH1 0x0 ADD MLOAD PUSH1 0x0 ADD MLOAD DUP3 PUSH2 0xA53 SWAP1 SWAP2 SWAP1 PUSH4 0xFFFFFFFF AND JUMP JUMPDEST PUSH2 0x641 DUP8 PUSH1 0x20 ADD MLOAD DUP3 PUSH2 0xAC5 SWAP1 SWAP2 SWAP1 PUSH4 0xFFFFFFFF AND JUMP JUMPDEST PUSH2 0x658 DUP8 PUSH1 0x40 ADD MLOAD DUP3 PUSH2 0xAD5 SWAP1 SWAP2 SWAP1 PUSH4 0xFFFFFFFF AND JUMP JUMPDEST PUSH2 0x673 DUP8 PUSH1 0x60 ADD MLOAD PUSH1 0x0 ADD MLOAD DUP3 PUSH2 0xAF1 SWAP1 SWAP2 SWAP1 PUSH4 0xFFFFFFFF AND JUMP JUMPDEST PUSH2 0x68E DUP8 PUSH1 0x80 ADD MLOAD PUSH1 0x0 ADD MLOAD DUP3 PUSH2 0xAF1 SWAP1 SWAP2 SWAP1 PUSH4 0xFFFFFFFF AND JUMP JUMPDEST PUSH2 0x6A5 DUP8 PUSH1 0xA0 ADD MLOAD DUP3 PUSH2 0xB1A SWAP1 SWAP2 SWAP1 PUSH4 0xFFFFFFFF AND JUMP JUMPDEST PUSH2 0x6BC DUP8 PUSH1 0xC0 ADD MLOAD DUP3 PUSH2 0xB5B SWAP1 SWAP2 SWAP1 PUSH4 0xFFFFFFFF AND JUMP JUMPDEST PUSH2 0x6D3 DUP8 PUSH1 0xE0 ADD MLOAD DUP3 PUSH2 0xB5B SWAP1 SWAP2 SWAP1 PUSH4 0xFFFFFFFF AND JUMP JUMPDEST PUSH2 0x6E6 DUP5 DUP3 PUSH2 0xAF1 SWAP1 SWAP2 SWAP1 PUSH4 0xFFFFFFFF AND JUMP JUMPDEST PUSH2 0x6F9 DUP4 DUP3 PUSH2 0xAF1 SWAP1 SWAP2 SWAP1 PUSH4 0xFFFFFFFF AND JUMP JUMPDEST PUSH2 0x70C DUP3 DUP3 PUSH2 0xAF1 SWAP1 SWAP2 SWAP1 PUSH4 0xFFFFFFFF AND JUMP JUMPDEST PUSH2 0x715 DUP2 PUSH2 0xB72 JUMP JUMPDEST SWAP6 POP POP POP POP POP POP SWAP2 SWAP1 POP JUMP JUMPDEST PUSH2 0x729 PUSH2 0x1167 JUMP JUMPDEST JUMPDEST PUSH1 0x1 ISZERO PUSH2 0x793 JUMPI PUSH1 0x0 PUSH1 0x7F DUP4 AND SWAP1 POP PUSH1 0x7 DUP4 PUSH8 0xFFFFFFFFFFFFFFFF AND SWAP1 SHR SWAP3 POP PUSH1 0x0 DUP4 PUSH8 0xFFFFFFFFFFFFFFFF AND SUB PUSH2 0x776 JUMPI PUSH2 0x76F DUP2 DUP4 PUSH2 0xBCB SWAP1 SWAP2 SWAP1 PUSH4 0xFFFFFFFF AND JUMP JUMPDEST POP POP PUSH2 0x794 JUMP JUMPDEST PUSH2 0x78C PUSH1 0x80 DUP3 OR DUP4 PUSH2 0xBCB SWAP1 SWAP2 SWAP1 PUSH4 0xFFFFFFFF AND JUMP JUMPDEST POP POP PUSH2 0x72A JUMP JUMPDEST JUMPDEST SWAP2 SWAP1 POP JUMP JUMPDEST PUSH1 0x60 PUSH1 0x0 PUSH1 0x1 DUP4 PUSH1 0x0 ADD MLOAD MLOAD PUSH2 0x7AF SWAP2 SWAP1 PUSH2 0x191C JUMP JUMPDEST PUSH8 0xFFFFFFFFFFFFFFFF DUP2 GT ISZERO PUSH2 0x7C8 JUMPI PUSH2 0x7C7 PUSH2 0x14C5 JUMP JUMPDEST JUMPDEST PUSH1 0x40 MLOAD SWAP1 DUP1 DUP3 MSTORE DUP1 PUSH1 0x1F ADD PUSH1 0x1F NOT AND PUSH1 0x20 ADD DUP3 ADD PUSH1 0x40 MSTORE DUP1 ISZERO PUSH2 0x7FA JUMPI DUP2 PUSH1 0x20 ADD PUSH1 0x1 DUP3 MUL DUP1 CALLDATASIZE DUP4 CALLDATACOPY DUP1 DUP3 ADD SWAP2 POP POP SWAP1 POP JUMPDEST POP SWAP1 POP PUSH1 0x1 ISZERO ISZERO DUP4 PUSH1 0x20 ADD MLOAD ISZERO ISZERO EQ PUSH2 0x817 JUMPI PUSH1 0x0 PUSH1 0xF8 SHL PUSH2 0x81D JUMP JUMPDEST PUSH1 0x1 PUSH1 0xF8 SHL JUMPDEST DUP2 PUSH1 0x0 DUP2 MLOAD DUP2 LT PUSH2 0x831 JUMPI PUSH2 0x830 PUSH2 0x1950 JUMP JUMPDEST JUMPDEST PUSH1 0x20 ADD ADD SWAP1 PUSH31 0xFFFFFFFFFFFFFFFFFFFFFFFFFFFFFFFFFFFFFFFFFFFFFFFFFFFFFFFFFFFFFF NOT AND SWAP1 DUP2 PUSH1 0x0 BYTE SWAP1 MSTORE8 POP PUSH1 0x0 PUSH1 0x1 SWAP1 POP PUSH1 0x0 JUMPDEST DUP5 PUSH1 0x0 ADD MLOAD MLOAD DUP2 LT ISZERO PUSH2 0x8FB JUMPI DUP5 PUSH1 0x0 ADD MLOAD DUP2 DUP2 MLOAD DUP2 LT PUSH2 0x88D JUMPI PUSH2 0x88C PUSH2 0x1950 JUMP JUMPDEST JUMPDEST PUSH1 0x20 ADD ADD MLOAD PUSH1 0xF8 SHR PUSH1 0xF8 SHL DUP4 DUP4 DUP2 MLOAD DUP2 LT PUSH2 0x8AB JUMPI PUSH2 0x8AA PUSH2 0x1950 JUMP JUMPDEST JUMPDEST PUSH1 0x20 ADD ADD SWAP1 PUSH31 0xFFFFFFFFFFFFFFFFFFFFFFFFFFFFFFFFFFFFFFFFFFFFFFFFFFFFFFFFFFFFFF NOT AND SWAP1 DUP2 PUSH1 0x0 BYTE SWAP1 MSTORE8 POP DUP2 DUP1 PUSH2 0x8E5 SWAP1 PUSH2 0x197F JUMP JUMPDEST SWAP3 POP POP DUP1 DUP1 PUSH2 0x8F3 SWAP1 PUSH2 0x197F JUMP JUMPDEST SWAP2 POP POP PUSH2 0x869 JUMP JUMPDEST POP DUP2 SWAP3 POP POP POP SWAP2 SWAP1 POP JUMP JUMPDEST PUSH1 0x0 PUSH1 0x17 DUP3 GT PUSH2 0x919 JUMPI PUSH1 0x1 SWAP1 POP PUSH2 0x955 JUMP JUMPDEST PUSH1 0xFF DUP3 GT PUSH2 0x92A JUMPI PUSH1 0x2 SWAP1 POP PUSH2 0x955 JUMP JUMPDEST PUSH2 0xFFFF DUP3 GT PUSH2 0x93C JUMPI PUSH1 0x3 SWAP1 POP PUSH2 0x955 JUMP JUMPDEST PUSH4 0xFFFFFFFF DUP3 GT PUSH2 0x950 JUMPI PUSH1 0x5 SWAP1 POP PUSH2 0x955 JUMP JUMPDEST PUSH1 0x9 SWAP1 POP JUMPDEST SWAP2 SWAP1 POP JUMP JUMPDEST PUSH1 0x0 DUP2 MLOAD PUSH2 0x968 PUSH1 0x2 PUSH2 0x906 JUMP JUMPDEST PUSH2 0x972 SWAP2 SWAP1 PUSH2 0x191C JUMP JUMPDEST SWAP1 POP SWAP2 SWAP1 POP JUMP JUMPDEST PUSH1 0x0 PUSH2 0x985 PUSH1 0x1 PUSH2 0x906 JUMP JUMPDEST SWAP1 POP SWAP1 JUMP JUMPDEST PUSH1 0x0 DUP2 MLOAD PUSH2 0x998 DUP4 MLOAD PUSH2 0x906 JUMP JUMPDEST PUSH2 0x9A2 SWAP2 SWAP1 PUSH2 0x191C JUMP JUMPDEST SWAP1 POP SWAP2 SWAP1 POP JUMP JUMPDEST PUSH1 0x0 DUP1 DUP3 SWAP1 POP PUSH1 0x0 DUP2 PUSH1 0x7 SIGNEXTEND SLT PUSH2 0x9D5 JUMPI PUSH2 0x9CD DUP2 PUSH8 0xFFFFFFFFFFFFFFFF AND PUSH2 0x906 JUMP JUMPDEST SWAP2 POP POP PUSH2 0xA17 JUMP JUMPDEST PUSH2 0xA13 DUP2 PUSH32 0xFFFFFFFFFFFFFFFFFFFFFFFFFFFFFFFFFFFFFFFFFFFFFFFFFFFFFFFFFFFFFFFF PUSH2 0xA04 SWAP2 SWAP1 PUSH2 0x19C7 JUMP JUMPDEST PUSH8 0xFFFFFFFFFFFFFFFF AND PUSH2 0x906 JUMP JUMPDEST SWAP2 POP POP JUMPDEST SWAP2 SWAP1 POP JUMP JUMPDEST PUSH2 0xA24 PUSH2 0x1181 JUMP JUMPDEST PUSH2 0xA32 DUP2 PUSH1 0x0 ADD MLOAD DUP4 PUSH2 0xC35 JUMP JUMPDEST POP PUSH1 0x0 DUP2 PUSH1 0x20 ADD DUP2 DUP2 MSTORE POP POP SWAP2 SWAP1 POP JUMP JUMPDEST PUSH2 0xA4F DUP3 PUSH1 0x4 DUP4 PUSH2 0xCAE JUMP JUMPDEST POP POP JUMP JUMPDEST PUSH2 0xA75 PUSH1 0x18 PUSH1 0x5 PUSH1 0x6 PUSH1 0xFF AND SWAP1 SHL OR DUP4 PUSH1 0x0 ADD MLOAD PUSH2 0xBCB SWAP1 SWAP2 SWAP1 PUSH4 0xFFFFFFFF AND JUMP JUMPDEST POP PUSH2 0xA8E PUSH1 0x2A DUP4 PUSH1 0x0 ADD MLOAD PUSH2 0xBCB SWAP1 SWAP2 SWAP1 PUSH4 0xFFFFFFFF AND JUMP JUMPDEST POP PUSH2 0xAC1 DUP2 PUSH1 0x40 MLOAD PUSH1 0x20 ADD PUSH2 0xAA3 SWAP2 SWAP1 PUSH2 0x1A2E JUMP JUMPDEST PUSH1 0x40 MLOAD PUSH1 0x20 DUP2 DUP4 SUB SUB DUP2 MSTORE SWAP1 PUSH1 0x40 MSTORE DUP4 PUSH2 0xAF1 SWAP1 SWAP2 SWAP1 PUSH4 0xFFFFFFFF AND JUMP JUMPDEST POP POP JUMP JUMPDEST PUSH2 0xAD1 DUP3 PUSH1 0x0 DUP4 PUSH2 0xCBE JUMP JUMPDEST POP POP JUMP JUMPDEST PUSH2 0xAED DUP3 DUP3 PUSH2 0xAE5 JUMPI PUSH1 0x14 PUSH2 0xAE8 JUMP JUMPDEST PUSH1 0x15 JUMPDEST PUSH2 0xE67 JUMP JUMPDEST POP POP JUMP JUMPDEST PUSH2 0xAFE DUP3 PUSH1 0x2 DUP4 MLOAD PUSH2 0xCBE JUMP JUMPDEST PUSH2 0xB15 DUP2 DUP4 PUSH1 0x0 ADD MLOAD PUSH2 0xE8D SWAP1 SWAP2 SWAP1 PUSH4 0xFFFFFFFF AND JUMP JUMPDEST POP POP POP JUMP JUMPDEST DUP1 PUSH1 0x20 ADD MLOAD PUSH2 0xB3F JUMPI PUSH2 0xB3A DUP2 PUSH1 0x0 ADD MLOAD DUP4 PUSH2 0xAF1 SWAP1 SWAP2 SWAP1 PUSH4 0xFFFFFFFF AND JUMP JUMPDEST PUSH2 0xB57 JUMP JUMPDEST PUSH2 0xB56 DUP2 PUSH1 0x0 ADD MLOAD DUP4 PUSH2 0xEA9 SWAP1 SWAP2 SWAP1 PUSH4 0xFFFFFFFF AND JUMP JUMPDEST JUMPDEST POP POP JUMP JUMPDEST PUSH2 0xB6E DUP2 DUP4 PUSH2 0xED2 SWAP1 SWAP2 SWAP1 PUSH4 0xFFFFFFFF AND JUMP JUMPDEST POP POP JUMP JUMPDEST PUSH1 0x60 PUSH1 0x0 DUP3 PUSH1 0x20 ADD MLOAD EQ PUSH2 0xBBB JUMPI PUSH1 0x40 MLOAD PUSH32 0x8C379A000000000000000000000000000000000000000000000000000000000 DUP2 MSTORE PUSH1 0x4 ADD PUSH2 0xBB2 SWAP1 PUSH2 0x1AB1 JUMP JUMPDEST PUSH1 0x40 MLOAD DUP1 SWAP2 SUB SWAP1 REVERT JUMPDEST DUP2 PUSH1 0x0 ADD MLOAD PUSH1 0x0 ADD MLOAD SWAP1 POP SWAP2 SWAP1 POP JUMP JUMPDEST PUSH2 0xBD3 PUSH2 0x1167 JUMP JUMPDEST PUSH1 0x0 DUP4 PUSH1 0x0 ADD MLOAD MLOAD SWAP1 POP PUSH1 0x0 PUSH1 0x1 DUP3 PUSH2 0xBEC SWAP2 SWAP1 PUSH2 0x191C JUMP JUMPDEST SWAP1 POP DUP5 PUSH1 0x20 ADD MLOAD DUP3 LT PUSH2 0xC10 JUMPI PUSH2 0xC0F DUP6 PUSH1 0x2 DUP4 PUSH2 0xC0A SWAP2 SWAP1 PUSH2 0x1AD1 JUMP JUMPDEST PUSH2 0xF2A JUMP JUMPDEST JUMPDEST DUP5 MLOAD PUSH1 0x20 DUP4 DUP3 ADD ADD DUP6 DUP2 MSTORE8 DUP2 MLOAD DUP4 GT ISZERO PUSH2 0xC28 JUMPI DUP3 DUP3 MSTORE JUMPDEST POP POP DUP5 SWAP3 POP POP POP SWAP3 SWAP2 POP POP JUMP JUMPDEST PUSH2 0xC3D PUSH2 0x1167 JUMP JUMPDEST PUSH1 0x0 PUSH1 0x20 DUP4 PUSH2 0xC4C SWAP2 SWAP1 PUSH2 0x1B42 JUMP JUMPDEST EQ PUSH2 0xC78 JUMPI PUSH1 0x20 DUP3 PUSH2 0xC5E SWAP2 SWAP1 PUSH2 0x1B42 JUMP JUMPDEST PUSH1 0x20 PUSH2 0xC6A SWAP2 SWAP1 PUSH2 0x1B73 JUMP JUMPDEST DUP3 PUSH2 0xC75 SWAP2 SWAP1 PUSH2 0x191C JUMP JUMPDEST SWAP2 POP JUMPDEST DUP2 DUP4 PUSH1 0x20 ADD DUP2 DUP2 MSTORE POP POP PUSH1 0x40 MLOAD DUP1 DUP5 MSTORE PUSH1 0x0 DUP2 MSTORE DUP3 DUP2 ADD PUSH1 0x20 ADD DUP2 DUP2 LT ISZERO PUSH2 0xC9F JUMPI PUSH1 0x0 DUP1 REVERT JUMPDEST DUP1 PUSH1 0x40 MSTORE POP POP DUP3 SWAP1 POP SWAP3 SWAP2 POP POP JUMP JUMPDEST PUSH2 0xCB9 DUP4 DUP4 DUP4 PUSH2 0xCBE JUMP JUMPDEST POP POP POP JUMP JUMPDEST PUSH1 0x17 DUP2 PUSH8 0xFFFFFFFFFFFFFFFF AND GT PUSH2 0xCF9 JUMPI PUSH2 0xCF3 DUP2 PUSH1 0x5 DUP5 PUSH1 0xFF AND SWAP1 SHL PUSH1 0xFF AND OR DUP5 PUSH1 0x0 ADD MLOAD PUSH2 0xBCB SWAP1 SWAP2 SWAP1 PUSH4 0xFFFFFFFF AND JUMP JUMPDEST POP PUSH2 0xE62 JUMP JUMPDEST PUSH1 0xFF DUP2 PUSH8 0xFFFFFFFFFFFFFFFF AND GT PUSH2 0xD57 JUMPI PUSH2 0xD2C PUSH1 0x18 PUSH1 0x5 DUP5 PUSH1 0xFF AND SWAP1 SHL OR DUP5 PUSH1 0x0 ADD MLOAD PUSH2 0xBCB SWAP1 SWAP2 SWAP1 PUSH4 0xFFFFFFFF AND JUMP JUMPDEST POP PUSH2 0xD51 DUP2 PUSH8 0xFFFFFFFFFFFFFFFF AND PUSH1 0x1 DUP6 PUSH1 0x0 ADD MLOAD PUSH2 0xF4E SWAP1 SWAP3 SWAP2 SWAP1 PUSH4 0xFFFFFFFF AND JUMP JUMPDEST POP PUSH2 0xE61 JUMP JUMPDEST PUSH2 0xFFFF DUP2 PUSH8 0xFFFFFFFFFFFFFFFF AND GT PUSH2 0xDB6 JUMPI PUSH2 0xD8B PUSH1 0x19 PUSH1 0x5 DUP5 PUSH1 0xFF AND SWAP1 SHL OR DUP5 PUSH1 0x0 ADD MLOAD PUSH2 0xBCB SWAP1 SWAP2 SWAP1 PUSH4 0xFFFFFFFF AND JUMP JUMPDEST POP PUSH2 0xDB0 DUP2 PUSH8 0xFFFFFFFFFFFFFFFF AND PUSH1 0x2 DUP6 PUSH1 0x0 ADD MLOAD PUSH2 0xF4E SWAP1 SWAP3 SWAP2 SWAP1 PUSH4 0xFFFFFFFF AND JUMP JUMPDEST POP PUSH2 0xE60 JUMP JUMPDEST PUSH4 0xFFFFFFFF DUP2 PUSH8 0xFFFFFFFFFFFFFFFF AND GT PUSH2 0xE17 JUMPI PUSH2 0xDEC PUSH1 0x1A PUSH1 0x5 DUP5 PUSH1 0xFF AND SWAP1 SHL OR DUP5 PUSH1 0x0 ADD MLOAD PUSH2 0xBCB SWAP1 SWAP2 SWAP1 PUSH4 0xFFFFFFFF AND JUMP JUMPDEST POP PUSH2 0xE11 DUP2 PUSH8 0xFFFFFFFFFFFFFFFF AND PUSH1 0x4 DUP6 PUSH1 0x0 ADD MLOAD PUSH2 0xF4E SWAP1 SWAP3 SWAP2 SWAP1 PUSH4 0xFFFFFFFF AND JUMP JUMPDEST POP PUSH2 0xE5F JUMP JUMPDEST PUSH2 0xE38 PUSH1 0x1B PUSH1 0x5 DUP5 PUSH1 0xFF AND SWAP1 SHL OR DUP5 PUSH1 0x0 ADD MLOAD PUSH2 0xBCB SWAP1 SWAP2 SWAP1 PUSH4 0xFFFFFFFF AND JUMP JUMPDEST POP PUSH2 0xE5D DUP2 PUSH8 0xFFFFFFFFFFFFFFFF AND PUSH1 0x8 DUP6 PUSH1 0x0 ADD MLOAD PUSH2 0xF4E SWAP1 SWAP3 SWAP2 SWAP1 PUSH4 0xFFFFFFFF AND JUMP JUMPDEST POP JUMPDEST JUMPDEST JUMPDEST JUMPDEST POP POP POP JUMP JUMPDEST PUSH2 0xE88 DUP2 PUSH1 0x5 PUSH1 0x7 PUSH1 0xFF AND SWAP1 SHL OR DUP4 PUSH1 0x0 ADD MLOAD PUSH2 0xBCB SWAP1 SWAP2 SWAP1 PUSH4 0xFFFFFFFF AND JUMP JUMPDEST POP POP POP JUMP JUMPDEST PUSH2 0xE95 PUSH2 0x1167 JUMP JUMPDEST PUSH2 0xEA1 DUP4 DUP4 DUP5 MLOAD PUSH2 0xFDB JUMP JUMPDEST SWAP1 POP SWAP3 SWAP2 POP POP JUMP JUMPDEST PUSH2 0xEB6 DUP3 PUSH1 0x3 DUP4 MLOAD PUSH2 0xCBE JUMP JUMPDEST PUSH2 0xECD DUP2 DUP4 PUSH1 0x0 ADD MLOAD PUSH2 0xE8D SWAP1 SWAP2 SWAP1 PUSH4 0xFFFFFFFF AND JUMP JUMPDEST POP POP POP JUMP JUMPDEST PUSH1 0x0 DUP2 PUSH1 0x7 SIGNEXTEND SLT PUSH2 0xEEE JUMPI PUSH2 0xEE9 DUP3 PUSH1 0x0 DUP4 PUSH2 0xCBE JUMP JUMPDEST PUSH2 0xF26 JUMP JUMPDEST PUSH2 0xF25 DUP3 PUSH1 0x1 DUP4 PUSH32 0xFFFFFFFFFFFFFFFFFFFFFFFFFFFFFFFFFFFFFFFFFFFFFFFFFFFFFFFFFFFFFFFF PUSH2 0xF20 SWAP2 SWAP1 PUSH2 0x19C7 JUMP JUMPDEST PUSH2 0xCBE JUMP JUMPDEST JUMPDEST POP POP JUMP JUMPDEST PUSH1 0x0 DUP3 PUSH1 0x0 ADD MLOAD SWAP1 POP PUSH2 0xF3D DUP4 DUP4 PUSH2 0xC35 JUMP JUMPDEST POP PUSH2 0xF48 DUP4 DUP3 PUSH2 0xE8D JUMP JUMPDEST POP POP POP POP JUMP JUMPDEST PUSH2 0xF56 PUSH2 0x1167 JUMP JUMPDEST PUSH1 0x0 DUP5 PUSH1 0x0 ADD MLOAD MLOAD SWAP1 POP PUSH1 0x0 DUP2 DUP5 PUSH2 0xF6E SWAP2 SWAP1 PUSH2 0x191C JUMP JUMPDEST SWAP1 POP DUP6 PUSH1 0x20 ADD MLOAD DUP2 GT ISZERO PUSH2 0xF93 JUMPI PUSH2 0xF92 DUP7 PUSH1 0x2 DUP4 PUSH2 0xF8D SWAP2 SWAP1 PUSH2 0x1AD1 JUMP JUMPDEST PUSH2 0xF2A JUMP JUMPDEST JUMPDEST PUSH1 0x0 PUSH1 0x1 DUP6 PUSH2 0x100 PUSH2 0xFA5 SWAP2 SWAP1 PUSH2 0x1CDA JUMP JUMPDEST PUSH2 0xFAF SWAP2 SWAP1 PUSH2 0x1B73 JUMP JUMPDEST SWAP1 POP DUP7 MLOAD DUP3 DUP2 ADD DUP8 DUP4 NOT DUP3 MLOAD AND OR DUP2 MSTORE DUP2 MLOAD DUP5 GT ISZERO PUSH2 0xFCC JUMPI DUP4 DUP3 MSTORE JUMPDEST POP POP DUP7 SWAP4 POP POP POP POP SWAP4 SWAP3 POP POP POP JUMP JUMPDEST PUSH2 0xFE3 PUSH2 0x1167 JUMP JUMPDEST DUP3 MLOAD DUP3 GT ISZERO PUSH2 0xFF1 JUMPI PUSH1 0x0 DUP1 REVERT JUMPDEST PUSH1 0x0 DUP5 PUSH1 0x0 ADD MLOAD MLOAD SWAP1 POP PUSH1 0x0 DUP4 DUP3 PUSH2 0x1009 SWAP2 SWAP1 PUSH2 0x191C JUMP JUMPDEST SWAP1 POP DUP6 PUSH1 0x20 ADD MLOAD DUP2 GT ISZERO PUSH2 0x102E JUMPI PUSH2 0x102D DUP7 PUSH1 0x2 DUP4 PUSH2 0x1028 SWAP2 SWAP1 PUSH2 0x1AD1 JUMP JUMPDEST PUSH2 0xF2A JUMP JUMPDEST JUMPDEST PUSH1 0x0 DUP1 DUP8 MLOAD DUP1 MLOAD DUP6 PUSH1 0x20 DUP4 ADD ADD SWAP4 POP DUP1 DUP6 GT ISZERO PUSH2 0x1049 JUMPI DUP5 DUP3 MSTORE JUMPDEST PUSH1 0x20 DUP10 ADD SWAP3 POP POP POP JUMPDEST PUSH1 0x20 DUP7 LT PUSH2 0x1090 JUMPI DUP1 MLOAD DUP3 MSTORE PUSH1 0x20 DUP3 PUSH2 0x106B SWAP2 SWAP1 PUSH2 0x191C JUMP JUMPDEST SWAP2 POP PUSH1 0x20 DUP2 PUSH2 0x107A SWAP2 SWAP1 PUSH2 0x191C JUMP JUMPDEST SWAP1 POP PUSH1 0x20 DUP7 PUSH2 0x1089 SWAP2 SWAP1 PUSH2 0x1B73 JUMP JUMPDEST SWAP6 POP PUSH2 0x1052 JUMP JUMPDEST PUSH1 0x0 PUSH1 0x1 DUP8 PUSH1 0x20 SUB PUSH2 0x100 EXP SUB SWAP1 POP DUP1 NOT DUP3 MLOAD AND DUP2 DUP5 MLOAD AND DUP2 DUP2 OR DUP6 MSTORE POP POP POP DUP8 SWAP5 POP POP POP POP POP SWAP4 SWAP3 POP POP POP JUMP JUMPDEST PUSH1 0x40 MLOAD DUP1 PUSH2 0x160 ADD PUSH1 0x40 MSTORE DUP1 PUSH2 0x10D2 PUSH2 0x11A1 JUMP JUMPDEST DUP2 MSTORE PUSH1 0x20 ADD PUSH1 0x0 PUSH8 0xFFFFFFFFFFFFFFFF AND DUP2 MSTORE PUSH1 0x20 ADD PUSH1 0x0 ISZERO ISZERO DUP2 MSTORE PUSH1 0x20 ADD PUSH2 0x10F9 PUSH2 0x1154 JUMP JUMPDEST DUP2 MSTORE PUSH1 0x20 ADD PUSH2 0x1106 PUSH2 0x1154 JUMP JUMPDEST DUP2 MSTORE PUSH1 0x20 ADD PUSH2 0x1113 PUSH2 0x11B4 JUMP JUMPDEST DUP2 MSTORE PUSH1 0x20 ADD PUSH1 0x0 PUSH1 0x7 SIGNEXTEND DUP2 MSTORE PUSH1 0x20 ADD PUSH1 0x0 PUSH1 0x7 SIGNEXTEND DUP2 MSTORE PUSH1 0x20 ADD PUSH2 0x1134 PUSH2 0x11D0 JUMP JUMPDEST DUP2 MSTORE PUSH1 0x20 ADD PUSH2 0x1141 PUSH2 0x11D0 JUMP JUMPDEST DUP2 MSTORE PUSH1 0x20 ADD PUSH2 0x114E PUSH2 0x11D0 JUMP JUMPDEST DUP2 MSTORE POP SWAP1 JUMP JUMPDEST PUSH1 0x40 MLOAD DUP1 PUSH1 0x20 ADD PUSH1 0x40 MSTORE DUP1 PUSH1 0x60 DUP2 MSTORE POP SWAP1 JUMP JUMPDEST PUSH1 0x40 MLOAD DUP1 PUSH1 0x40 ADD PUSH1 0x40 MSTORE DUP1 PUSH1 0x60 DUP2 MSTORE PUSH1 0x20 ADD PUSH1 0x0 DUP2 MSTORE POP SWAP1 JUMP JUMPDEST PUSH1 0x40 MLOAD DUP1 PUSH1 0x40 ADD PUSH1 0x40 MSTORE DUP1 PUSH2 0x1194 PUSH2 0x1167 JUMP JUMPDEST DUP2 MSTORE PUSH1 0x20 ADD PUSH1 0x0 DUP2 MSTORE POP SWAP1 JUMP JUMPDEST PUSH1 0x40 MLOAD DUP1 PUSH1 0x20 ADD PUSH1 0x40 MSTORE DUP1 PUSH1 0x60 DUP2 MSTORE POP SWAP1 JUMP JUMPDEST PUSH1 0x40 MLOAD DUP1 PUSH1 0x40 ADD PUSH1 0x40 MSTORE DUP1 PUSH1 0x60 DUP2 MSTORE PUSH1 0x20 ADD PUSH1 0x0 ISZERO ISZERO DUP2 MSTORE POP SWAP1 JUMP JUMPDEST PUSH1 0x40 MLOAD DUP1 PUSH1 0x40 ADD PUSH1 0x40 MSTORE DUP1 PUSH1 0x60 DUP2 MSTORE PUSH1 0x20 ADD PUSH1 0x0 ISZERO ISZERO DUP2 MSTORE POP SWAP1 JUMP JUMPDEST PUSH1 0x0 PUSH1 0x40 MLOAD SWAP1 POP SWAP1 JUMP JUMPDEST PUSH1 0x0 DUP1 REVERT JUMPDEST PUSH1 0x0 DUP1 REVERT JUMPDEST PUSH1 0x0 DUP1 REVERT JUMPDEST PUSH1 0x0 PUSH2 0x180 DUP3 DUP5 SUB SLT ISZERO PUSH2 0x121C JUMPI PUSH2 0x121B PUSH2 0x1200 JUMP JUMPDEST JUMPDEST DUP2 SWAP1 POP SWAP3 SWAP2 POP POP JUMP JUMPDEST PUSH1 0x0 PUSH1 0x20 DUP3 DUP5 SUB SLT ISZERO PUSH2 0x123B JUMPI PUSH2 0x123A PUSH2 0x11F6 JUMP JUMPDEST JUMPDEST PUSH1 0x0 DUP3 ADD CALLDATALOAD PUSH8 0xFFFFFFFFFFFFFFFF DUP2 GT ISZERO PUSH2 0x1259 JUMPI PUSH2 0x1258 PUSH2 0x11FB JUMP JUMPDEST JUMPDEST PUSH2 0x1265 DUP5 DUP3 DUP6 ADD PUSH2 0x1205 JUMP JUMPDEST SWAP2 POP POP SWAP3 SWAP2 POP POP JUMP JUMPDEST PUSH1 0x0 DUP2 MLOAD SWAP1 POP SWAP2 SWAP1 POP JUMP JUMPDEST PUSH1 0x0 DUP3 DUP3 MSTORE PUSH1 0x20 DUP3 ADD SWAP1 POP SWAP3 SWAP2 POP POP JUMP JUMPDEST PUSH1 0x0 JUMPDEST DUP4 DUP2 LT ISZERO PUSH2 0x12A8 JUMPI DUP1 DUP3 ADD MLOAD DUP2 DUP5 ADD MSTORE PUSH1 0x20 DUP2 ADD SWAP1 POP PUSH2 0x128D JUMP JUMPDEST PUSH1 0x0 DUP5 DUP5 ADD MSTORE POP POP POP POP JUMP JUMPDEST PUSH1 0x0 PUSH1 0x1F NOT PUSH1 0x1F DUP4 ADD AND SWAP1 POP SWAP2 SWAP1 POP JUMP JUMPDEST PUSH1 0x0 PUSH2 0x12D0 DUP3 PUSH2 0x126E JUMP JUMPDEST PUSH2 0x12DA DUP2 DUP6 PUSH2 0x1279 JUMP JUMPDEST SWAP4 POP PUSH2 0x12EA DUP2 DUP6 PUSH1 0x20 DUP7 ADD PUSH2 0x128A JUMP JUMPDEST PUSH2 0x12F3 DUP2 PUSH2 0x12B4 JUMP JUMPDEST DUP5 ADD SWAP2 POP POP SWAP3 SWAP2 POP POP JUMP JUMPDEST PUSH1 0x0 PUSH1 0x20 DUP3 ADD SWAP1 POP DUP2 DUP2 SUB PUSH1 0x0 DUP4 ADD MSTORE PUSH2 0x1318 DUP2 DUP5 PUSH2 0x12C5 JUMP JUMPDEST SWAP1 POP SWAP3 SWAP2 POP POP JUMP JUMPDEST PUSH1 0x0 DUP1 REVERT JUMPDEST PUSH1 0x0 DUP1 REVERT JUMPDEST PUSH1 0x0 DUP1 REVERT JUMPDEST PUSH1 0x0 DUP1 DUP4 CALLDATALOAD PUSH1 0x1 PUSH1 0x20 SUB DUP5 CALLDATASIZE SUB SUB DUP2 SLT PUSH2 0x134C JUMPI PUSH2 0x134B PUSH2 0x1320 JUMP JUMPDEST JUMPDEST DUP1 DUP5 ADD SWAP3 POP DUP3 CALLDATALOAD SWAP2 POP PUSH8 0xFFFFFFFFFFFFFFFF DUP3 GT ISZERO PUSH2 0x136E JUMPI PUSH2 0x136D PUSH2 0x1325 JUMP JUMPDEST JUMPDEST PUSH1 0x20 DUP4 ADD SWAP3 POP PUSH1 0x1 DUP3 MUL CALLDATASIZE SUB DUP4 SGT ISZERO PUSH2 0x138A JUMPI PUSH2 0x1389 PUSH2 0x132A JUMP JUMPDEST JUMPDEST POP SWAP3 POP SWAP3 SWAP1 POP JUMP JUMPDEST PUSH1 0x0 PUSH8 0xFFFFFFFFFFFFFFFF DUP3 AND SWAP1 POP SWAP2 SWAP1 POP JUMP JUMPDEST PUSH2 0x13AF DUP2 PUSH2 0x1392 JUMP JUMPDEST DUP2 EQ PUSH2 0x13BA JUMPI PUSH1 0x0 DUP1 REVERT JUMPDEST POP JUMP JUMPDEST PUSH1 0x0 DUP2 CALLDATALOAD SWAP1 POP PUSH2 0x13CC DUP2 PUSH2 0x13A6 JUMP JUMPDEST SWAP3 SWAP2 POP POP JUMP JUMPDEST PUSH1 0x0 PUSH1 0x20 DUP3 DUP5 SUB SLT ISZERO PUSH2 0x13E8 JUMPI PUSH2 0x13E7 PUSH2 0x11F6 JUMP JUMPDEST JUMPDEST PUSH1 0x0 PUSH2 0x13F6 DUP5 DUP3 DUP6 ADD PUSH2 0x13BD JUMP JUMPDEST SWAP2 POP POP SWAP3 SWAP2 POP POP JUMP JUMPDEST PUSH1 0x0 DUP2 ISZERO ISZERO SWAP1 POP SWAP2 SWAP1 POP JUMP JUMPDEST PUSH2 0x1414 DUP2 PUSH2 0x13FF JUMP JUMPDEST DUP2 EQ PUSH2 0x141F JUMPI PUSH1 0x0 DUP1 REVERT JUMPDEST POP JUMP JUMPDEST PUSH1 0x0 DUP2 CALLDATALOAD SWAP1 POP PUSH2 0x1431 DUP2 PUSH2 0x140B JUMP JUMPDEST SWAP3 SWAP2 POP POP JUMP JUMPDEST PUSH1 0x0 PUSH1 0x20 DUP3 DUP5 SUB SLT ISZERO PUSH2 0x144D JUMPI PUSH2 0x144C PUSH2 0x11F6 JUMP JUMPDEST JUMPDEST PUSH1 0x0 PUSH2 0x145B DUP5 DUP3 DUP6 ADD PUSH2 0x1422 JUMP JUMPDEST SWAP2 POP POP SWAP3 SWAP2 POP POP JUMP JUMPDEST PUSH1 0x0 PUSH20 0xFFFFFFFFFFFFFFFFFFFFFFFFFFFFFFFFFFFFFFFF DUP3 AND SWAP1 POP SWAP2 SWAP1 POP JUMP JUMPDEST PUSH1 0x0 PUSH2 0x148F DUP3 PUSH2 0x1464 JUMP JUMPDEST SWAP1 POP SWAP2 SWAP1 POP JUMP JUMPDEST PUSH2 0x149F DUP2 PUSH2 0x1484 JUMP JUMPDEST DUP3 MSTORE POP POP JUMP JUMPDEST PUSH1 0x0 PUSH1 0x20 DUP3 ADD SWAP1 POP PUSH2 0x14BA PUSH1 0x0 DUP4 ADD DUP5 PUSH2 0x1496 JUMP JUMPDEST SWAP3 SWAP2 POP POP JUMP JUMPDEST PUSH1 0x0 DUP1 REVERT JUMPDEST PUSH32 0x4E487B7100000000000000000000000000000000000000000000000000000000 PUSH1 0x0 MSTORE PUSH1 0x41 PUSH1 0x4 MSTORE PUSH1 0x24 PUSH1 0x0 REVERT JUMPDEST PUSH2 0x14FD DUP3 PUSH2 0x12B4 JUMP JUMPDEST DUP2 ADD DUP2 DUP2 LT PUSH8 0xFFFFFFFFFFFFFFFF DUP3 GT OR ISZERO PUSH2 0x151C JUMPI PUSH2 0x151B PUSH2 0x14C5 JUMP JUMPDEST JUMPDEST DUP1 PUSH1 0x40 MSTORE POP POP POP JUMP JUMPDEST PUSH1 0x0 PUSH2 0x152F PUSH2 0x11EC JUMP JUMPDEST SWAP1 POP PUSH2 0x153B DUP3 DUP3 PUSH2 0x14F4 JUMP JUMPDEST SWAP2 SWAP1 POP JUMP JUMPDEST PUSH1 0x0 DUP1 REVERT JUMPDEST PUSH1 0x0 DUP1 REVERT JUMPDEST PUSH1 0x0 DUP1 REVERT JUMPDEST PUSH1 0x0 PUSH8 0xFFFFFFFFFFFFFFFF DUP3 GT ISZERO PUSH2 0x156A JUMPI PUSH2 0x1569 PUSH2 0x14C5 JUMP JUMPDEST JUMPDEST PUSH2 0x1573 DUP3 PUSH2 0x12B4 JUMP JUMPDEST SWAP1 POP PUSH1 0x20 DUP2 ADD SWAP1 POP SWAP2 SWAP1 POP JUMP JUMPDEST PUSH1 0x0 PUSH2 0x1593 PUSH2 0x158E DUP5 PUSH2 0x154F JUMP JUMPDEST PUSH2 0x1525 JUMP JUMPDEST SWAP1 POP DUP3 DUP2 MSTORE PUSH1 0x20 DUP2 ADD DUP5 DUP5 DUP5 ADD GT ISZERO PUSH2 0x15AF JUMPI PUSH2 0x15AE PUSH2 0x154A JUMP JUMPDEST JUMPDEST PUSH2 0x15BA DUP5 DUP3 DUP6 PUSH2 0x128A JUMP JUMPDEST POP SWAP4 SWAP3 POP POP POP JUMP JUMPDEST PUSH1 0x0 DUP3 PUSH1 0x1F DUP4 ADD SLT PUSH2 0x15D7 JUMPI PUSH2 0x15D6 PUSH2 0x1545 JUMP JUMPDEST JUMPDEST DUP2 MLOAD PUSH2 0x15E7 DUP5 DUP3 PUSH1 0x20 DUP7 ADD PUSH2 0x1580 JUMP JUMPDEST SWAP2 POP POP SWAP3 SWAP2 POP POP JUMP JUMPDEST PUSH1 0x0 PUSH1 0x20 DUP3 DUP5 SUB SLT ISZERO PUSH2 0x1606 JUMPI PUSH2 0x1605 PUSH2 0x14C0 JUMP JUMPDEST JUMPDEST PUSH2 0x1610 PUSH1 0x20 PUSH2 0x1525 JUMP JUMPDEST SWAP1 POP PUSH1 0x0 DUP3 ADD MLOAD PUSH8 0xFFFFFFFFFFFFFFFF DUP2 GT ISZERO PUSH2 0x1630 JUMPI PUSH2 0x162F PUSH2 0x1540 JUMP JUMPDEST JUMPDEST PUSH2 0x163C DUP5 DUP3 DUP6 ADD PUSH2 0x15C2 JUMP JUMPDEST PUSH1 0x0 DUP4 ADD MSTORE POP SWAP3 SWAP2 POP POP JUMP JUMPDEST PUSH1 0x0 PUSH1 0x20 DUP3 DUP5 SUB SLT ISZERO PUSH2 0x165E JUMPI PUSH2 0x165D PUSH2 0x11F6 JUMP JUMPDEST JUMPDEST PUSH1 0x0 DUP3 ADD MLOAD PUSH8 0xFFFFFFFFFFFFFFFF DUP2 GT ISZERO PUSH2 0x167C JUMPI PUSH2 0x167B PUSH2 0x11FB JUMP JUMPDEST JUMPDEST PUSH2 0x1688 DUP5 DUP3 DUP6 ADD PUSH2 0x15F0 JUMP JUMPDEST SWAP2 POP POP SWAP3 SWAP2 POP POP JUMP JUMPDEST PUSH1 0x0 DUP1 DUP4 CALLDATALOAD PUSH1 0x1 PUSH1 0x20 SUB DUP5 CALLDATASIZE SUB SUB DUP2 SLT PUSH2 0x16AE JUMPI PUSH2 0x16AD PUSH2 0x1320 JUMP JUMPDEST JUMPDEST DUP1 DUP5 ADD SWAP3 POP DUP3 CALLDATALOAD SWAP2 POP PUSH8 0xFFFFFFFFFFFFFFFF DUP3 GT ISZERO PUSH2 0x16D0 JUMPI PUSH2 0x16CF PUSH2 0x1325 JUMP JUMPDEST JUMPDEST PUSH1 0x20 DUP4 ADD SWAP3 POP PUSH1 0x1 DUP3 MUL CALLDATASIZE SUB DUP4 SGT ISZERO PUSH2 0x16EC JUMPI PUSH2 0x16EB PUSH2 0x132A JUMP JUMPDEST JUMPDEST POP SWAP3 POP SWAP3 SWAP1 POP JUMP JUMPDEST PUSH1 0x0 DUP2 PUSH1 0x7 SIGNEXTEND SWAP1 POP SWAP2 SWAP1 POP JUMP JUMPDEST PUSH2 0x170A DUP2 PUSH2 0x16F4 JUMP JUMPDEST DUP2 EQ PUSH2 0x1715 JUMPI PUSH1 0x0 DUP1 REVERT JUMPDEST POP JUMP JUMPDEST PUSH1 0x0 DUP2 CALLDATALOAD SWAP1 POP PUSH2 0x1727 DUP2 PUSH2 0x1701 JUMP JUMPDEST SWAP3 SWAP2 POP POP JUMP JUMPDEST PUSH1 0x0 PUSH1 0x20 DUP3 DUP5 SUB SLT ISZERO PUSH2 0x1743 JUMPI PUSH2 0x1742 PUSH2 0x11F6 JUMP JUMPDEST JUMPDEST PUSH1 0x0 PUSH2 0x1751 DUP5 DUP3 DUP6 ADD PUSH2 0x1718 JUMP JUMPDEST SWAP2 POP POP SWAP3 SWAP2 POP POP JUMP JUMPDEST PUSH1 0x0 DUP2 SWAP1 POP SWAP2 SWAP1 POP JUMP JUMPDEST PUSH2 0x176D DUP2 PUSH2 0x175A JUMP JUMPDEST DUP3 MSTORE POP POP JUMP JUMPDEST PUSH1 0x0 PUSH1 0x20 DUP3 ADD SWAP1 POP PUSH2 0x1788 PUSH1 0x0 DUP4 ADD DUP5 PUSH2 0x1764 JUMP JUMPDEST SWAP3 SWAP2 POP POP JUMP JUMPDEST PUSH1 0x0 DUP2 MLOAD SWAP1 POP PUSH2 0x179D DUP2 PUSH2 0x140B JUMP JUMPDEST SWAP3 SWAP2 POP POP JUMP JUMPDEST PUSH1 0x0 PUSH1 0x40 DUP3 DUP5 SUB SLT ISZERO PUSH2 0x17B9 JUMPI PUSH2 0x17B8 PUSH2 0x14C0 JUMP JUMPDEST JUMPDEST PUSH2 0x17C3 PUSH1 0x40 PUSH2 0x1525 JUMP JUMPDEST SWAP1 POP PUSH1 0x0 DUP3 ADD MLOAD PUSH8 0xFFFFFFFFFFFFFFFF DUP2 GT ISZERO PUSH2 0x17E3 JUMPI PUSH2 0x17E2 PUSH2 0x1540 JUMP JUMPDEST JUMPDEST PUSH2 0x17EF DUP5 DUP3 DUP6 ADD PUSH2 0x15C2 JUMP JUMPDEST PUSH1 0x0 DUP4 ADD MSTORE POP PUSH1 0x20 PUSH2 0x1803 DUP5 DUP3 DUP6 ADD PUSH2 0x178E JUMP JUMPDEST PUSH1 0x20 DUP4 ADD MSTORE POP SWAP3 SWAP2 POP POP JUMP JUMPDEST PUSH1 0x0 PUSH1 0x20 DUP3 DUP5 SUB SLT ISZERO PUSH2 0x1825 JUMPI PUSH2 0x1824 PUSH2 0x11F6 JUMP JUMPDEST JUMPDEST PUSH1 0x0 DUP3 ADD MLOAD PUSH8 0xFFFFFFFFFFFFFFFF DUP2 GT ISZERO PUSH2 0x1843 JUMPI PUSH2 0x1842 PUSH2 0x11FB JUMP JUMPDEST JUMPDEST PUSH2 0x184F DUP5 DUP3 DUP6 ADD PUSH2 0x17A3 JUMP JUMPDEST SWAP2 POP POP SWAP3 SWAP2 POP POP JUMP JUMPDEST PUSH1 0x0 DUP2 SWAP1 POP SWAP3 SWAP2 POP POP JUMP JUMPDEST PUSH1 0x0 DUP1 DUP3 ADD MSTORE POP JUMP JUMPDEST PUSH1 0x0 PUSH2 0x1879 PUSH1 0x1 DUP4 PUSH2 0x1858 JUMP JUMPDEST SWAP2 POP PUSH2 0x1884 DUP3 PUSH2 0x1863 JUMP JUMPDEST PUSH1 0x1 DUP3 ADD SWAP1 POP SWAP2 SWAP1 POP JUMP JUMPDEST PUSH1 0x0 DUP2 SWAP1 POP SWAP3 SWAP2 POP POP JUMP JUMPDEST PUSH1 0x0 PUSH2 0x18A5 DUP3 PUSH2 0x126E JUMP JUMPDEST PUSH2 0x18AF DUP2 DUP6 PUSH2 0x188F JUMP JUMPDEST SWAP4 POP PUSH2 0x18BF DUP2 DUP6 PUSH1 0x20 DUP7 ADD PUSH2 0x128A JUMP JUMPDEST DUP1 DUP5 ADD SWAP2 POP POP SWAP3 SWAP2 POP POP JUMP JUMPDEST PUSH1 0x0 PUSH2 0x18D6 DUP3 PUSH2 0x186C JUMP JUMPDEST SWAP2 POP PUSH2 0x18E2 DUP3 DUP5 PUSH2 0x189A JUMP JUMPDEST SWAP2 POP DUP2 SWAP1 POP SWAP3 SWAP2 POP POP JUMP JUMPDEST PUSH32 0x4E487B7100000000000000000000000000000000000000000000000000000000 PUSH1 0x0 MSTORE PUSH1 0x11 PUSH1 0x4 MSTORE PUSH1 0x24 PUSH1 0x0 REVERT JUMPDEST PUSH1 0x0 PUSH2 0x1927 DUP3 PUSH2 0x175A JUMP JUMPDEST SWAP2 POP PUSH2 0x1932 DUP4 PUSH2 0x175A JUMP JUMPDEST SWAP3 POP DUP3 DUP3 ADD SWAP1 POP DUP1 DUP3 GT ISZERO PUSH2 0x194A JUMPI PUSH2 0x1949 PUSH2 0x18ED JUMP JUMPDEST JUMPDEST SWAP3 SWAP2 POP POP JUMP JUMPDEST PUSH32 0x4E487B7100000000000000000000000000000000000000000000000000000000 PUSH1 0x0 MSTORE PUSH1 0x32 PUSH1 0x4 MSTORE PUSH1 0x24 PUSH1 0x0 REVERT JUMPDEST PUSH1 0x0 PUSH2 0x198A DUP3 PUSH2 0x175A JUMP JUMPDEST SWAP2 POP PUSH32 0xFFFFFFFFFFFFFFFFFFFFFFFFFFFFFFFFFFFFFFFFFFFFFFFFFFFFFFFFFFFFFFFF DUP3 SUB PUSH2 0x19BC JUMPI PUSH2 0x19BB PUSH2 0x18ED JUMP JUMPDEST JUMPDEST PUSH1 0x1 DUP3 ADD SWAP1 POP SWAP2 SWAP1 POP JUMP JUMPDEST PUSH1 0x0 PUSH2 0x19D2 DUP3 PUSH2 0x16F4 JUMP JUMPDEST SWAP2 POP PUSH2 0x19DD DUP4 PUSH2 0x16F4 JUMP JUMPDEST SWAP3 POP DUP3 DUP3 SUB SWAP1 POP PUSH8 0x7FFFFFFFFFFFFFFF DUP2 SGT PUSH32 0xFFFFFFFFFFFFFFFFFFFFFFFFFFFFFFFFFFFFFFFFFFFFFFFF8000000000000000 DUP3 SLT OR ISZERO PUSH2 0x1A21 JUMPI PUSH2 0x1A20 PUSH2 0x18ED JUMP JUMPDEST JUMPDEST SWAP3 SWAP2 POP POP JUMP JUMPDEST PUSH1 0x0 DUP2 MSTORE POP JUMP JUMPDEST PUSH1 0x0 PUSH2 0x1A39 DUP3 PUSH2 0x1A27 JUMP JUMPDEST PUSH1 0x1 DUP3 ADD SWAP2 POP PUSH2 0x1A49 DUP3 DUP5 PUSH2 0x189A JUMP JUMPDEST SWAP2 POP DUP2 SWAP1 POP SWAP3 SWAP2 POP POP JUMP JUMPDEST PUSH1 0x0 DUP3 DUP3 MSTORE PUSH1 0x20 DUP3 ADD SWAP1 POP SWAP3 SWAP2 POP POP JUMP JUMPDEST PUSH32 0x496E76616C69642043424F520000000000000000000000000000000000000000 PUSH1 0x0 DUP3 ADD MSTORE POP JUMP JUMPDEST PUSH1 0x0 PUSH2 0x1A9B PUSH1 0xC DUP4 PUSH2 0x1A54 JUMP JUMPDEST SWAP2 POP PUSH2 0x1AA6 DUP3 PUSH2 0x1A65 JUMP JUMPDEST PUSH1 0x20 DUP3 ADD SWAP1 POP SWAP2 SWAP1 POP JUMP JUMPDEST PUSH1 0x0 PUSH1 0x20 DUP3 ADD SWAP1 POP DUP2 DUP2 SUB PUSH1 0x0 DUP4 ADD MSTORE PUSH2 0x1ACA DUP2 PUSH2 0x1A8E JUMP JUMPDEST SWAP1 POP SWAP2 SWAP1 POP JUMP JUMPDEST PUSH1 0x0 PUSH2 0x1ADC DUP3 PUSH2 0x175A JUMP JUMPDEST SWAP2 POP PUSH2 0x1AE7 DUP4 PUSH2 0x175A JUMP JUMPDEST SWAP3 POP DUP3 DUP3 MUL PUSH2 0x1AF5 DUP2 PUSH2 0x175A JUMP JUMPDEST SWAP2 POP DUP3 DUP3 DIV DUP5 EQ DUP4 ISZERO OR PUSH2 0x1B0C JUMPI PUSH2 0x1B0B PUSH2 0x18ED JUMP JUMPDEST JUMPDEST POP SWAP3 SWAP2 POP POP JUMP JUMPDEST PUSH32 0x4E487B7100000000000000000000000000000000000000000000000000000000 PUSH1 0x0 MSTORE PUSH1 0x12 PUSH1 0x4 MSTORE PUSH1 0x24 PUSH1 0x0 REVERT JUMPDEST PUSH1 0x0 PUSH2 0x1B4D DUP3 PUSH2 0x175A JUMP JUMPDEST SWAP2 POP PUSH2 0x1B58 DUP4 PUSH2 0x175A JUMP JUMPDEST SWAP3 POP DUP3 PUSH2 0x1B68 JUMPI PUSH2 0x1B67 PUSH2 0x1B13 JUMP JUMPDEST JUMPDEST DUP3 DUP3 MOD SWAP1 POP SWAP3 SWAP2 POP POP JUMP JUMPDEST PUSH1 0x0 PUSH2 0x1B7E DUP3 PUSH2 0x175A JUMP JUMPDEST SWAP2 POP PUSH2 0x1B89 DUP4 PUSH2 0x175A JUMP JUMPDEST SWAP3 POP DUP3 DUP3 SUB SWAP1 POP DUP2 DUP2 GT ISZERO PUSH2 0x1BA1 JUMPI PUSH2 0x1BA0 PUSH2 0x18ED JUMP JUMPDEST JUMPDEST SWAP3 SWAP2 POP POP JUMP JUMPDEST PUSH1 0x0 DUP2 PUSH1 0x1 SHR SWAP1 POP SWAP2 SWAP1 POP JUMP JUMPDEST PUSH1 0x0 DUP1 DUP3 SWAP2 POP DUP4 SWAP1 POP JUMPDEST PUSH1 0x1 DUP6 GT ISZERO PUSH2 0x1BFE JUMPI DUP1 DUP7 DIV DUP2 GT ISZERO PUSH2 0x1BDA JUMPI PUSH2 0x1BD9 PUSH2 0x18ED JUMP JUMPDEST JUMPDEST PUSH1 0x1 DUP6 AND ISZERO PUSH2 0x1BE9 JUMPI DUP1 DUP3 MUL SWAP2 POP JUMPDEST DUP1 DUP2 MUL SWAP1 POP PUSH2 0x1BF7 DUP6 PUSH2 0x1BA7 JUMP JUMPDEST SWAP5 POP PUSH2 0x1BBE JUMP JUMPDEST SWAP5 POP SWAP5 SWAP3 POP POP POP JUMP JUMPDEST PUSH1 0x0 DUP3 PUSH2 0x1C17 JUMPI PUSH1 0x1 SWAP1 POP PUSH2 0x1CD3 JUMP JUMPDEST DUP2 PUSH2 0x1C25 JUMPI PUSH1 0x0 SWAP1 POP PUSH2 0x1CD3 JUMP JUMPDEST DUP2 PUSH1 0x1 DUP2 EQ PUSH2 0x1C3B JUMPI PUSH1 0x2 DUP2 EQ PUSH2 0x1C45 JUMPI PUSH2 0x1C74 JUMP JUMPDEST PUSH1 0x1 SWAP2 POP POP PUSH2 0x1CD3 JUMP JUMPDEST PUSH1 0xFF DUP5 GT ISZERO PUSH2 0x1C57 JUMPI PUSH2 0x1C56 PUSH2 0x18ED JUMP JUMPDEST JUMPDEST DUP4 PUSH1 0x2 EXP SWAP2 POP DUP5 DUP3 GT ISZERO PUSH2 0x1C6E JUMPI PUSH2 0x1C6D PUSH2 0x18ED JUMP JUMPDEST JUMPDEST POP PUSH2 0x1CD3 JUMP JUMPDEST POP PUSH1 0x20 DUP4 LT PUSH2 0x133 DUP4 LT AND PUSH1 0x4E DUP5 LT PUSH1 0xB DUP5 LT AND OR ISZERO PUSH2 0x1CA9 JUMPI DUP3 DUP3 EXP SWAP1 POP DUP4 DUP2 GT ISZERO PUSH2 0x1CA4 JUMPI PUSH2 0x1CA3 PUSH2 0x18ED JUMP JUMPDEST JUMPDEST PUSH2 0x1CD3 JUMP JUMPDEST PUSH2 0x1CB6 DUP5 DUP5 DUP5 PUSH1 0x1 PUSH2 0x1BB4 JUMP JUMPDEST SWAP3 POP SWAP1 POP DUP2 DUP5 DIV DUP2 GT ISZERO PUSH2 0x1CCD JUMPI PUSH2 0x1CCC PUSH2 0x18ED JUMP JUMPDEST JUMPDEST DUP2 DUP2 MUL SWAP1 POP JUMPDEST SWAP4 SWAP3 POP POP POP JUMP JUMPDEST PUSH1 0x0 PUSH2 0x1CE5 DUP3 PUSH2 0x175A JUMP JUMPDEST SWAP2 POP PUSH2 0x1CF0 DUP4 PUSH2 0x175A JUMP JUMPDEST SWAP3 POP PUSH2 0x1D1D PUSH32 0xFFFFFFFFFFFFFFFFFFFFFFFFFFFFFFFFFFFFFFFFFFFFFFFFFFFFFFFFFFFFFFFF DUP5 DUP5 PUSH2 0x1C07 JUMP JUMPDEST SWAP1 POP SWAP3 SWAP2 POP POP JUMP INVALID LOG2 PUSH5 0x6970667358 0x22 SLT KECCAK256 DELEGATECALL SWAP3 PUSH27 0x22385835195429265B480489F7AF65492FA8BF7B16B7BAB21F79AB BALANCE JUMPI PUSH5 0x736F6C6343 STOP ADDMOD GT STOP CALLER "
		},
		"gasEstimates": {
			"creation": {
				"codeDepositCost": "1503000",
				"executionCost": "1568",
				"totalCost": "1504568"
			},
			"external": {
				"serializeDealProposal((bytes,uint64,bool,string,int64,int64,uint256,uint256,uint256,string,uint64,(string,uint64,bool,bool)))": "infinite"
			}
		},
		"methodIdentifiers": {
			"serializeDealProposal((bytes,uint64,bool,string,int64,int64,uint256,uint256,uint256,string,uint64,(string,uint64,bool,bool)))": "08485a83"
		}
	},
	"abi": [
		{
			"inputs": [
				{
					"components": [
						{
							"internalType": "bytes",
							"name": "piece_cid",
							"type": "bytes"
						},
						{
							"internalType": "uint64",
							"name": "piece_size",
							"type": "uint64"
						},
						{
							"internalType": "bool",
							"name": "verified_deal",
							"type": "bool"
						},
						{
							"internalType": "string",
							"name": "label",
							"type": "string"
						},
						{
							"internalType": "int64",
							"name": "start_epoch",
							"type": "int64"
						},
						{
							"internalType": "int64",
							"name": "end_epoch",
							"type": "int64"
						},
						{
							"internalType": "uint256",
							"name": "storage_price_per_epoch",
							"type": "uint256"
						},
						{
							"internalType": "uint256",
							"name": "provider_collateral",
							"type": "uint256"
						},
						{
							"internalType": "uint256",
							"name": "client_collateral",
							"type": "uint256"
						},
						{
							"internalType": "string",
							"name": "dataCid",
							"type": "string"
						},
						{
							"internalType": "uint64",
							"name": "extra_params_version",
							"type": "uint64"
						},
						{
							"components": [
								{
									"internalType": "string",
									"name": "location_ref",
									"type": "string"
								},
								{
									"internalType": "uint64",
									"name": "car_size",
									"type": "uint64"
								},
								{
									"internalType": "bool",
									"name": "skip_ipni_announce",
									"type": "bool"
								},
								{
									"internalType": "bool",
									"name": "remove_unsealed_copy",
									"type": "bool"
								}
							],
							"internalType": "struct Structs.ExtraParamsV1",
							"name": "extra_params",
							"type": "tuple"
						}
					],
					"internalType": "struct Structs.DealRequest",
					"name": "deal",
					"type": "tuple"
				}
			],
			"name": "serializeDealProposal",
			"outputs": [
				{
					"internalType": "bytes",
					"name": "",
					"type": "bytes"
				}
			],
			"stateMutability": "view",
			"type": "function"
		}
	]
}