{
	"data": {
		"bytecode": {
			"linkReferences": {},
			"object": "6128dd610053600b82828239805160001a607314610046577f4e487b7100000000000000000000000000000000000000000000000000000000600052600060045260246000fd5b30600052607381538281f3fe73000000000000000000000000000000000000000030146080604052600436106100615760003560e01c80636f038971146100665780637ab609e51461009657806386113702146100c65780638ce70c68146100f6578063f613916614610126575b600080fd5b610080600480360381019061007b91906119bc565b610156565b60405161008d9190611ad1565b60405180910390f35b6100b060048036038101906100ab9190611b18565b61019a565b6040516100bd9190611bab565b60405180910390f35b6100e060048036038101906100db9190611da4565b610392565b6040516100ed9190611dfc565b60405180910390f35b610110600480360381019061010b9190611e75565b6103c8565b60405161011d9190611ecc565b60405180910390f35b610140600480360381019061013b9190612063565b610405565b60405161014d9190611bab565b60405180910390f35b61015e611801565b600061016b836000610496565b905060006040518060400160405280836000015181526020018360200151151581525090508092505050919050565b60606101a461181d565b60405180602001604052808480600001906101bf91906120bb565b8080601f016020809104026020016040519081016040528093929190818152602001838380828437600081840152601f19601f820116905080830192505050505050508152508160000181905250826020016020810190610220919061211e565b816020019067ffffffffffffffff16908167ffffffffffffffff1681525050826040016020810190610252919061214b565b81604001901515908115158152505061026a306103c8565b816060018190525061027c60006104d1565b8160800181905250604051806040016040528084806060019061029f9190612178565b8080601f016020809104026020016040519081016040528093929190818152602001838380828437600081840152601f19601f820116905080830192505050505050508152602001600115158152508160a001819052508260800160208101906103099190612214565b8160c0019060070b908160070b815250508260a001602081019061032d9190612214565b8160e0019060070b908160070b8152505061034b8360c00135610156565b8161010001819052506103618360e00135610156565b816101200181905250610378836101000135610156565b81610140018190525061038a81610520565b915050919050565b6000806103a7836000015184602001516107ca565b9050600081600001516103b99061227d565b60001c90508092505050919050565b6103d06118b3565b6040518060200160405280836040516020016103ec9190612383565b6040516020818303038152906040528152509050919050565b6060600061041360406107e6565b905061042960048261080d90919063ffffffff16565b61044083600001518261081d90919063ffffffff16565b61045783602001518261084690919063ffffffff16565b61046e83604001518261085690919063ffffffff16565b61048583606001518261085690919063ffffffff16565b61048e81610872565b915050919050565b61049e6118c6565b6104c9836040516020016104b291906123ca565b6040516020818303038152906040528360006108cb565b905092915050565b6104d96118b3565b60006104e483610998565b905060405180602001604052808260000151604051602001610506919061244d565b604051602081830303815290604052815250915050919050565b6060600080610533846101000151610a10565b90506000610545856101200151610a10565b90506000610557866101400151610a10565b9050610563600b610b7d565b8461056e919061249e565b9350610581866000015160000151610bd1565b8461058c919061249e565b93506105a5866020015167ffffffffffffffff16610b7d565b846105b0919061249e565b93506105ba610bf0565b846105c5919061249e565b93506105d8866060015160000151610c01565b846105e3919061249e565b93506105f6866080015160000151610c01565b84610601919061249e565b93506106148660a0015160000151610c01565b8461061f919061249e565b935061062e8660c00151610c20565b84610639919061249e565b93506106488660e00151610c20565b84610653919061249e565b935061065e83610c01565b84610669919061249e565b935061067482610c01565b8461067f919061249e565b935061068a81610c01565b84610695919061249e565b935060006106a285610c93565b90506106b8600b82610cba90919063ffffffff16565b6106d387600001516000015182610cca90919063ffffffff16565b6106ea876020015182610d3c90919063ffffffff16565b610701876040015182610d4c90919063ffffffff16565b61071c87606001516000015182610d6890919063ffffffff16565b61073787608001516000015182610d6890919063ffffffff16565b61074e8760a0015182610d9190919063ffffffff16565b6107658760c0015182610dd290919063ffffffff16565b61077c8760e0015182610dd290919063ffffffff16565b61078f8482610d6890919063ffffffff16565b6107a28382610d6890919063ffffffff16565b6107b58282610d6890919063ffffffff16565b6107be81610de9565b95505050505050919050565b6107d26118c6565b6107de838360006108cb565b905092915050565b6107ee6118e9565b6107fc816000015183610e42565b506000816020018181525050919050565b61081982600483610ebb565b5050565b61082a8260038351610ecb565b61084181836000015161107490919063ffffffff16565b505050565b61085282600083610ecb565b5050565b61086e8282610866576014610869565b60155b611090565b5050565b606060008260200151146108bb576040517f08c379a00000000000000000000000000000000000000000000000000000000081526004016108b29061252f565b60405180910390fd5b8160000151600001519050919050565b6108d36118c6565b60208401845160005960006020840614600181146109055760208406602003602081840101935080850183525061090f565b6020820192508382525b508282848660046101c2fa506020815101810160405280515b6000602082140361095b57600060208301511460018114610949575061095b565b60208301925050602081039050610928565b80825281865287602087015250505050506000821461097a5781610988565b61098781600001516110b6565b5b8160400181815250509392505050565b6109a0611909565b5b600115610a0a576000607f8316905060078367ffffffffffffffff16901c925060008367ffffffffffffffff16036109ed576109e681836110f690919063ffffffff16565b5050610a0b565b610a0360808217836110f690919063ffffffff16565b50506109a1565b5b919050565b606060006001836000015151610a26919061249e565b67ffffffffffffffff811115610a3f57610a3e611bd2565b5b6040519080825280601f01601f191660200182016040528015610a715781602001600182028036833780820191505090505b509050600115158360200151151514610a8e57600060f81b610a94565b600160f81b5b81600081518110610aa857610aa761254f565b5b60200101907effffffffffffffffffffffffffffffffffffffffffffffffffffffffffffff1916908160001a90535060006001905060005b846000015151811015610b725784600001518181518110610b0457610b0361254f565b5b602001015160f81c60f81b838381518110610b2257610b2161254f565b5b60200101907effffffffffffffffffffffffffffffffffffffffffffffffffffffffffffff1916908160001a9053508180610b5c9061257e565b9250508080610b6a9061257e565b915050610ae0565b508192505050919050565b600060178211610b905760019050610bcc565b60ff8211610ba15760029050610bcc565b61ffff8211610bb35760039050610bcc565b63ffffffff8211610bc75760059050610bcc565b600990505b919050565b60008151610bdf6002610b7d565b610be9919061249e565b9050919050565b6000610bfc6001610b7d565b905090565b60008151610c0f8351610b7d565b610c19919061249e565b9050919050565b60008082905060008160070b12610c4c57610c448167ffffffffffffffff16610b7d565b915050610c8e565b610c8a817fffffffffffffffffffffffffffffffffffffffffffffffffffffffffffffffff610c7b91906125c6565b67ffffffffffffffff16610b7d565b9150505b919050565b610c9b611923565b610ca9816000015183610e42565b506000816020018181525050919050565b610cc682600483611160565b5050565b610cec60186005600660ff16901b1783600001516110f690919063ffffffff16565b50610d05602a83600001516110f690919063ffffffff16565b50610d3881604051602001610d1a919061262d565b60405160208183030381529060405283610d6890919063ffffffff16565b5050565b610d4882600083611170565b5050565b610d648282610d5c576014610d5f565b60155b611319565b5050565b610d758260028351611170565b610d8c81836000015161107490919063ffffffff16565b505050565b8060200151610db657610db1816000015183610d6890919063ffffffff16565b610dce565b610dcd81600001518361133f90919063ffffffff16565b5b5050565b610de5818361136890919063ffffffff16565b5050565b60606000826020015114610e32576040517f08c379a0000000000000000000000000000000000000000000000000000000008152600401610e299061252f565b60405180910390fd5b8160000151600001519050919050565b610e4a611909565b6000602083610e599190612682565b14610e8557602082610e6b9190612682565b6020610e7791906126b3565b82610e82919061249e565b91505b818360200181815250506040518084526000815282810160200181811015610eac57600080fd5b80604052505082905092915050565b610ec6838383610ecb565b505050565b60178167ffffffffffffffff1611610f0657610f008160058460ff16901b60ff161784600001516110f690919063ffffffff16565b5061106f565b60ff8167ffffffffffffffff1611610f6457610f39601860058460ff16901b1784600001516110f690919063ffffffff16565b50610f5e8167ffffffffffffffff16600185600001516113c09092919063ffffffff16565b5061106e565b61ffff8167ffffffffffffffff1611610fc357610f98601960058460ff16901b1784600001516110f690919063ffffffff16565b50610fbd8167ffffffffffffffff16600285600001516113c09092919063ffffffff16565b5061106d565b63ffffffff8167ffffffffffffffff161161102457610ff9601a60058460ff16901b1784600001516110f690919063ffffffff16565b5061101e8167ffffffffffffffff16600485600001516113c09092919063ffffffff16565b5061106c565b611045601b60058460ff16901b1784600001516110f690919063ffffffff16565b5061106a8167ffffffffffffffff16600885600001516113c09092919063ffffffff16565b505b5b5b5b505050565b61107c611909565b6110888383845161144d565b905092915050565b6110b1816005600760ff16901b1783600001516110f690919063ffffffff16565b505050565b60006110c182611530565b156110cf57600090506110f1565b6000602083015190506110e181611587565b9150600860208451030282019150505b919050565b6110fe611909565b600083600001515190506000600182611117919061249e565b90508460200151821061113b5761113a8560028361113591906126e7565b6117dd565b5b84516020838201018581538151831115611153578282525b5050849250505092915050565b61116b838383611170565b505050565b60178167ffffffffffffffff16116111ab576111a58160058460ff16901b60ff161784600001516110f690919063ffffffff16565b50611314565b60ff8167ffffffffffffffff1611611209576111de601860058460ff16901b1784600001516110f690919063ffffffff16565b506112038167ffffffffffffffff16600185600001516113c09092919063ffffffff16565b50611313565b61ffff8167ffffffffffffffff16116112685761123d601960058460ff16901b1784600001516110f690919063ffffffff16565b506112628167ffffffffffffffff16600285600001516113c09092919063ffffffff16565b50611312565b63ffffffff8167ffffffffffffffff16116112c95761129e601a60058460ff16901b1784600001516110f690919063ffffffff16565b506112c38167ffffffffffffffff16600485600001516113c09092919063ffffffff16565b50611311565b6112ea601b60058460ff16901b1784600001516110f690919063ffffffff16565b5061130f8167ffffffffffffffff16600885600001516113c09092919063ffffffff16565b505b5b5b5b505050565b61133a816005600760ff16901b1783600001516110f690919063ffffffff16565b505050565b61134c8260038351611170565b61136381836000015161107490919063ffffffff16565b505050565b60008160070b126113845761137f82600083611170565b6113bc565b6113bb826001837fffffffffffffffffffffffffffffffffffffffffffffffffffffffffffffffff6113b691906125c6565b611170565b5b5050565b6113c8611909565b60008460000151519050600081846113e0919061249e565b9050856020015181111561140557611404866002836113ff91906126e7565b6117dd565b5b6000600185610100611417919061285c565b61142191906126b3565b90508651828101878319825116178152815184111561143e578382525b50508693505050509392505050565b611455611909565b825182111561146357600080fd5b600084600001515190506000838261147b919061249e565b905085602001518111156114a05761149f8660028361149a91906126e7565b6117dd565b5b600080875180518560208301019350808511156114bb578482525b60208901925050505b6020861061150257805182526020826114dd919061249e565b91506020816114ec919061249e565b90506020866114fb91906126b3565b95506114c4565b60006001876020036101000a0390508019825116818451168181178552505050879450505050509392505050565b600080600060208401905060005b845181101561157a578151925060008311156115605760009350505050611582565b602082019150602081611573919061249e565b905061153e565b506001925050505b919050565b6000808214600181146117d2578260018403935060028404841793506004840484179350601084048417935061010084048417935062010000840484179350640100000000840484179350680100000000000000008404841793507001000000000000000000000000000000008404841793506001840193506040517ff8f9cbfae6cc78fbefe7cdc3a1793dfcf4f0e8bbd8cec470b6a28a7a5a3e1efd81527ff5ecf1b3e9debc68e1d9cfabc5997135bfb7a7a3938b7b606b5b4b3f2f1f0ffe60208201527ff6e4ed9ff2d6b458eadcdf97bd91692de2d4da8fd2d0ac50c6ae9a827252361660408201527fc8c0b887b0a8a4489c948c7f847c6125746c645c544c444038302820181008ff60608201527ff7cae577eec2a03cf3bad76fb589591debb2dd67e0aa9834bea6925f6a4a2e0e60808201527fe39ed557db96902cd38ed14fad815115c786af479b7e8324736353433727170760a08201527fc976c13bb96e881cb166a933a55e490d9d56952b8d4e801485467d236242260660c08201527f753a6d1b65325d0c552a4d1345224105391a310b29122104190a11030902010060e082015261010081016040527e818283848586878898a8b8c8d8e8f929395969799a9b9d9e9faaeb6bedeeff7f01000000000000000000000000000000000000000000000000000000000000008082880204818160ff038501510496507f8000000000000000000000000000000000000000000000000000000000000000851161010002870196506000600186038616036117c8576001870196505b50505050506117d7565b600091505b50919050565b6000826000015190506117f08383610e42565b506117fb8382611074565b50505050565b6040518060400160405280606081526020016000151581525090565b604051806101600160405280611831611943565b8152602001600067ffffffffffffffff1681526020016000151581526020016118586118b3565b81526020016118656118b3565b8152602001611872611956565b8152602001600060070b8152602001600060070b8152602001611893611801565b81526020016118a0611801565b81526020016118ad611801565b81525090565b6040518060200160405280606081525090565b604051806060016040528060608152602001600015158152602001600081525090565b60405180604001604052806118fc611909565b8152602001600081525090565b604051806040016040528060608152602001600081525090565b6040518060400160405280611936611909565b8152602001600081525090565b6040518060200160405280606081525090565b6040518060400160405280606081526020016000151581525090565b6000604051905090565b600080fd5b600080fd5b6000819050919050565b61199981611986565b81146119a457600080fd5b50565b6000813590506119b681611990565b92915050565b6000602082840312156119d2576119d161197c565b5b60006119e0848285016119a7565b91505092915050565b600081519050919050565b600082825260208201905092915050565b60005b83811015611a23578082015181840152602081019050611a08565b60008484015250505050565b6000601f19601f8301169050919050565b6000611a4b826119e9565b611a5581856119f4565b9350611a65818560208601611a05565b611a6e81611a2f565b840191505092915050565b60008115159050919050565b611a8e81611a79565b82525050565b60006040830160008301518482036000860152611ab18282611a40565b9150506020830151611ac66020860182611a85565b508091505092915050565b60006020820190508181036000830152611aeb8184611a94565b905092915050565b600080fd5b60006101808284031215611b0f57611b0e611af3565b5b81905092915050565b600060208284031215611b2e57611b2d61197c565b5b600082013567ffffffffffffffff811115611b4c57611b4b611981565b5b611b5884828501611af8565b91505092915050565b600082825260208201905092915050565b6000611b7d826119e9565b611b878185611b61565b9350611b97818560208601611a05565b611ba081611a2f565b840191505092915050565b60006020820190508181036000830152611bc58184611b72565b905092915050565b600080fd5b7f4e487b7100000000000000000000000000000000000000000000000000000000600052604160045260246000fd5b611c0a82611a2f565b810181811067ffffffffffffffff82111715611c2957611c28611bd2565b5b80604052505050565b6000611c3c611972565b9050611c488282611c01565b919050565b600080fd5b600080fd5b600080fd5b600067ffffffffffffffff821115611c7757611c76611bd2565b5b611c8082611a2f565b9050602081019050919050565b82818337600083830152505050565b6000611caf611caa84611c5c565b611c32565b905082815260208101848484011115611ccb57611cca611c57565b5b611cd6848285611c8d565b509392505050565b600082601f830112611cf357611cf2611c52565b5b8135611d03848260208601611c9c565b91505092915050565b611d1581611a79565b8114611d2057600080fd5b50565b600081359050611d3281611d0c565b92915050565b600060408284031215611d4e57611d4d611bcd565b5b611d586040611c32565b9050600082013567ffffffffffffffff811115611d7857611d77611c4d565b5b611d8484828501611cde565b6000830152506020611d9884828501611d23565b60208301525092915050565b600060208284031215611dba57611db961197c565b5b600082013567ffffffffffffffff811115611dd857611dd7611981565b5b611de484828501611d38565b91505092915050565b611df681611986565b82525050565b6000602082019050611e116000830184611ded565b92915050565b600073ffffffffffffffffffffffffffffffffffffffff82169050919050565b6000611e4282611e17565b9050919050565b611e5281611e37565b8114611e5d57600080fd5b50565b600081359050611e6f81611e49565b92915050565b600060208284031215611e8b57611e8a61197c565b5b6000611e9984828501611e60565b91505092915050565b60006020830160008301518482036000860152611ebf8282611a40565b9150508091505092915050565b60006020820190508181036000830152611ee68184611ea2565b905092915050565b600067ffffffffffffffff821115611f0957611f08611bd2565b5b611f1282611a2f565b9050602081019050919050565b6000611f32611f2d84611eee565b611c32565b905082815260208101848484011115611f4e57611f4d611c57565b5b611f59848285611c8d565b509392505050565b600082601f830112611f7657611f75611c52565b5b8135611f86848260208601611f1f565b91505092915050565b600067ffffffffffffffff82169050919050565b611fac81611f8f565b8114611fb757600080fd5b50565b600081359050611fc981611fa3565b92915050565b600060808284031215611fe557611fe4611bcd565b5b611fef6080611c32565b9050600082013567ffffffffffffffff81111561200f5761200e611c4d565b5b61201b84828501611f61565b600083015250602061202f84828501611fba565b602083015250604061204384828501611d23565b604083015250606061205784828501611d23565b60608301525092915050565b6000602082840312156120795761207861197c565b5b600082013567ffffffffffffffff81111561209757612096611981565b5b6120a384828501611fcf565b91505092915050565b600080fd5b600080fd5b600080fd5b600080833560016020038436030381126120d8576120d76120ac565b5b80840192508235915067ffffffffffffffff8211156120fa576120f96120b1565b5b602083019250600182023603831315612116576121156120b6565b5b509250929050565b6000602082840312156121345761213361197c565b5b600061214284828501611fba565b91505092915050565b6000602082840312156121615761216061197c565b5b600061216f84828501611d23565b91505092915050565b60008083356001602003843603038112612195576121946120ac565b5b80840192508235915067ffffffffffffffff8211156121b7576121b66120b1565b5b6020830192506001820236038313156121d3576121d26120b6565b5b509250929050565b60008160070b9050919050565b6121f1816121db565b81146121fc57600080fd5b50565b60008135905061220e816121e8565b92915050565b60006020828403121561222a5761222961197c565b5b6000612238848285016121ff565b91505092915050565b6000819050602082019050919050565b6000819050919050565b60006122678251612251565b80915050919050565b600082821b905092915050565b6000612288826119e9565b8261229284612241565b905061229d8161225b565b925060208210156122dd576122d87fffffffffffffffffffffffffffffffffffffffffffffffffffffffffffffffff83602003600802612270565b831692505b5050919050565b600081905092915050565b7f040a000000000000000000000000000000000000000000000000000000000000600082015250565b60006123256002836122e4565b9150612330826122ef565b600282019050919050565b60008160601b9050919050565b60006123538261233b565b9050919050565b600061236582612348565b9050919050565b61237d61237882611e37565b61235a565b82525050565b600061238e82612318565b915061239a828461236c565b60148201915081905092915050565b6000819050919050565b6123c46123bf82611986565b6123a9565b82525050565b60006123d682846123b3565b60208201915081905092915050565b60008082015250565b60006123fb6001836122e4565b9150612406826123e5565b600182019050919050565b600081905092915050565b6000612427826119e9565b6124318185612411565b9350612441818560208601611a05565b80840191505092915050565b6000612458826123ee565b9150612464828461241c565b915081905092915050565b7f4e487b7100000000000000000000000000000000000000000000000000000000600052601160045260246000fd5b60006124a982611986565b91506124b483611986565b92508282019050808211156124cc576124cb61246f565b5b92915050565b600082825260208201905092915050565b7f496e76616c69642043424f520000000000000000000000000000000000000000600082015250565b6000612519600c836124d2565b9150612524826124e3565b602082019050919050565b600060208201905081810360008301526125488161250c565b9050919050565b7f4e487b7100000000000000000000000000000000000000000000000000000000600052603260045260246000fd5b600061258982611986565b91507fffffffffffffffffffffffffffffffffffffffffffffffffffffffffffffffff82036125bb576125ba61246f565b5b600182019050919050565b60006125d1826121db565b91506125dc836121db565b92508282039050677fffffffffffffff81137fffffffffffffffffffffffffffffffffffffffffffffffff8000000000000000821217156126205761261f61246f565b5b92915050565b6000815250565b600061263882612626565b600182019150612648828461241c565b915081905092915050565b7f4e487b7100000000000000000000000000000000000000000000000000000000600052601260045260246000fd5b600061268d82611986565b915061269883611986565b9250826126a8576126a7612653565b5b828206905092915050565b60006126be82611986565b91506126c983611986565b92508282039050818111156126e1576126e061246f565b5b92915050565b60006126f282611986565b91506126fd83611986565b925082820261270b81611986565b915082820484148315176127225761272161246f565b5b5092915050565b60008160011c9050919050565b6000808291508390505b60018511156127805780860481111561275c5761275b61246f565b5b600185161561276b5780820291505b808102905061277985612729565b9450612740565b94509492505050565b6000826127995760019050612855565b816127a75760009050612855565b81600181146127bd57600281146127c7576127f6565b6001915050612855565b60ff8411156127d9576127d861246f565b5b8360020a9150848211156127f0576127ef61246f565b5b50612855565b5060208310610133831016604e8410600b841016171561282b5782820a9050838111156128265761282561246f565b5b612855565b6128388484846001612736565b9250905081840481111561284f5761284e61246f565b5b81810290505b9392505050565b600061286782611986565b915061287283611986565b925061289f7fffffffffffffffffffffffffffffffffffffffffffffffffffffffffffffffff8484612789565b90509291505056fea26469706673582212203266adad4c62d6820576e7088e3b0bb36270ebed97ab596c586b681314b38be164736f6c63430008110033",
			"opcodes": "PUSH2 0x28DD PUSH2 0x53 PUSH1 0xB DUP3 DUP3 DUP3 CODECOPY DUP1 MLOAD PUSH1 0x0 BYTE PUSH1 0x73 EQ PUSH2 0x46 JUMPI PUSH32 0x4E487B7100000000000000000000000000000000000000000000000000000000 PUSH1 0x0 MSTORE PUSH1 0x0 PUSH1 0x4 MSTORE PUSH1 0x24 PUSH1 0x0 REVERT JUMPDEST ADDRESS PUSH1 0x0 MSTORE PUSH1 0x73 DUP2 MSTORE8 DUP3 DUP2 RETURN INVALID PUSH20 0x0 ADDRESS EQ PUSH1 0x80 PUSH1 0x40 MSTORE PUSH1 0x4 CALLDATASIZE LT PUSH2 0x61 JUMPI PUSH1 0x0 CALLDATALOAD PUSH1 0xE0 SHR DUP1 PUSH4 0x6F038971 EQ PUSH2 0x66 JUMPI DUP1 PUSH4 0x7AB609E5 EQ PUSH2 0x96 JUMPI DUP1 PUSH4 0x86113702 EQ PUSH2 0xC6 JUMPI DUP1 PUSH4 0x8CE70C68 EQ PUSH2 0xF6 JUMPI DUP1 PUSH4 0xF6139166 EQ PUSH2 0x126 JUMPI JUMPDEST PUSH1 0x0 DUP1 REVERT JUMPDEST PUSH2 0x80 PUSH1 0x4 DUP1 CALLDATASIZE SUB DUP2 ADD SWAP1 PUSH2 0x7B SWAP2 SWAP1 PUSH2 0x19BC JUMP JUMPDEST PUSH2 0x156 JUMP JUMPDEST PUSH1 0x40 MLOAD PUSH2 0x8D SWAP2 SWAP1 PUSH2 0x1AD1 JUMP JUMPDEST PUSH1 0x40 MLOAD DUP1 SWAP2 SUB SWAP1 RETURN JUMPDEST PUSH2 0xB0 PUSH1 0x4 DUP1 CALLDATASIZE SUB DUP2 ADD SWAP1 PUSH2 0xAB SWAP2 SWAP1 PUSH2 0x1B18 JUMP JUMPDEST PUSH2 0x19A JUMP JUMPDEST PUSH1 0x40 MLOAD PUSH2 0xBD SWAP2 SWAP1 PUSH2 0x1BAB JUMP JUMPDEST PUSH1 0x40 MLOAD DUP1 SWAP2 SUB SWAP1 RETURN JUMPDEST PUSH2 0xE0 PUSH1 0x4 DUP1 CALLDATASIZE SUB DUP2 ADD SWAP1 PUSH2 0xDB SWAP2 SWAP1 PUSH2 0x1DA4 JUMP JUMPDEST PUSH2 0x392 JUMP JUMPDEST PUSH1 0x40 MLOAD PUSH2 0xED SWAP2 SWAP1 PUSH2 0x1DFC JUMP JUMPDEST PUSH1 0x40 MLOAD DUP1 SWAP2 SUB SWAP1 RETURN JUMPDEST PUSH2 0x110 PUSH1 0x4 DUP1 CALLDATASIZE SUB DUP2 ADD SWAP1 PUSH2 0x10B SWAP2 SWAP1 PUSH2 0x1E75 JUMP JUMPDEST PUSH2 0x3C8 JUMP JUMPDEST PUSH1 0x40 MLOAD PUSH2 0x11D SWAP2 SWAP1 PUSH2 0x1ECC JUMP JUMPDEST PUSH1 0x40 MLOAD DUP1 SWAP2 SUB SWAP1 RETURN JUMPDEST PUSH2 0x140 PUSH1 0x4 DUP1 CALLDATASIZE SUB DUP2 ADD SWAP1 PUSH2 0x13B SWAP2 SWAP1 PUSH2 0x2063 JUMP JUMPDEST PUSH2 0x405 JUMP JUMPDEST PUSH1 0x40 MLOAD PUSH2 0x14D SWAP2 SWAP1 PUSH2 0x1BAB JUMP JUMPDEST PUSH1 0x40 MLOAD DUP1 SWAP2 SUB SWAP1 RETURN JUMPDEST PUSH2 0x15E PUSH2 0x1801 JUMP JUMPDEST PUSH1 0x0 PUSH2 0x16B DUP4 PUSH1 0x0 PUSH2 0x496 JUMP JUMPDEST SWAP1 POP PUSH1 0x0 PUSH1 0x40 MLOAD DUP1 PUSH1 0x40 ADD PUSH1 0x40 MSTORE DUP1 DUP4 PUSH1 0x0 ADD MLOAD DUP2 MSTORE PUSH1 0x20 ADD DUP4 PUSH1 0x20 ADD MLOAD ISZERO ISZERO DUP2 MSTORE POP SWAP1 POP DUP1 SWAP3 POP POP POP SWAP2 SWAP1 POP JUMP JUMPDEST PUSH1 0x60 PUSH2 0x1A4 PUSH2 0x181D JUMP JUMPDEST PUSH1 0x40 MLOAD DUP1 PUSH1 0x20 ADD PUSH1 0x40 MSTORE DUP1 DUP5 DUP1 PUSH1 0x0 ADD SWAP1 PUSH2 0x1BF SWAP2 SWAP1 PUSH2 0x20BB JUMP JUMPDEST DUP1 DUP1 PUSH1 0x1F ADD PUSH1 0x20 DUP1 SWAP2 DIV MUL PUSH1 0x20 ADD PUSH1 0x40 MLOAD SWAP1 DUP2 ADD PUSH1 0x40 MSTORE DUP1 SWAP4 SWAP3 SWAP2 SWAP1 DUP2 DUP2 MSTORE PUSH1 0x20 ADD DUP4 DUP4 DUP1 DUP3 DUP5 CALLDATACOPY PUSH1 0x0 DUP2 DUP5 ADD MSTORE PUSH1 0x1F NOT PUSH1 0x1F DUP3 ADD AND SWAP1 POP DUP1 DUP4 ADD SWAP3 POP POP POP POP POP POP POP DUP2 MSTORE POP DUP2 PUSH1 0x0 ADD DUP2 SWAP1 MSTORE POP DUP3 PUSH1 0x20 ADD PUSH1 0x20 DUP2 ADD SWAP1 PUSH2 0x220 SWAP2 SWAP1 PUSH2 0x211E JUMP JUMPDEST DUP2 PUSH1 0x20 ADD SWAP1 PUSH8 0xFFFFFFFFFFFFFFFF AND SWAP1 DUP2 PUSH8 0xFFFFFFFFFFFFFFFF AND DUP2 MSTORE POP POP DUP3 PUSH1 0x40 ADD PUSH1 0x20 DUP2 ADD SWAP1 PUSH2 0x252 SWAP2 SWAP1 PUSH2 0x214B JUMP JUMPDEST DUP2 PUSH1 0x40 ADD SWAP1 ISZERO ISZERO SWAP1 DUP2 ISZERO ISZERO DUP2 MSTORE POP POP PUSH2 0x26A ADDRESS PUSH2 0x3C8 JUMP JUMPDEST DUP2 PUSH1 0x60 ADD DUP2 SWAP1 MSTORE POP PUSH2 0x27C PUSH1 0x0 PUSH2 0x4D1 JUMP JUMPDEST DUP2 PUSH1 0x80 ADD DUP2 SWAP1 MSTORE POP PUSH1 0x40 MLOAD DUP1 PUSH1 0x40 ADD PUSH1 0x40 MSTORE DUP1 DUP5 DUP1 PUSH1 0x60 ADD SWAP1 PUSH2 0x29F SWAP2 SWAP1 PUSH2 0x2178 JUMP JUMPDEST DUP1 DUP1 PUSH1 0x1F ADD PUSH1 0x20 DUP1 SWAP2 DIV MUL PUSH1 0x20 ADD PUSH1 0x40 MLOAD SWAP1 DUP2 ADD PUSH1 0x40 MSTORE DUP1 SWAP4 SWAP3 SWAP2 SWAP1 DUP2 DUP2 MSTORE PUSH1 0x20 ADD DUP4 DUP4 DUP1 DUP3 DUP5 CALLDATACOPY PUSH1 0x0 DUP2 DUP5 ADD MSTORE PUSH1 0x1F NOT PUSH1 0x1F DUP3 ADD AND SWAP1 POP DUP1 DUP4 ADD SWAP3 POP POP POP POP POP POP POP DUP2 MSTORE PUSH1 0x20 ADD PUSH1 0x1 ISZERO ISZERO DUP2 MSTORE POP DUP2 PUSH1 0xA0 ADD DUP2 SWAP1 MSTORE POP DUP3 PUSH1 0x80 ADD PUSH1 0x20 DUP2 ADD SWAP1 PUSH2 0x309 SWAP2 SWAP1 PUSH2 0x2214 JUMP JUMPDEST DUP2 PUSH1 0xC0 ADD SWAP1 PUSH1 0x7 SIGNEXTEND SWAP1 DUP2 PUSH1 0x7 SIGNEXTEND DUP2 MSTORE POP POP DUP3 PUSH1 0xA0 ADD PUSH1 0x20 DUP2 ADD SWAP1 PUSH2 0x32D SWAP2 SWAP1 PUSH2 0x2214 JUMP JUMPDEST DUP2 PUSH1 0xE0 ADD SWAP1 PUSH1 0x7 SIGNEXTEND SWAP1 DUP2 PUSH1 0x7 SIGNEXTEND DUP2 MSTORE POP POP PUSH2 0x34B DUP4 PUSH1 0xC0 ADD CALLDATALOAD PUSH2 0x156 JUMP JUMPDEST DUP2 PUSH2 0x100 ADD DUP2 SWAP1 MSTORE POP PUSH2 0x361 DUP4 PUSH1 0xE0 ADD CALLDATALOAD PUSH2 0x156 JUMP JUMPDEST DUP2 PUSH2 0x120 ADD DUP2 SWAP1 MSTORE POP PUSH2 0x378 DUP4 PUSH2 0x100 ADD CALLDATALOAD PUSH2 0x156 JUMP JUMPDEST DUP2 PUSH2 0x140 ADD DUP2 SWAP1 MSTORE POP PUSH2 0x38A DUP2 PUSH2 0x520 JUMP JUMPDEST SWAP2 POP POP SWAP2 SWAP1 POP JUMP JUMPDEST PUSH1 0x0 DUP1 PUSH2 0x3A7 DUP4 PUSH1 0x0 ADD MLOAD DUP5 PUSH1 0x20 ADD MLOAD PUSH2 0x7CA JUMP JUMPDEST SWAP1 POP PUSH1 0x0 DUP2 PUSH1 0x0 ADD MLOAD PUSH2 0x3B9 SWAP1 PUSH2 0x227D JUMP JUMPDEST PUSH1 0x0 SHR SWAP1 POP DUP1 SWAP3 POP POP POP SWAP2 SWAP1 POP JUMP JUMPDEST PUSH2 0x3D0 PUSH2 0x18B3 JUMP JUMPDEST PUSH1 0x40 MLOAD DUP1 PUSH1 0x20 ADD PUSH1 0x40 MSTORE DUP1 DUP4 PUSH1 0x40 MLOAD PUSH1 0x20 ADD PUSH2 0x3EC SWAP2 SWAP1 PUSH2 0x2383 JUMP JUMPDEST PUSH1 0x40 MLOAD PUSH1 0x20 DUP2 DUP4 SUB SUB DUP2 MSTORE SWAP1 PUSH1 0x40 MSTORE DUP2 MSTORE POP SWAP1 POP SWAP2 SWAP1 POP JUMP JUMPDEST PUSH1 0x60 PUSH1 0x0 PUSH2 0x413 PUSH1 0x40 PUSH2 0x7E6 JUMP JUMPDEST SWAP1 POP PUSH2 0x429 PUSH1 0x4 DUP3 PUSH2 0x80D SWAP1 SWAP2 SWAP1 PUSH4 0xFFFFFFFF AND JUMP JUMPDEST PUSH2 0x440 DUP4 PUSH1 0x0 ADD MLOAD DUP3 PUSH2 0x81D SWAP1 SWAP2 SWAP1 PUSH4 0xFFFFFFFF AND JUMP JUMPDEST PUSH2 0x457 DUP4 PUSH1 0x20 ADD MLOAD DUP3 PUSH2 0x846 SWAP1 SWAP2 SWAP1 PUSH4 0xFFFFFFFF AND JUMP JUMPDEST PUSH2 0x46E DUP4 PUSH1 0x40 ADD MLOAD DUP3 PUSH2 0x856 SWAP1 SWAP2 SWAP1 PUSH4 0xFFFFFFFF AND JUMP JUMPDEST PUSH2 0x485 DUP4 PUSH1 0x60 ADD MLOAD DUP3 PUSH2 0x856 SWAP1 SWAP2 SWAP1 PUSH4 0xFFFFFFFF AND JUMP JUMPDEST PUSH2 0x48E DUP2 PUSH2 0x872 JUMP JUMPDEST SWAP2 POP POP SWAP2 SWAP1 POP JUMP JUMPDEST PUSH2 0x49E PUSH2 0x18C6 JUMP JUMPDEST PUSH2 0x4C9 DUP4 PUSH1 0x40 MLOAD PUSH1 0x20 ADD PUSH2 0x4B2 SWAP2 SWAP1 PUSH2 0x23CA JUMP JUMPDEST PUSH1 0x40 MLOAD PUSH1 0x20 DUP2 DUP4 SUB SUB DUP2 MSTORE SWAP1 PUSH1 0x40 MSTORE DUP4 PUSH1 0x0 PUSH2 0x8CB JUMP JUMPDEST SWAP1 POP SWAP3 SWAP2 POP POP JUMP JUMPDEST PUSH2 0x4D9 PUSH2 0x18B3 JUMP JUMPDEST PUSH1 0x0 PUSH2 0x4E4 DUP4 PUSH2 0x998 JUMP JUMPDEST SWAP1 POP PUSH1 0x40 MLOAD DUP1 PUSH1 0x20 ADD PUSH1 0x40 MSTORE DUP1 DUP3 PUSH1 0x0 ADD MLOAD PUSH1 0x40 MLOAD PUSH1 0x20 ADD PUSH2 0x506 SWAP2 SWAP1 PUSH2 0x244D JUMP JUMPDEST PUSH1 0x40 MLOAD PUSH1 0x20 DUP2 DUP4 SUB SUB DUP2 MSTORE SWAP1 PUSH1 0x40 MSTORE DUP2 MSTORE POP SWAP2 POP POP SWAP2 SWAP1 POP JUMP JUMPDEST PUSH1 0x60 PUSH1 0x0 DUP1 PUSH2 0x533 DUP5 PUSH2 0x100 ADD MLOAD PUSH2 0xA10 JUMP JUMPDEST SWAP1 POP PUSH1 0x0 PUSH2 0x545 DUP6 PUSH2 0x120 ADD MLOAD PUSH2 0xA10 JUMP JUMPDEST SWAP1 POP PUSH1 0x0 PUSH2 0x557 DUP7 PUSH2 0x140 ADD MLOAD PUSH2 0xA10 JUMP JUMPDEST SWAP1 POP PUSH2 0x563 PUSH1 0xB PUSH2 0xB7D JUMP JUMPDEST DUP5 PUSH2 0x56E SWAP2 SWAP1 PUSH2 0x249E JUMP JUMPDEST SWAP4 POP PUSH2 0x581 DUP7 PUSH1 0x0 ADD MLOAD PUSH1 0x0 ADD MLOAD PUSH2 0xBD1 JUMP JUMPDEST DUP5 PUSH2 0x58C SWAP2 SWAP1 PUSH2 0x249E JUMP JUMPDEST SWAP4 POP PUSH2 0x5A5 DUP7 PUSH1 0x20 ADD MLOAD PUSH8 0xFFFFFFFFFFFFFFFF AND PUSH2 0xB7D JUMP JUMPDEST DUP5 PUSH2 0x5B0 SWAP2 SWAP1 PUSH2 0x249E JUMP JUMPDEST SWAP4 POP PUSH2 0x5BA PUSH2 0xBF0 JUMP JUMPDEST DUP5 PUSH2 0x5C5 SWAP2 SWAP1 PUSH2 0x249E JUMP JUMPDEST SWAP4 POP PUSH2 0x5D8 DUP7 PUSH1 0x60 ADD MLOAD PUSH1 0x0 ADD MLOAD PUSH2 0xC01 JUMP JUMPDEST DUP5 PUSH2 0x5E3 SWAP2 SWAP1 PUSH2 0x249E JUMP JUMPDEST SWAP4 POP PUSH2 0x5F6 DUP7 PUSH1 0x80 ADD MLOAD PUSH1 0x0 ADD MLOAD PUSH2 0xC01 JUMP JUMPDEST DUP5 PUSH2 0x601 SWAP2 SWAP1 PUSH2 0x249E JUMP JUMPDEST SWAP4 POP PUSH2 0x614 DUP7 PUSH1 0xA0 ADD MLOAD PUSH1 0x0 ADD MLOAD PUSH2 0xC01 JUMP JUMPDEST DUP5 PUSH2 0x61F SWAP2 SWAP1 PUSH2 0x249E JUMP JUMPDEST SWAP4 POP PUSH2 0x62E DUP7 PUSH1 0xC0 ADD MLOAD PUSH2 0xC20 JUMP JUMPDEST DUP5 PUSH2 0x639 SWAP2 SWAP1 PUSH2 0x249E JUMP JUMPDEST SWAP4 POP PUSH2 0x648 DUP7 PUSH1 0xE0 ADD MLOAD PUSH2 0xC20 JUMP JUMPDEST DUP5 PUSH2 0x653 SWAP2 SWAP1 PUSH2 0x249E JUMP JUMPDEST SWAP4 POP PUSH2 0x65E DUP4 PUSH2 0xC01 JUMP JUMPDEST DUP5 PUSH2 0x669 SWAP2 SWAP1 PUSH2 0x249E JUMP JUMPDEST SWAP4 POP PUSH2 0x674 DUP3 PUSH2 0xC01 JUMP JUMPDEST DUP5 PUSH2 0x67F SWAP2 SWAP1 PUSH2 0x249E JUMP JUMPDEST SWAP4 POP PUSH2 0x68A DUP2 PUSH2 0xC01 JUMP JUMPDEST DUP5 PUSH2 0x695 SWAP2 SWAP1 PUSH2 0x249E JUMP JUMPDEST SWAP4 POP PUSH1 0x0 PUSH2 0x6A2 DUP6 PUSH2 0xC93 JUMP JUMPDEST SWAP1 POP PUSH2 0x6B8 PUSH1 0xB DUP3 PUSH2 0xCBA SWAP1 SWAP2 SWAP1 PUSH4 0xFFFFFFFF AND JUMP JUMPDEST PUSH2 0x6D3 DUP8 PUSH1 0x0 ADD MLOAD PUSH1 0x0 ADD MLOAD DUP3 PUSH2 0xCCA SWAP1 SWAP2 SWAP1 PUSH4 0xFFFFFFFF AND JUMP JUMPDEST PUSH2 0x6EA DUP8 PUSH1 0x20 ADD MLOAD DUP3 PUSH2 0xD3C SWAP1 SWAP2 SWAP1 PUSH4 0xFFFFFFFF AND JUMP JUMPDEST PUSH2 0x701 DUP8 PUSH1 0x40 ADD MLOAD DUP3 PUSH2 0xD4C SWAP1 SWAP2 SWAP1 PUSH4 0xFFFFFFFF AND JUMP JUMPDEST PUSH2 0x71C DUP8 PUSH1 0x60 ADD MLOAD PUSH1 0x0 ADD MLOAD DUP3 PUSH2 0xD68 SWAP1 SWAP2 SWAP1 PUSH4 0xFFFFFFFF AND JUMP JUMPDEST PUSH2 0x737 DUP8 PUSH1 0x80 ADD MLOAD PUSH1 0x0 ADD MLOAD DUP3 PUSH2 0xD68 SWAP1 SWAP2 SWAP1 PUSH4 0xFFFFFFFF AND JUMP JUMPDEST PUSH2 0x74E DUP8 PUSH1 0xA0 ADD MLOAD DUP3 PUSH2 0xD91 SWAP1 SWAP2 SWAP1 PUSH4 0xFFFFFFFF AND JUMP JUMPDEST PUSH2 0x765 DUP8 PUSH1 0xC0 ADD MLOAD DUP3 PUSH2 0xDD2 SWAP1 SWAP2 SWAP1 PUSH4 0xFFFFFFFF AND JUMP JUMPDEST PUSH2 0x77C DUP8 PUSH1 0xE0 ADD MLOAD DUP3 PUSH2 0xDD2 SWAP1 SWAP2 SWAP1 PUSH4 0xFFFFFFFF AND JUMP JUMPDEST PUSH2 0x78F DUP5 DUP3 PUSH2 0xD68 SWAP1 SWAP2 SWAP1 PUSH4 0xFFFFFFFF AND JUMP JUMPDEST PUSH2 0x7A2 DUP4 DUP3 PUSH2 0xD68 SWAP1 SWAP2 SWAP1 PUSH4 0xFFFFFFFF AND JUMP JUMPDEST PUSH2 0x7B5 DUP3 DUP3 PUSH2 0xD68 SWAP1 SWAP2 SWAP1 PUSH4 0xFFFFFFFF AND JUMP JUMPDEST PUSH2 0x7BE DUP2 PUSH2 0xDE9 JUMP JUMPDEST SWAP6 POP POP POP POP POP POP SWAP2 SWAP1 POP JUMP JUMPDEST PUSH2 0x7D2 PUSH2 0x18C6 JUMP JUMPDEST PUSH2 0x7DE DUP4 DUP4 PUSH1 0x0 PUSH2 0x8CB JUMP JUMPDEST SWAP1 POP SWAP3 SWAP2 POP POP JUMP JUMPDEST PUSH2 0x7EE PUSH2 0x18E9 JUMP JUMPDEST PUSH2 0x7FC DUP2 PUSH1 0x0 ADD MLOAD DUP4 PUSH2 0xE42 JUMP JUMPDEST POP PUSH1 0x0 DUP2 PUSH1 0x20 ADD DUP2 DUP2 MSTORE POP POP SWAP2 SWAP1 POP JUMP JUMPDEST PUSH2 0x819 DUP3 PUSH1 0x4 DUP4 PUSH2 0xEBB JUMP JUMPDEST POP POP JUMP JUMPDEST PUSH2 0x82A DUP3 PUSH1 0x3 DUP4 MLOAD PUSH2 0xECB JUMP JUMPDEST PUSH2 0x841 DUP2 DUP4 PUSH1 0x0 ADD MLOAD PUSH2 0x1074 SWAP1 SWAP2 SWAP1 PUSH4 0xFFFFFFFF AND JUMP JUMPDEST POP POP POP JUMP JUMPDEST PUSH2 0x852 DUP3 PUSH1 0x0 DUP4 PUSH2 0xECB JUMP JUMPDEST POP POP JUMP JUMPDEST PUSH2 0x86E DUP3 DUP3 PUSH2 0x866 JUMPI PUSH1 0x14 PUSH2 0x869 JUMP JUMPDEST PUSH1 0x15 JUMPDEST PUSH2 0x1090 JUMP JUMPDEST POP POP JUMP JUMPDEST PUSH1 0x60 PUSH1 0x0 DUP3 PUSH1 0x20 ADD MLOAD EQ PUSH2 0x8BB JUMPI PUSH1 0x40 MLOAD PUSH32 0x8C379A000000000000000000000000000000000000000000000000000000000 DUP2 MSTORE PUSH1 0x4 ADD PUSH2 0x8B2 SWAP1 PUSH2 0x252F JUMP JUMPDEST PUSH1 0x40 MLOAD DUP1 SWAP2 SUB SWAP1 REVERT JUMPDEST DUP2 PUSH1 0x0 ADD MLOAD PUSH1 0x0 ADD MLOAD SWAP1 POP SWAP2 SWAP1 POP JUMP JUMPDEST PUSH2 0x8D3 PUSH2 0x18C6 JUMP JUMPDEST PUSH1 0x20 DUP5 ADD DUP5 MLOAD PUSH1 0x0 MSIZE PUSH1 0x0 PUSH1 0x20 DUP5 MOD EQ PUSH1 0x1 DUP2 EQ PUSH2 0x905 JUMPI PUSH1 0x20 DUP5 MOD PUSH1 0x20 SUB PUSH1 0x20 DUP2 DUP5 ADD ADD SWAP4 POP DUP1 DUP6 ADD DUP4 MSTORE POP PUSH2 0x90F JUMP JUMPDEST PUSH1 0x20 DUP3 ADD SWAP3 POP DUP4 DUP3 MSTORE JUMPDEST POP DUP3 DUP3 DUP5 DUP7 PUSH1 0x4 PUSH2 0x1C2 STATICCALL POP PUSH1 0x20 DUP2 MLOAD ADD DUP2 ADD PUSH1 0x40 MSTORE DUP1 MLOAD JUMPDEST PUSH1 0x0 PUSH1 0x20 DUP3 EQ SUB PUSH2 0x95B JUMPI PUSH1 0x0 PUSH1 0x20 DUP4 ADD MLOAD EQ PUSH1 0x1 DUP2 EQ PUSH2 0x949 JUMPI POP PUSH2 0x95B JUMP JUMPDEST PUSH1 0x20 DUP4 ADD SWAP3 POP POP PUSH1 0x20 DUP2 SUB SWAP1 POP PUSH2 0x928 JUMP JUMPDEST DUP1 DUP3 MSTORE DUP2 DUP7 MSTORE DUP8 PUSH1 0x20 DUP8 ADD MSTORE POP POP POP POP POP PUSH1 0x0 DUP3 EQ PUSH2 0x97A JUMPI DUP2 PUSH2 0x988 JUMP JUMPDEST PUSH2 0x987 DUP2 PUSH1 0x0 ADD MLOAD PUSH2 0x10B6 JUMP JUMPDEST JUMPDEST DUP2 PUSH1 0x40 ADD DUP2 DUP2 MSTORE POP POP SWAP4 SWAP3 POP POP POP JUMP JUMPDEST PUSH2 0x9A0 PUSH2 0x1909 JUMP JUMPDEST JUMPDEST PUSH1 0x1 ISZERO PUSH2 0xA0A JUMPI PUSH1 0x0 PUSH1 0x7F DUP4 AND SWAP1 POP PUSH1 0x7 DUP4 PUSH8 0xFFFFFFFFFFFFFFFF AND SWAP1 SHR SWAP3 POP PUSH1 0x0 DUP4 PUSH8 0xFFFFFFFFFFFFFFFF AND SUB PUSH2 0x9ED JUMPI PUSH2 0x9E6 DUP2 DUP4 PUSH2 0x10F6 SWAP1 SWAP2 SWAP1 PUSH4 0xFFFFFFFF AND JUMP JUMPDEST POP POP PUSH2 0xA0B JUMP JUMPDEST PUSH2 0xA03 PUSH1 0x80 DUP3 OR DUP4 PUSH2 0x10F6 SWAP1 SWAP2 SWAP1 PUSH4 0xFFFFFFFF AND JUMP JUMPDEST POP POP PUSH2 0x9A1 JUMP JUMPDEST JUMPDEST SWAP2 SWAP1 POP JUMP JUMPDEST PUSH1 0x60 PUSH1 0x0 PUSH1 0x1 DUP4 PUSH1 0x0 ADD MLOAD MLOAD PUSH2 0xA26 SWAP2 SWAP1 PUSH2 0x249E JUMP JUMPDEST PUSH8 0xFFFFFFFFFFFFFFFF DUP2 GT ISZERO PUSH2 0xA3F JUMPI PUSH2 0xA3E PUSH2 0x1BD2 JUMP JUMPDEST JUMPDEST PUSH1 0x40 MLOAD SWAP1 DUP1 DUP3 MSTORE DUP1 PUSH1 0x1F ADD PUSH1 0x1F NOT AND PUSH1 0x20 ADD DUP3 ADD PUSH1 0x40 MSTORE DUP1 ISZERO PUSH2 0xA71 JUMPI DUP2 PUSH1 0x20 ADD PUSH1 0x1 DUP3 MUL DUP1 CALLDATASIZE DUP4 CALLDATACOPY DUP1 DUP3 ADD SWAP2 POP POP SWAP1 POP JUMPDEST POP SWAP1 POP PUSH1 0x1 ISZERO ISZERO DUP4 PUSH1 0x20 ADD MLOAD ISZERO ISZERO EQ PUSH2 0xA8E JUMPI PUSH1 0x0 PUSH1 0xF8 SHL PUSH2 0xA94 JUMP JUMPDEST PUSH1 0x1 PUSH1 0xF8 SHL JUMPDEST DUP2 PUSH1 0x0 DUP2 MLOAD DUP2 LT PUSH2 0xAA8 JUMPI PUSH2 0xAA7 PUSH2 0x254F JUMP JUMPDEST JUMPDEST PUSH1 0x20 ADD ADD SWAP1 PUSH31 0xFFFFFFFFFFFFFFFFFFFFFFFFFFFFFFFFFFFFFFFFFFFFFFFFFFFFFFFFFFFFFF NOT AND SWAP1 DUP2 PUSH1 0x0 BYTE SWAP1 MSTORE8 POP PUSH1 0x0 PUSH1 0x1 SWAP1 POP PUSH1 0x0 JUMPDEST DUP5 PUSH1 0x0 ADD MLOAD MLOAD DUP2 LT ISZERO PUSH2 0xB72 JUMPI DUP5 PUSH1 0x0 ADD MLOAD DUP2 DUP2 MLOAD DUP2 LT PUSH2 0xB04 JUMPI PUSH2 0xB03 PUSH2 0x254F JUMP JUMPDEST JUMPDEST PUSH1 0x20 ADD ADD MLOAD PUSH1 0xF8 SHR PUSH1 0xF8 SHL DUP4 DUP4 DUP2 MLOAD DUP2 LT PUSH2 0xB22 JUMPI PUSH2 0xB21 PUSH2 0x254F JUMP JUMPDEST JUMPDEST PUSH1 0x20 ADD ADD SWAP1 PUSH31 0xFFFFFFFFFFFFFFFFFFFFFFFFFFFFFFFFFFFFFFFFFFFFFFFFFFFFFFFFFFFFFF NOT AND SWAP1 DUP2 PUSH1 0x0 BYTE SWAP1 MSTORE8 POP DUP2 DUP1 PUSH2 0xB5C SWAP1 PUSH2 0x257E JUMP JUMPDEST SWAP3 POP POP DUP1 DUP1 PUSH2 0xB6A SWAP1 PUSH2 0x257E JUMP JUMPDEST SWAP2 POP POP PUSH2 0xAE0 JUMP JUMPDEST POP DUP2 SWAP3 POP POP POP SWAP2 SWAP1 POP JUMP JUMPDEST PUSH1 0x0 PUSH1 0x17 DUP3 GT PUSH2 0xB90 JUMPI PUSH1 0x1 SWAP1 POP PUSH2 0xBCC JUMP JUMPDEST PUSH1 0xFF DUP3 GT PUSH2 0xBA1 JUMPI PUSH1 0x2 SWAP1 POP PUSH2 0xBCC JUMP JUMPDEST PUSH2 0xFFFF DUP3 GT PUSH2 0xBB3 JUMPI PUSH1 0x3 SWAP1 POP PUSH2 0xBCC JUMP JUMPDEST PUSH4 0xFFFFFFFF DUP3 GT PUSH2 0xBC7 JUMPI PUSH1 0x5 SWAP1 POP PUSH2 0xBCC JUMP JUMPDEST PUSH1 0x9 SWAP1 POP JUMPDEST SWAP2 SWAP1 POP JUMP JUMPDEST PUSH1 0x0 DUP2 MLOAD PUSH2 0xBDF PUSH1 0x2 PUSH2 0xB7D JUMP JUMPDEST PUSH2 0xBE9 SWAP2 SWAP1 PUSH2 0x249E JUMP JUMPDEST SWAP1 POP SWAP2 SWAP1 POP JUMP JUMPDEST PUSH1 0x0 PUSH2 0xBFC PUSH1 0x1 PUSH2 0xB7D JUMP JUMPDEST SWAP1 POP SWAP1 JUMP JUMPDEST PUSH1 0x0 DUP2 MLOAD PUSH2 0xC0F DUP4 MLOAD PUSH2 0xB7D JUMP JUMPDEST PUSH2 0xC19 SWAP2 SWAP1 PUSH2 0x249E JUMP JUMPDEST SWAP1 POP SWAP2 SWAP1 POP JUMP JUMPDEST PUSH1 0x0 DUP1 DUP3 SWAP1 POP PUSH1 0x0 DUP2 PUSH1 0x7 SIGNEXTEND SLT PUSH2 0xC4C JUMPI PUSH2 0xC44 DUP2 PUSH8 0xFFFFFFFFFFFFFFFF AND PUSH2 0xB7D JUMP JUMPDEST SWAP2 POP POP PUSH2 0xC8E JUMP JUMPDEST PUSH2 0xC8A DUP2 PUSH32 0xFFFFFFFFFFFFFFFFFFFFFFFFFFFFFFFFFFFFFFFFFFFFFFFFFFFFFFFFFFFFFFFF PUSH2 0xC7B SWAP2 SWAP1 PUSH2 0x25C6 JUMP JUMPDEST PUSH8 0xFFFFFFFFFFFFFFFF AND PUSH2 0xB7D JUMP JUMPDEST SWAP2 POP POP JUMPDEST SWAP2 SWAP1 POP JUMP JUMPDEST PUSH2 0xC9B PUSH2 0x1923 JUMP JUMPDEST PUSH2 0xCA9 DUP2 PUSH1 0x0 ADD MLOAD DUP4 PUSH2 0xE42 JUMP JUMPDEST POP PUSH1 0x0 DUP2 PUSH1 0x20 ADD DUP2 DUP2 MSTORE POP POP SWAP2 SWAP1 POP JUMP JUMPDEST PUSH2 0xCC6 DUP3 PUSH1 0x4 DUP4 PUSH2 0x1160 JUMP JUMPDEST POP POP JUMP JUMPDEST PUSH2 0xCEC PUSH1 0x18 PUSH1 0x5 PUSH1 0x6 PUSH1 0xFF AND SWAP1 SHL OR DUP4 PUSH1 0x0 ADD MLOAD PUSH2 0x10F6 SWAP1 SWAP2 SWAP1 PUSH4 0xFFFFFFFF AND JUMP JUMPDEST POP PUSH2 0xD05 PUSH1 0x2A DUP4 PUSH1 0x0 ADD MLOAD PUSH2 0x10F6 SWAP1 SWAP2 SWAP1 PUSH4 0xFFFFFFFF AND JUMP JUMPDEST POP PUSH2 0xD38 DUP2 PUSH1 0x40 MLOAD PUSH1 0x20 ADD PUSH2 0xD1A SWAP2 SWAP1 PUSH2 0x262D JUMP JUMPDEST PUSH1 0x40 MLOAD PUSH1 0x20 DUP2 DUP4 SUB SUB DUP2 MSTORE SWAP1 PUSH1 0x40 MSTORE DUP4 PUSH2 0xD68 SWAP1 SWAP2 SWAP1 PUSH4 0xFFFFFFFF AND JUMP JUMPDEST POP POP JUMP JUMPDEST PUSH2 0xD48 DUP3 PUSH1 0x0 DUP4 PUSH2 0x1170 JUMP JUMPDEST POP POP JUMP JUMPDEST PUSH2 0xD64 DUP3 DUP3 PUSH2 0xD5C JUMPI PUSH1 0x14 PUSH2 0xD5F JUMP JUMPDEST PUSH1 0x15 JUMPDEST PUSH2 0x1319 JUMP JUMPDEST POP POP JUMP JUMPDEST PUSH2 0xD75 DUP3 PUSH1 0x2 DUP4 MLOAD PUSH2 0x1170 JUMP JUMPDEST PUSH2 0xD8C DUP2 DUP4 PUSH1 0x0 ADD MLOAD PUSH2 0x1074 SWAP1 SWAP2 SWAP1 PUSH4 0xFFFFFFFF AND JUMP JUMPDEST POP POP POP JUMP JUMPDEST DUP1 PUSH1 0x20 ADD MLOAD PUSH2 0xDB6 JUMPI PUSH2 0xDB1 DUP2 PUSH1 0x0 ADD MLOAD DUP4 PUSH2 0xD68 SWAP1 SWAP2 SWAP1 PUSH4 0xFFFFFFFF AND JUMP JUMPDEST PUSH2 0xDCE JUMP JUMPDEST PUSH2 0xDCD DUP2 PUSH1 0x0 ADD MLOAD DUP4 PUSH2 0x133F SWAP1 SWAP2 SWAP1 PUSH4 0xFFFFFFFF AND JUMP JUMPDEST JUMPDEST POP POP JUMP JUMPDEST PUSH2 0xDE5 DUP2 DUP4 PUSH2 0x1368 SWAP1 SWAP2 SWAP1 PUSH4 0xFFFFFFFF AND JUMP JUMPDEST POP POP JUMP JUMPDEST PUSH1 0x60 PUSH1 0x0 DUP3 PUSH1 0x20 ADD MLOAD EQ PUSH2 0xE32 JUMPI PUSH1 0x40 MLOAD PUSH32 0x8C379A000000000000000000000000000000000000000000000000000000000 DUP2 MSTORE PUSH1 0x4 ADD PUSH2 0xE29 SWAP1 PUSH2 0x252F JUMP JUMPDEST PUSH1 0x40 MLOAD DUP1 SWAP2 SUB SWAP1 REVERT JUMPDEST DUP2 PUSH1 0x0 ADD MLOAD PUSH1 0x0 ADD MLOAD SWAP1 POP SWAP2 SWAP1 POP JUMP JUMPDEST PUSH2 0xE4A PUSH2 0x1909 JUMP JUMPDEST PUSH1 0x0 PUSH1 0x20 DUP4 PUSH2 0xE59 SWAP2 SWAP1 PUSH2 0x2682 JUMP JUMPDEST EQ PUSH2 0xE85 JUMPI PUSH1 0x20 DUP3 PUSH2 0xE6B SWAP2 SWAP1 PUSH2 0x2682 JUMP JUMPDEST PUSH1 0x20 PUSH2 0xE77 SWAP2 SWAP1 PUSH2 0x26B3 JUMP JUMPDEST DUP3 PUSH2 0xE82 SWAP2 SWAP1 PUSH2 0x249E JUMP JUMPDEST SWAP2 POP JUMPDEST DUP2 DUP4 PUSH1 0x20 ADD DUP2 DUP2 MSTORE POP POP PUSH1 0x40 MLOAD DUP1 DUP5 MSTORE PUSH1 0x0 DUP2 MSTORE DUP3 DUP2 ADD PUSH1 0x20 ADD DUP2 DUP2 LT ISZERO PUSH2 0xEAC JUMPI PUSH1 0x0 DUP1 REVERT JUMPDEST DUP1 PUSH1 0x40 MSTORE POP POP DUP3 SWAP1 POP SWAP3 SWAP2 POP POP JUMP JUMPDEST PUSH2 0xEC6 DUP4 DUP4 DUP4 PUSH2 0xECB JUMP JUMPDEST POP POP POP JUMP JUMPDEST PUSH1 0x17 DUP2 PUSH8 0xFFFFFFFFFFFFFFFF AND GT PUSH2 0xF06 JUMPI PUSH2 0xF00 DUP2 PUSH1 0x5 DUP5 PUSH1 0xFF AND SWAP1 SHL PUSH1 0xFF AND OR DUP5 PUSH1 0x0 ADD MLOAD PUSH2 0x10F6 SWAP1 SWAP2 SWAP1 PUSH4 0xFFFFFFFF AND JUMP JUMPDEST POP PUSH2 0x106F JUMP JUMPDEST PUSH1 0xFF DUP2 PUSH8 0xFFFFFFFFFFFFFFFF AND GT PUSH2 0xF64 JUMPI PUSH2 0xF39 PUSH1 0x18 PUSH1 0x5 DUP5 PUSH1 0xFF AND SWAP1 SHL OR DUP5 PUSH1 0x0 ADD MLOAD PUSH2 0x10F6 SWAP1 SWAP2 SWAP1 PUSH4 0xFFFFFFFF AND JUMP JUMPDEST POP PUSH2 0xF5E DUP2 PUSH8 0xFFFFFFFFFFFFFFFF AND PUSH1 0x1 DUP6 PUSH1 0x0 ADD MLOAD PUSH2 0x13C0 SWAP1 SWAP3 SWAP2 SWAP1 PUSH4 0xFFFFFFFF AND JUMP JUMPDEST POP PUSH2 0x106E JUMP JUMPDEST PUSH2 0xFFFF DUP2 PUSH8 0xFFFFFFFFFFFFFFFF AND GT PUSH2 0xFC3 JUMPI PUSH2 0xF98 PUSH1 0x19 PUSH1 0x5 DUP5 PUSH1 0xFF AND SWAP1 SHL OR DUP5 PUSH1 0x0 ADD MLOAD PUSH2 0x10F6 SWAP1 SWAP2 SWAP1 PUSH4 0xFFFFFFFF AND JUMP JUMPDEST POP PUSH2 0xFBD DUP2 PUSH8 0xFFFFFFFFFFFFFFFF AND PUSH1 0x2 DUP6 PUSH1 0x0 ADD MLOAD PUSH2 0x13C0 SWAP1 SWAP3 SWAP2 SWAP1 PUSH4 0xFFFFFFFF AND JUMP JUMPDEST POP PUSH2 0x106D JUMP JUMPDEST PUSH4 0xFFFFFFFF DUP2 PUSH8 0xFFFFFFFFFFFFFFFF AND GT PUSH2 0x1024 JUMPI PUSH2 0xFF9 PUSH1 0x1A PUSH1 0x5 DUP5 PUSH1 0xFF AND SWAP1 SHL OR DUP5 PUSH1 0x0 ADD MLOAD PUSH2 0x10F6 SWAP1 SWAP2 SWAP1 PUSH4 0xFFFFFFFF AND JUMP JUMPDEST POP PUSH2 0x101E DUP2 PUSH8 0xFFFFFFFFFFFFFFFF AND PUSH1 0x4 DUP6 PUSH1 0x0 ADD MLOAD PUSH2 0x13C0 SWAP1 SWAP3 SWAP2 SWAP1 PUSH4 0xFFFFFFFF AND JUMP JUMPDEST POP PUSH2 0x106C JUMP JUMPDEST PUSH2 0x1045 PUSH1 0x1B PUSH1 0x5 DUP5 PUSH1 0xFF AND SWAP1 SHL OR DUP5 PUSH1 0x0 ADD MLOAD PUSH2 0x10F6 SWAP1 SWAP2 SWAP1 PUSH4 0xFFFFFFFF AND JUMP JUMPDEST POP PUSH2 0x106A DUP2 PUSH8 0xFFFFFFFFFFFFFFFF AND PUSH1 0x8 DUP6 PUSH1 0x0 ADD MLOAD PUSH2 0x13C0 SWAP1 SWAP3 SWAP2 SWAP1 PUSH4 0xFFFFFFFF AND JUMP JUMPDEST POP JUMPDEST JUMPDEST JUMPDEST JUMPDEST POP POP POP JUMP JUMPDEST PUSH2 0x107C PUSH2 0x1909 JUMP JUMPDEST PUSH2 0x1088 DUP4 DUP4 DUP5 MLOAD PUSH2 0x144D JUMP JUMPDEST SWAP1 POP SWAP3 SWAP2 POP POP JUMP JUMPDEST PUSH2 0x10B1 DUP2 PUSH1 0x5 PUSH1 0x7 PUSH1 0xFF AND SWAP1 SHL OR DUP4 PUSH1 0x0 ADD MLOAD PUSH2 0x10F6 SWAP1 SWAP2 SWAP1 PUSH4 0xFFFFFFFF AND JUMP JUMPDEST POP POP POP JUMP JUMPDEST PUSH1 0x0 PUSH2 0x10C1 DUP3 PUSH2 0x1530 JUMP JUMPDEST ISZERO PUSH2 0x10CF JUMPI PUSH1 0x0 SWAP1 POP PUSH2 0x10F1 JUMP JUMPDEST PUSH1 0x0 PUSH1 0x20 DUP4 ADD MLOAD SWAP1 POP PUSH2 0x10E1 DUP2 PUSH2 0x1587 JUMP JUMPDEST SWAP2 POP PUSH1 0x8 PUSH1 0x20 DUP5 MLOAD SUB MUL DUP3 ADD SWAP2 POP POP JUMPDEST SWAP2 SWAP1 POP JUMP JUMPDEST PUSH2 0x10FE PUSH2 0x1909 JUMP JUMPDEST PUSH1 0x0 DUP4 PUSH1 0x0 ADD MLOAD MLOAD SWAP1 POP PUSH1 0x0 PUSH1 0x1 DUP3 PUSH2 0x1117 SWAP2 SWAP1 PUSH2 0x249E JUMP JUMPDEST SWAP1 POP DUP5 PUSH1 0x20 ADD MLOAD DUP3 LT PUSH2 0x113B JUMPI PUSH2 0x113A DUP6 PUSH1 0x2 DUP4 PUSH2 0x1135 SWAP2 SWAP1 PUSH2 0x26E7 JUMP JUMPDEST PUSH2 0x17DD JUMP JUMPDEST JUMPDEST DUP5 MLOAD PUSH1 0x20 DUP4 DUP3 ADD ADD DUP6 DUP2 MSTORE8 DUP2 MLOAD DUP4 GT ISZERO PUSH2 0x1153 JUMPI DUP3 DUP3 MSTORE JUMPDEST POP POP DUP5 SWAP3 POP POP POP SWAP3 SWAP2 POP POP JUMP JUMPDEST PUSH2 0x116B DUP4 DUP4 DUP4 PUSH2 0x1170 JUMP JUMPDEST POP POP POP JUMP JUMPDEST PUSH1 0x17 DUP2 PUSH8 0xFFFFFFFFFFFFFFFF AND GT PUSH2 0x11AB JUMPI PUSH2 0x11A5 DUP2 PUSH1 0x5 DUP5 PUSH1 0xFF AND SWAP1 SHL PUSH1 0xFF AND OR DUP5 PUSH1 0x0 ADD MLOAD PUSH2 0x10F6 SWAP1 SWAP2 SWAP1 PUSH4 0xFFFFFFFF AND JUMP JUMPDEST POP PUSH2 0x1314 JUMP JUMPDEST PUSH1 0xFF DUP2 PUSH8 0xFFFFFFFFFFFFFFFF AND GT PUSH2 0x1209 JUMPI PUSH2 0x11DE PUSH1 0x18 PUSH1 0x5 DUP5 PUSH1 0xFF AND SWAP1 SHL OR DUP5 PUSH1 0x0 ADD MLOAD PUSH2 0x10F6 SWAP1 SWAP2 SWAP1 PUSH4 0xFFFFFFFF AND JUMP JUMPDEST POP PUSH2 0x1203 DUP2 PUSH8 0xFFFFFFFFFFFFFFFF AND PUSH1 0x1 DUP6 PUSH1 0x0 ADD MLOAD PUSH2 0x13C0 SWAP1 SWAP3 SWAP2 SWAP1 PUSH4 0xFFFFFFFF AND JUMP JUMPDEST POP PUSH2 0x1313 JUMP JUMPDEST PUSH2 0xFFFF DUP2 PUSH8 0xFFFFFFFFFFFFFFFF AND GT PUSH2 0x1268 JUMPI PUSH2 0x123D PUSH1 0x19 PUSH1 0x5 DUP5 PUSH1 0xFF AND SWAP1 SHL OR DUP5 PUSH1 0x0 ADD MLOAD PUSH2 0x10F6 SWAP1 SWAP2 SWAP1 PUSH4 0xFFFFFFFF AND JUMP JUMPDEST POP PUSH2 0x1262 DUP2 PUSH8 0xFFFFFFFFFFFFFFFF AND PUSH1 0x2 DUP6 PUSH1 0x0 ADD MLOAD PUSH2 0x13C0 SWAP1 SWAP3 SWAP2 SWAP1 PUSH4 0xFFFFFFFF AND JUMP JUMPDEST POP PUSH2 0x1312 JUMP JUMPDEST PUSH4 0xFFFFFFFF DUP2 PUSH8 0xFFFFFFFFFFFFFFFF AND GT PUSH2 0x12C9 JUMPI PUSH2 0x129E PUSH1 0x1A PUSH1 0x5 DUP5 PUSH1 0xFF AND SWAP1 SHL OR DUP5 PUSH1 0x0 ADD MLOAD PUSH2 0x10F6 SWAP1 SWAP2 SWAP1 PUSH4 0xFFFFFFFF AND JUMP JUMPDEST POP PUSH2 0x12C3 DUP2 PUSH8 0xFFFFFFFFFFFFFFFF AND PUSH1 0x4 DUP6 PUSH1 0x0 ADD MLOAD PUSH2 0x13C0 SWAP1 SWAP3 SWAP2 SWAP1 PUSH4 0xFFFFFFFF AND JUMP JUMPDEST POP PUSH2 0x1311 JUMP JUMPDEST PUSH2 0x12EA PUSH1 0x1B PUSH1 0x5 DUP5 PUSH1 0xFF AND SWAP1 SHL OR DUP5 PUSH1 0x0 ADD MLOAD PUSH2 0x10F6 SWAP1 SWAP2 SWAP1 PUSH4 0xFFFFFFFF AND JUMP JUMPDEST POP PUSH2 0x130F DUP2 PUSH8 0xFFFFFFFFFFFFFFFF AND PUSH1 0x8 DUP6 PUSH1 0x0 ADD MLOAD PUSH2 0x13C0 SWAP1 SWAP3 SWAP2 SWAP1 PUSH4 0xFFFFFFFF AND JUMP JUMPDEST POP JUMPDEST JUMPDEST JUMPDEST JUMPDEST POP POP POP JUMP JUMPDEST PUSH2 0x133A DUP2 PUSH1 0x5 PUSH1 0x7 PUSH1 0xFF AND SWAP1 SHL OR DUP4 PUSH1 0x0 ADD MLOAD PUSH2 0x10F6 SWAP1 SWAP2 SWAP1 PUSH4 0xFFFFFFFF AND JUMP JUMPDEST POP POP POP JUMP JUMPDEST PUSH2 0x134C DUP3 PUSH1 0x3 DUP4 MLOAD PUSH2 0x1170 JUMP JUMPDEST PUSH2 0x1363 DUP2 DUP4 PUSH1 0x0 ADD MLOAD PUSH2 0x1074 SWAP1 SWAP2 SWAP1 PUSH4 0xFFFFFFFF AND JUMP JUMPDEST POP POP POP JUMP JUMPDEST PUSH1 0x0 DUP2 PUSH1 0x7 SIGNEXTEND SLT PUSH2 0x1384 JUMPI PUSH2 0x137F DUP3 PUSH1 0x0 DUP4 PUSH2 0x1170 JUMP JUMPDEST PUSH2 0x13BC JUMP JUMPDEST PUSH2 0x13BB DUP3 PUSH1 0x1 DUP4 PUSH32 0xFFFFFFFFFFFFFFFFFFFFFFFFFFFFFFFFFFFFFFFFFFFFFFFFFFFFFFFFFFFFFFFF PUSH2 0x13B6 SWAP2 SWAP1 PUSH2 0x25C6 JUMP JUMPDEST PUSH2 0x1170 JUMP JUMPDEST JUMPDEST POP POP JUMP JUMPDEST PUSH2 0x13C8 PUSH2 0x1909 JUMP JUMPDEST PUSH1 0x0 DUP5 PUSH1 0x0 ADD MLOAD MLOAD SWAP1 POP PUSH1 0x0 DUP2 DUP5 PUSH2 0x13E0 SWAP2 SWAP1 PUSH2 0x249E JUMP JUMPDEST SWAP1 POP DUP6 PUSH1 0x20 ADD MLOAD DUP2 GT ISZERO PUSH2 0x1405 JUMPI PUSH2 0x1404 DUP7 PUSH1 0x2 DUP4 PUSH2 0x13FF SWAP2 SWAP1 PUSH2 0x26E7 JUMP JUMPDEST PUSH2 0x17DD JUMP JUMPDEST JUMPDEST PUSH1 0x0 PUSH1 0x1 DUP6 PUSH2 0x100 PUSH2 0x1417 SWAP2 SWAP1 PUSH2 0x285C JUMP JUMPDEST PUSH2 0x1421 SWAP2 SWAP1 PUSH2 0x26B3 JUMP JUMPDEST SWAP1 POP DUP7 MLOAD DUP3 DUP2 ADD DUP8 DUP4 NOT DUP3 MLOAD AND OR DUP2 MSTORE DUP2 MLOAD DUP5 GT ISZERO PUSH2 0x143E JUMPI DUP4 DUP3 MSTORE JUMPDEST POP POP DUP7 SWAP4 POP POP POP POP SWAP4 SWAP3 POP POP POP JUMP JUMPDEST PUSH2 0x1455 PUSH2 0x1909 JUMP JUMPDEST DUP3 MLOAD DUP3 GT ISZERO PUSH2 0x1463 JUMPI PUSH1 0x0 DUP1 REVERT JUMPDEST PUSH1 0x0 DUP5 PUSH1 0x0 ADD MLOAD MLOAD SWAP1 POP PUSH1 0x0 DUP4 DUP3 PUSH2 0x147B SWAP2 SWAP1 PUSH2 0x249E JUMP JUMPDEST SWAP1 POP DUP6 PUSH1 0x20 ADD MLOAD DUP2 GT ISZERO PUSH2 0x14A0 JUMPI PUSH2 0x149F DUP7 PUSH1 0x2 DUP4 PUSH2 0x149A SWAP2 SWAP1 PUSH2 0x26E7 JUMP JUMPDEST PUSH2 0x17DD JUMP JUMPDEST JUMPDEST PUSH1 0x0 DUP1 DUP8 MLOAD DUP1 MLOAD DUP6 PUSH1 0x20 DUP4 ADD ADD SWAP4 POP DUP1 DUP6 GT ISZERO PUSH2 0x14BB JUMPI DUP5 DUP3 MSTORE JUMPDEST PUSH1 0x20 DUP10 ADD SWAP3 POP POP POP JUMPDEST PUSH1 0x20 DUP7 LT PUSH2 0x1502 JUMPI DUP1 MLOAD DUP3 MSTORE PUSH1 0x20 DUP3 PUSH2 0x14DD SWAP2 SWAP1 PUSH2 0x249E JUMP JUMPDEST SWAP2 POP PUSH1 0x20 DUP2 PUSH2 0x14EC SWAP2 SWAP1 PUSH2 0x249E JUMP JUMPDEST SWAP1 POP PUSH1 0x20 DUP7 PUSH2 0x14FB SWAP2 SWAP1 PUSH2 0x26B3 JUMP JUMPDEST SWAP6 POP PUSH2 0x14C4 JUMP JUMPDEST PUSH1 0x0 PUSH1 0x1 DUP8 PUSH1 0x20 SUB PUSH2 0x100 EXP SUB SWAP1 POP DUP1 NOT DUP3 MLOAD AND DUP2 DUP5 MLOAD AND DUP2 DUP2 OR DUP6 MSTORE POP POP POP DUP8 SWAP5 POP POP POP POP POP SWAP4 SWAP3 POP POP POP JUMP JUMPDEST PUSH1 0x0 DUP1 PUSH1 0x0 PUSH1 0x20 DUP5 ADD SWAP1 POP PUSH1 0x0 JUMPDEST DUP5 MLOAD DUP2 LT ISZERO PUSH2 0x157A JUMPI DUP2 MLOAD SWAP3 POP PUSH1 0x0 DUP4 GT ISZERO PUSH2 0x1560 JUMPI PUSH1 0x0 SWAP4 POP POP POP POP PUSH2 0x1582 JUMP JUMPDEST PUSH1 0x20 DUP3 ADD SWAP2 POP PUSH1 0x20 DUP2 PUSH2 0x1573 SWAP2 SWAP1 PUSH2 0x249E JUMP JUMPDEST SWAP1 POP PUSH2 0x153E JUMP JUMPDEST POP PUSH1 0x1 SWAP3 POP POP POP JUMPDEST SWAP2 SWAP1 POP JUMP JUMPDEST PUSH1 0x0 DUP1 DUP3 EQ PUSH1 0x1 DUP2 EQ PUSH2 0x17D2 JUMPI DUP3 PUSH1 0x1 DUP5 SUB SWAP4 POP PUSH1 0x2 DUP5 DIV DUP5 OR SWAP4 POP PUSH1 0x4 DUP5 DIV DUP5 OR SWAP4 POP PUSH1 0x10 DUP5 DIV DUP5 OR SWAP4 POP PUSH2 0x100 DUP5 DIV DUP5 OR SWAP4 POP PUSH3 0x10000 DUP5 DIV DUP5 OR SWAP4 POP PUSH5 0x100000000 DUP5 DIV DUP5 OR SWAP4 POP PUSH9 0x10000000000000000 DUP5 DIV DUP5 OR SWAP4 POP PUSH17 0x100000000000000000000000000000000 DUP5 DIV DUP5 OR SWAP4 POP PUSH1 0x1 DUP5 ADD SWAP4 POP PUSH1 0x40 MLOAD PUSH32 0xF8F9CBFAE6CC78FBEFE7CDC3A1793DFCF4F0E8BBD8CEC470B6A28A7A5A3E1EFD DUP2 MSTORE PUSH32 0xF5ECF1B3E9DEBC68E1D9CFABC5997135BFB7A7A3938B7B606B5B4B3F2F1F0FFE PUSH1 0x20 DUP3 ADD MSTORE PUSH32 0xF6E4ED9FF2D6B458EADCDF97BD91692DE2D4DA8FD2D0AC50C6AE9A8272523616 PUSH1 0x40 DUP3 ADD MSTORE PUSH32 0xC8C0B887B0A8A4489C948C7F847C6125746C645C544C444038302820181008FF PUSH1 0x60 DUP3 ADD MSTORE PUSH32 0xF7CAE577EEC2A03CF3BAD76FB589591DEBB2DD67E0AA9834BEA6925F6A4A2E0E PUSH1 0x80 DUP3 ADD MSTORE PUSH32 0xE39ED557DB96902CD38ED14FAD815115C786AF479B7E83247363534337271707 PUSH1 0xA0 DUP3 ADD MSTORE PUSH32 0xC976C13BB96E881CB166A933A55E490D9D56952B8D4E801485467D2362422606 PUSH1 0xC0 DUP3 ADD MSTORE PUSH32 0x753A6D1B65325D0C552A4D1345224105391A310B29122104190A110309020100 PUSH1 0xE0 DUP3 ADD MSTORE PUSH2 0x100 DUP2 ADD PUSH1 0x40 MSTORE PUSH31 0x818283848586878898A8B8C8D8E8F929395969799A9B9D9E9FAAEB6BEDEEFF PUSH32 0x100000000000000000000000000000000000000000000000000000000000000 DUP1 DUP3 DUP9 MUL DIV DUP2 DUP2 PUSH1 0xFF SUB DUP6 ADD MLOAD DIV SWAP7 POP PUSH32 0x8000000000000000000000000000000000000000000000000000000000000000 DUP6 GT PUSH2 0x100 MUL DUP8 ADD SWAP7 POP PUSH1 0x0 PUSH1 0x1 DUP7 SUB DUP7 AND SUB PUSH2 0x17C8 JUMPI PUSH1 0x1 DUP8 ADD SWAP7 POP JUMPDEST POP POP POP POP POP PUSH2 0x17D7 JUMP JUMPDEST PUSH1 0x0 SWAP2 POP JUMPDEST POP SWAP2 SWAP1 POP JUMP JUMPDEST PUSH1 0x0 DUP3 PUSH1 0x0 ADD MLOAD SWAP1 POP PUSH2 0x17F0 DUP4 DUP4 PUSH2 0xE42 JUMP JUMPDEST POP PUSH2 0x17FB DUP4 DUP3 PUSH2 0x1074 JUMP JUMPDEST POP POP POP POP JUMP JUMPDEST PUSH1 0x40 MLOAD DUP1 PUSH1 0x40 ADD PUSH1 0x40 MSTORE DUP1 PUSH1 0x60 DUP2 MSTORE PUSH1 0x20 ADD PUSH1 0x0 ISZERO ISZERO DUP2 MSTORE POP SWAP1 JUMP JUMPDEST PUSH1 0x40 MLOAD DUP1 PUSH2 0x160 ADD PUSH1 0x40 MSTORE DUP1 PUSH2 0x1831 PUSH2 0x1943 JUMP JUMPDEST DUP2 MSTORE PUSH1 0x20 ADD PUSH1 0x0 PUSH8 0xFFFFFFFFFFFFFFFF AND DUP2 MSTORE PUSH1 0x20 ADD PUSH1 0x0 ISZERO ISZERO DUP2 MSTORE PUSH1 0x20 ADD PUSH2 0x1858 PUSH2 0x18B3 JUMP JUMPDEST DUP2 MSTORE PUSH1 0x20 ADD PUSH2 0x1865 PUSH2 0x18B3 JUMP JUMPDEST DUP2 MSTORE PUSH1 0x20 ADD PUSH2 0x1872 PUSH2 0x1956 JUMP JUMPDEST DUP2 MSTORE PUSH1 0x20 ADD PUSH1 0x0 PUSH1 0x7 SIGNEXTEND DUP2 MSTORE PUSH1 0x20 ADD PUSH1 0x0 PUSH1 0x7 SIGNEXTEND DUP2 MSTORE PUSH1 0x20 ADD PUSH2 0x1893 PUSH2 0x1801 JUMP JUMPDEST DUP2 MSTORE PUSH1 0x20 ADD PUSH2 0x18A0 PUSH2 0x1801 JUMP JUMPDEST DUP2 MSTORE PUSH1 0x20 ADD PUSH2 0x18AD PUSH2 0x1801 JUMP JUMPDEST DUP2 MSTORE POP SWAP1 JUMP JUMPDEST PUSH1 0x40 MLOAD DUP1 PUSH1 0x20 ADD PUSH1 0x40 MSTORE DUP1 PUSH1 0x60 DUP2 MSTORE POP SWAP1 JUMP JUMPDEST PUSH1 0x40 MLOAD DUP1 PUSH1 0x60 ADD PUSH1 0x40 MSTORE DUP1 PUSH1 0x60 DUP2 MSTORE PUSH1 0x20 ADD PUSH1 0x0 ISZERO ISZERO DUP2 MSTORE PUSH1 0x20 ADD PUSH1 0x0 DUP2 MSTORE POP SWAP1 JUMP JUMPDEST PUSH1 0x40 MLOAD DUP1 PUSH1 0x40 ADD PUSH1 0x40 MSTORE DUP1 PUSH2 0x18FC PUSH2 0x1909 JUMP JUMPDEST DUP2 MSTORE PUSH1 0x20 ADD PUSH1 0x0 DUP2 MSTORE POP SWAP1 JUMP JUMPDEST PUSH1 0x40 MLOAD DUP1 PUSH1 0x40 ADD PUSH1 0x40 MSTORE DUP1 PUSH1 0x60 DUP2 MSTORE PUSH1 0x20 ADD PUSH1 0x0 DUP2 MSTORE POP SWAP1 JUMP JUMPDEST PUSH1 0x40 MLOAD DUP1 PUSH1 0x40 ADD PUSH1 0x40 MSTORE DUP1 PUSH2 0x1936 PUSH2 0x1909 JUMP JUMPDEST DUP2 MSTORE PUSH1 0x20 ADD PUSH1 0x0 DUP2 MSTORE POP SWAP1 JUMP JUMPDEST PUSH1 0x40 MLOAD DUP1 PUSH1 0x20 ADD PUSH1 0x40 MSTORE DUP1 PUSH1 0x60 DUP2 MSTORE POP SWAP1 JUMP JUMPDEST PUSH1 0x40 MLOAD DUP1 PUSH1 0x40 ADD PUSH1 0x40 MSTORE DUP1 PUSH1 0x60 DUP2 MSTORE PUSH1 0x20 ADD PUSH1 0x0 ISZERO ISZERO DUP2 MSTORE POP SWAP1 JUMP JUMPDEST PUSH1 0x0 PUSH1 0x40 MLOAD SWAP1 POP SWAP1 JUMP JUMPDEST PUSH1 0x0 DUP1 REVERT JUMPDEST PUSH1 0x0 DUP1 REVERT JUMPDEST PUSH1 0x0 DUP2 SWAP1 POP SWAP2 SWAP1 POP JUMP JUMPDEST PUSH2 0x1999 DUP2 PUSH2 0x1986 JUMP JUMPDEST DUP2 EQ PUSH2 0x19A4 JUMPI PUSH1 0x0 DUP1 REVERT JUMPDEST POP JUMP JUMPDEST PUSH1 0x0 DUP2 CALLDATALOAD SWAP1 POP PUSH2 0x19B6 DUP2 PUSH2 0x1990 JUMP JUMPDEST SWAP3 SWAP2 POP POP JUMP JUMPDEST PUSH1 0x0 PUSH1 0x20 DUP3 DUP5 SUB SLT ISZERO PUSH2 0x19D2 JUMPI PUSH2 0x19D1 PUSH2 0x197C JUMP JUMPDEST JUMPDEST PUSH1 0x0 PUSH2 0x19E0 DUP5 DUP3 DUP6 ADD PUSH2 0x19A7 JUMP JUMPDEST SWAP2 POP POP SWAP3 SWAP2 POP POP JUMP JUMPDEST PUSH1 0x0 DUP2 MLOAD SWAP1 POP SWAP2 SWAP1 POP JUMP JUMPDEST PUSH1 0x0 DUP3 DUP3 MSTORE PUSH1 0x20 DUP3 ADD SWAP1 POP SWAP3 SWAP2 POP POP JUMP JUMPDEST PUSH1 0x0 JUMPDEST DUP4 DUP2 LT ISZERO PUSH2 0x1A23 JUMPI DUP1 DUP3 ADD MLOAD DUP2 DUP5 ADD MSTORE PUSH1 0x20 DUP2 ADD SWAP1 POP PUSH2 0x1A08 JUMP JUMPDEST PUSH1 0x0 DUP5 DUP5 ADD MSTORE POP POP POP POP JUMP JUMPDEST PUSH1 0x0 PUSH1 0x1F NOT PUSH1 0x1F DUP4 ADD AND SWAP1 POP SWAP2 SWAP1 POP JUMP JUMPDEST PUSH1 0x0 PUSH2 0x1A4B DUP3 PUSH2 0x19E9 JUMP JUMPDEST PUSH2 0x1A55 DUP2 DUP6 PUSH2 0x19F4 JUMP JUMPDEST SWAP4 POP PUSH2 0x1A65 DUP2 DUP6 PUSH1 0x20 DUP7 ADD PUSH2 0x1A05 JUMP JUMPDEST PUSH2 0x1A6E DUP2 PUSH2 0x1A2F JUMP JUMPDEST DUP5 ADD SWAP2 POP POP SWAP3 SWAP2 POP POP JUMP JUMPDEST PUSH1 0x0 DUP2 ISZERO ISZERO SWAP1 POP SWAP2 SWAP1 POP JUMP JUMPDEST PUSH2 0x1A8E DUP2 PUSH2 0x1A79 JUMP JUMPDEST DUP3 MSTORE POP POP JUMP JUMPDEST PUSH1 0x0 PUSH1 0x40 DUP4 ADD PUSH1 0x0 DUP4 ADD MLOAD DUP5 DUP3 SUB PUSH1 0x0 DUP7 ADD MSTORE PUSH2 0x1AB1 DUP3 DUP3 PUSH2 0x1A40 JUMP JUMPDEST SWAP2 POP POP PUSH1 0x20 DUP4 ADD MLOAD PUSH2 0x1AC6 PUSH1 0x20 DUP7 ADD DUP3 PUSH2 0x1A85 JUMP JUMPDEST POP DUP1 SWAP2 POP POP SWAP3 SWAP2 POP POP JUMP JUMPDEST PUSH1 0x0 PUSH1 0x20 DUP3 ADD SWAP1 POP DUP2 DUP2 SUB PUSH1 0x0 DUP4 ADD MSTORE PUSH2 0x1AEB DUP2 DUP5 PUSH2 0x1A94 JUMP JUMPDEST SWAP1 POP SWAP3 SWAP2 POP POP JUMP JUMPDEST PUSH1 0x0 DUP1 REVERT JUMPDEST PUSH1 0x0 PUSH2 0x180 DUP3 DUP5 SUB SLT ISZERO PUSH2 0x1B0F JUMPI PUSH2 0x1B0E PUSH2 0x1AF3 JUMP JUMPDEST JUMPDEST DUP2 SWAP1 POP SWAP3 SWAP2 POP POP JUMP JUMPDEST PUSH1 0x0 PUSH1 0x20 DUP3 DUP5 SUB SLT ISZERO PUSH2 0x1B2E JUMPI PUSH2 0x1B2D PUSH2 0x197C JUMP JUMPDEST JUMPDEST PUSH1 0x0 DUP3 ADD CALLDATALOAD PUSH8 0xFFFFFFFFFFFFFFFF DUP2 GT ISZERO PUSH2 0x1B4C JUMPI PUSH2 0x1B4B PUSH2 0x1981 JUMP JUMPDEST JUMPDEST PUSH2 0x1B58 DUP5 DUP3 DUP6 ADD PUSH2 0x1AF8 JUMP JUMPDEST SWAP2 POP POP SWAP3 SWAP2 POP POP JUMP JUMPDEST PUSH1 0x0 DUP3 DUP3 MSTORE PUSH1 0x20 DUP3 ADD SWAP1 POP SWAP3 SWAP2 POP POP JUMP JUMPDEST PUSH1 0x0 PUSH2 0x1B7D DUP3 PUSH2 0x19E9 JUMP JUMPDEST PUSH2 0x1B87 DUP2 DUP6 PUSH2 0x1B61 JUMP JUMPDEST SWAP4 POP PUSH2 0x1B97 DUP2 DUP6 PUSH1 0x20 DUP7 ADD PUSH2 0x1A05 JUMP JUMPDEST PUSH2 0x1BA0 DUP2 PUSH2 0x1A2F JUMP JUMPDEST DUP5 ADD SWAP2 POP POP SWAP3 SWAP2 POP POP JUMP JUMPDEST PUSH1 0x0 PUSH1 0x20 DUP3 ADD SWAP1 POP DUP2 DUP2 SUB PUSH1 0x0 DUP4 ADD MSTORE PUSH2 0x1BC5 DUP2 DUP5 PUSH2 0x1B72 JUMP JUMPDEST SWAP1 POP SWAP3 SWAP2 POP POP JUMP JUMPDEST PUSH1 0x0 DUP1 REVERT JUMPDEST PUSH32 0x4E487B7100000000000000000000000000000000000000000000000000000000 PUSH1 0x0 MSTORE PUSH1 0x41 PUSH1 0x4 MSTORE PUSH1 0x24 PUSH1 0x0 REVERT JUMPDEST PUSH2 0x1C0A DUP3 PUSH2 0x1A2F JUMP JUMPDEST DUP2 ADD DUP2 DUP2 LT PUSH8 0xFFFFFFFFFFFFFFFF DUP3 GT OR ISZERO PUSH2 0x1C29 JUMPI PUSH2 0x1C28 PUSH2 0x1BD2 JUMP JUMPDEST JUMPDEST DUP1 PUSH1 0x40 MSTORE POP POP POP JUMP JUMPDEST PUSH1 0x0 PUSH2 0x1C3C PUSH2 0x1972 JUMP JUMPDEST SWAP1 POP PUSH2 0x1C48 DUP3 DUP3 PUSH2 0x1C01 JUMP JUMPDEST SWAP2 SWAP1 POP JUMP JUMPDEST PUSH1 0x0 DUP1 REVERT JUMPDEST PUSH1 0x0 DUP1 REVERT JUMPDEST PUSH1 0x0 DUP1 REVERT JUMPDEST PUSH1 0x0 PUSH8 0xFFFFFFFFFFFFFFFF DUP3 GT ISZERO PUSH2 0x1C77 JUMPI PUSH2 0x1C76 PUSH2 0x1BD2 JUMP JUMPDEST JUMPDEST PUSH2 0x1C80 DUP3 PUSH2 0x1A2F JUMP JUMPDEST SWAP1 POP PUSH1 0x20 DUP2 ADD SWAP1 POP SWAP2 SWAP1 POP JUMP JUMPDEST DUP3 DUP2 DUP4 CALLDATACOPY PUSH1 0x0 DUP4 DUP4 ADD MSTORE POP POP POP JUMP JUMPDEST PUSH1 0x0 PUSH2 0x1CAF PUSH2 0x1CAA DUP5 PUSH2 0x1C5C JUMP JUMPDEST PUSH2 0x1C32 JUMP JUMPDEST SWAP1 POP DUP3 DUP2 MSTORE PUSH1 0x20 DUP2 ADD DUP5 DUP5 DUP5 ADD GT ISZERO PUSH2 0x1CCB JUMPI PUSH2 0x1CCA PUSH2 0x1C57 JUMP JUMPDEST JUMPDEST PUSH2 0x1CD6 DUP5 DUP3 DUP6 PUSH2 0x1C8D JUMP JUMPDEST POP SWAP4 SWAP3 POP POP POP JUMP JUMPDEST PUSH1 0x0 DUP3 PUSH1 0x1F DUP4 ADD SLT PUSH2 0x1CF3 JUMPI PUSH2 0x1CF2 PUSH2 0x1C52 JUMP JUMPDEST JUMPDEST DUP2 CALLDATALOAD PUSH2 0x1D03 DUP5 DUP3 PUSH1 0x20 DUP7 ADD PUSH2 0x1C9C JUMP JUMPDEST SWAP2 POP POP SWAP3 SWAP2 POP POP JUMP JUMPDEST PUSH2 0x1D15 DUP2 PUSH2 0x1A79 JUMP JUMPDEST DUP2 EQ PUSH2 0x1D20 JUMPI PUSH1 0x0 DUP1 REVERT JUMPDEST POP JUMP JUMPDEST PUSH1 0x0 DUP2 CALLDATALOAD SWAP1 POP PUSH2 0x1D32 DUP2 PUSH2 0x1D0C JUMP JUMPDEST SWAP3 SWAP2 POP POP JUMP JUMPDEST PUSH1 0x0 PUSH1 0x40 DUP3 DUP5 SUB SLT ISZERO PUSH2 0x1D4E JUMPI PUSH2 0x1D4D PUSH2 0x1BCD JUMP JUMPDEST JUMPDEST PUSH2 0x1D58 PUSH1 0x40 PUSH2 0x1C32 JUMP JUMPDEST SWAP1 POP PUSH1 0x0 DUP3 ADD CALLDATALOAD PUSH8 0xFFFFFFFFFFFFFFFF DUP2 GT ISZERO PUSH2 0x1D78 JUMPI PUSH2 0x1D77 PUSH2 0x1C4D JUMP JUMPDEST JUMPDEST PUSH2 0x1D84 DUP5 DUP3 DUP6 ADD PUSH2 0x1CDE JUMP JUMPDEST PUSH1 0x0 DUP4 ADD MSTORE POP PUSH1 0x20 PUSH2 0x1D98 DUP5 DUP3 DUP6 ADD PUSH2 0x1D23 JUMP JUMPDEST PUSH1 0x20 DUP4 ADD MSTORE POP SWAP3 SWAP2 POP POP JUMP JUMPDEST PUSH1 0x0 PUSH1 0x20 DUP3 DUP5 SUB SLT ISZERO PUSH2 0x1DBA JUMPI PUSH2 0x1DB9 PUSH2 0x197C JUMP JUMPDEST JUMPDEST PUSH1 0x0 DUP3 ADD CALLDATALOAD PUSH8 0xFFFFFFFFFFFFFFFF DUP2 GT ISZERO PUSH2 0x1DD8 JUMPI PUSH2 0x1DD7 PUSH2 0x1981 JUMP JUMPDEST JUMPDEST PUSH2 0x1DE4 DUP5 DUP3 DUP6 ADD PUSH2 0x1D38 JUMP JUMPDEST SWAP2 POP POP SWAP3 SWAP2 POP POP JUMP JUMPDEST PUSH2 0x1DF6 DUP2 PUSH2 0x1986 JUMP JUMPDEST DUP3 MSTORE POP POP JUMP JUMPDEST PUSH1 0x0 PUSH1 0x20 DUP3 ADD SWAP1 POP PUSH2 0x1E11 PUSH1 0x0 DUP4 ADD DUP5 PUSH2 0x1DED JUMP JUMPDEST SWAP3 SWAP2 POP POP JUMP JUMPDEST PUSH1 0x0 PUSH20 0xFFFFFFFFFFFFFFFFFFFFFFFFFFFFFFFFFFFFFFFF DUP3 AND SWAP1 POP SWAP2 SWAP1 POP JUMP JUMPDEST PUSH1 0x0 PUSH2 0x1E42 DUP3 PUSH2 0x1E17 JUMP JUMPDEST SWAP1 POP SWAP2 SWAP1 POP JUMP JUMPDEST PUSH2 0x1E52 DUP2 PUSH2 0x1E37 JUMP JUMPDEST DUP2 EQ PUSH2 0x1E5D JUMPI PUSH1 0x0 DUP1 REVERT JUMPDEST POP JUMP JUMPDEST PUSH1 0x0 DUP2 CALLDATALOAD SWAP1 POP PUSH2 0x1E6F DUP2 PUSH2 0x1E49 JUMP JUMPDEST SWAP3 SWAP2 POP POP JUMP JUMPDEST PUSH1 0x0 PUSH1 0x20 DUP3 DUP5 SUB SLT ISZERO PUSH2 0x1E8B JUMPI PUSH2 0x1E8A PUSH2 0x197C JUMP JUMPDEST JUMPDEST PUSH1 0x0 PUSH2 0x1E99 DUP5 DUP3 DUP6 ADD PUSH2 0x1E60 JUMP JUMPDEST SWAP2 POP POP SWAP3 SWAP2 POP POP JUMP JUMPDEST PUSH1 0x0 PUSH1 0x20 DUP4 ADD PUSH1 0x0 DUP4 ADD MLOAD DUP5 DUP3 SUB PUSH1 0x0 DUP7 ADD MSTORE PUSH2 0x1EBF DUP3 DUP3 PUSH2 0x1A40 JUMP JUMPDEST SWAP2 POP POP DUP1 SWAP2 POP POP SWAP3 SWAP2 POP POP JUMP JUMPDEST PUSH1 0x0 PUSH1 0x20 DUP3 ADD SWAP1 POP DUP2 DUP2 SUB PUSH1 0x0 DUP4 ADD MSTORE PUSH2 0x1EE6 DUP2 DUP5 PUSH2 0x1EA2 JUMP JUMPDEST SWAP1 POP SWAP3 SWAP2 POP POP JUMP JUMPDEST PUSH1 0x0 PUSH8 0xFFFFFFFFFFFFFFFF DUP3 GT ISZERO PUSH2 0x1F09 JUMPI PUSH2 0x1F08 PUSH2 0x1BD2 JUMP JUMPDEST JUMPDEST PUSH2 0x1F12 DUP3 PUSH2 0x1A2F JUMP JUMPDEST SWAP1 POP PUSH1 0x20 DUP2 ADD SWAP1 POP SWAP2 SWAP1 POP JUMP JUMPDEST PUSH1 0x0 PUSH2 0x1F32 PUSH2 0x1F2D DUP5 PUSH2 0x1EEE JUMP JUMPDEST PUSH2 0x1C32 JUMP JUMPDEST SWAP1 POP DUP3 DUP2 MSTORE PUSH1 0x20 DUP2 ADD DUP5 DUP5 DUP5 ADD GT ISZERO PUSH2 0x1F4E JUMPI PUSH2 0x1F4D PUSH2 0x1C57 JUMP JUMPDEST JUMPDEST PUSH2 0x1F59 DUP5 DUP3 DUP6 PUSH2 0x1C8D JUMP JUMPDEST POP SWAP4 SWAP3 POP POP POP JUMP JUMPDEST PUSH1 0x0 DUP3 PUSH1 0x1F DUP4 ADD SLT PUSH2 0x1F76 JUMPI PUSH2 0x1F75 PUSH2 0x1C52 JUMP JUMPDEST JUMPDEST DUP2 CALLDATALOAD PUSH2 0x1F86 DUP5 DUP3 PUSH1 0x20 DUP7 ADD PUSH2 0x1F1F JUMP JUMPDEST SWAP2 POP POP SWAP3 SWAP2 POP POP JUMP JUMPDEST PUSH1 0x0 PUSH8 0xFFFFFFFFFFFFFFFF DUP3 AND SWAP1 POP SWAP2 SWAP1 POP JUMP JUMPDEST PUSH2 0x1FAC DUP2 PUSH2 0x1F8F JUMP JUMPDEST DUP2 EQ PUSH2 0x1FB7 JUMPI PUSH1 0x0 DUP1 REVERT JUMPDEST POP JUMP JUMPDEST PUSH1 0x0 DUP2 CALLDATALOAD SWAP1 POP PUSH2 0x1FC9 DUP2 PUSH2 0x1FA3 JUMP JUMPDEST SWAP3 SWAP2 POP POP JUMP JUMPDEST PUSH1 0x0 PUSH1 0x80 DUP3 DUP5 SUB SLT ISZERO PUSH2 0x1FE5 JUMPI PUSH2 0x1FE4 PUSH2 0x1BCD JUMP JUMPDEST JUMPDEST PUSH2 0x1FEF PUSH1 0x80 PUSH2 0x1C32 JUMP JUMPDEST SWAP1 POP PUSH1 0x0 DUP3 ADD CALLDATALOAD PUSH8 0xFFFFFFFFFFFFFFFF DUP2 GT ISZERO PUSH2 0x200F JUMPI PUSH2 0x200E PUSH2 0x1C4D JUMP JUMPDEST JUMPDEST PUSH2 0x201B DUP5 DUP3 DUP6 ADD PUSH2 0x1F61 JUMP JUMPDEST PUSH1 0x0 DUP4 ADD MSTORE POP PUSH1 0x20 PUSH2 0x202F DUP5 DUP3 DUP6 ADD PUSH2 0x1FBA JUMP JUMPDEST PUSH1 0x20 DUP4 ADD MSTORE POP PUSH1 0x40 PUSH2 0x2043 DUP5 DUP3 DUP6 ADD PUSH2 0x1D23 JUMP JUMPDEST PUSH1 0x40 DUP4 ADD MSTORE POP PUSH1 0x60 PUSH2 0x2057 DUP5 DUP3 DUP6 ADD PUSH2 0x1D23 JUMP JUMPDEST PUSH1 0x60 DUP4 ADD MSTORE POP SWAP3 SWAP2 POP POP JUMP JUMPDEST PUSH1 0x0 PUSH1 0x20 DUP3 DUP5 SUB SLT ISZERO PUSH2 0x2079 JUMPI PUSH2 0x2078 PUSH2 0x197C JUMP JUMPDEST JUMPDEST PUSH1 0x0 DUP3 ADD CALLDATALOAD PUSH8 0xFFFFFFFFFFFFFFFF DUP2 GT ISZERO PUSH2 0x2097 JUMPI PUSH2 0x2096 PUSH2 0x1981 JUMP JUMPDEST JUMPDEST PUSH2 0x20A3 DUP5 DUP3 DUP6 ADD PUSH2 0x1FCF JUMP JUMPDEST SWAP2 POP POP SWAP3 SWAP2 POP POP JUMP JUMPDEST PUSH1 0x0 DUP1 REVERT JUMPDEST PUSH1 0x0 DUP1 REVERT JUMPDEST PUSH1 0x0 DUP1 REVERT JUMPDEST PUSH1 0x0 DUP1 DUP4 CALLDATALOAD PUSH1 0x1 PUSH1 0x20 SUB DUP5 CALLDATASIZE SUB SUB DUP2 SLT PUSH2 0x20D8 JUMPI PUSH2 0x20D7 PUSH2 0x20AC JUMP JUMPDEST JUMPDEST DUP1 DUP5 ADD SWAP3 POP DUP3 CALLDATALOAD SWAP2 POP PUSH8 0xFFFFFFFFFFFFFFFF DUP3 GT ISZERO PUSH2 0x20FA JUMPI PUSH2 0x20F9 PUSH2 0x20B1 JUMP JUMPDEST JUMPDEST PUSH1 0x20 DUP4 ADD SWAP3 POP PUSH1 0x1 DUP3 MUL CALLDATASIZE SUB DUP4 SGT ISZERO PUSH2 0x2116 JUMPI PUSH2 0x2115 PUSH2 0x20B6 JUMP JUMPDEST JUMPDEST POP SWAP3 POP SWAP3 SWAP1 POP JUMP JUMPDEST PUSH1 0x0 PUSH1 0x20 DUP3 DUP5 SUB SLT ISZERO PUSH2 0x2134 JUMPI PUSH2 0x2133 PUSH2 0x197C JUMP JUMPDEST JUMPDEST PUSH1 0x0 PUSH2 0x2142 DUP5 DUP3 DUP6 ADD PUSH2 0x1FBA JUMP JUMPDEST SWAP2 POP POP SWAP3 SWAP2 POP POP JUMP JUMPDEST PUSH1 0x0 PUSH1 0x20 DUP3 DUP5 SUB SLT ISZERO PUSH2 0x2161 JUMPI PUSH2 0x2160 PUSH2 0x197C JUMP JUMPDEST JUMPDEST PUSH1 0x0 PUSH2 0x216F DUP5 DUP3 DUP6 ADD PUSH2 0x1D23 JUMP JUMPDEST SWAP2 POP POP SWAP3 SWAP2 POP POP JUMP JUMPDEST PUSH1 0x0 DUP1 DUP4 CALLDATALOAD PUSH1 0x1 PUSH1 0x20 SUB DUP5 CALLDATASIZE SUB SUB DUP2 SLT PUSH2 0x2195 JUMPI PUSH2 0x2194 PUSH2 0x20AC JUMP JUMPDEST JUMPDEST DUP1 DUP5 ADD SWAP3 POP DUP3 CALLDATALOAD SWAP2 POP PUSH8 0xFFFFFFFFFFFFFFFF DUP3 GT ISZERO PUSH2 0x21B7 JUMPI PUSH2 0x21B6 PUSH2 0x20B1 JUMP JUMPDEST JUMPDEST PUSH1 0x20 DUP4 ADD SWAP3 POP PUSH1 0x1 DUP3 MUL CALLDATASIZE SUB DUP4 SGT ISZERO PUSH2 0x21D3 JUMPI PUSH2 0x21D2 PUSH2 0x20B6 JUMP JUMPDEST JUMPDEST POP SWAP3 POP SWAP3 SWAP1 POP JUMP JUMPDEST PUSH1 0x0 DUP2 PUSH1 0x7 SIGNEXTEND SWAP1 POP SWAP2 SWAP1 POP JUMP JUMPDEST PUSH2 0x21F1 DUP2 PUSH2 0x21DB JUMP JUMPDEST DUP2 EQ PUSH2 0x21FC JUMPI PUSH1 0x0 DUP1 REVERT JUMPDEST POP JUMP JUMPDEST PUSH1 0x0 DUP2 CALLDATALOAD SWAP1 POP PUSH2 0x220E DUP2 PUSH2 0x21E8 JUMP JUMPDEST SWAP3 SWAP2 POP POP JUMP JUMPDEST PUSH1 0x0 PUSH1 0x20 DUP3 DUP5 SUB SLT ISZERO PUSH2 0x222A JUMPI PUSH2 0x2229 PUSH2 0x197C JUMP JUMPDEST JUMPDEST PUSH1 0x0 PUSH2 0x2238 DUP5 DUP3 DUP6 ADD PUSH2 0x21FF JUMP JUMPDEST SWAP2 POP POP SWAP3 SWAP2 POP POP JUMP JUMPDEST PUSH1 0x0 DUP2 SWAP1 POP PUSH1 0x20 DUP3 ADD SWAP1 POP SWAP2 SWAP1 POP JUMP JUMPDEST PUSH1 0x0 DUP2 SWAP1 POP SWAP2 SWAP1 POP JUMP JUMPDEST PUSH1 0x0 PUSH2 0x2267 DUP3 MLOAD PUSH2 0x2251 JUMP JUMPDEST DUP1 SWAP2 POP POP SWAP2 SWAP1 POP JUMP JUMPDEST PUSH1 0x0 DUP3 DUP3 SHL SWAP1 POP SWAP3 SWAP2 POP POP JUMP JUMPDEST PUSH1 0x0 PUSH2 0x2288 DUP3 PUSH2 0x19E9 JUMP JUMPDEST DUP3 PUSH2 0x2292 DUP5 PUSH2 0x2241 JUMP JUMPDEST SWAP1 POP PUSH2 0x229D DUP2 PUSH2 0x225B JUMP JUMPDEST SWAP3 POP PUSH1 0x20 DUP3 LT ISZERO PUSH2 0x22DD JUMPI PUSH2 0x22D8 PUSH32 0xFFFFFFFFFFFFFFFFFFFFFFFFFFFFFFFFFFFFFFFFFFFFFFFFFFFFFFFFFFFFFFFF DUP4 PUSH1 0x20 SUB PUSH1 0x8 MUL PUSH2 0x2270 JUMP JUMPDEST DUP4 AND SWAP3 POP JUMPDEST POP POP SWAP2 SWAP1 POP JUMP JUMPDEST PUSH1 0x0 DUP2 SWAP1 POP SWAP3 SWAP2 POP POP JUMP JUMPDEST PUSH32 0x40A000000000000000000000000000000000000000000000000000000000000 PUSH1 0x0 DUP3 ADD MSTORE POP JUMP JUMPDEST PUSH1 0x0 PUSH2 0x2325 PUSH1 0x2 DUP4 PUSH2 0x22E4 JUMP JUMPDEST SWAP2 POP PUSH2 0x2330 DUP3 PUSH2 0x22EF JUMP JUMPDEST PUSH1 0x2 DUP3 ADD SWAP1 POP SWAP2 SWAP1 POP JUMP JUMPDEST PUSH1 0x0 DUP2 PUSH1 0x60 SHL SWAP1 POP SWAP2 SWAP1 POP JUMP JUMPDEST PUSH1 0x0 PUSH2 0x2353 DUP3 PUSH2 0x233B JUMP JUMPDEST SWAP1 POP SWAP2 SWAP1 POP JUMP JUMPDEST PUSH1 0x0 PUSH2 0x2365 DUP3 PUSH2 0x2348 JUMP JUMPDEST SWAP1 POP SWAP2 SWAP1 POP JUMP JUMPDEST PUSH2 0x237D PUSH2 0x2378 DUP3 PUSH2 0x1E37 JUMP JUMPDEST PUSH2 0x235A JUMP JUMPDEST DUP3 MSTORE POP POP JUMP JUMPDEST PUSH1 0x0 PUSH2 0x238E DUP3 PUSH2 0x2318 JUMP JUMPDEST SWAP2 POP PUSH2 0x239A DUP3 DUP5 PUSH2 0x236C JUMP JUMPDEST PUSH1 0x14 DUP3 ADD SWAP2 POP DUP2 SWAP1 POP SWAP3 SWAP2 POP POP JUMP JUMPDEST PUSH1 0x0 DUP2 SWAP1 POP SWAP2 SWAP1 POP JUMP JUMPDEST PUSH2 0x23C4 PUSH2 0x23BF DUP3 PUSH2 0x1986 JUMP JUMPDEST PUSH2 0x23A9 JUMP JUMPDEST DUP3 MSTORE POP POP JUMP JUMPDEST PUSH1 0x0 PUSH2 0x23D6 DUP3 DUP5 PUSH2 0x23B3 JUMP JUMPDEST PUSH1 0x20 DUP3 ADD SWAP2 POP DUP2 SWAP1 POP SWAP3 SWAP2 POP POP JUMP JUMPDEST PUSH1 0x0 DUP1 DUP3 ADD MSTORE POP JUMP JUMPDEST PUSH1 0x0 PUSH2 0x23FB PUSH1 0x1 DUP4 PUSH2 0x22E4 JUMP JUMPDEST SWAP2 POP PUSH2 0x2406 DUP3 PUSH2 0x23E5 JUMP JUMPDEST PUSH1 0x1 DUP3 ADD SWAP1 POP SWAP2 SWAP1 POP JUMP JUMPDEST PUSH1 0x0 DUP2 SWAP1 POP SWAP3 SWAP2 POP POP JUMP JUMPDEST PUSH1 0x0 PUSH2 0x2427 DUP3 PUSH2 0x19E9 JUMP JUMPDEST PUSH2 0x2431 DUP2 DUP6 PUSH2 0x2411 JUMP JUMPDEST SWAP4 POP PUSH2 0x2441 DUP2 DUP6 PUSH1 0x20 DUP7 ADD PUSH2 0x1A05 JUMP JUMPDEST DUP1 DUP5 ADD SWAP2 POP POP SWAP3 SWAP2 POP POP JUMP JUMPDEST PUSH1 0x0 PUSH2 0x2458 DUP3 PUSH2 0x23EE JUMP JUMPDEST SWAP2 POP PUSH2 0x2464 DUP3 DUP5 PUSH2 0x241C JUMP JUMPDEST SWAP2 POP DUP2 SWAP1 POP SWAP3 SWAP2 POP POP JUMP JUMPDEST PUSH32 0x4E487B7100000000000000000000000000000000000000000000000000000000 PUSH1 0x0 MSTORE PUSH1 0x11 PUSH1 0x4 MSTORE PUSH1 0x24 PUSH1 0x0 REVERT JUMPDEST PUSH1 0x0 PUSH2 0x24A9 DUP3 PUSH2 0x1986 JUMP JUMPDEST SWAP2 POP PUSH2 0x24B4 DUP4 PUSH2 0x1986 JUMP JUMPDEST SWAP3 POP DUP3 DUP3 ADD SWAP1 POP DUP1 DUP3 GT ISZERO PUSH2 0x24CC JUMPI PUSH2 0x24CB PUSH2 0x246F JUMP JUMPDEST JUMPDEST SWAP3 SWAP2 POP POP JUMP JUMPDEST PUSH1 0x0 DUP3 DUP3 MSTORE PUSH1 0x20 DUP3 ADD SWAP1 POP SWAP3 SWAP2 POP POP JUMP JUMPDEST PUSH32 0x496E76616C69642043424F520000000000000000000000000000000000000000 PUSH1 0x0 DUP3 ADD MSTORE POP JUMP JUMPDEST PUSH1 0x0 PUSH2 0x2519 PUSH1 0xC DUP4 PUSH2 0x24D2 JUMP JUMPDEST SWAP2 POP PUSH2 0x2524 DUP3 PUSH2 0x24E3 JUMP JUMPDEST PUSH1 0x20 DUP3 ADD SWAP1 POP SWAP2 SWAP1 POP JUMP JUMPDEST PUSH1 0x0 PUSH1 0x20 DUP3 ADD SWAP1 POP DUP2 DUP2 SUB PUSH1 0x0 DUP4 ADD MSTORE PUSH2 0x2548 DUP2 PUSH2 0x250C JUMP JUMPDEST SWAP1 POP SWAP2 SWAP1 POP JUMP JUMPDEST PUSH32 0x4E487B7100000000000000000000000000000000000000000000000000000000 PUSH1 0x0 MSTORE PUSH1 0x32 PUSH1 0x4 MSTORE PUSH1 0x24 PUSH1 0x0 REVERT JUMPDEST PUSH1 0x0 PUSH2 0x2589 DUP3 PUSH2 0x1986 JUMP JUMPDEST SWAP2 POP PUSH32 0xFFFFFFFFFFFFFFFFFFFFFFFFFFFFFFFFFFFFFFFFFFFFFFFFFFFFFFFFFFFFFFFF DUP3 SUB PUSH2 0x25BB JUMPI PUSH2 0x25BA PUSH2 0x246F JUMP JUMPDEST JUMPDEST PUSH1 0x1 DUP3 ADD SWAP1 POP SWAP2 SWAP1 POP JUMP JUMPDEST PUSH1 0x0 PUSH2 0x25D1 DUP3 PUSH2 0x21DB JUMP JUMPDEST SWAP2 POP PUSH2 0x25DC DUP4 PUSH2 0x21DB JUMP JUMPDEST SWAP3 POP DUP3 DUP3 SUB SWAP1 POP PUSH8 0x7FFFFFFFFFFFFFFF DUP2 SGT PUSH32 0xFFFFFFFFFFFFFFFFFFFFFFFFFFFFFFFFFFFFFFFFFFFFFFFF8000000000000000 DUP3 SLT OR ISZERO PUSH2 0x2620 JUMPI PUSH2 0x261F PUSH2 0x246F JUMP JUMPDEST JUMPDEST SWAP3 SWAP2 POP POP JUMP JUMPDEST PUSH1 0x0 DUP2 MSTORE POP JUMP JUMPDEST PUSH1 0x0 PUSH2 0x2638 DUP3 PUSH2 0x2626 JUMP JUMPDEST PUSH1 0x1 DUP3 ADD SWAP2 POP PUSH2 0x2648 DUP3 DUP5 PUSH2 0x241C JUMP JUMPDEST SWAP2 POP DUP2 SWAP1 POP SWAP3 SWAP2 POP POP JUMP JUMPDEST PUSH32 0x4E487B7100000000000000000000000000000000000000000000000000000000 PUSH1 0x0 MSTORE PUSH1 0x12 PUSH1 0x4 MSTORE PUSH1 0x24 PUSH1 0x0 REVERT JUMPDEST PUSH1 0x0 PUSH2 0x268D DUP3 PUSH2 0x1986 JUMP JUMPDEST SWAP2 POP PUSH2 0x2698 DUP4 PUSH2 0x1986 JUMP JUMPDEST SWAP3 POP DUP3 PUSH2 0x26A8 JUMPI PUSH2 0x26A7 PUSH2 0x2653 JUMP JUMPDEST JUMPDEST DUP3 DUP3 MOD SWAP1 POP SWAP3 SWAP2 POP POP JUMP JUMPDEST PUSH1 0x0 PUSH2 0x26BE DUP3 PUSH2 0x1986 JUMP JUMPDEST SWAP2 POP PUSH2 0x26C9 DUP4 PUSH2 0x1986 JUMP JUMPDEST SWAP3 POP DUP3 DUP3 SUB SWAP1 POP DUP2 DUP2 GT ISZERO PUSH2 0x26E1 JUMPI PUSH2 0x26E0 PUSH2 0x246F JUMP JUMPDEST JUMPDEST SWAP3 SWAP2 POP POP JUMP JUMPDEST PUSH1 0x0 PUSH2 0x26F2 DUP3 PUSH2 0x1986 JUMP JUMPDEST SWAP2 POP PUSH2 0x26FD DUP4 PUSH2 0x1986 JUMP JUMPDEST SWAP3 POP DUP3 DUP3 MUL PUSH2 0x270B DUP2 PUSH2 0x1986 JUMP JUMPDEST SWAP2 POP DUP3 DUP3 DIV DUP5 EQ DUP4 ISZERO OR PUSH2 0x2722 JUMPI PUSH2 0x2721 PUSH2 0x246F JUMP JUMPDEST JUMPDEST POP SWAP3 SWAP2 POP POP JUMP JUMPDEST PUSH1 0x0 DUP2 PUSH1 0x1 SHR SWAP1 POP SWAP2 SWAP1 POP JUMP JUMPDEST PUSH1 0x0 DUP1 DUP3 SWAP2 POP DUP4 SWAP1 POP JUMPDEST PUSH1 0x1 DUP6 GT ISZERO PUSH2 0x2780 JUMPI DUP1 DUP7 DIV DUP2 GT ISZERO PUSH2 0x275C JUMPI PUSH2 0x275B PUSH2 0x246F JUMP JUMPDEST JUMPDEST PUSH1 0x1 DUP6 AND ISZERO PUSH2 0x276B JUMPI DUP1 DUP3 MUL SWAP2 POP JUMPDEST DUP1 DUP2 MUL SWAP1 POP PUSH2 0x2779 DUP6 PUSH2 0x2729 JUMP JUMPDEST SWAP5 POP PUSH2 0x2740 JUMP JUMPDEST SWAP5 POP SWAP5 SWAP3 POP POP POP JUMP JUMPDEST PUSH1 0x0 DUP3 PUSH2 0x2799 JUMPI PUSH1 0x1 SWAP1 POP PUSH2 0x2855 JUMP JUMPDEST DUP2 PUSH2 0x27A7 JUMPI PUSH1 0x0 SWAP1 POP PUSH2 0x2855 JUMP JUMPDEST DUP2 PUSH1 0x1 DUP2 EQ PUSH2 0x27BD JUMPI PUSH1 0x2 DUP2 EQ PUSH2 0x27C7 JUMPI PUSH2 0x27F6 JUMP JUMPDEST PUSH1 0x1 SWAP2 POP POP PUSH2 0x2855 JUMP JUMPDEST PUSH1 0xFF DUP5 GT ISZERO PUSH2 0x27D9 JUMPI PUSH2 0x27D8 PUSH2 0x246F JUMP JUMPDEST JUMPDEST DUP4 PUSH1 0x2 EXP SWAP2 POP DUP5 DUP3 GT ISZERO PUSH2 0x27F0 JUMPI PUSH2 0x27EF PUSH2 0x246F JUMP JUMPDEST JUMPDEST POP PUSH2 0x2855 JUMP JUMPDEST POP PUSH1 0x20 DUP4 LT PUSH2 0x133 DUP4 LT AND PUSH1 0x4E DUP5 LT PUSH1 0xB DUP5 LT AND OR ISZERO PUSH2 0x282B JUMPI DUP3 DUP3 EXP SWAP1 POP DUP4 DUP2 GT ISZERO PUSH2 0x2826 JUMPI PUSH2 0x2825 PUSH2 0x246F JUMP JUMPDEST JUMPDEST PUSH2 0x2855 JUMP JUMPDEST PUSH2 0x2838 DUP5 DUP5 DUP5 PUSH1 0x1 PUSH2 0x2736 JUMP JUMPDEST SWAP3 POP SWAP1 POP DUP2 DUP5 DIV DUP2 GT ISZERO PUSH2 0x284F JUMPI PUSH2 0x284E PUSH2 0x246F JUMP JUMPDEST JUMPDEST DUP2 DUP2 MUL SWAP1 POP JUMPDEST SWAP4 SWAP3 POP POP POP JUMP JUMPDEST PUSH1 0x0 PUSH2 0x2867 DUP3 PUSH2 0x1986 JUMP JUMPDEST SWAP2 POP PUSH2 0x2872 DUP4 PUSH2 0x1986 JUMP JUMPDEST SWAP3 POP PUSH2 0x289F PUSH32 0xFFFFFFFFFFFFFFFFFFFFFFFFFFFFFFFFFFFFFFFFFFFFFFFFFFFFFFFFFFFFFFFF DUP5 DUP5 PUSH2 0x2789 JUMP JUMPDEST SWAP1 POP SWAP3 SWAP2 POP POP JUMP INVALID LOG2 PUSH5 0x6970667358 0x22 SLT KECCAK256 ORIGIN PUSH7 0xADAD4C62D68205 PUSH23 0xE7088E3B0BB36270EBED97AB596C586B681314B38BE164 PUSH20 0x6F6C634300081100330000000000000000000000 "
		},
		"gasEstimates": {
			"creation": {
				"codeDepositCost": "2092200",
				"executionCost": "2251",
				"totalCost": "2094451"
			},
			"external": {
				"bigIntToUint(CommonTypes.BigInt)": "infinite",
				"getDelegatedAddress(address)": "infinite",
				"serializeDealProposal(Structs.DealRequest)": "infinite",
				"serializeExtraParamsV1(Structs.ExtraParamsV1)": "infinite",
				"uintToBigInt(uint256)": "infinite"
			}
		},
		"methodIdentifiers": {
			"bigIntToUint(CommonTypes.BigInt)": "86113702",
			"getDelegatedAddress(address)": "8ce70c68",
			"serializeDealProposal(Structs.DealRequest)": "7ab609e5",
			"serializeExtraParamsV1(Structs.ExtraParamsV1)": "f6139166",
			"uintToBigInt(uint256)": "6f038971"
		}
	},
	"abi": [
		{
			"inputs": [
				{
					"components": [
						{
							"internalType": "bytes",
							"name": "val",
							"type": "bytes"
						},
						{
							"internalType": "bool",
							"name": "neg",
							"type": "bool"
						}
					],
					"internalType": "struct CommonTypes.BigInt",
					"name": "bigInt",
					"type": "tuple"
				}
			],
			"name": "bigIntToUint",
			"outputs": [
				{
					"internalType": "uint256",
					"name": "",
					"type": "uint256"
				}
			],
			"stateMutability": "view",
			"type": "function"
		},
		{
			"inputs": [
				{
					"internalType": "address",
					"name": "addr",
					"type": "address"
				}
			],
			"name": "getDelegatedAddress",
			"outputs": [
				{
					"components": [
						{
							"internalType": "bytes",
							"name": "data",
							"type": "bytes"
						}
					],
					"internalType": "struct CommonTypes.FilAddress",
					"name": "",
					"type": "tuple"
				}
			],
			"stateMutability": "pure",
			"type": "function"
		},
		{
			"inputs": [
				{
					"components": [
						{
							"internalType": "bytes",
							"name": "piece_cid",
							"type": "bytes"
						},
						{
							"internalType": "uint64",
							"name": "piece_size",
							"type": "uint64"
						},
						{
							"internalType": "bool",
							"name": "verified_deal",
							"type": "bool"
						},
						{
							"internalType": "string",
							"name": "label",
							"type": "string"
						},
						{
							"internalType": "int64",
							"name": "start_epoch",
							"type": "int64"
						},
						{
							"internalType": "int64",
							"name": "end_epoch",
							"type": "int64"
						},
						{
							"internalType": "uint256",
							"name": "storage_price_per_epoch",
							"type": "uint256"
						},
						{
							"internalType": "uint256",
							"name": "provider_collateral",
							"type": "uint256"
						},
						{
							"internalType": "uint256",
							"name": "client_collateral",
							"type": "uint256"
						},
						{
							"internalType": "string",
							"name": "dataCid",
							"type": "string"
						},
						{
							"internalType": "uint64",
							"name": "extra_params_version",
							"type": "uint64"
						},
						{
							"components": [
								{
									"internalType": "string",
									"name": "location_ref",
									"type": "string"
								},
								{
									"internalType": "uint64",
									"name": "car_size",
									"type": "uint64"
								},
								{
									"internalType": "bool",
									"name": "skip_ipni_announce",
									"type": "bool"
								},
								{
									"internalType": "bool",
									"name": "remove_unsealed_copy",
									"type": "bool"
								}
							],
							"internalType": "struct Structs.ExtraParamsV1",
							"name": "extra_params",
							"type": "tuple"
						}
					],
					"internalType": "struct Structs.DealRequest",
					"name": "deal",
					"type": "tuple"
				}
			],
			"name": "serializeDealProposal",
			"outputs": [
				{
					"internalType": "bytes",
					"name": "",
					"type": "bytes"
				}
			],
			"stateMutability": "view",
			"type": "function"
		},
		{
			"inputs": [
				{
					"components": [
						{
							"internalType": "string",
							"name": "location_ref",
							"type": "string"
						},
						{
							"internalType": "uint64",
							"name": "car_size",
							"type": "uint64"
						},
						{
							"internalType": "bool",
							"name": "skip_ipni_announce",
							"type": "bool"
						},
						{
							"internalType": "bool",
							"name": "remove_unsealed_copy",
							"type": "bool"
						}
					],
					"internalType": "struct Structs.ExtraParamsV1",
					"name": "params",
					"type": "tuple"
				}
			],
			"name": "serializeExtraParamsV1",
			"outputs": [
				{
					"internalType": "bytes",
					"name": "",
					"type": "bytes"
				}
			],
			"stateMutability": "pure",
			"type": "function"
		},
		{
			"inputs": [
				{
					"internalType": "uint256",
					"name": "value",
					"type": "uint256"
				}
			],
			"name": "uintToBigInt",
			"outputs": [
				{
					"components": [
						{
							"internalType": "bytes",
							"name": "val",
							"type": "bytes"
						},
						{
							"internalType": "bool",
							"name": "neg",
							"type": "bool"
						}
					],
					"internalType": "struct CommonTypes.BigInt",
					"name": "",
					"type": "tuple"
				}
			],
			"stateMutability": "view",
			"type": "function"
		}
	]
}