{
	"data": {
		"bytecode": {
			"linkReferences": {
				"src/utils/Utils.sol": {
					"Utils": [
						{
							"length": 20,
							"start": 538
						},
						{
							"length": 20,
							"start": 668
						},
						{
							"length": 20,
							"start": 963
						},
						{
							"length": 20,
							"start": 3753
						},
						{
							"length": 20,
							"start": 4948
						},
						{
							"length": 20,
							"start": 5134
						}
					]
				}
			},
			"object": "608060405234801561001057600080fd5b50615f6480620000216000396000f3fe60806040526004361061007b5760003560e01c8063868e10c41161004e578063868e10c41461014c57806386b714e21461018b578063b163cc38146101b6578063c4d66de8146101c05761007b565b80630cf20cc91461008057806310c79fa4146100bd57806366263735146100fa5780636637b88214610123575b600080fd5b34801561008c57600080fd5b506100a760048036038101906100a29190613bdf565b6101e9565b6040516100b49190613c2e565b60405180910390f35b3480156100c957600080fd5b506100e460048036038101906100df9190613c6e565b610423565b6040516100f19190613cd0565b60405180910390f35b34801561010657600080fd5b50610121600480360381019061011c9190613e31565b6109c5565b005b34801561012f57600080fd5b5061014a60048036038101906101459190613e7a565b610c69565b005b34801561015857600080fd5b50610173600480360381019061016e9190613ee7565b610d08565b60405161018293929190614003565b60405180910390f35b34801561019757600080fd5b506101a0610e5d565b6040516101ad91906140a0565b60405180910390f35b6101be610e83565b005b3480156101cc57600080fd5b506101e760048036038101906101e291906140f9565b610f0b565b005b600080604051806040016040528073__$b775366deb48fb607c6478532aa64b7c40$__638ce70c68876040518263ffffffff1660e01b815260040161022e9190614135565b600060405180830381865af415801561024b573d6000803e3d6000fd5b505050506040513d6000823e3d601f19601f820116820180604052508101906102749190614222565b815260200173__$b775366deb48fb607c6478532aa64b7c40$__636f038971866040518263ffffffff1660e01b81526004016102b0919061427a565b600060405180830381865af41580156102cd573d6000803e3d6000fd5b505050506040513d6000823e3d601f19601f820116820180604052508101906102f69190614339565b8152509050600061030682611083565b90506000600160009054906101000a900473ffffffffffffffffffffffffffffffffffffffff1673ffffffffffffffffffffffffffffffffffffffff1685604051610350906143b3565b60006040518083038185875af1925050503d806000811461038d576040519150601f19603f3d011682016040523d82523d6000602084013e610392565b606091505b50509050806103a057600080fd5b73__$b775366deb48fb607c6478532aa64b7c40$__6386113702836040518263ffffffff1660e01b81526004016103d7919061445e565b602060405180830381865af41580156103f4573d6000803e3d6000fd5b505050506040513d601f19601f820116820180604052508101906104189190614495565b935050505092915050565b6000600160009054906101000a900473ffffffffffffffffffffffffffffffffffffffff1673ffffffffffffffffffffffffffffffffffffffff163373ffffffffffffffffffffffffffffffffffffffff161461047f57600080fd5b60026004811115610493576104926144c2565b5b600060029054906101000a900473ffffffffffffffffffffffffffffffffffffffff1673ffffffffffffffffffffffffffffffffffffffff1663a6d1b7b88480600001906104e19190614500565b6040518363ffffffff1660e01b81526004016104fe929190614590565b602060405180830381865afa15801561051b573d6000803e3d6000fd5b505050506040513d601f19601f8201168201806040525081019061053f91906145d9565b6004811115610551576105506144c2565b5b148061062c57506003600481111561056c5761056b6144c2565b5b600060029054906101000a900473ffffffffffffffffffffffffffffffffffffffff1673ffffffffffffffffffffffffffffffffffffffff1663a6d1b7b88480600001906105ba9190614500565b6040518363ffffffff1660e01b81526004016105d7929190614590565b602060405180830381865afa1580156105f4573d6000803e3d6000fd5b505050506040513d601f19601f8201168201806040525081019061061891906145d9565b600481111561062a576106296144c2565b5b145b1561063657600080fd5b60008060029054906101000a900473ffffffffffffffffffffffffffffffffffffffff1673ffffffffffffffffffffffffffffffffffffffff1663e059bb726040518163ffffffff1660e01b8152600401602060405180830381865afa1580156106a4573d6000803e3d6000fd5b505050506040513d601f19601f820116820180604052508101906106c89190614495565b9050600060029054906101000a900473ffffffffffffffffffffffffffffffffffffffff1673ffffffffffffffffffffffffffffffffffffffff166309346948846040518263ffffffff1660e01b81526004016107259190614a69565b600060405180830381600087803b15801561073f57600080fd5b505af1158015610753573d6000803e3d6000fd5b50505050600042338360405160200161076e93929190614af4565b604051602081830303815290604052805190602001209050600060029054906101000a900473ffffffffffffffffffffffffffffffffffffffff1673ffffffffffffffffffffffffffffffffffffffff16630347e8c28284336040518463ffffffff1660e01b81526004016107e593929190614b40565b600060405180830381600087803b1580156107ff57600080fd5b505af1158015610813573d6000803e3d6000fd5b50505050600060029054906101000a900473ffffffffffffffffffffffffffffffffffffffff1673ffffffffffffffffffffffffffffffffffffffff16630230e9278580600001906108659190614500565b846040518463ffffffff1660e01b815260040161088493929190614b77565b600060405180830381600087803b15801561089e57600080fd5b505af11580156108b2573d6000803e3d6000fd5b50505050600060029054906101000a900473ffffffffffffffffffffffffffffffffffffffff1673ffffffffffffffffffffffffffffffffffffffff1663d15bcbe38580600001906109049190614500565b60016040518463ffffffff1660e01b815260040161092493929190614bf1565b600060405180830381600087803b15801561093e57600080fd5b505af1158015610952573d6000803e3d6000fd5b505050508360400160208101906109699190614c23565b1515817ffd6419d07e4c269e58d0c63969756c2124155b4a8d6dd08b8cd46e3a9acbf6258660200160208101906109a09190614c50565b8760c001356040516109b3929190614c7d565b60405180910390a38092505050919050565b60008060029054906101000a900473ffffffffffffffffffffffffffffffffffffffff1673ffffffffffffffffffffffffffffffffffffffff16630a0e0c91836040518263ffffffff1660e01b8152600401610a219190614ca6565b602060405180830381865afa158015610a3e573d6000803e3d6000fd5b505050506040513d601f19601f82011682018060405250810190610a629190614cdd565b67ffffffffffffffff1611610a7657600080fd5b6000610b1c600060029054906101000a900473ffffffffffffffffffffffffffffffffffffffff1673ffffffffffffffffffffffffffffffffffffffff16630a0e0c91846040518263ffffffff1660e01b8152600401610ad69190614ca6565b602060405180830381865afa158015610af3573d6000803e3d6000fd5b505050506040513d601f19601f82011682018060405250810190610b179190614cdd565b6110c3565b90506000816020015160070b1315610bc357600060029054906101000a900473ffffffffffffffffffffffffffffffffffffffff1673ffffffffffffffffffffffffffffffffffffffff1663d15bcbe38360046040518363ffffffff1660e01b8152600401610b8c929190614d0a565b600060405180830381600087803b158015610ba657600080fd5b505af1158015610bba573d6000803e3d6000fd5b50505050610c65565b6000816000015160070b1315610c6457600060029054906101000a900473ffffffffffffffffffffffffffffffffffffffff1673ffffffffffffffffffffffffffffffffffffffff1663d15bcbe38360036040518363ffffffff1660e01b8152600401610c31929190614d0a565b600060405180830381600087803b158015610c4b57600080fd5b505af1158015610c5f573d6000803e3d6000fd5b505050505b5b5050565b600073ffffffffffffffffffffffffffffffffffffffff16600160009054906101000a900473ffffffffffffffffffffffffffffffffffffffff1673ffffffffffffffffffffffffffffffffffffffff1614610cc457600080fd5b80600160006101000a81548173ffffffffffffffffffffffffffffffffffffffff021916908373ffffffffffffffffffffffffffffffffffffffff16021790555050565b6000806060806000639d8b067867ffffffffffffffff168867ffffffffffffffff1603610d6f57610d388661110e565b6000610d44600161147a565b9050610d5a6001826114a190919063ffffffff16565b610d63816114bd565b92506051915050610e48565b63f98c996667ffffffffffffffff168867ffffffffffffffff1603610d9c57610d9786611516565b610e47565b63de180de367ffffffffffffffff168867ffffffffffffffff1603610e415773ff0000000000000000000000000000000000000773ffffffffffffffffffffffffffffffffffffffff163373ffffffffffffffffffffffffffffffffffffffff1614610e0757600080fd5b7f10aa319ed8cad9bceb033c0c2788c4ae17469ac844e4c6e2c2e20e74ca8a7be8604051610e3490614d97565b60405180910390a1610e46565b600080fd5b5b5b60008183945094509450505093509350939050565b600060029054906101000a900473ffffffffffffffffffffffffffffffffffffffff1681565b610f0973__$b775366deb48fb607c6478532aa64b7c40$__638ce70c68306040518263ffffffff1660e01b8152600401610ebd9190614135565b600060405180830381865af4158015610eda573d6000803e3d6000fd5b505050506040513d6000823e3d601f19601f82011682018060405250810190610f039190614222565b346118c6565b565b60008060019054906101000a900460ff16159050808015610f3c5750600160008054906101000a900460ff1660ff16105b80610f695750610f4b3061192d565b158015610f685750600160008054906101000a900460ff1660ff16145b5b610fa8576040517f08c379a0000000000000000000000000000000000000000000000000000000008152600401610f9f90614e29565b60405180910390fd5b60016000806101000a81548160ff021916908360ff1602179055508015610fe5576001600060016101000a81548160ff0219169083151502179055505b81600060026101000a81548173ffffffffffffffffffffffffffffffffffffffff021916908373ffffffffffffffffffffffffffffffffffffffff160217905550801561107f5760008060016101000a81548160ff0219169083151502179055507f7f26b83ff96e1f2b6a682f133852f6798a09c465da95921460cefb384740249860016040516110769190614e91565b60405180910390a15b5050565b61108b61398b565b600061109683611950565b905060006110af60056387ed0a64605185600080611a11565b90506110ba81611b37565b92505050919050565b6110cb6139a7565b60006110e08367ffffffffffffffff16611bf3565b905060006110fa6005639904f2ff60518560006001611a11565b905061110581611c3e565b92505050919050565b73ff0000000000000000000000000000000000000573ffffffffffffffffffffffffffffffffffffffff163373ffffffffffffffffffffffffffffffffffffffff161461115a57600080fd5b600061116582611cc8565b905060006111768260200151611d44565b90506000816000015160000151905060008060029054906101000a900473ffffffffffffffffffffffffffffffffffffffff1673ffffffffffffffffffffffffffffffffffffffff1663f44a8903836040518263ffffffff1660e01b81526004016111e19190614ca6565b6040805180830381865afa1580156111fd573d6000803e3d6000fd5b505050506040513d601f19601f820116820180604052508101906112219190614f28565b905080602001511580611235575080602001515b1561123f57600080fd5b60008060029054906101000a900473ffffffffffffffffffffffffffffffffffffffff1673ffffffffffffffffffffffffffffffffffffffff1663342c89b483600001516040518263ffffffff1660e01b815260040161129f9190613cd0565b600060405180830381865afa1580156112bc573d6000803e3d6000fd5b505050506040513d6000823e3d601f19601f820116820180604052508101906112e59190615231565b905080604001511515846040015115151461132c576040517f7f7cebf700000000000000000000000000000000000000000000000000000000815260040160405180910390fd5b8060c0015173__$b775366deb48fb607c6478532aa64b7c40$__63861137028661010001516040518263ffffffff1660e01b815260040161136d919061445e565b602060405180830381865af415801561138a573d6000803e3d6000fd5b505050506040513d601f19601f820116820180604052508101906113ae9190614495565b106113e5576040517fdaabd97200000000000000000000000000000000000000000000000000000000815260040160405180910390fd5b80610100015173__$b775366deb48fb607c6478532aa64b7c40$__63861137028661014001516040518263ffffffff1660e01b8152600401611427919061445e565b602060405180830381865af4158015611444573d6000803e3d6000fd5b505050506040513d601f19601f820116820180604052508101906114689190614495565b1061147257600080fd5b505050505050565b6114826139c7565b611490816000015183611f4f565b506000816020018181525050919050565b6114b982826114b15760146114b4565b60155b611fc8565b5050565b60606000826020015114611506576040517f08c379a00000000000000000000000000000000000000000000000000000000081526004016114fd906152c6565b60405180910390fd5b8160000151600001519050919050565b73ff0000000000000000000000000000000000000573ffffffffffffffffffffffffffffffffffffffff163373ffffffffffffffffffffffffffffffffffffffff161461156257600080fd5b600061156d82611fee565b9050600061157e8260000151611d44565b905060008060029054906101000a900473ffffffffffffffffffffffffffffffffffffffff1673ffffffffffffffffffffffffffffffffffffffff1663f44a89038360000151600001516040518263ffffffff1660e01b81526004016115e49190614ca6565b6040805180830381865afa158015611600573d6000803e3d6000fd5b505050506040513d601f19601f820116820180604052508101906116249190614f28565b905080602001511580611638575080602001515b1561164257600080fd5b600060029054906101000a900473ffffffffffffffffffffffffffffffffffffffff1673ffffffffffffffffffffffffffffffffffffffff1663fb2a0b3283600001516000015160405180604001604052808660800151600001518152602001600115158152506040518363ffffffff1660e01b81526004016116c692919061535c565b600060405180830381600087803b1580156116e057600080fd5b505af11580156116f4573d6000803e3d6000fd5b50505050600060029054906101000a900473ffffffffffffffffffffffffffffffffffffffff1673ffffffffffffffffffffffffffffffffffffffff16639aa09dfe83600001516000015185602001516040518363ffffffff1660e01b8152600401611761929190615393565b600060405180830381600087803b15801561177b57600080fd5b505af115801561178f573d6000803e3d6000fd5b50505050600060029054906101000a900473ffffffffffffffffffffffffffffffffffffffff1673ffffffffffffffffffffffffffffffffffffffff1663d15bcbe383600001516000015160026040518363ffffffff1660e01b81526004016117f9929190614d0a565b600060405180830381600087803b15801561181357600080fd5b505af1158015611827573d6000803e3d6000fd5b50505050600060029054906101000a900473ffffffffffffffffffffffffffffffffffffffff1673ffffffffffffffffffffffffffffffffffffffff166385271d9b8360000151600001516040518263ffffffff1660e01b815260040161188e9190614ca6565b600060405180830381600087803b1580156118a857600080fd5b505af11580156118bc573d6000803e3d6000fd5b5050505050505050565b60006118d18361207f565b905060006118ea6005633105f1a6605185876000611a11565b90506000815114611927576040517f0e74990700000000000000000000000000000000000000000000000000000000815260040160405180910390fd5b50505050565b6000808273ffffffffffffffffffffffffffffffffffffffff163b119050919050565b606060008061196284602001516120c8565b905061196e6002612235565b8261197991906153f2565b915061198c846000015160000151612289565b8261199791906153f2565b91506119a281612289565b826119ad91906153f2565b915060006119ba836122a8565b90506119d06002826122cf90919063ffffffff16565b6119eb856000015160000151826122df90919063ffffffff16565b6119fe82826122df90919063ffffffff16565b611a0781612308565b9350505050919050565b6060611a3173fe0000000000000000000000000000000000000584612361565b60008073fe0000000000000000000000000000000000000573ffffffffffffffffffffffffffffffffffffffff16888686611a6d576000611a70565b60015b8a8a8e604051602001611a8896959493929190615457565b604051602081830303815290604052604051611aa491906154f0565b600060405180830381855af49150503d8060008114611adf576040519150601f19603f3d011682016040523d82523d6000602084013e611ae4565b606091505b509150915081611b20576040517f8a7db5bf00000000000000000000000000000000000000000000000000000000815260040160405180910390fd5b611b29816123f7565b925050509695505050505050565b611b3f61398b565b606060008084511115611b8457611b5f818561257e90919063ffffffff16565b8092508193505050600082511115611b8357611b7a8261275a565b92505050611bee565b5b6040518060400160405280600067ffffffffffffffff811115611baa57611ba9613d06565b5b6040519080825280601f01601f191660200182016040528015611bdc5781602001600182028036833780820191505090505b50815260200160001515815250925050505b919050565b60606000611c0a8367ffffffffffffffff16612235565b90506000611c17826122a8565b9050611c2c848261290190919063ffffffff16565b611c3581612308565b92505050919050565b611c466139a7565b600080611c5c828561291190919063ffffffff16565b809350819250505060028114611c7557611c74615507565b5b611c88828561299290919063ffffffff16565b846000018194508260070b60070b8152505050611cae828561299290919063ffffffff16565b846020018194508260070b60070b81525050505050919050565b611cd06139e7565b600080611ce6828561291190919063ffffffff16565b809350819250505060028114611cff57611cfe615507565b5b611d12828561257e90919063ffffffff16565b846000018194508290525050611d31828561257e90919063ffffffff16565b8460200181945082905250505050919050565b611d4c613a01565b6000806060611d64838661291190919063ffffffff16565b8094508193505050600b8214611d7d57611d7c615507565b5b611d9083866129c090919063ffffffff16565b856000018195508290525050611daf8386612c3a90919063ffffffff16565b856020018195508267ffffffffffffffff1667ffffffffffffffff168152505050611de38386612cbb90919063ffffffff16565b8560400181955082151515158152505050611e07838661257e90919063ffffffff16565b8094508192505050611e1881612d65565b8460600181905250611e33838661257e90919063ffffffff16565b8094508192505050611e4481612d65565b8460800181905250611e5f8386612dc890919063ffffffff16565b8560a0018195508290525050611e7e838661299290919063ffffffff16565b8560c0018195508260070b60070b8152505050611ea4838661299290919063ffffffff16565b8560e0018195508260070b60070b81525050506060611ecc848761257e90919063ffffffff16565b8095508192505050611edd8161275a565b8561010001819052506060611efb858861257e90919063ffffffff16565b8096508192505050611f0c8161275a565b8661012001819052506060611f2a868961257e90919063ffffffff16565b8097508192505050611f3b8161275a565b876101400181905250505050505050919050565b611f57613a97565b6000602083611f669190615565565b14611f9257602082611f789190615565565b6020611f849190615596565b82611f8f91906153f2565b91505b818360200181815250506040518084526000815282810160200181811015611fb957600080fd5b80604052505082905092915050565b611fe9816005600760ff16901b178360000151612f8090919063ffffffff16565b505050565b611ff6613ab1565b60008061200c828561291190919063ffffffff16565b80935081925050506002811461202557612024615507565b5b612038828561257e90919063ffffffff16565b8460000181945082905250506120578285612c3a90919063ffffffff16565b846020018194508267ffffffffffffffff1667ffffffffffffffff1681525050505050919050565b606060006120908360000151612289565b9050600061209d826122a8565b90506120b68460000151826122df90919063ffffffff16565b6120bf81612308565b92505050919050565b6060600060018360000151516120de91906153f2565b67ffffffffffffffff8111156120f7576120f6613d06565b5b6040519080825280601f01601f1916602001820160405280156121295781602001600182028036833780820191505090505b50905060011515836020015115151461214657600060f81b61214c565b600160f81b5b816000815181106121605761215f6155ca565b5b60200101907effffffffffffffffffffffffffffffffffffffffffffffffffffffffffffff1916908160001a90535060006001905060005b84600001515181101561222a57846000015181815181106121bc576121bb6155ca565b5b602001015160f81c60f81b8383815181106121da576121d96155ca565b5b60200101907effffffffffffffffffffffffffffffffffffffffffffffffffffffffffffff1916908160001a9053508180612214906155f9565b9250508080612222906155f9565b915050612198565b508192505050919050565b6000601782116122485760019050612284565b60ff82116122595760029050612284565b61ffff821161226b5760039050612284565b63ffffffff821161227f5760059050612284565b600990505b919050565b600081516122978351612235565b6122a191906153f2565b9050919050565b6122b0613ad5565b6122be816000015183611f4f565b506000816020018181525050919050565b6122db82600483612fea565b5050565b6122ec8260028351612ffa565b6123038183600001516131a390919063ffffffff16565b505050565b60606000826020015114612351576040517f08c379a0000000000000000000000000000000000000000000000000000000008152600401612348906152c6565b60405180910390fd5b8160000151600001519050919050565b6000479050818110156123ad5780826040517f8f0f42060000000000000000000000000000000000000000000000000000000081526004016123a4929190615641565b60405180910390fd5b60006123b8846131bf565b9050806123f1576040517f64d954b000000000000000000000000000000000000000000000000000000000815260040160405180910390fd5b50505050565b606060008060008480602001905181019061241291906156a0565b925092509250600067ffffffffffffffff168267ffffffffffffffff160361247457600081511461246f576040517f0e74990700000000000000000000000000000000000000000000000000000000815260040160405180910390fd5b61252e565b605167ffffffffffffffff168267ffffffffffffffff1614806124ab5750607167ffffffffffffffff168267ffffffffffffffff16145b156124f05760008151036124eb576040517f0e74990700000000000000000000000000000000000000000000000000000000815260040160405180910390fd5b61252d565b816040517ff1f6bced000000000000000000000000000000000000000000000000000000008152600401612524919061570f565b60405180910390fd5b5b6000831461257357826040517fd4bb667100000000000000000000000000000000000000000000000000000000815260040161256a9190615739565b60405180910390fd5b809350505050919050565b6060600080600061258f86866131d5565b8167ffffffffffffffff169150809750819350829450505050600660ff168260ff1614806125c35750600260ff168260ff16145b612602576040517f08c379a00000000000000000000000000000000000000000000000000000000081526004016125f9906157c6565b60405180910390fd5b600660ff168260ff160361264b5761261a86866131d5565b8167ffffffffffffffff169150809750819350829450505050600260ff168260ff161461264a57612649615507565b5b5b6000818661265991906153f2565b905060008267ffffffffffffffff81111561267757612676613d06565b5b6040519080825280601f01601f1916602001820160405280156126a95781602001600182028036833780820191505090505b5090506000808890505b8381101561273c578981815181106126ce576126cd6155ca565b5b602001015160f81c60f81b8383815181106126ec576126eb6155ca565b5b60200101907effffffffffffffffffffffffffffffffffffffffffffffffffffffffffffff1916908160001a9053508180612726906155f9565b9250508080612734906155f9565b9150506126b3565b5081848961274a91906153f2565b9650965050505050509250929050565b61276261398b565b60008251036127a0576040518060400160405280604051806040016040528060018152602001600081525081526020016000151581525090506128fc565b6000600183516127b09190615596565b67ffffffffffffffff8111156127c9576127c8613d06565b5b6040519080825280601f01601f1916602001820160405280156127fb5781602001600182028036833780820191505090505b5090506000600160f81b84600081518110612819576128186155ca565b5b602001015160f81c60f81b7effffffffffffffffffffffffffffffffffffffffffffffffffffffffffffff19160361285057600190505b6000600190505b84518110156128df57848181518110612873576128726155ca565b5b602001015160f81c60f81b8360018361288c9190615596565b8151811061289d5761289c6155ca565b5b60200101907effffffffffffffffffffffffffffffffffffffffffffffffffffffffffffff1916908160001a90535080806128d7906155f9565b915050612857565b506040518060400160405280838152602001821515815250925050505b919050565b61290d82600083612ffa565b5050565b60008060008061292186866131d5565b8167ffffffffffffffff169150809750819350829450505050600460ff168260ff1614612983576040517f08c379a000000000000000000000000000000000000000000000000000000000815260040161297a90615832565b60405180910390fd5b80859350935050509250929050565b60008060006129aa84866133c790919063ffffffff16565b8095508192505050808492509250509250929050565b6129c8613af5565b60008060006129e085876131d590919063ffffffff16565b8167ffffffffffffffff169150809750819350829450505050600660ff168260ff1614612a42576040517f08c379a0000000000000000000000000000000000000000000000000000000008152600401612a39906158c4565b60405180910390fd5b602a60ff168114612a88576040517f08c379a0000000000000000000000000000000000000000000000000000000008152600401612a7f90615930565b60405180910390fd5b6060612a9d868861257e90919063ffffffff16565b8097508192505050600060f81b81600081518110612abe57612abd6155ca565b5b602001015160f81c60f81b7effffffffffffffffffffffffffffffffffffffffffffffffffffffffffffff191614612b2b576040517f08c379a0000000000000000000000000000000000000000000000000000000008152600401612b22906159c2565b60405180910390fd5b612b33613af5565b60018251612b419190615596565b67ffffffffffffffff811115612b5a57612b59613d06565b5b6040519080825280601f01601f191660200182016040528015612b8c5781602001600182028036833780820191505090505b5081600001819052506000600190505b8251811015612c2857828181518110612bb857612bb76155ca565b5b602001015160f81c60f81b8260000151600183612bd59190615596565b81518110612be657612be56155ca565b5b60200101907effffffffffffffffffffffffffffffffffffffffffffffffffffffffffffff1916908160001a9053508080612c20906155f9565b915050612b9c565b50808795509550505050509250929050565b600080600080612c4a86866131d5565b8167ffffffffffffffff169150809750819350829450505050600060ff168260ff1614612cac576040517f08c379a0000000000000000000000000000000000000000000000000000000008152600401612ca390615a54565b60405180910390fd5b80859350935050509250929050565b600080600080612ccb86866131d5565b8167ffffffffffffffff169150809750819350829450505050600760ff168260ff1614612d2d576040517f08c379a0000000000000000000000000000000000000000000000000000000008152600401612d2490615ac0565b60405180910390fd5b601560ff16811480612d425750601460ff1681145b612d4f57612d4e615507565b5b601460ff16811415859350935050509250929050565b612d6d613b08565b60006040518060200160405280848152509050612d8981613459565b612dbf576040517fe6c4247b00000000000000000000000000000000000000000000000000000000815260040160405180910390fd5b80915050919050565b612dd0613b1b565b6000806000612ddf86866131d5565b8167ffffffffffffffff169150809750819350829450505050600260ff168260ff161480612e135750600360ff168260ff16145b612e52576040517f08c379a0000000000000000000000000000000000000000000000000000000008152600401612e4990615b52565b60405180910390fd5b60008186612e6091906153f2565b905060008267ffffffffffffffff811115612e7e57612e7d613d06565b5b6040519080825280601f01601f191660200182016040528015612eb05781602001600182028036833780820191505090505b5090506000808890505b83811015612f4357898181518110612ed557612ed46155ca565b5b602001015160f81c60f81b838381518110612ef357612ef26155ca565b5b60200101907effffffffffffffffffffffffffffffffffffffffffffffffffffffffffffff1916908160001a9053508180612f2d906155f9565b9250508080612f3b906155f9565b915050612eba565b506040518060400160405280838152602001600360ff168760ff161415158152508489612f7091906153f2565b9650965050505050509250929050565b612f88613a97565b600083600001515190506000600182612fa191906153f2565b905084602001518210612fc557612fc485600283612fbf9190615b72565b61363e565b5b84516020838201018581538151831115612fdd578282525b5050849250505092915050565b612ff5838383612ffa565b505050565b60178167ffffffffffffffff16116130355761302f8160058460ff16901b60ff16178460000151612f8090919063ffffffff16565b5061319e565b60ff8167ffffffffffffffff161161309357613068601860058460ff16901b178460000151612f8090919063ffffffff16565b5061308d8167ffffffffffffffff16600185600001516136629092919063ffffffff16565b5061319d565b61ffff8167ffffffffffffffff16116130f2576130c7601960058460ff16901b178460000151612f8090919063ffffffff16565b506130ec8167ffffffffffffffff16600285600001516136629092919063ffffffff16565b5061319c565b63ffffffff8167ffffffffffffffff161161315357613128601a60058460ff16901b178460000151612f8090919063ffffffff16565b5061314d8167ffffffffffffffff16600485600001516136629092919063ffffffff16565b5061319b565b613174601b60058460ff16901b178460000151612f8090919063ffffffff16565b506131998167ffffffffffffffff16600885600001516136629092919063ffffffff16565b505b5b5b5b505050565b6131ab613a97565b6131b7838384516136ef565b905092915050565b600080823f90506000801b811415915050919050565b6000806000806131e586866137d2565b90506001856131f491906153f2565b94506000600560e0831660ff16901c90506000601f83169050601c8160ff1610613253576040517f08c379a000000000000000000000000000000000000000000000000000000000815260040161324a90615c26565b60405180910390fd5b60188160ff161015613276578181888160ff1691509550955095505050506133c0565b60188160ff16036132fd57600061328d89896137d2565b905060018861329c91906153f2565b975060188160ff1610156132e5576040517f08c379a00000000000000000000000000000000000000000000000000000000081526004016132dc90615c92565b60405180910390fd5b8281898160ff169150965096509650505050506133c0565b60198160ff160361333e576000613314898961384d565b905060028861332391906153f2565b97508281898161ffff169150965096509650505050506133c0565b601a8160ff160361338157600061335589896138b7565b905060048861336491906153f2565b97508281898163ffffffff169150965096509650505050506133c0565b601b8160ff161461339557613394615507565b5b60006133a18989613921565b90506008886133b091906153f2565b9750828189965096509650505050505b9250925092565b6000806000806133d786866131d5565b8167ffffffffffffffff169150809750819350829450505050600160ff168260ff16148061340b5750600060ff168260ff16145b61344a576040517f08c379a000000000000000000000000000000000000000000000000000000000815260040161344190615d24565b60405180910390fd5b80859350935050509250929050565b60008060f81b8260000151600081518110613477576134766155ca565b5b602001015160f81c60f81b7effffffffffffffffffffffffffffffffffffffffffffffffffffffffffffff1916036134ba57600a82600001515111159050613639565b600160f81b82600001516000815181106134d7576134d66155ca565b5b602001015160f81c60f81b7effffffffffffffffffffffffffffffffffffffffffffffffffffffffffffff191614806135575750600260f81b8260000151600081518110613528576135276155ca565b5b602001015160f81c60f81b7effffffffffffffffffffffffffffffffffffffffffffffffffffffffffffff1916145b1561356c576015826000015151149050613639565b600360f81b8260000151600081518110613589576135886155ca565b5b602001015160f81c60f81b7effffffffffffffffffffffffffffffffffffffffffffffffffffffffffffff1916036135cb576031826000015151149050613639565b600460f81b82600001516000815181106135e8576135e76155ca565b5b602001015160f81c60f81b7effffffffffffffffffffffffffffffffffffffffffffffffffffffffffffff19160361362b57604082600001515111159050613639565b610100826000015151111590505b919050565b6000826000015190506136518383611f4f565b5061365c83826131a3565b50505050565b61366a613a97565b600084600001515190506000818461368291906153f2565b905085602001518111156136a7576136a6866002836136a19190615b72565b61363e565b5b60006001856101006136b99190615e77565b6136c39190615596565b9050865182810187831982511617815281518411156136e0578382525b50508693505050509392505050565b6136f7613a97565b825182111561370557600080fd5b600084600001515190506000838261371d91906153f2565b90508560200151811115613742576137418660028361373c9190615b72565b61363e565b5b6000808751805185602083010193508085111561375d578482525b60208901925050505b602086106137a4578051825260208261377f91906153f2565b915060208161378e91906153f2565b905060208661379d9190615596565b9550613766565b60006001876020036101000a0390508019825116818451168181178552505050879450505050509392505050565b60006001826137e191906153f2565b83511015613824576040517f08c379a000000000000000000000000000000000000000000000000000000000815260040161381b90615f0e565b60405180910390fd5b828281518110613837576138366155ca565b5b602001015160f81c60f81b60f81c905092915050565b600060028261385c91906153f2565b8351101561389f576040517f08c379a000000000000000000000000000000000000000000000000000000000815260040161389690615f0e565b60405180910390fd5b60008260200184015190508060f01c91505092915050565b60006004826138c691906153f2565b83511015613909576040517f08c379a000000000000000000000000000000000000000000000000000000000815260040161390090615f0e565b60405180910390fd5b60008260200184015190508060e01c91505092915050565b600060088261393091906153f2565b83511015613973576040517f08c379a000000000000000000000000000000000000000000000000000000000815260040161396a90615f0e565b60405180910390fd5b60008260200184015190508060c01c91505092915050565b6040518060400160405280606081526020016000151581525090565b6040518060400160405280600060070b8152602001600060070b81525090565b60405180604001604052806139da613a97565b8152602001600081525090565b604051806040016040528060608152602001606081525090565b604051806101600160405280613a15613af5565b8152602001600067ffffffffffffffff168152602001600015158152602001613a3c613b08565b8152602001613a49613b08565b8152602001613a56613b1b565b8152602001600060070b8152602001600060070b8152602001613a7761398b565b8152602001613a8461398b565b8152602001613a9161398b565b81525090565b604051806040016040528060608152602001600081525090565b604051806040016040528060608152602001600067ffffffffffffffff1681525090565b6040518060400160405280613ae8613a97565b8152602001600081525090565b6040518060200160405280606081525090565b6040518060200160405280606081525090565b6040518060400160405280606081526020016000151581525090565b6000604051905090565b600080fd5b600080fd5b600073ffffffffffffffffffffffffffffffffffffffff82169050919050565b6000613b7682613b4b565b9050919050565b613b8681613b6b565b8114613b9157600080fd5b50565b600081359050613ba381613b7d565b92915050565b6000819050919050565b613bbc81613ba9565b8114613bc757600080fd5b50565b600081359050613bd981613bb3565b92915050565b60008060408385031215613bf657613bf5613b41565b5b6000613c0485828601613b94565b9250506020613c1585828601613bca565b9150509250929050565b613c2881613ba9565b82525050565b6000602082019050613c436000830184613c1f565b92915050565b600080fd5b60006101808284031215613c6557613c64613c49565b5b81905092915050565b600060208284031215613c8457613c83613b41565b5b600082013567ffffffffffffffff811115613ca257613ca1613b46565b5b613cae84828501613c4e565b91505092915050565b6000819050919050565b613cca81613cb7565b82525050565b6000602082019050613ce56000830184613cc1565b92915050565b600080fd5b600080fd5b6000601f19601f8301169050919050565b7f4e487b7100000000000000000000000000000000000000000000000000000000600052604160045260246000fd5b613d3e82613cf5565b810181811067ffffffffffffffff82111715613d5d57613d5c613d06565b5b80604052505050565b6000613d70613b37565b9050613d7c8282613d35565b919050565b600067ffffffffffffffff821115613d9c57613d9b613d06565b5b613da582613cf5565b9050602081019050919050565b82818337600083830152505050565b6000613dd4613dcf84613d81565b613d66565b905082815260208101848484011115613df057613def613cf0565b5b613dfb848285613db2565b509392505050565b600082601f830112613e1857613e17613ceb565b5b8135613e28848260208601613dc1565b91505092915050565b600060208284031215613e4757613e46613b41565b5b600082013567ffffffffffffffff811115613e6557613e64613b46565b5b613e7184828501613e03565b91505092915050565b600060208284031215613e9057613e8f613b41565b5b6000613e9e84828501613b94565b91505092915050565b600067ffffffffffffffff82169050919050565b613ec481613ea7565b8114613ecf57600080fd5b50565b600081359050613ee181613ebb565b92915050565b600080600060608486031215613f0057613eff613b41565b5b6000613f0e86828701613ed2565b9350506020613f1f86828701613ed2565b925050604084013567ffffffffffffffff811115613f4057613f3f613b46565b5b613f4c86828701613e03565b9150509250925092565b600063ffffffff82169050919050565b613f6f81613f56565b82525050565b613f7e81613ea7565b82525050565b600081519050919050565b600082825260208201905092915050565b60005b83811015613fbe578082015181840152602081019050613fa3565b60008484015250505050565b6000613fd582613f84565b613fdf8185613f8f565b9350613fef818560208601613fa0565b613ff881613cf5565b840191505092915050565b60006060820190506140186000830186613f66565b6140256020830185613f75565b81810360408301526140378184613fca565b9050949350505050565b6000819050919050565b600061406661406161405c84613b4b565b614041565b613b4b565b9050919050565b60006140788261404b565b9050919050565b600061408a8261406d565b9050919050565b61409a8161407f565b82525050565b60006020820190506140b56000830184614091565b92915050565b60006140c682613b6b565b9050919050565b6140d6816140bb565b81146140e157600080fd5b50565b6000813590506140f3816140cd565b92915050565b60006020828403121561410f5761410e613b41565b5b600061411d848285016140e4565b91505092915050565b61412f81613b6b565b82525050565b600060208201905061414a6000830184614126565b92915050565b600080fd5b600080fd5b600061416d61416884613d81565b613d66565b90508281526020810184848401111561418957614188613cf0565b5b614194848285613fa0565b509392505050565b600082601f8301126141b1576141b0613ceb565b5b81516141c184826020860161415a565b91505092915050565b6000602082840312156141e0576141df614150565b5b6141ea6020613d66565b9050600082015167ffffffffffffffff81111561420a57614209614155565b5b6142168482850161419c565b60008301525092915050565b60006020828403121561423857614237613b41565b5b600082015167ffffffffffffffff81111561425657614255613b46565b5b614262848285016141ca565b91505092915050565b61427481613ba9565b82525050565b600060208201905061428f600083018461426b565b92915050565b60008115159050919050565b6142aa81614295565b81146142b557600080fd5b50565b6000815190506142c7816142a1565b92915050565b6000604082840312156142e3576142e2614150565b5b6142ed6040613d66565b9050600082015167ffffffffffffffff81111561430d5761430c614155565b5b6143198482850161419c565b600083015250602061432d848285016142b8565b60208301525092915050565b60006020828403121561434f5761434e613b41565b5b600082015167ffffffffffffffff81111561436d5761436c613b46565b5b614379848285016142cd565b91505092915050565b600081905092915050565b50565b600061439d600083614382565b91506143a88261438d565b600082019050919050565b60006143be82614390565b9150819050919050565b600082825260208201905092915050565b60006143e482613f84565b6143ee81856143c8565b93506143fe818560208601613fa0565b61440781613cf5565b840191505092915050565b61441b81614295565b82525050565b6000604083016000830151848203600086015261443e82826143d9565b91505060208301516144536020860182614412565b508091505092915050565b600060208201905081810360008301526144788184614421565b905092915050565b60008151905061448f81613bb3565b92915050565b6000602082840312156144ab576144aa613b41565b5b60006144b984828501614480565b91505092915050565b7f4e487b7100000000000000000000000000000000000000000000000000000000600052602160045260246000fd5b600080fd5b600080fd5b600080fd5b6000808335600160200384360303811261451d5761451c6144f1565b5b80840192508235915067ffffffffffffffff82111561453f5761453e6144f6565b5b60208301925060018202360383131561455b5761455a6144fb565b5b509250929050565b600061456f8385613f8f565b935061457c838584613db2565b61458583613cf5565b840190509392505050565b600060208201905081810360008301526145ab818486614563565b90509392505050565b600581106145c157600080fd5b50565b6000815190506145d3816145b4565b92915050565b6000602082840312156145ef576145ee613b41565b5b60006145fd848285016145c4565b91505092915050565b600080fd5b600080fd5b600080fd5b6000808335600160200384360303811261463257614631614610565b5b83810192508235915060208301925067ffffffffffffffff82111561465a57614659614606565b5b6001820236038313156146705761466f61460b565b5b509250929050565b600082825260208201905092915050565b60006146958385614678565b93506146a2838584613db2565b6146ab83613cf5565b840190509392505050565b60006146c56020840184613ed2565b905092915050565b6146d681613ea7565b82525050565b6000813590506146eb816142a1565b92915050565b600061470060208401846146dc565b905092915050565b61471181614295565b82525050565b6000808335600160200384360303811261473457614733614610565b5b83810192508235915060208301925067ffffffffffffffff82111561475c5761475b614606565b5b6001820236038313156147725761477161460b565b5b509250929050565b600082825260208201905092915050565b6000614797838561477a565b93506147a4838584613db2565b6147ad83613cf5565b840190509392505050565b60008160070b9050919050565b6147ce816147b8565b81146147d957600080fd5b50565b6000813590506147eb816147c5565b92915050565b600061480060208401846147dc565b905092915050565b614811816147b8565b82525050565b60006148266020840184613bca565b905092915050565b61483781613ba9565b82525050565b60008235600160800383360303811261485957614858614610565b5b82810191505092915050565b6000608083016148786000840184614717565b858303600087015261488b83828461478b565b9250505061489c60208401846146b6565b6148a960208601826146cd565b506148b760408401846146f1565b6148c46040860182614708565b506148d260608401846146f1565b6148df6060860182614708565b508091505092915050565b600061018083016148fe6000840184614615565b8583036000870152614911838284614689565b9250505061492260208401846146b6565b61492f60208601826146cd565b5061493d60408401846146f1565b61494a6040860182614708565b506149586060840184614717565b858303606087015261496b83828461478b565b9250505061497c60808401846147f1565b6149896080860182614808565b5061499760a08401846147f1565b6149a460a0860182614808565b506149b260c0840184614817565b6149bf60c086018261482e565b506149cd60e0840184614817565b6149da60e086018261482e565b506149e9610100840184614817565b6149f761010086018261482e565b50614a06610120840184614717565b858303610120870152614a1a83828461478b565b92505050614a2c6101408401846146b6565b614a3a6101408601826146cd565b50614a4961016084018461483d565b848203610160860152614a5c8282614865565b9150508091505092915050565b60006020820190508181036000830152614a8381846148ea565b905092915050565b6000819050919050565b614aa6614aa182613ba9565b614a8b565b82525050565b60008160601b9050919050565b6000614ac482614aac565b9050919050565b6000614ad682614ab9565b9050919050565b614aee614ae982613b6b565b614acb565b82525050565b6000614b008286614a95565b602082019150614b108285614add565b601482019150614b208284614a95565b602082019150819050949350505050565b614b3a81613b6b565b82525050565b6000606082019050614b556000830186613cc1565b614b626020830185613c1f565b614b6f6040830184614b31565b949350505050565b60006040820190508181036000830152614b92818587614563565b9050614ba16020830184613cc1565b949350505050565b60058110614bba57614bb96144c2565b5b50565b6000819050614bcb82614ba9565b919050565b6000614bdb82614bbd565b9050919050565b614beb81614bd0565b82525050565b60006040820190508181036000830152614c0c818587614563565b9050614c1b6020830184614be2565b949350505050565b600060208284031215614c3957614c38613b41565b5b6000614c47848285016146dc565b91505092915050565b600060208284031215614c6657614c65613b41565b5b6000614c7484828501613ed2565b91505092915050565b6000604082019050614c926000830185613f75565b614c9f6020830184613c1f565b9392505050565b60006020820190508181036000830152614cc08184613fca565b905092915050565b600081519050614cd781613ebb565b92915050565b600060208284031215614cf357614cf2613b41565b5b6000614d0184828501614cc8565b91505092915050565b60006040820190508181036000830152614d248185613fca565b9050614d336020830184614be2565b9392505050565b600082825260208201905092915050565b7f4461746143617020526563656976656421000000000000000000000000000000600082015250565b6000614d81601183614d3a565b9150614d8c82614d4b565b602082019050919050565b60006020820190508181036000830152614db081614d74565b9050919050565b7f496e697469616c697a61626c653a20636f6e747261637420697320616c72656160008201527f647920696e697469616c697a6564000000000000000000000000000000000000602082015250565b6000614e13602e83614d3a565b9150614e1e82614db7565b604082019050919050565b60006020820190508181036000830152614e4281614e06565b9050919050565b6000819050919050565b600060ff82169050919050565b6000614e7b614e76614e7184614e49565b614041565b614e53565b9050919050565b614e8b81614e60565b82525050565b6000602082019050614ea66000830184614e82565b92915050565b614eb581613cb7565b8114614ec057600080fd5b50565b600081519050614ed281614eac565b92915050565b600060408284031215614eee57614eed614150565b5b614ef86040613d66565b90506000614f0884828501614ec3565b6000830152506020614f1c848285016142b8565b60208301525092915050565b600060408284031215614f3e57614f3d613b41565b5b6000614f4c84828501614ed8565b91505092915050565b600067ffffffffffffffff821115614f7057614f6f613d06565b5b614f7982613cf5565b9050602081019050919050565b6000614f99614f9484614f55565b613d66565b905082815260208101848484011115614fb557614fb4613cf0565b5b614fc0848285613fa0565b509392505050565b600082601f830112614fdd57614fdc613ceb565b5b8151614fed848260208601614f86565b91505092915050565b600081519050615005816147c5565b92915050565b60006080828403121561502157615020614150565b5b61502b6080613d66565b9050600082015167ffffffffffffffff81111561504b5761504a614155565b5b61505784828501614fc8565b600083015250602061506b84828501614cc8565b602083015250604061507f848285016142b8565b6040830152506060615093848285016142b8565b60608301525092915050565b600061018082840312156150b6576150b5614150565b5b6150c1610180613d66565b9050600082015167ffffffffffffffff8111156150e1576150e0614155565b5b6150ed8482850161419c565b600083015250602061510184828501614cc8565b6020830152506040615115848285016142b8565b604083015250606082015167ffffffffffffffff81111561513957615138614155565b5b61514584828501614fc8565b606083015250608061515984828501614ff6565b60808301525060a061516d84828501614ff6565b60a08301525060c061518184828501614480565b60c08301525060e061519584828501614480565b60e0830152506101006151aa84828501614480565b6101008301525061012082015167ffffffffffffffff8111156151d0576151cf614155565b5b6151dc84828501614fc8565b610120830152506101406151f284828501614cc8565b6101408301525061016082015167ffffffffffffffff81111561521857615217614155565b5b6152248482850161500b565b6101608301525092915050565b60006020828403121561524757615246613b41565b5b600082015167ffffffffffffffff81111561526557615264613b46565b5b6152718482850161509f565b91505092915050565b7f496e76616c69642043424f520000000000000000000000000000000000000000600082015250565b60006152b0600c83614d3a565b91506152bb8261527a565b602082019050919050565b600060208201905081810360008301526152df816152a3565b9050919050565b60006152f182613f84565b6152fb8185614678565b935061530b818560208601613fa0565b61531481613cf5565b840191505092915050565b6000604083016000830151848203600086015261533c82826152e6565b91505060208301516153516020860182614708565b508091505092915050565b600060408201905081810360008301526153768185613fca565b9050818103602083015261538a818461531f565b90509392505050565b600060408201905081810360008301526153ad8185613fca565b90506153bc6020830184613f75565b9392505050565b7f4e487b7100000000000000000000000000000000000000000000000000000000600052601160045260246000fd5b60006153fd82613ba9565b915061540883613ba9565b92508282019050808211156154205761541f6153c3565b5b92915050565b600061544161543c61543784613ea7565b614041565b613ea7565b9050919050565b61545181615426565b82525050565b600060c08201905061546c6000830189613f75565b6154796020830188613c1f565b6154866040830187613f75565b6154936060830186613f75565b81810360808301526154a58185613fca565b90506154b460a0830184615448565b979650505050505050565b60006154ca82613f84565b6154d48185614382565b93506154e4818560208601613fa0565b80840191505092915050565b60006154fc82846154bf565b915081905092915050565b7f4e487b7100000000000000000000000000000000000000000000000000000000600052600160045260246000fd5b7f4e487b7100000000000000000000000000000000000000000000000000000000600052601260045260246000fd5b600061557082613ba9565b915061557b83613ba9565b92508261558b5761558a615536565b5b828206905092915050565b60006155a182613ba9565b91506155ac83613ba9565b92508282039050818111156155c4576155c36153c3565b5b92915050565b7f4e487b7100000000000000000000000000000000000000000000000000000000600052603260045260246000fd5b600061560482613ba9565b91507fffffffffffffffffffffffffffffffffffffffffffffffffffffffffffffffff8203615636576156356153c3565b5b600182019050919050565b60006040820190506156566000830185613c1f565b6156636020830184613c1f565b9392505050565b6000819050919050565b61567d8161566a565b811461568857600080fd5b50565b60008151905061569a81615674565b92915050565b6000806000606084860312156156b9576156b8613b41565b5b60006156c78682870161568b565b93505060206156d886828701614cc8565b925050604084015167ffffffffffffffff8111156156f9576156f8613b46565b5b6157058682870161419c565b9150509250925092565b60006020820190506157246000830184613f75565b92915050565b6157338161566a565b82525050565b600060208201905061574e600083018461572a565b92915050565b7f696e76616c6964206d616a20286578706563746564204d616a546167206f722060008201527f4d616a42797465537472696e6729000000000000000000000000000000000000602082015250565b60006157b0602e83614d3a565b91506157bb82615754565b604082019050919050565b600060208201905081810360008301526157df816157a3565b9050919050565b7f696e76616c6964206d616a20286578706563746564204d616a41727261792900600082015250565b600061581c601f83614d3a565b9150615827826157e6565b602082019050919050565b6000602082019050818103600083015261584b8161580f565b9050919050565b7f6578706563746564206d616a6f72207479706520746167207768656e2070617260008201527f73696e6720636964000000000000000000000000000000000000000000000000602082015250565b60006158ae602883614d3a565b91506158b982615852565b604082019050919050565b600060208201905081810360008301526158dd816158a1565b9050919050565b7f657870656374656420746167203432207768656e2070617273696e6720636964600082015250565b600061591a602083614d3a565b9150615925826158e4565b602082019050919050565b600060208201905081810360008301526159498161590d565b9050919050565b7f6578706563746564206669727374206279746520746f2062652030207768656e60008201527f2070617273696e67206369640000000000000000000000000000000000000000602082015250565b60006159ac602c83614d3a565b91506159b782615950565b604082019050919050565b600060208201905081810360008301526159db8161599f565b9050919050565b7f696e76616c6964206d616a20286578706563746564204d616a556e7369676e6560008201527f64496e7429000000000000000000000000000000000000000000000000000000602082015250565b6000615a3e602583614d3a565b9150615a49826159e2565b604082019050919050565b60006020820190508181036000830152615a6d81615a31565b9050919050565b7f696e76616c6964206d616a20286578706563746564204d616a4f746865722900600082015250565b6000615aaa601f83614d3a565b9150615ab582615a74565b602082019050919050565b60006020820190508181036000830152615ad981615a9d565b9050919050565b7f696e76616c6964206d616a20286578706563746564204d616a4279746553747260008201527f696e67206f72204d616a54657874537472696e67290000000000000000000000602082015250565b6000615b3c603583614d3a565b9150615b4782615ae0565b604082019050919050565b60006020820190508181036000830152615b6b81615b2f565b9050919050565b6000615b7d82613ba9565b9150615b8883613ba9565b9250828202615b9681613ba9565b91508282048414831517615bad57615bac6153c3565b5b5092915050565b7f63616e6e6f742068616e646c652068656164657273207769746820657874726160008201527f203e203237000000000000000000000000000000000000000000000000000000602082015250565b6000615c10602583614d3a565b9150615c1b82615bb4565b604082019050919050565b60006020820190508181036000830152615c3f81615c03565b9050919050565b7f696e76616c69642063626f720000000000000000000000000000000000000000600082015250565b6000615c7c600c83614d3a565b9150615c8782615c46565b602082019050919050565b60006020820190508181036000830152615cab81615c6f565b9050919050565b7f696e76616c6964206d616a20286578706563746564204d616a5369676e65644960008201527f6e74206f72204d616a556e7369676e6564496e74290000000000000000000000602082015250565b6000615d0e603583614d3a565b9150615d1982615cb2565b604082019050919050565b60006020820190508181036000830152615d3d81615d01565b9050919050565b60008160011c9050919050565b6000808291508390505b6001851115615d9b57808604811115615d7757615d766153c3565b5b6001851615615d865780820291505b8081029050615d9485615d44565b9450615d5b565b94509492505050565b600082615db45760019050615e70565b81615dc25760009050615e70565b8160018114615dd85760028114615de257615e11565b6001915050615e70565b60ff841115615df457615df36153c3565b5b8360020a915084821115615e0b57615e0a6153c3565b5b50615e70565b5060208310610133831016604e8410600b8410161715615e465782820a905083811115615e4157615e406153c3565b5b615e70565b615e538484846001615d51565b92509050818404811115615e6a57615e696153c3565b5b81810290505b9392505050565b6000615e8282613ba9565b9150615e8d83613ba9565b9250615eba7fffffffffffffffffffffffffffffffffffffffffffffffffffffffffffffffff8484615da4565b905092915050565b7f736c6963696e67206f7574206f662072616e6765000000000000000000000000600082015250565b6000615ef8601483614d3a565b9150615f0382615ec2565b602082019050919050565b60006020820190508181036000830152615f2781615eeb565b905091905056fea2646970667358221220b153d2cc2ab05a3a8e692be6cec066402435e1ae7e570beeb43a19b76ed4f0dd64736f6c63430008110033",
			"opcodes": "PUSH1 0x80 PUSH1 0x40 MSTORE CALLVALUE DUP1 ISZERO PUSH2 0x10 JUMPI PUSH1 0x0 DUP1 REVERT JUMPDEST POP PUSH2 0x5F64 DUP1 PUSH3 0x21 PUSH1 0x0 CODECOPY PUSH1 0x0 RETURN INVALID PUSH1 0x80 PUSH1 0x40 MSTORE PUSH1 0x4 CALLDATASIZE LT PUSH2 0x7B JUMPI PUSH1 0x0 CALLDATALOAD PUSH1 0xE0 SHR DUP1 PUSH4 0x868E10C4 GT PUSH2 0x4E JUMPI DUP1 PUSH4 0x868E10C4 EQ PUSH2 0x14C JUMPI DUP1 PUSH4 0x86B714E2 EQ PUSH2 0x18B JUMPI DUP1 PUSH4 0xB163CC38 EQ PUSH2 0x1B6 JUMPI DUP1 PUSH4 0xC4D66DE8 EQ PUSH2 0x1C0 JUMPI PUSH2 0x7B JUMP JUMPDEST DUP1 PUSH4 0xCF20CC9 EQ PUSH2 0x80 JUMPI DUP1 PUSH4 0x10C79FA4 EQ PUSH2 0xBD JUMPI DUP1 PUSH4 0x66263735 EQ PUSH2 0xFA JUMPI DUP1 PUSH4 0x6637B882 EQ PUSH2 0x123 JUMPI JUMPDEST PUSH1 0x0 DUP1 REVERT JUMPDEST CALLVALUE DUP1 ISZERO PUSH2 0x8C JUMPI PUSH1 0x0 DUP1 REVERT JUMPDEST POP PUSH2 0xA7 PUSH1 0x4 DUP1 CALLDATASIZE SUB DUP2 ADD SWAP1 PUSH2 0xA2 SWAP2 SWAP1 PUSH2 0x3BDF JUMP JUMPDEST PUSH2 0x1E9 JUMP JUMPDEST PUSH1 0x40 MLOAD PUSH2 0xB4 SWAP2 SWAP1 PUSH2 0x3C2E JUMP JUMPDEST PUSH1 0x40 MLOAD DUP1 SWAP2 SUB SWAP1 RETURN JUMPDEST CALLVALUE DUP1 ISZERO PUSH2 0xC9 JUMPI PUSH1 0x0 DUP1 REVERT JUMPDEST POP PUSH2 0xE4 PUSH1 0x4 DUP1 CALLDATASIZE SUB DUP2 ADD SWAP1 PUSH2 0xDF SWAP2 SWAP1 PUSH2 0x3C6E JUMP JUMPDEST PUSH2 0x423 JUMP JUMPDEST PUSH1 0x40 MLOAD PUSH2 0xF1 SWAP2 SWAP1 PUSH2 0x3CD0 JUMP JUMPDEST PUSH1 0x40 MLOAD DUP1 SWAP2 SUB SWAP1 RETURN JUMPDEST CALLVALUE DUP1 ISZERO PUSH2 0x106 JUMPI PUSH1 0x0 DUP1 REVERT JUMPDEST POP PUSH2 0x121 PUSH1 0x4 DUP1 CALLDATASIZE SUB DUP2 ADD SWAP1 PUSH2 0x11C SWAP2 SWAP1 PUSH2 0x3E31 JUMP JUMPDEST PUSH2 0x9C5 JUMP JUMPDEST STOP JUMPDEST CALLVALUE DUP1 ISZERO PUSH2 0x12F JUMPI PUSH1 0x0 DUP1 REVERT JUMPDEST POP PUSH2 0x14A PUSH1 0x4 DUP1 CALLDATASIZE SUB DUP2 ADD SWAP1 PUSH2 0x145 SWAP2 SWAP1 PUSH2 0x3E7A JUMP JUMPDEST PUSH2 0xC69 JUMP JUMPDEST STOP JUMPDEST CALLVALUE DUP1 ISZERO PUSH2 0x158 JUMPI PUSH1 0x0 DUP1 REVERT JUMPDEST POP PUSH2 0x173 PUSH1 0x4 DUP1 CALLDATASIZE SUB DUP2 ADD SWAP1 PUSH2 0x16E SWAP2 SWAP1 PUSH2 0x3EE7 JUMP JUMPDEST PUSH2 0xD08 JUMP JUMPDEST PUSH1 0x40 MLOAD PUSH2 0x182 SWAP4 SWAP3 SWAP2 SWAP1 PUSH2 0x4003 JUMP JUMPDEST PUSH1 0x40 MLOAD DUP1 SWAP2 SUB SWAP1 RETURN JUMPDEST CALLVALUE DUP1 ISZERO PUSH2 0x197 JUMPI PUSH1 0x0 DUP1 REVERT JUMPDEST POP PUSH2 0x1A0 PUSH2 0xE5D JUMP JUMPDEST PUSH1 0x40 MLOAD PUSH2 0x1AD SWAP2 SWAP1 PUSH2 0x40A0 JUMP JUMPDEST PUSH1 0x40 MLOAD DUP1 SWAP2 SUB SWAP1 RETURN JUMPDEST PUSH2 0x1BE PUSH2 0xE83 JUMP JUMPDEST STOP JUMPDEST CALLVALUE DUP1 ISZERO PUSH2 0x1CC JUMPI PUSH1 0x0 DUP1 REVERT JUMPDEST POP PUSH2 0x1E7 PUSH1 0x4 DUP1 CALLDATASIZE SUB DUP2 ADD SWAP1 PUSH2 0x1E2 SWAP2 SWAP1 PUSH2 0x40F9 JUMP JUMPDEST PUSH2 0xF0B JUMP JUMPDEST STOP JUMPDEST PUSH1 0x0 DUP1 PUSH1 0x40 MLOAD DUP1 PUSH1 0x40 ADD PUSH1 0x40 MSTORE DUP1 PUSH20 0x0 PUSH4 0x8CE70C68 DUP8 PUSH1 0x40 MLOAD DUP3 PUSH4 0xFFFFFFFF AND PUSH1 0xE0 SHL DUP2 MSTORE PUSH1 0x4 ADD PUSH2 0x22E SWAP2 SWAP1 PUSH2 0x4135 JUMP JUMPDEST PUSH1 0x0 PUSH1 0x40 MLOAD DUP1 DUP4 SUB DUP2 DUP7 GAS DELEGATECALL ISZERO DUP1 ISZERO PUSH2 0x24B JUMPI RETURNDATASIZE PUSH1 0x0 DUP1 RETURNDATACOPY RETURNDATASIZE PUSH1 0x0 REVERT JUMPDEST POP POP POP POP PUSH1 0x40 MLOAD RETURNDATASIZE PUSH1 0x0 DUP3 RETURNDATACOPY RETURNDATASIZE PUSH1 0x1F NOT PUSH1 0x1F DUP3 ADD AND DUP3 ADD DUP1 PUSH1 0x40 MSTORE POP DUP2 ADD SWAP1 PUSH2 0x274 SWAP2 SWAP1 PUSH2 0x4222 JUMP JUMPDEST DUP2 MSTORE PUSH1 0x20 ADD PUSH20 0x0 PUSH4 0x6F038971 DUP7 PUSH1 0x40 MLOAD DUP3 PUSH4 0xFFFFFFFF AND PUSH1 0xE0 SHL DUP2 MSTORE PUSH1 0x4 ADD PUSH2 0x2B0 SWAP2 SWAP1 PUSH2 0x427A JUMP JUMPDEST PUSH1 0x0 PUSH1 0x40 MLOAD DUP1 DUP4 SUB DUP2 DUP7 GAS DELEGATECALL ISZERO DUP1 ISZERO PUSH2 0x2CD JUMPI RETURNDATASIZE PUSH1 0x0 DUP1 RETURNDATACOPY RETURNDATASIZE PUSH1 0x0 REVERT JUMPDEST POP POP POP POP PUSH1 0x40 MLOAD RETURNDATASIZE PUSH1 0x0 DUP3 RETURNDATACOPY RETURNDATASIZE PUSH1 0x1F NOT PUSH1 0x1F DUP3 ADD AND DUP3 ADD DUP1 PUSH1 0x40 MSTORE POP DUP2 ADD SWAP1 PUSH2 0x2F6 SWAP2 SWAP1 PUSH2 0x4339 JUMP JUMPDEST DUP2 MSTORE POP SWAP1 POP PUSH1 0x0 PUSH2 0x306 DUP3 PUSH2 0x1083 JUMP JUMPDEST SWAP1 POP PUSH1 0x0 PUSH1 0x1 PUSH1 0x0 SWAP1 SLOAD SWAP1 PUSH2 0x100 EXP SWAP1 DIV PUSH20 0xFFFFFFFFFFFFFFFFFFFFFFFFFFFFFFFFFFFFFFFF AND PUSH20 0xFFFFFFFFFFFFFFFFFFFFFFFFFFFFFFFFFFFFFFFF AND DUP6 PUSH1 0x40 MLOAD PUSH2 0x350 SWAP1 PUSH2 0x43B3 JUMP JUMPDEST PUSH1 0x0 PUSH1 0x40 MLOAD DUP1 DUP4 SUB DUP2 DUP6 DUP8 GAS CALL SWAP3 POP POP POP RETURNDATASIZE DUP1 PUSH1 0x0 DUP2 EQ PUSH2 0x38D JUMPI PUSH1 0x40 MLOAD SWAP2 POP PUSH1 0x1F NOT PUSH1 0x3F RETURNDATASIZE ADD AND DUP3 ADD PUSH1 0x40 MSTORE RETURNDATASIZE DUP3 MSTORE RETURNDATASIZE PUSH1 0x0 PUSH1 0x20 DUP5 ADD RETURNDATACOPY PUSH2 0x392 JUMP JUMPDEST PUSH1 0x60 SWAP2 POP JUMPDEST POP POP SWAP1 POP DUP1 PUSH2 0x3A0 JUMPI PUSH1 0x0 DUP1 REVERT JUMPDEST PUSH20 0x0 PUSH4 0x86113702 DUP4 PUSH1 0x40 MLOAD DUP3 PUSH4 0xFFFFFFFF AND PUSH1 0xE0 SHL DUP2 MSTORE PUSH1 0x4 ADD PUSH2 0x3D7 SWAP2 SWAP1 PUSH2 0x445E JUMP JUMPDEST PUSH1 0x20 PUSH1 0x40 MLOAD DUP1 DUP4 SUB DUP2 DUP7 GAS DELEGATECALL ISZERO DUP1 ISZERO PUSH2 0x3F4 JUMPI RETURNDATASIZE PUSH1 0x0 DUP1 RETURNDATACOPY RETURNDATASIZE PUSH1 0x0 REVERT JUMPDEST POP POP POP POP PUSH1 0x40 MLOAD RETURNDATASIZE PUSH1 0x1F NOT PUSH1 0x1F DUP3 ADD AND DUP3 ADD DUP1 PUSH1 0x40 MSTORE POP DUP2 ADD SWAP1 PUSH2 0x418 SWAP2 SWAP1 PUSH2 0x4495 JUMP JUMPDEST SWAP4 POP POP POP POP SWAP3 SWAP2 POP POP JUMP JUMPDEST PUSH1 0x0 PUSH1 0x1 PUSH1 0x0 SWAP1 SLOAD SWAP1 PUSH2 0x100 EXP SWAP1 DIV PUSH20 0xFFFFFFFFFFFFFFFFFFFFFFFFFFFFFFFFFFFFFFFF AND PUSH20 0xFFFFFFFFFFFFFFFFFFFFFFFFFFFFFFFFFFFFFFFF AND CALLER PUSH20 0xFFFFFFFFFFFFFFFFFFFFFFFFFFFFFFFFFFFFFFFF AND EQ PUSH2 0x47F JUMPI PUSH1 0x0 DUP1 REVERT JUMPDEST PUSH1 0x2 PUSH1 0x4 DUP2 GT ISZERO PUSH2 0x493 JUMPI PUSH2 0x492 PUSH2 0x44C2 JUMP JUMPDEST JUMPDEST PUSH1 0x0 PUSH1 0x2 SWAP1 SLOAD SWAP1 PUSH2 0x100 EXP SWAP1 DIV PUSH20 0xFFFFFFFFFFFFFFFFFFFFFFFFFFFFFFFFFFFFFFFF AND PUSH20 0xFFFFFFFFFFFFFFFFFFFFFFFFFFFFFFFFFFFFFFFF AND PUSH4 0xA6D1B7B8 DUP5 DUP1 PUSH1 0x0 ADD SWAP1 PUSH2 0x4E1 SWAP2 SWAP1 PUSH2 0x4500 JUMP JUMPDEST PUSH1 0x40 MLOAD DUP4 PUSH4 0xFFFFFFFF AND PUSH1 0xE0 SHL DUP2 MSTORE PUSH1 0x4 ADD PUSH2 0x4FE SWAP3 SWAP2 SWAP1 PUSH2 0x4590 JUMP JUMPDEST PUSH1 0x20 PUSH1 0x40 MLOAD DUP1 DUP4 SUB DUP2 DUP7 GAS STATICCALL ISZERO DUP1 ISZERO PUSH2 0x51B JUMPI RETURNDATASIZE PUSH1 0x0 DUP1 RETURNDATACOPY RETURNDATASIZE PUSH1 0x0 REVERT JUMPDEST POP POP POP POP PUSH1 0x40 MLOAD RETURNDATASIZE PUSH1 0x1F NOT PUSH1 0x1F DUP3 ADD AND DUP3 ADD DUP1 PUSH1 0x40 MSTORE POP DUP2 ADD SWAP1 PUSH2 0x53F SWAP2 SWAP1 PUSH2 0x45D9 JUMP JUMPDEST PUSH1 0x4 DUP2 GT ISZERO PUSH2 0x551 JUMPI PUSH2 0x550 PUSH2 0x44C2 JUMP JUMPDEST JUMPDEST EQ DUP1 PUSH2 0x62C JUMPI POP PUSH1 0x3 PUSH1 0x4 DUP2 GT ISZERO PUSH2 0x56C JUMPI PUSH2 0x56B PUSH2 0x44C2 JUMP JUMPDEST JUMPDEST PUSH1 0x0 PUSH1 0x2 SWAP1 SLOAD SWAP1 PUSH2 0x100 EXP SWAP1 DIV PUSH20 0xFFFFFFFFFFFFFFFFFFFFFFFFFFFFFFFFFFFFFFFF AND PUSH20 0xFFFFFFFFFFFFFFFFFFFFFFFFFFFFFFFFFFFFFFFF AND PUSH4 0xA6D1B7B8 DUP5 DUP1 PUSH1 0x0 ADD SWAP1 PUSH2 0x5BA SWAP2 SWAP1 PUSH2 0x4500 JUMP JUMPDEST PUSH1 0x40 MLOAD DUP4 PUSH4 0xFFFFFFFF AND PUSH1 0xE0 SHL DUP2 MSTORE PUSH1 0x4 ADD PUSH2 0x5D7 SWAP3 SWAP2 SWAP1 PUSH2 0x4590 JUMP JUMPDEST PUSH1 0x20 PUSH1 0x40 MLOAD DUP1 DUP4 SUB DUP2 DUP7 GAS STATICCALL ISZERO DUP1 ISZERO PUSH2 0x5F4 JUMPI RETURNDATASIZE PUSH1 0x0 DUP1 RETURNDATACOPY RETURNDATASIZE PUSH1 0x0 REVERT JUMPDEST POP POP POP POP PUSH1 0x40 MLOAD RETURNDATASIZE PUSH1 0x1F NOT PUSH1 0x1F DUP3 ADD AND DUP3 ADD DUP1 PUSH1 0x40 MSTORE POP DUP2 ADD SWAP1 PUSH2 0x618 SWAP2 SWAP1 PUSH2 0x45D9 JUMP JUMPDEST PUSH1 0x4 DUP2 GT ISZERO PUSH2 0x62A JUMPI PUSH2 0x629 PUSH2 0x44C2 JUMP JUMPDEST JUMPDEST EQ JUMPDEST ISZERO PUSH2 0x636 JUMPI PUSH1 0x0 DUP1 REVERT JUMPDEST PUSH1 0x0 DUP1 PUSH1 0x2 SWAP1 SLOAD SWAP1 PUSH2 0x100 EXP SWAP1 DIV PUSH20 0xFFFFFFFFFFFFFFFFFFFFFFFFFFFFFFFFFFFFFFFF AND PUSH20 0xFFFFFFFFFFFFFFFFFFFFFFFFFFFFFFFFFFFFFFFF AND PUSH4 0xE059BB72 PUSH1 0x40 MLOAD DUP2 PUSH4 0xFFFFFFFF AND PUSH1 0xE0 SHL DUP2 MSTORE PUSH1 0x4 ADD PUSH1 0x20 PUSH1 0x40 MLOAD DUP1 DUP4 SUB DUP2 DUP7 GAS STATICCALL ISZERO DUP1 ISZERO PUSH2 0x6A4 JUMPI RETURNDATASIZE PUSH1 0x0 DUP1 RETURNDATACOPY RETURNDATASIZE PUSH1 0x0 REVERT JUMPDEST POP POP POP POP PUSH1 0x40 MLOAD RETURNDATASIZE PUSH1 0x1F NOT PUSH1 0x1F DUP3 ADD AND DUP3 ADD DUP1 PUSH1 0x40 MSTORE POP DUP2 ADD SWAP1 PUSH2 0x6C8 SWAP2 SWAP1 PUSH2 0x4495 JUMP JUMPDEST SWAP1 POP PUSH1 0x0 PUSH1 0x2 SWAP1 SLOAD SWAP1 PUSH2 0x100 EXP SWAP1 DIV PUSH20 0xFFFFFFFFFFFFFFFFFFFFFFFFFFFFFFFFFFFFFFFF AND PUSH20 0xFFFFFFFFFFFFFFFFFFFFFFFFFFFFFFFFFFFFFFFF AND PUSH4 0x9346948 DUP5 PUSH1 0x40 MLOAD DUP3 PUSH4 0xFFFFFFFF AND PUSH1 0xE0 SHL DUP2 MSTORE PUSH1 0x4 ADD PUSH2 0x725 SWAP2 SWAP1 PUSH2 0x4A69 JUMP JUMPDEST PUSH1 0x0 PUSH1 0x40 MLOAD DUP1 DUP4 SUB DUP2 PUSH1 0x0 DUP8 DUP1 EXTCODESIZE ISZERO DUP1 ISZERO PUSH2 0x73F JUMPI PUSH1 0x0 DUP1 REVERT JUMPDEST POP GAS CALL ISZERO DUP1 ISZERO PUSH2 0x753 JUMPI RETURNDATASIZE PUSH1 0x0 DUP1 RETURNDATACOPY RETURNDATASIZE PUSH1 0x0 REVERT JUMPDEST POP POP POP POP PUSH1 0x0 TIMESTAMP CALLER DUP4 PUSH1 0x40 MLOAD PUSH1 0x20 ADD PUSH2 0x76E SWAP4 SWAP3 SWAP2 SWAP1 PUSH2 0x4AF4 JUMP JUMPDEST PUSH1 0x40 MLOAD PUSH1 0x20 DUP2 DUP4 SUB SUB DUP2 MSTORE SWAP1 PUSH1 0x40 MSTORE DUP1 MLOAD SWAP1 PUSH1 0x20 ADD KECCAK256 SWAP1 POP PUSH1 0x0 PUSH1 0x2 SWAP1 SLOAD SWAP1 PUSH2 0x100 EXP SWAP1 DIV PUSH20 0xFFFFFFFFFFFFFFFFFFFFFFFFFFFFFFFFFFFFFFFF AND PUSH20 0xFFFFFFFFFFFFFFFFFFFFFFFFFFFFFFFFFFFFFFFF AND PUSH4 0x347E8C2 DUP3 DUP5 CALLER PUSH1 0x40 MLOAD DUP5 PUSH4 0xFFFFFFFF AND PUSH1 0xE0 SHL DUP2 MSTORE PUSH1 0x4 ADD PUSH2 0x7E5 SWAP4 SWAP3 SWAP2 SWAP1 PUSH2 0x4B40 JUMP JUMPDEST PUSH1 0x0 PUSH1 0x40 MLOAD DUP1 DUP4 SUB DUP2 PUSH1 0x0 DUP8 DUP1 EXTCODESIZE ISZERO DUP1 ISZERO PUSH2 0x7FF JUMPI PUSH1 0x0 DUP1 REVERT JUMPDEST POP GAS CALL ISZERO DUP1 ISZERO PUSH2 0x813 JUMPI RETURNDATASIZE PUSH1 0x0 DUP1 RETURNDATACOPY RETURNDATASIZE PUSH1 0x0 REVERT JUMPDEST POP POP POP POP PUSH1 0x0 PUSH1 0x2 SWAP1 SLOAD SWAP1 PUSH2 0x100 EXP SWAP1 DIV PUSH20 0xFFFFFFFFFFFFFFFFFFFFFFFFFFFFFFFFFFFFFFFF AND PUSH20 0xFFFFFFFFFFFFFFFFFFFFFFFFFFFFFFFFFFFFFFFF AND PUSH4 0x230E927 DUP6 DUP1 PUSH1 0x0 ADD SWAP1 PUSH2 0x865 SWAP2 SWAP1 PUSH2 0x4500 JUMP JUMPDEST DUP5 PUSH1 0x40 MLOAD DUP5 PUSH4 0xFFFFFFFF AND PUSH1 0xE0 SHL DUP2 MSTORE PUSH1 0x4 ADD PUSH2 0x884 SWAP4 SWAP3 SWAP2 SWAP1 PUSH2 0x4B77 JUMP JUMPDEST PUSH1 0x0 PUSH1 0x40 MLOAD DUP1 DUP4 SUB DUP2 PUSH1 0x0 DUP8 DUP1 EXTCODESIZE ISZERO DUP1 ISZERO PUSH2 0x89E JUMPI PUSH1 0x0 DUP1 REVERT JUMPDEST POP GAS CALL ISZERO DUP1 ISZERO PUSH2 0x8B2 JUMPI RETURNDATASIZE PUSH1 0x0 DUP1 RETURNDATACOPY RETURNDATASIZE PUSH1 0x0 REVERT JUMPDEST POP POP POP POP PUSH1 0x0 PUSH1 0x2 SWAP1 SLOAD SWAP1 PUSH2 0x100 EXP SWAP1 DIV PUSH20 0xFFFFFFFFFFFFFFFFFFFFFFFFFFFFFFFFFFFFFFFF AND PUSH20 0xFFFFFFFFFFFFFFFFFFFFFFFFFFFFFFFFFFFFFFFF AND PUSH4 0xD15BCBE3 DUP6 DUP1 PUSH1 0x0 ADD SWAP1 PUSH2 0x904 SWAP2 SWAP1 PUSH2 0x4500 JUMP JUMPDEST PUSH1 0x1 PUSH1 0x40 MLOAD DUP5 PUSH4 0xFFFFFFFF AND PUSH1 0xE0 SHL DUP2 MSTORE PUSH1 0x4 ADD PUSH2 0x924 SWAP4 SWAP3 SWAP2 SWAP1 PUSH2 0x4BF1 JUMP JUMPDEST PUSH1 0x0 PUSH1 0x40 MLOAD DUP1 DUP4 SUB DUP2 PUSH1 0x0 DUP8 DUP1 EXTCODESIZE ISZERO DUP1 ISZERO PUSH2 0x93E JUMPI PUSH1 0x0 DUP1 REVERT JUMPDEST POP GAS CALL ISZERO DUP1 ISZERO PUSH2 0x952 JUMPI RETURNDATASIZE PUSH1 0x0 DUP1 RETURNDATACOPY RETURNDATASIZE PUSH1 0x0 REVERT JUMPDEST POP POP POP POP DUP4 PUSH1 0x40 ADD PUSH1 0x20 DUP2 ADD SWAP1 PUSH2 0x969 SWAP2 SWAP1 PUSH2 0x4C23 JUMP JUMPDEST ISZERO ISZERO DUP2 PUSH32 0xFD6419D07E4C269E58D0C63969756C2124155B4A8D6DD08B8CD46E3A9ACBF625 DUP7 PUSH1 0x20 ADD PUSH1 0x20 DUP2 ADD SWAP1 PUSH2 0x9A0 SWAP2 SWAP1 PUSH2 0x4C50 JUMP JUMPDEST DUP8 PUSH1 0xC0 ADD CALLDATALOAD PUSH1 0x40 MLOAD PUSH2 0x9B3 SWAP3 SWAP2 SWAP1 PUSH2 0x4C7D JUMP JUMPDEST PUSH1 0x40 MLOAD DUP1 SWAP2 SUB SWAP1 LOG3 DUP1 SWAP3 POP POP POP SWAP2 SWAP1 POP JUMP JUMPDEST PUSH1 0x0 DUP1 PUSH1 0x2 SWAP1 SLOAD SWAP1 PUSH2 0x100 EXP SWAP1 DIV PUSH20 0xFFFFFFFFFFFFFFFFFFFFFFFFFFFFFFFFFFFFFFFF AND PUSH20 0xFFFFFFFFFFFFFFFFFFFFFFFFFFFFFFFFFFFFFFFF AND PUSH4 0xA0E0C91 DUP4 PUSH1 0x40 MLOAD DUP3 PUSH4 0xFFFFFFFF AND PUSH1 0xE0 SHL DUP2 MSTORE PUSH1 0x4 ADD PUSH2 0xA21 SWAP2 SWAP1 PUSH2 0x4CA6 JUMP JUMPDEST PUSH1 0x20 PUSH1 0x40 MLOAD DUP1 DUP4 SUB DUP2 DUP7 GAS STATICCALL ISZERO DUP1 ISZERO PUSH2 0xA3E JUMPI RETURNDATASIZE PUSH1 0x0 DUP1 RETURNDATACOPY RETURNDATASIZE PUSH1 0x0 REVERT JUMPDEST POP POP POP POP PUSH1 0x40 MLOAD RETURNDATASIZE PUSH1 0x1F NOT PUSH1 0x1F DUP3 ADD AND DUP3 ADD DUP1 PUSH1 0x40 MSTORE POP DUP2 ADD SWAP1 PUSH2 0xA62 SWAP2 SWAP1 PUSH2 0x4CDD JUMP JUMPDEST PUSH8 0xFFFFFFFFFFFFFFFF AND GT PUSH2 0xA76 JUMPI PUSH1 0x0 DUP1 REVERT JUMPDEST PUSH1 0x0 PUSH2 0xB1C PUSH1 0x0 PUSH1 0x2 SWAP1 SLOAD SWAP1 PUSH2 0x100 EXP SWAP1 DIV PUSH20 0xFFFFFFFFFFFFFFFFFFFFFFFFFFFFFFFFFFFFFFFF AND PUSH20 0xFFFFFFFFFFFFFFFFFFFFFFFFFFFFFFFFFFFFFFFF AND PUSH4 0xA0E0C91 DUP5 PUSH1 0x40 MLOAD DUP3 PUSH4 0xFFFFFFFF AND PUSH1 0xE0 SHL DUP2 MSTORE PUSH1 0x4 ADD PUSH2 0xAD6 SWAP2 SWAP1 PUSH2 0x4CA6 JUMP JUMPDEST PUSH1 0x20 PUSH1 0x40 MLOAD DUP1 DUP4 SUB DUP2 DUP7 GAS STATICCALL ISZERO DUP1 ISZERO PUSH2 0xAF3 JUMPI RETURNDATASIZE PUSH1 0x0 DUP1 RETURNDATACOPY RETURNDATASIZE PUSH1 0x0 REVERT JUMPDEST POP POP POP POP PUSH1 0x40 MLOAD RETURNDATASIZE PUSH1 0x1F NOT PUSH1 0x1F DUP3 ADD AND DUP3 ADD DUP1 PUSH1 0x40 MSTORE POP DUP2 ADD SWAP1 PUSH2 0xB17 SWAP2 SWAP1 PUSH2 0x4CDD JUMP JUMPDEST PUSH2 0x10C3 JUMP JUMPDEST SWAP1 POP PUSH1 0x0 DUP2 PUSH1 0x20 ADD MLOAD PUSH1 0x7 SIGNEXTEND SGT ISZERO PUSH2 0xBC3 JUMPI PUSH1 0x0 PUSH1 0x2 SWAP1 SLOAD SWAP1 PUSH2 0x100 EXP SWAP1 DIV PUSH20 0xFFFFFFFFFFFFFFFFFFFFFFFFFFFFFFFFFFFFFFFF AND PUSH20 0xFFFFFFFFFFFFFFFFFFFFFFFFFFFFFFFFFFFFFFFF AND PUSH4 0xD15BCBE3 DUP4 PUSH1 0x4 PUSH1 0x40 MLOAD DUP4 PUSH4 0xFFFFFFFF AND PUSH1 0xE0 SHL DUP2 MSTORE PUSH1 0x4 ADD PUSH2 0xB8C SWAP3 SWAP2 SWAP1 PUSH2 0x4D0A JUMP JUMPDEST PUSH1 0x0 PUSH1 0x40 MLOAD DUP1 DUP4 SUB DUP2 PUSH1 0x0 DUP8 DUP1 EXTCODESIZE ISZERO DUP1 ISZERO PUSH2 0xBA6 JUMPI PUSH1 0x0 DUP1 REVERT JUMPDEST POP GAS CALL ISZERO DUP1 ISZERO PUSH2 0xBBA JUMPI RETURNDATASIZE PUSH1 0x0 DUP1 RETURNDATACOPY RETURNDATASIZE PUSH1 0x0 REVERT JUMPDEST POP POP POP POP PUSH2 0xC65 JUMP JUMPDEST PUSH1 0x0 DUP2 PUSH1 0x0 ADD MLOAD PUSH1 0x7 SIGNEXTEND SGT ISZERO PUSH2 0xC64 JUMPI PUSH1 0x0 PUSH1 0x2 SWAP1 SLOAD SWAP1 PUSH2 0x100 EXP SWAP1 DIV PUSH20 0xFFFFFFFFFFFFFFFFFFFFFFFFFFFFFFFFFFFFFFFF AND PUSH20 0xFFFFFFFFFFFFFFFFFFFFFFFFFFFFFFFFFFFFFFFF AND PUSH4 0xD15BCBE3 DUP4 PUSH1 0x3 PUSH1 0x40 MLOAD DUP4 PUSH4 0xFFFFFFFF AND PUSH1 0xE0 SHL DUP2 MSTORE PUSH1 0x4 ADD PUSH2 0xC31 SWAP3 SWAP2 SWAP1 PUSH2 0x4D0A JUMP JUMPDEST PUSH1 0x0 PUSH1 0x40 MLOAD DUP1 DUP4 SUB DUP2 PUSH1 0x0 DUP8 DUP1 EXTCODESIZE ISZERO DUP1 ISZERO PUSH2 0xC4B JUMPI PUSH1 0x0 DUP1 REVERT JUMPDEST POP GAS CALL ISZERO DUP1 ISZERO PUSH2 0xC5F JUMPI RETURNDATASIZE PUSH1 0x0 DUP1 RETURNDATACOPY RETURNDATASIZE PUSH1 0x0 REVERT JUMPDEST POP POP POP POP JUMPDEST JUMPDEST POP POP JUMP JUMPDEST PUSH1 0x0 PUSH20 0xFFFFFFFFFFFFFFFFFFFFFFFFFFFFFFFFFFFFFFFF AND PUSH1 0x1 PUSH1 0x0 SWAP1 SLOAD SWAP1 PUSH2 0x100 EXP SWAP1 DIV PUSH20 0xFFFFFFFFFFFFFFFFFFFFFFFFFFFFFFFFFFFFFFFF AND PUSH20 0xFFFFFFFFFFFFFFFFFFFFFFFFFFFFFFFFFFFFFFFF AND EQ PUSH2 0xCC4 JUMPI PUSH1 0x0 DUP1 REVERT JUMPDEST DUP1 PUSH1 0x1 PUSH1 0x0 PUSH2 0x100 EXP DUP2 SLOAD DUP2 PUSH20 0xFFFFFFFFFFFFFFFFFFFFFFFFFFFFFFFFFFFFFFFF MUL NOT AND SWAP1 DUP4 PUSH20 0xFFFFFFFFFFFFFFFFFFFFFFFFFFFFFFFFFFFFFFFF AND MUL OR SWAP1 SSTORE POP POP JUMP JUMPDEST PUSH1 0x0 DUP1 PUSH1 0x60 DUP1 PUSH1 0x0 PUSH4 0x9D8B0678 PUSH8 0xFFFFFFFFFFFFFFFF AND DUP9 PUSH8 0xFFFFFFFFFFFFFFFF AND SUB PUSH2 0xD6F JUMPI PUSH2 0xD38 DUP7 PUSH2 0x110E JUMP JUMPDEST PUSH1 0x0 PUSH2 0xD44 PUSH1 0x1 PUSH2 0x147A JUMP JUMPDEST SWAP1 POP PUSH2 0xD5A PUSH1 0x1 DUP3 PUSH2 0x14A1 SWAP1 SWAP2 SWAP1 PUSH4 0xFFFFFFFF AND JUMP JUMPDEST PUSH2 0xD63 DUP2 PUSH2 0x14BD JUMP JUMPDEST SWAP3 POP PUSH1 0x51 SWAP2 POP POP PUSH2 0xE48 JUMP JUMPDEST PUSH4 0xF98C9966 PUSH8 0xFFFFFFFFFFFFFFFF AND DUP9 PUSH8 0xFFFFFFFFFFFFFFFF AND SUB PUSH2 0xD9C JUMPI PUSH2 0xD97 DUP7 PUSH2 0x1516 JUMP JUMPDEST PUSH2 0xE47 JUMP JUMPDEST PUSH4 0xDE180DE3 PUSH8 0xFFFFFFFFFFFFFFFF AND DUP9 PUSH8 0xFFFFFFFFFFFFFFFF AND SUB PUSH2 0xE41 JUMPI PUSH20 0xFF00000000000000000000000000000000000007 PUSH20 0xFFFFFFFFFFFFFFFFFFFFFFFFFFFFFFFFFFFFFFFF AND CALLER PUSH20 0xFFFFFFFFFFFFFFFFFFFFFFFFFFFFFFFFFFFFFFFF AND EQ PUSH2 0xE07 JUMPI PUSH1 0x0 DUP1 REVERT JUMPDEST PUSH32 0x10AA319ED8CAD9BCEB033C0C2788C4AE17469AC844E4C6E2C2E20E74CA8A7BE8 PUSH1 0x40 MLOAD PUSH2 0xE34 SWAP1 PUSH2 0x4D97 JUMP JUMPDEST PUSH1 0x40 MLOAD DUP1 SWAP2 SUB SWAP1 LOG1 PUSH2 0xE46 JUMP JUMPDEST PUSH1 0x0 DUP1 REVERT JUMPDEST JUMPDEST JUMPDEST PUSH1 0x0 DUP2 DUP4 SWAP5 POP SWAP5 POP SWAP5 POP POP POP SWAP4 POP SWAP4 POP SWAP4 SWAP1 POP JUMP JUMPDEST PUSH1 0x0 PUSH1 0x2 SWAP1 SLOAD SWAP1 PUSH2 0x100 EXP SWAP1 DIV PUSH20 0xFFFFFFFFFFFFFFFFFFFFFFFFFFFFFFFFFFFFFFFF AND DUP2 JUMP JUMPDEST PUSH2 0xF09 PUSH20 0x0 PUSH4 0x8CE70C68 ADDRESS PUSH1 0x40 MLOAD DUP3 PUSH4 0xFFFFFFFF AND PUSH1 0xE0 SHL DUP2 MSTORE PUSH1 0x4 ADD PUSH2 0xEBD SWAP2 SWAP1 PUSH2 0x4135 JUMP JUMPDEST PUSH1 0x0 PUSH1 0x40 MLOAD DUP1 DUP4 SUB DUP2 DUP7 GAS DELEGATECALL ISZERO DUP1 ISZERO PUSH2 0xEDA JUMPI RETURNDATASIZE PUSH1 0x0 DUP1 RETURNDATACOPY RETURNDATASIZE PUSH1 0x0 REVERT JUMPDEST POP POP POP POP PUSH1 0x40 MLOAD RETURNDATASIZE PUSH1 0x0 DUP3 RETURNDATACOPY RETURNDATASIZE PUSH1 0x1F NOT PUSH1 0x1F DUP3 ADD AND DUP3 ADD DUP1 PUSH1 0x40 MSTORE POP DUP2 ADD SWAP1 PUSH2 0xF03 SWAP2 SWAP1 PUSH2 0x4222 JUMP JUMPDEST CALLVALUE PUSH2 0x18C6 JUMP JUMPDEST JUMP JUMPDEST PUSH1 0x0 DUP1 PUSH1 0x1 SWAP1 SLOAD SWAP1 PUSH2 0x100 EXP SWAP1 DIV PUSH1 0xFF AND ISZERO SWAP1 POP DUP1 DUP1 ISZERO PUSH2 0xF3C JUMPI POP PUSH1 0x1 PUSH1 0x0 DUP1 SLOAD SWAP1 PUSH2 0x100 EXP SWAP1 DIV PUSH1 0xFF AND PUSH1 0xFF AND LT JUMPDEST DUP1 PUSH2 0xF69 JUMPI POP PUSH2 0xF4B ADDRESS PUSH2 0x192D JUMP JUMPDEST ISZERO DUP1 ISZERO PUSH2 0xF68 JUMPI POP PUSH1 0x1 PUSH1 0x0 DUP1 SLOAD SWAP1 PUSH2 0x100 EXP SWAP1 DIV PUSH1 0xFF AND PUSH1 0xFF AND EQ JUMPDEST JUMPDEST PUSH2 0xFA8 JUMPI PUSH1 0x40 MLOAD PUSH32 0x8C379A000000000000000000000000000000000000000000000000000000000 DUP2 MSTORE PUSH1 0x4 ADD PUSH2 0xF9F SWAP1 PUSH2 0x4E29 JUMP JUMPDEST PUSH1 0x40 MLOAD DUP1 SWAP2 SUB SWAP1 REVERT JUMPDEST PUSH1 0x1 PUSH1 0x0 DUP1 PUSH2 0x100 EXP DUP2 SLOAD DUP2 PUSH1 0xFF MUL NOT AND SWAP1 DUP4 PUSH1 0xFF AND MUL OR SWAP1 SSTORE POP DUP1 ISZERO PUSH2 0xFE5 JUMPI PUSH1 0x1 PUSH1 0x0 PUSH1 0x1 PUSH2 0x100 EXP DUP2 SLOAD DUP2 PUSH1 0xFF MUL NOT AND SWAP1 DUP4 ISZERO ISZERO MUL OR SWAP1 SSTORE POP JUMPDEST DUP2 PUSH1 0x0 PUSH1 0x2 PUSH2 0x100 EXP DUP2 SLOAD DUP2 PUSH20 0xFFFFFFFFFFFFFFFFFFFFFFFFFFFFFFFFFFFFFFFF MUL NOT AND SWAP1 DUP4 PUSH20 0xFFFFFFFFFFFFFFFFFFFFFFFFFFFFFFFFFFFFFFFF AND MUL OR SWAP1 SSTORE POP DUP1 ISZERO PUSH2 0x107F JUMPI PUSH1 0x0 DUP1 PUSH1 0x1 PUSH2 0x100 EXP DUP2 SLOAD DUP2 PUSH1 0xFF MUL NOT AND SWAP1 DUP4 ISZERO ISZERO MUL OR SWAP1 SSTORE POP PUSH32 0x7F26B83FF96E1F2B6A682F133852F6798A09C465DA95921460CEFB3847402498 PUSH1 0x1 PUSH1 0x40 MLOAD PUSH2 0x1076 SWAP2 SWAP1 PUSH2 0x4E91 JUMP JUMPDEST PUSH1 0x40 MLOAD DUP1 SWAP2 SUB SWAP1 LOG1 JUMPDEST POP POP JUMP JUMPDEST PUSH2 0x108B PUSH2 0x398B JUMP JUMPDEST PUSH1 0x0 PUSH2 0x1096 DUP4 PUSH2 0x1950 JUMP JUMPDEST SWAP1 POP PUSH1 0x0 PUSH2 0x10AF PUSH1 0x5 PUSH4 0x87ED0A64 PUSH1 0x51 DUP6 PUSH1 0x0 DUP1 PUSH2 0x1A11 JUMP JUMPDEST SWAP1 POP PUSH2 0x10BA DUP2 PUSH2 0x1B37 JUMP JUMPDEST SWAP3 POP POP POP SWAP2 SWAP1 POP JUMP JUMPDEST PUSH2 0x10CB PUSH2 0x39A7 JUMP JUMPDEST PUSH1 0x0 PUSH2 0x10E0 DUP4 PUSH8 0xFFFFFFFFFFFFFFFF AND PUSH2 0x1BF3 JUMP JUMPDEST SWAP1 POP PUSH1 0x0 PUSH2 0x10FA PUSH1 0x5 PUSH4 0x9904F2FF PUSH1 0x51 DUP6 PUSH1 0x0 PUSH1 0x1 PUSH2 0x1A11 JUMP JUMPDEST SWAP1 POP PUSH2 0x1105 DUP2 PUSH2 0x1C3E JUMP JUMPDEST SWAP3 POP POP POP SWAP2 SWAP1 POP JUMP JUMPDEST PUSH20 0xFF00000000000000000000000000000000000005 PUSH20 0xFFFFFFFFFFFFFFFFFFFFFFFFFFFFFFFFFFFFFFFF AND CALLER PUSH20 0xFFFFFFFFFFFFFFFFFFFFFFFFFFFFFFFFFFFFFFFF AND EQ PUSH2 0x115A JUMPI PUSH1 0x0 DUP1 REVERT JUMPDEST PUSH1 0x0 PUSH2 0x1165 DUP3 PUSH2 0x1CC8 JUMP JUMPDEST SWAP1 POP PUSH1 0x0 PUSH2 0x1176 DUP3 PUSH1 0x20 ADD MLOAD PUSH2 0x1D44 JUMP JUMPDEST SWAP1 POP PUSH1 0x0 DUP2 PUSH1 0x0 ADD MLOAD PUSH1 0x0 ADD MLOAD SWAP1 POP PUSH1 0x0 DUP1 PUSH1 0x2 SWAP1 SLOAD SWAP1 PUSH2 0x100 EXP SWAP1 DIV PUSH20 0xFFFFFFFFFFFFFFFFFFFFFFFFFFFFFFFFFFFFFFFF AND PUSH20 0xFFFFFFFFFFFFFFFFFFFFFFFFFFFFFFFFFFFFFFFF AND PUSH4 0xF44A8903 DUP4 PUSH1 0x40 MLOAD DUP3 PUSH4 0xFFFFFFFF AND PUSH1 0xE0 SHL DUP2 MSTORE PUSH1 0x4 ADD PUSH2 0x11E1 SWAP2 SWAP1 PUSH2 0x4CA6 JUMP JUMPDEST PUSH1 0x40 DUP1 MLOAD DUP1 DUP4 SUB DUP2 DUP7 GAS STATICCALL ISZERO DUP1 ISZERO PUSH2 0x11FD JUMPI RETURNDATASIZE PUSH1 0x0 DUP1 RETURNDATACOPY RETURNDATASIZE PUSH1 0x0 REVERT JUMPDEST POP POP POP POP PUSH1 0x40 MLOAD RETURNDATASIZE PUSH1 0x1F NOT PUSH1 0x1F DUP3 ADD AND DUP3 ADD DUP1 PUSH1 0x40 MSTORE POP DUP2 ADD SWAP1 PUSH2 0x1221 SWAP2 SWAP1 PUSH2 0x4F28 JUMP JUMPDEST SWAP1 POP DUP1 PUSH1 0x20 ADD MLOAD ISZERO DUP1 PUSH2 0x1235 JUMPI POP DUP1 PUSH1 0x20 ADD MLOAD JUMPDEST ISZERO PUSH2 0x123F JUMPI PUSH1 0x0 DUP1 REVERT JUMPDEST PUSH1 0x0 DUP1 PUSH1 0x2 SWAP1 SLOAD SWAP1 PUSH2 0x100 EXP SWAP1 DIV PUSH20 0xFFFFFFFFFFFFFFFFFFFFFFFFFFFFFFFFFFFFFFFF AND PUSH20 0xFFFFFFFFFFFFFFFFFFFFFFFFFFFFFFFFFFFFFFFF AND PUSH4 0x342C89B4 DUP4 PUSH1 0x0 ADD MLOAD PUSH1 0x40 MLOAD DUP3 PUSH4 0xFFFFFFFF AND PUSH1 0xE0 SHL DUP2 MSTORE PUSH1 0x4 ADD PUSH2 0x129F SWAP2 SWAP1 PUSH2 0x3CD0 JUMP JUMPDEST PUSH1 0x0 PUSH1 0x40 MLOAD DUP1 DUP4 SUB DUP2 DUP7 GAS STATICCALL ISZERO DUP1 ISZERO PUSH2 0x12BC JUMPI RETURNDATASIZE PUSH1 0x0 DUP1 RETURNDATACOPY RETURNDATASIZE PUSH1 0x0 REVERT JUMPDEST POP POP POP POP PUSH1 0x40 MLOAD RETURNDATASIZE PUSH1 0x0 DUP3 RETURNDATACOPY RETURNDATASIZE PUSH1 0x1F NOT PUSH1 0x1F DUP3 ADD AND DUP3 ADD DUP1 PUSH1 0x40 MSTORE POP DUP2 ADD SWAP1 PUSH2 0x12E5 SWAP2 SWAP1 PUSH2 0x5231 JUMP JUMPDEST SWAP1 POP DUP1 PUSH1 0x40 ADD MLOAD ISZERO ISZERO DUP5 PUSH1 0x40 ADD MLOAD ISZERO ISZERO EQ PUSH2 0x132C JUMPI PUSH1 0x40 MLOAD PUSH32 0x7F7CEBF700000000000000000000000000000000000000000000000000000000 DUP2 MSTORE PUSH1 0x4 ADD PUSH1 0x40 MLOAD DUP1 SWAP2 SUB SWAP1 REVERT JUMPDEST DUP1 PUSH1 0xC0 ADD MLOAD PUSH20 0x0 PUSH4 0x86113702 DUP7 PUSH2 0x100 ADD MLOAD PUSH1 0x40 MLOAD DUP3 PUSH4 0xFFFFFFFF AND PUSH1 0xE0 SHL DUP2 MSTORE PUSH1 0x4 ADD PUSH2 0x136D SWAP2 SWAP1 PUSH2 0x445E JUMP JUMPDEST PUSH1 0x20 PUSH1 0x40 MLOAD DUP1 DUP4 SUB DUP2 DUP7 GAS DELEGATECALL ISZERO DUP1 ISZERO PUSH2 0x138A JUMPI RETURNDATASIZE PUSH1 0x0 DUP1 RETURNDATACOPY RETURNDATASIZE PUSH1 0x0 REVERT JUMPDEST POP POP POP POP PUSH1 0x40 MLOAD RETURNDATASIZE PUSH1 0x1F NOT PUSH1 0x1F DUP3 ADD AND DUP3 ADD DUP1 PUSH1 0x40 MSTORE POP DUP2 ADD SWAP1 PUSH2 0x13AE SWAP2 SWAP1 PUSH2 0x4495 JUMP JUMPDEST LT PUSH2 0x13E5 JUMPI PUSH1 0x40 MLOAD PUSH32 0xDAABD97200000000000000000000000000000000000000000000000000000000 DUP2 MSTORE PUSH1 0x4 ADD PUSH1 0x40 MLOAD DUP1 SWAP2 SUB SWAP1 REVERT JUMPDEST DUP1 PUSH2 0x100 ADD MLOAD PUSH20 0x0 PUSH4 0x86113702 DUP7 PUSH2 0x140 ADD MLOAD PUSH1 0x40 MLOAD DUP3 PUSH4 0xFFFFFFFF AND PUSH1 0xE0 SHL DUP2 MSTORE PUSH1 0x4 ADD PUSH2 0x1427 SWAP2 SWAP1 PUSH2 0x445E JUMP JUMPDEST PUSH1 0x20 PUSH1 0x40 MLOAD DUP1 DUP4 SUB DUP2 DUP7 GAS DELEGATECALL ISZERO DUP1 ISZERO PUSH2 0x1444 JUMPI RETURNDATASIZE PUSH1 0x0 DUP1 RETURNDATACOPY RETURNDATASIZE PUSH1 0x0 REVERT JUMPDEST POP POP POP POP PUSH1 0x40 MLOAD RETURNDATASIZE PUSH1 0x1F NOT PUSH1 0x1F DUP3 ADD AND DUP3 ADD DUP1 PUSH1 0x40 MSTORE POP DUP2 ADD SWAP1 PUSH2 0x1468 SWAP2 SWAP1 PUSH2 0x4495 JUMP JUMPDEST LT PUSH2 0x1472 JUMPI PUSH1 0x0 DUP1 REVERT JUMPDEST POP POP POP POP POP POP JUMP JUMPDEST PUSH2 0x1482 PUSH2 0x39C7 JUMP JUMPDEST PUSH2 0x1490 DUP2 PUSH1 0x0 ADD MLOAD DUP4 PUSH2 0x1F4F JUMP JUMPDEST POP PUSH1 0x0 DUP2 PUSH1 0x20 ADD DUP2 DUP2 MSTORE POP POP SWAP2 SWAP1 POP JUMP JUMPDEST PUSH2 0x14B9 DUP3 DUP3 PUSH2 0x14B1 JUMPI PUSH1 0x14 PUSH2 0x14B4 JUMP JUMPDEST PUSH1 0x15 JUMPDEST PUSH2 0x1FC8 JUMP JUMPDEST POP POP JUMP JUMPDEST PUSH1 0x60 PUSH1 0x0 DUP3 PUSH1 0x20 ADD MLOAD EQ PUSH2 0x1506 JUMPI PUSH1 0x40 MLOAD PUSH32 0x8C379A000000000000000000000000000000000000000000000000000000000 DUP2 MSTORE PUSH1 0x4 ADD PUSH2 0x14FD SWAP1 PUSH2 0x52C6 JUMP JUMPDEST PUSH1 0x40 MLOAD DUP1 SWAP2 SUB SWAP1 REVERT JUMPDEST DUP2 PUSH1 0x0 ADD MLOAD PUSH1 0x0 ADD MLOAD SWAP1 POP SWAP2 SWAP1 POP JUMP JUMPDEST PUSH20 0xFF00000000000000000000000000000000000005 PUSH20 0xFFFFFFFFFFFFFFFFFFFFFFFFFFFFFFFFFFFFFFFF AND CALLER PUSH20 0xFFFFFFFFFFFFFFFFFFFFFFFFFFFFFFFFFFFFFFFF AND EQ PUSH2 0x1562 JUMPI PUSH1 0x0 DUP1 REVERT JUMPDEST PUSH1 0x0 PUSH2 0x156D DUP3 PUSH2 0x1FEE JUMP JUMPDEST SWAP1 POP PUSH1 0x0 PUSH2 0x157E DUP3 PUSH1 0x0 ADD MLOAD PUSH2 0x1D44 JUMP JUMPDEST SWAP1 POP PUSH1 0x0 DUP1 PUSH1 0x2 SWAP1 SLOAD SWAP1 PUSH2 0x100 EXP SWAP1 DIV PUSH20 0xFFFFFFFFFFFFFFFFFFFFFFFFFFFFFFFFFFFFFFFF AND PUSH20 0xFFFFFFFFFFFFFFFFFFFFFFFFFFFFFFFFFFFFFFFF AND PUSH4 0xF44A8903 DUP4 PUSH1 0x0 ADD MLOAD PUSH1 0x0 ADD MLOAD PUSH1 0x40 MLOAD DUP3 PUSH4 0xFFFFFFFF AND PUSH1 0xE0 SHL DUP2 MSTORE PUSH1 0x4 ADD PUSH2 0x15E4 SWAP2 SWAP1 PUSH2 0x4CA6 JUMP JUMPDEST PUSH1 0x40 DUP1 MLOAD DUP1 DUP4 SUB DUP2 DUP7 GAS STATICCALL ISZERO DUP1 ISZERO PUSH2 0x1600 JUMPI RETURNDATASIZE PUSH1 0x0 DUP1 RETURNDATACOPY RETURNDATASIZE PUSH1 0x0 REVERT JUMPDEST POP POP POP POP PUSH1 0x40 MLOAD RETURNDATASIZE PUSH1 0x1F NOT PUSH1 0x1F DUP3 ADD AND DUP3 ADD DUP1 PUSH1 0x40 MSTORE POP DUP2 ADD SWAP1 PUSH2 0x1624 SWAP2 SWAP1 PUSH2 0x4F28 JUMP JUMPDEST SWAP1 POP DUP1 PUSH1 0x20 ADD MLOAD ISZERO DUP1 PUSH2 0x1638 JUMPI POP DUP1 PUSH1 0x20 ADD MLOAD JUMPDEST ISZERO PUSH2 0x1642 JUMPI PUSH1 0x0 DUP1 REVERT JUMPDEST PUSH1 0x0 PUSH1 0x2 SWAP1 SLOAD SWAP1 PUSH2 0x100 EXP SWAP1 DIV PUSH20 0xFFFFFFFFFFFFFFFFFFFFFFFFFFFFFFFFFFFFFFFF AND PUSH20 0xFFFFFFFFFFFFFFFFFFFFFFFFFFFFFFFFFFFFFFFF AND PUSH4 0xFB2A0B32 DUP4 PUSH1 0x0 ADD MLOAD PUSH1 0x0 ADD MLOAD PUSH1 0x40 MLOAD DUP1 PUSH1 0x40 ADD PUSH1 0x40 MSTORE DUP1 DUP7 PUSH1 0x80 ADD MLOAD PUSH1 0x0 ADD MLOAD DUP2 MSTORE PUSH1 0x20 ADD PUSH1 0x1 ISZERO ISZERO DUP2 MSTORE POP PUSH1 0x40 MLOAD DUP4 PUSH4 0xFFFFFFFF AND PUSH1 0xE0 SHL DUP2 MSTORE PUSH1 0x4 ADD PUSH2 0x16C6 SWAP3 SWAP2 SWAP1 PUSH2 0x535C JUMP JUMPDEST PUSH1 0x0 PUSH1 0x40 MLOAD DUP1 DUP4 SUB DUP2 PUSH1 0x0 DUP8 DUP1 EXTCODESIZE ISZERO DUP1 ISZERO PUSH2 0x16E0 JUMPI PUSH1 0x0 DUP1 REVERT JUMPDEST POP GAS CALL ISZERO DUP1 ISZERO PUSH2 0x16F4 JUMPI RETURNDATASIZE PUSH1 0x0 DUP1 RETURNDATACOPY RETURNDATASIZE PUSH1 0x0 REVERT JUMPDEST POP POP POP POP PUSH1 0x0 PUSH1 0x2 SWAP1 SLOAD SWAP1 PUSH2 0x100 EXP SWAP1 DIV PUSH20 0xFFFFFFFFFFFFFFFFFFFFFFFFFFFFFFFFFFFFFFFF AND PUSH20 0xFFFFFFFFFFFFFFFFFFFFFFFFFFFFFFFFFFFFFFFF AND PUSH4 0x9AA09DFE DUP4 PUSH1 0x0 ADD MLOAD PUSH1 0x0 ADD MLOAD DUP6 PUSH1 0x20 ADD MLOAD PUSH1 0x40 MLOAD DUP4 PUSH4 0xFFFFFFFF AND PUSH1 0xE0 SHL DUP2 MSTORE PUSH1 0x4 ADD PUSH2 0x1761 SWAP3 SWAP2 SWAP1 PUSH2 0x5393 JUMP JUMPDEST PUSH1 0x0 PUSH1 0x40 MLOAD DUP1 DUP4 SUB DUP2 PUSH1 0x0 DUP8 DUP1 EXTCODESIZE ISZERO DUP1 ISZERO PUSH2 0x177B JUMPI PUSH1 0x0 DUP1 REVERT JUMPDEST POP GAS CALL ISZERO DUP1 ISZERO PUSH2 0x178F JUMPI RETURNDATASIZE PUSH1 0x0 DUP1 RETURNDATACOPY RETURNDATASIZE PUSH1 0x0 REVERT JUMPDEST POP POP POP POP PUSH1 0x0 PUSH1 0x2 SWAP1 SLOAD SWAP1 PUSH2 0x100 EXP SWAP1 DIV PUSH20 0xFFFFFFFFFFFFFFFFFFFFFFFFFFFFFFFFFFFFFFFF AND PUSH20 0xFFFFFFFFFFFFFFFFFFFFFFFFFFFFFFFFFFFFFFFF AND PUSH4 0xD15BCBE3 DUP4 PUSH1 0x0 ADD MLOAD PUSH1 0x0 ADD MLOAD PUSH1 0x2 PUSH1 0x40 MLOAD DUP4 PUSH4 0xFFFFFFFF AND PUSH1 0xE0 SHL DUP2 MSTORE PUSH1 0x4 ADD PUSH2 0x17F9 SWAP3 SWAP2 SWAP1 PUSH2 0x4D0A JUMP JUMPDEST PUSH1 0x0 PUSH1 0x40 MLOAD DUP1 DUP4 SUB DUP2 PUSH1 0x0 DUP8 DUP1 EXTCODESIZE ISZERO DUP1 ISZERO PUSH2 0x1813 JUMPI PUSH1 0x0 DUP1 REVERT JUMPDEST POP GAS CALL ISZERO DUP1 ISZERO PUSH2 0x1827 JUMPI RETURNDATASIZE PUSH1 0x0 DUP1 RETURNDATACOPY RETURNDATASIZE PUSH1 0x0 REVERT JUMPDEST POP POP POP POP PUSH1 0x0 PUSH1 0x2 SWAP1 SLOAD SWAP1 PUSH2 0x100 EXP SWAP1 DIV PUSH20 0xFFFFFFFFFFFFFFFFFFFFFFFFFFFFFFFFFFFFFFFF AND PUSH20 0xFFFFFFFFFFFFFFFFFFFFFFFFFFFFFFFFFFFFFFFF AND PUSH4 0x85271D9B DUP4 PUSH1 0x0 ADD MLOAD PUSH1 0x0 ADD MLOAD PUSH1 0x40 MLOAD DUP3 PUSH4 0xFFFFFFFF AND PUSH1 0xE0 SHL DUP2 MSTORE PUSH1 0x4 ADD PUSH2 0x188E SWAP2 SWAP1 PUSH2 0x4CA6 JUMP JUMPDEST PUSH1 0x0 PUSH1 0x40 MLOAD DUP1 DUP4 SUB DUP2 PUSH1 0x0 DUP8 DUP1 EXTCODESIZE ISZERO DUP1 ISZERO PUSH2 0x18A8 JUMPI PUSH1 0x0 DUP1 REVERT JUMPDEST POP GAS CALL ISZERO DUP1 ISZERO PUSH2 0x18BC JUMPI RETURNDATASIZE PUSH1 0x0 DUP1 RETURNDATACOPY RETURNDATASIZE PUSH1 0x0 REVERT JUMPDEST POP POP POP POP POP POP POP POP JUMP JUMPDEST PUSH1 0x0 PUSH2 0x18D1 DUP4 PUSH2 0x207F JUMP JUMPDEST SWAP1 POP PUSH1 0x0 PUSH2 0x18EA PUSH1 0x5 PUSH4 0x3105F1A6 PUSH1 0x51 DUP6 DUP8 PUSH1 0x0 PUSH2 0x1A11 JUMP JUMPDEST SWAP1 POP PUSH1 0x0 DUP2 MLOAD EQ PUSH2 0x1927 JUMPI PUSH1 0x40 MLOAD PUSH32 0xE74990700000000000000000000000000000000000000000000000000000000 DUP2 MSTORE PUSH1 0x4 ADD PUSH1 0x40 MLOAD DUP1 SWAP2 SUB SWAP1 REVERT JUMPDEST POP POP POP POP JUMP JUMPDEST PUSH1 0x0 DUP1 DUP3 PUSH20 0xFFFFFFFFFFFFFFFFFFFFFFFFFFFFFFFFFFFFFFFF AND EXTCODESIZE GT SWAP1 POP SWAP2 SWAP1 POP JUMP JUMPDEST PUSH1 0x60 PUSH1 0x0 DUP1 PUSH2 0x1962 DUP5 PUSH1 0x20 ADD MLOAD PUSH2 0x20C8 JUMP JUMPDEST SWAP1 POP PUSH2 0x196E PUSH1 0x2 PUSH2 0x2235 JUMP JUMPDEST DUP3 PUSH2 0x1979 SWAP2 SWAP1 PUSH2 0x53F2 JUMP JUMPDEST SWAP2 POP PUSH2 0x198C DUP5 PUSH1 0x0 ADD MLOAD PUSH1 0x0 ADD MLOAD PUSH2 0x2289 JUMP JUMPDEST DUP3 PUSH2 0x1997 SWAP2 SWAP1 PUSH2 0x53F2 JUMP JUMPDEST SWAP2 POP PUSH2 0x19A2 DUP2 PUSH2 0x2289 JUMP JUMPDEST DUP3 PUSH2 0x19AD SWAP2 SWAP1 PUSH2 0x53F2 JUMP JUMPDEST SWAP2 POP PUSH1 0x0 PUSH2 0x19BA DUP4 PUSH2 0x22A8 JUMP JUMPDEST SWAP1 POP PUSH2 0x19D0 PUSH1 0x2 DUP3 PUSH2 0x22CF SWAP1 SWAP2 SWAP1 PUSH4 0xFFFFFFFF AND JUMP JUMPDEST PUSH2 0x19EB DUP6 PUSH1 0x0 ADD MLOAD PUSH1 0x0 ADD MLOAD DUP3 PUSH2 0x22DF SWAP1 SWAP2 SWAP1 PUSH4 0xFFFFFFFF AND JUMP JUMPDEST PUSH2 0x19FE DUP3 DUP3 PUSH2 0x22DF SWAP1 SWAP2 SWAP1 PUSH4 0xFFFFFFFF AND JUMP JUMPDEST PUSH2 0x1A07 DUP2 PUSH2 0x2308 JUMP JUMPDEST SWAP4 POP POP POP POP SWAP2 SWAP1 POP JUMP JUMPDEST PUSH1 0x60 PUSH2 0x1A31 PUSH20 0xFE00000000000000000000000000000000000005 DUP5 PUSH2 0x2361 JUMP JUMPDEST PUSH1 0x0 DUP1 PUSH20 0xFE00000000000000000000000000000000000005 PUSH20 0xFFFFFFFFFFFFFFFFFFFFFFFFFFFFFFFFFFFFFFFF AND DUP9 DUP7 DUP7 PUSH2 0x1A6D JUMPI PUSH1 0x0 PUSH2 0x1A70 JUMP JUMPDEST PUSH1 0x1 JUMPDEST DUP11 DUP11 DUP15 PUSH1 0x40 MLOAD PUSH1 0x20 ADD PUSH2 0x1A88 SWAP7 SWAP6 SWAP5 SWAP4 SWAP3 SWAP2 SWAP1 PUSH2 0x5457 JUMP JUMPDEST PUSH1 0x40 MLOAD PUSH1 0x20 DUP2 DUP4 SUB SUB DUP2 MSTORE SWAP1 PUSH1 0x40 MSTORE PUSH1 0x40 MLOAD PUSH2 0x1AA4 SWAP2 SWAP1 PUSH2 0x54F0 JUMP JUMPDEST PUSH1 0x0 PUSH1 0x40 MLOAD DUP1 DUP4 SUB DUP2 DUP6 GAS DELEGATECALL SWAP2 POP POP RETURNDATASIZE DUP1 PUSH1 0x0 DUP2 EQ PUSH2 0x1ADF JUMPI PUSH1 0x40 MLOAD SWAP2 POP PUSH1 0x1F NOT PUSH1 0x3F RETURNDATASIZE ADD AND DUP3 ADD PUSH1 0x40 MSTORE RETURNDATASIZE DUP3 MSTORE RETURNDATASIZE PUSH1 0x0 PUSH1 0x20 DUP5 ADD RETURNDATACOPY PUSH2 0x1AE4 JUMP JUMPDEST PUSH1 0x60 SWAP2 POP JUMPDEST POP SWAP2 POP SWAP2 POP DUP2 PUSH2 0x1B20 JUMPI PUSH1 0x40 MLOAD PUSH32 0x8A7DB5BF00000000000000000000000000000000000000000000000000000000 DUP2 MSTORE PUSH1 0x4 ADD PUSH1 0x40 MLOAD DUP1 SWAP2 SUB SWAP1 REVERT JUMPDEST PUSH2 0x1B29 DUP2 PUSH2 0x23F7 JUMP JUMPDEST SWAP3 POP POP POP SWAP7 SWAP6 POP POP POP POP POP POP JUMP JUMPDEST PUSH2 0x1B3F PUSH2 0x398B JUMP JUMPDEST PUSH1 0x60 PUSH1 0x0 DUP1 DUP5 MLOAD GT ISZERO PUSH2 0x1B84 JUMPI PUSH2 0x1B5F DUP2 DUP6 PUSH2 0x257E SWAP1 SWAP2 SWAP1 PUSH4 0xFFFFFFFF AND JUMP JUMPDEST DUP1 SWAP3 POP DUP2 SWAP4 POP POP POP PUSH1 0x0 DUP3 MLOAD GT ISZERO PUSH2 0x1B83 JUMPI PUSH2 0x1B7A DUP3 PUSH2 0x275A JUMP JUMPDEST SWAP3 POP POP POP PUSH2 0x1BEE JUMP JUMPDEST JUMPDEST PUSH1 0x40 MLOAD DUP1 PUSH1 0x40 ADD PUSH1 0x40 MSTORE DUP1 PUSH1 0x0 PUSH8 0xFFFFFFFFFFFFFFFF DUP2 GT ISZERO PUSH2 0x1BAA JUMPI PUSH2 0x1BA9 PUSH2 0x3D06 JUMP JUMPDEST JUMPDEST PUSH1 0x40 MLOAD SWAP1 DUP1 DUP3 MSTORE DUP1 PUSH1 0x1F ADD PUSH1 0x1F NOT AND PUSH1 0x20 ADD DUP3 ADD PUSH1 0x40 MSTORE DUP1 ISZERO PUSH2 0x1BDC JUMPI DUP2 PUSH1 0x20 ADD PUSH1 0x1 DUP3 MUL DUP1 CALLDATASIZE DUP4 CALLDATACOPY DUP1 DUP3 ADD SWAP2 POP POP SWAP1 POP JUMPDEST POP DUP2 MSTORE PUSH1 0x20 ADD PUSH1 0x0 ISZERO ISZERO DUP2 MSTORE POP SWAP3 POP POP POP JUMPDEST SWAP2 SWAP1 POP JUMP JUMPDEST PUSH1 0x60 PUSH1 0x0 PUSH2 0x1C0A DUP4 PUSH8 0xFFFFFFFFFFFFFFFF AND PUSH2 0x2235 JUMP JUMPDEST SWAP1 POP PUSH1 0x0 PUSH2 0x1C17 DUP3 PUSH2 0x22A8 JUMP JUMPDEST SWAP1 POP PUSH2 0x1C2C DUP5 DUP3 PUSH2 0x2901 SWAP1 SWAP2 SWAP1 PUSH4 0xFFFFFFFF AND JUMP JUMPDEST PUSH2 0x1C35 DUP2 PUSH2 0x2308 JUMP JUMPDEST SWAP3 POP POP POP SWAP2 SWAP1 POP JUMP JUMPDEST PUSH2 0x1C46 PUSH2 0x39A7 JUMP JUMPDEST PUSH1 0x0 DUP1 PUSH2 0x1C5C DUP3 DUP6 PUSH2 0x2911 SWAP1 SWAP2 SWAP1 PUSH4 0xFFFFFFFF AND JUMP JUMPDEST DUP1 SWAP4 POP DUP2 SWAP3 POP POP POP PUSH1 0x2 DUP2 EQ PUSH2 0x1C75 JUMPI PUSH2 0x1C74 PUSH2 0x5507 JUMP JUMPDEST JUMPDEST PUSH2 0x1C88 DUP3 DUP6 PUSH2 0x2992 SWAP1 SWAP2 SWAP1 PUSH4 0xFFFFFFFF AND JUMP JUMPDEST DUP5 PUSH1 0x0 ADD DUP2 SWAP5 POP DUP3 PUSH1 0x7 SIGNEXTEND PUSH1 0x7 SIGNEXTEND DUP2 MSTORE POP POP POP PUSH2 0x1CAE DUP3 DUP6 PUSH2 0x2992 SWAP1 SWAP2 SWAP1 PUSH4 0xFFFFFFFF AND JUMP JUMPDEST DUP5 PUSH1 0x20 ADD DUP2 SWAP5 POP DUP3 PUSH1 0x7 SIGNEXTEND PUSH1 0x7 SIGNEXTEND DUP2 MSTORE POP POP POP POP POP SWAP2 SWAP1 POP JUMP JUMPDEST PUSH2 0x1CD0 PUSH2 0x39E7 JUMP JUMPDEST PUSH1 0x0 DUP1 PUSH2 0x1CE6 DUP3 DUP6 PUSH2 0x2911 SWAP1 SWAP2 SWAP1 PUSH4 0xFFFFFFFF AND JUMP JUMPDEST DUP1 SWAP4 POP DUP2 SWAP3 POP POP POP PUSH1 0x2 DUP2 EQ PUSH2 0x1CFF JUMPI PUSH2 0x1CFE PUSH2 0x5507 JUMP JUMPDEST JUMPDEST PUSH2 0x1D12 DUP3 DUP6 PUSH2 0x257E SWAP1 SWAP2 SWAP1 PUSH4 0xFFFFFFFF AND JUMP JUMPDEST DUP5 PUSH1 0x0 ADD DUP2 SWAP5 POP DUP3 SWAP1 MSTORE POP POP PUSH2 0x1D31 DUP3 DUP6 PUSH2 0x257E SWAP1 SWAP2 SWAP1 PUSH4 0xFFFFFFFF AND JUMP JUMPDEST DUP5 PUSH1 0x20 ADD DUP2 SWAP5 POP DUP3 SWAP1 MSTORE POP POP POP POP SWAP2 SWAP1 POP JUMP JUMPDEST PUSH2 0x1D4C PUSH2 0x3A01 JUMP JUMPDEST PUSH1 0x0 DUP1 PUSH1 0x60 PUSH2 0x1D64 DUP4 DUP7 PUSH2 0x2911 SWAP1 SWAP2 SWAP1 PUSH4 0xFFFFFFFF AND JUMP JUMPDEST DUP1 SWAP5 POP DUP2 SWAP4 POP POP POP PUSH1 0xB DUP3 EQ PUSH2 0x1D7D JUMPI PUSH2 0x1D7C PUSH2 0x5507 JUMP JUMPDEST JUMPDEST PUSH2 0x1D90 DUP4 DUP7 PUSH2 0x29C0 SWAP1 SWAP2 SWAP1 PUSH4 0xFFFFFFFF AND JUMP JUMPDEST DUP6 PUSH1 0x0 ADD DUP2 SWAP6 POP DUP3 SWAP1 MSTORE POP POP PUSH2 0x1DAF DUP4 DUP7 PUSH2 0x2C3A SWAP1 SWAP2 SWAP1 PUSH4 0xFFFFFFFF AND JUMP JUMPDEST DUP6 PUSH1 0x20 ADD DUP2 SWAP6 POP DUP3 PUSH8 0xFFFFFFFFFFFFFFFF AND PUSH8 0xFFFFFFFFFFFFFFFF AND DUP2 MSTORE POP POP POP PUSH2 0x1DE3 DUP4 DUP7 PUSH2 0x2CBB SWAP1 SWAP2 SWAP1 PUSH4 0xFFFFFFFF AND JUMP JUMPDEST DUP6 PUSH1 0x40 ADD DUP2 SWAP6 POP DUP3 ISZERO ISZERO ISZERO ISZERO DUP2 MSTORE POP POP POP PUSH2 0x1E07 DUP4 DUP7 PUSH2 0x257E SWAP1 SWAP2 SWAP1 PUSH4 0xFFFFFFFF AND JUMP JUMPDEST DUP1 SWAP5 POP DUP2 SWAP3 POP POP POP PUSH2 0x1E18 DUP2 PUSH2 0x2D65 JUMP JUMPDEST DUP5 PUSH1 0x60 ADD DUP2 SWAP1 MSTORE POP PUSH2 0x1E33 DUP4 DUP7 PUSH2 0x257E SWAP1 SWAP2 SWAP1 PUSH4 0xFFFFFFFF AND JUMP JUMPDEST DUP1 SWAP5 POP DUP2 SWAP3 POP POP POP PUSH2 0x1E44 DUP2 PUSH2 0x2D65 JUMP JUMPDEST DUP5 PUSH1 0x80 ADD DUP2 SWAP1 MSTORE POP PUSH2 0x1E5F DUP4 DUP7 PUSH2 0x2DC8 SWAP1 SWAP2 SWAP1 PUSH4 0xFFFFFFFF AND JUMP JUMPDEST DUP6 PUSH1 0xA0 ADD DUP2 SWAP6 POP DUP3 SWAP1 MSTORE POP POP PUSH2 0x1E7E DUP4 DUP7 PUSH2 0x2992 SWAP1 SWAP2 SWAP1 PUSH4 0xFFFFFFFF AND JUMP JUMPDEST DUP6 PUSH1 0xC0 ADD DUP2 SWAP6 POP DUP3 PUSH1 0x7 SIGNEXTEND PUSH1 0x7 SIGNEXTEND DUP2 MSTORE POP POP POP PUSH2 0x1EA4 DUP4 DUP7 PUSH2 0x2992 SWAP1 SWAP2 SWAP1 PUSH4 0xFFFFFFFF AND JUMP JUMPDEST DUP6 PUSH1 0xE0 ADD DUP2 SWAP6 POP DUP3 PUSH1 0x7 SIGNEXTEND PUSH1 0x7 SIGNEXTEND DUP2 MSTORE POP POP POP PUSH1 0x60 PUSH2 0x1ECC DUP5 DUP8 PUSH2 0x257E SWAP1 SWAP2 SWAP1 PUSH4 0xFFFFFFFF AND JUMP JUMPDEST DUP1 SWAP6 POP DUP2 SWAP3 POP POP POP PUSH2 0x1EDD DUP2 PUSH2 0x275A JUMP JUMPDEST DUP6 PUSH2 0x100 ADD DUP2 SWAP1 MSTORE POP PUSH1 0x60 PUSH2 0x1EFB DUP6 DUP9 PUSH2 0x257E SWAP1 SWAP2 SWAP1 PUSH4 0xFFFFFFFF AND JUMP JUMPDEST DUP1 SWAP7 POP DUP2 SWAP3 POP POP POP PUSH2 0x1F0C DUP2 PUSH2 0x275A JUMP JUMPDEST DUP7 PUSH2 0x120 ADD DUP2 SWAP1 MSTORE POP PUSH1 0x60 PUSH2 0x1F2A DUP7 DUP10 PUSH2 0x257E SWAP1 SWAP2 SWAP1 PUSH4 0xFFFFFFFF AND JUMP JUMPDEST DUP1 SWAP8 POP DUP2 SWAP3 POP POP POP PUSH2 0x1F3B DUP2 PUSH2 0x275A JUMP JUMPDEST DUP8 PUSH2 0x140 ADD DUP2 SWAP1 MSTORE POP POP POP POP POP POP POP SWAP2 SWAP1 POP JUMP JUMPDEST PUSH2 0x1F57 PUSH2 0x3A97 JUMP JUMPDEST PUSH1 0x0 PUSH1 0x20 DUP4 PUSH2 0x1F66 SWAP2 SWAP1 PUSH2 0x5565 JUMP JUMPDEST EQ PUSH2 0x1F92 JUMPI PUSH1 0x20 DUP3 PUSH2 0x1F78 SWAP2 SWAP1 PUSH2 0x5565 JUMP JUMPDEST PUSH1 0x20 PUSH2 0x1F84 SWAP2 SWAP1 PUSH2 0x5596 JUMP JUMPDEST DUP3 PUSH2 0x1F8F SWAP2 SWAP1 PUSH2 0x53F2 JUMP JUMPDEST SWAP2 POP JUMPDEST DUP2 DUP4 PUSH1 0x20 ADD DUP2 DUP2 MSTORE POP POP PUSH1 0x40 MLOAD DUP1 DUP5 MSTORE PUSH1 0x0 DUP2 MSTORE DUP3 DUP2 ADD PUSH1 0x20 ADD DUP2 DUP2 LT ISZERO PUSH2 0x1FB9 JUMPI PUSH1 0x0 DUP1 REVERT JUMPDEST DUP1 PUSH1 0x40 MSTORE POP POP DUP3 SWAP1 POP SWAP3 SWAP2 POP POP JUMP JUMPDEST PUSH2 0x1FE9 DUP2 PUSH1 0x5 PUSH1 0x7 PUSH1 0xFF AND SWAP1 SHL OR DUP4 PUSH1 0x0 ADD MLOAD PUSH2 0x2F80 SWAP1 SWAP2 SWAP1 PUSH4 0xFFFFFFFF AND JUMP JUMPDEST POP POP POP JUMP JUMPDEST PUSH2 0x1FF6 PUSH2 0x3AB1 JUMP JUMPDEST PUSH1 0x0 DUP1 PUSH2 0x200C DUP3 DUP6 PUSH2 0x2911 SWAP1 SWAP2 SWAP1 PUSH4 0xFFFFFFFF AND JUMP JUMPDEST DUP1 SWAP4 POP DUP2 SWAP3 POP POP POP PUSH1 0x2 DUP2 EQ PUSH2 0x2025 JUMPI PUSH2 0x2024 PUSH2 0x5507 JUMP JUMPDEST JUMPDEST PUSH2 0x2038 DUP3 DUP6 PUSH2 0x257E SWAP1 SWAP2 SWAP1 PUSH4 0xFFFFFFFF AND JUMP JUMPDEST DUP5 PUSH1 0x0 ADD DUP2 SWAP5 POP DUP3 SWAP1 MSTORE POP POP PUSH2 0x2057 DUP3 DUP6 PUSH2 0x2C3A SWAP1 SWAP2 SWAP1 PUSH4 0xFFFFFFFF AND JUMP JUMPDEST DUP5 PUSH1 0x20 ADD DUP2 SWAP5 POP DUP3 PUSH8 0xFFFFFFFFFFFFFFFF AND PUSH8 0xFFFFFFFFFFFFFFFF AND DUP2 MSTORE POP POP POP POP POP SWAP2 SWAP1 POP JUMP JUMPDEST PUSH1 0x60 PUSH1 0x0 PUSH2 0x2090 DUP4 PUSH1 0x0 ADD MLOAD PUSH2 0x2289 JUMP JUMPDEST SWAP1 POP PUSH1 0x0 PUSH2 0x209D DUP3 PUSH2 0x22A8 JUMP JUMPDEST SWAP1 POP PUSH2 0x20B6 DUP5 PUSH1 0x0 ADD MLOAD DUP3 PUSH2 0x22DF SWAP1 SWAP2 SWAP1 PUSH4 0xFFFFFFFF AND JUMP JUMPDEST PUSH2 0x20BF DUP2 PUSH2 0x2308 JUMP JUMPDEST SWAP3 POP POP POP SWAP2 SWAP1 POP JUMP JUMPDEST PUSH1 0x60 PUSH1 0x0 PUSH1 0x1 DUP4 PUSH1 0x0 ADD MLOAD MLOAD PUSH2 0x20DE SWAP2 SWAP1 PUSH2 0x53F2 JUMP JUMPDEST PUSH8 0xFFFFFFFFFFFFFFFF DUP2 GT ISZERO PUSH2 0x20F7 JUMPI PUSH2 0x20F6 PUSH2 0x3D06 JUMP JUMPDEST JUMPDEST PUSH1 0x40 MLOAD SWAP1 DUP1 DUP3 MSTORE DUP1 PUSH1 0x1F ADD PUSH1 0x1F NOT AND PUSH1 0x20 ADD DUP3 ADD PUSH1 0x40 MSTORE DUP1 ISZERO PUSH2 0x2129 JUMPI DUP2 PUSH1 0x20 ADD PUSH1 0x1 DUP3 MUL DUP1 CALLDATASIZE DUP4 CALLDATACOPY DUP1 DUP3 ADD SWAP2 POP POP SWAP1 POP JUMPDEST POP SWAP1 POP PUSH1 0x1 ISZERO ISZERO DUP4 PUSH1 0x20 ADD MLOAD ISZERO ISZERO EQ PUSH2 0x2146 JUMPI PUSH1 0x0 PUSH1 0xF8 SHL PUSH2 0x214C JUMP JUMPDEST PUSH1 0x1 PUSH1 0xF8 SHL JUMPDEST DUP2 PUSH1 0x0 DUP2 MLOAD DUP2 LT PUSH2 0x2160 JUMPI PUSH2 0x215F PUSH2 0x55CA JUMP JUMPDEST JUMPDEST PUSH1 0x20 ADD ADD SWAP1 PUSH31 0xFFFFFFFFFFFFFFFFFFFFFFFFFFFFFFFFFFFFFFFFFFFFFFFFFFFFFFFFFFFFFF NOT AND SWAP1 DUP2 PUSH1 0x0 BYTE SWAP1 MSTORE8 POP PUSH1 0x0 PUSH1 0x1 SWAP1 POP PUSH1 0x0 JUMPDEST DUP5 PUSH1 0x0 ADD MLOAD MLOAD DUP2 LT ISZERO PUSH2 0x222A JUMPI DUP5 PUSH1 0x0 ADD MLOAD DUP2 DUP2 MLOAD DUP2 LT PUSH2 0x21BC JUMPI PUSH2 0x21BB PUSH2 0x55CA JUMP JUMPDEST JUMPDEST PUSH1 0x20 ADD ADD MLOAD PUSH1 0xF8 SHR PUSH1 0xF8 SHL DUP4 DUP4 DUP2 MLOAD DUP2 LT PUSH2 0x21DA JUMPI PUSH2 0x21D9 PUSH2 0x55CA JUMP JUMPDEST JUMPDEST PUSH1 0x20 ADD ADD SWAP1 PUSH31 0xFFFFFFFFFFFFFFFFFFFFFFFFFFFFFFFFFFFFFFFFFFFFFFFFFFFFFFFFFFFFFF NOT AND SWAP1 DUP2 PUSH1 0x0 BYTE SWAP1 MSTORE8 POP DUP2 DUP1 PUSH2 0x2214 SWAP1 PUSH2 0x55F9 JUMP JUMPDEST SWAP3 POP POP DUP1 DUP1 PUSH2 0x2222 SWAP1 PUSH2 0x55F9 JUMP JUMPDEST SWAP2 POP POP PUSH2 0x2198 JUMP JUMPDEST POP DUP2 SWAP3 POP POP POP SWAP2 SWAP1 POP JUMP JUMPDEST PUSH1 0x0 PUSH1 0x17 DUP3 GT PUSH2 0x2248 JUMPI PUSH1 0x1 SWAP1 POP PUSH2 0x2284 JUMP JUMPDEST PUSH1 0xFF DUP3 GT PUSH2 0x2259 JUMPI PUSH1 0x2 SWAP1 POP PUSH2 0x2284 JUMP JUMPDEST PUSH2 0xFFFF DUP3 GT PUSH2 0x226B JUMPI PUSH1 0x3 SWAP1 POP PUSH2 0x2284 JUMP JUMPDEST PUSH4 0xFFFFFFFF DUP3 GT PUSH2 0x227F JUMPI PUSH1 0x5 SWAP1 POP PUSH2 0x2284 JUMP JUMPDEST PUSH1 0x9 SWAP1 POP JUMPDEST SWAP2 SWAP1 POP JUMP JUMPDEST PUSH1 0x0 DUP2 MLOAD PUSH2 0x2297 DUP4 MLOAD PUSH2 0x2235 JUMP JUMPDEST PUSH2 0x22A1 SWAP2 SWAP1 PUSH2 0x53F2 JUMP JUMPDEST SWAP1 POP SWAP2 SWAP1 POP JUMP JUMPDEST PUSH2 0x22B0 PUSH2 0x3AD5 JUMP JUMPDEST PUSH2 0x22BE DUP2 PUSH1 0x0 ADD MLOAD DUP4 PUSH2 0x1F4F JUMP JUMPDEST POP PUSH1 0x0 DUP2 PUSH1 0x20 ADD DUP2 DUP2 MSTORE POP POP SWAP2 SWAP1 POP JUMP JUMPDEST PUSH2 0x22DB DUP3 PUSH1 0x4 DUP4 PUSH2 0x2FEA JUMP JUMPDEST POP POP JUMP JUMPDEST PUSH2 0x22EC DUP3 PUSH1 0x2 DUP4 MLOAD PUSH2 0x2FFA JUMP JUMPDEST PUSH2 0x2303 DUP2 DUP4 PUSH1 0x0 ADD MLOAD PUSH2 0x31A3 SWAP1 SWAP2 SWAP1 PUSH4 0xFFFFFFFF AND JUMP JUMPDEST POP POP POP JUMP JUMPDEST PUSH1 0x60 PUSH1 0x0 DUP3 PUSH1 0x20 ADD MLOAD EQ PUSH2 0x2351 JUMPI PUSH1 0x40 MLOAD PUSH32 0x8C379A000000000000000000000000000000000000000000000000000000000 DUP2 MSTORE PUSH1 0x4 ADD PUSH2 0x2348 SWAP1 PUSH2 0x52C6 JUMP JUMPDEST PUSH1 0x40 MLOAD DUP1 SWAP2 SUB SWAP1 REVERT JUMPDEST DUP2 PUSH1 0x0 ADD MLOAD PUSH1 0x0 ADD MLOAD SWAP1 POP SWAP2 SWAP1 POP JUMP JUMPDEST PUSH1 0x0 SELFBALANCE SWAP1 POP DUP2 DUP2 LT ISZERO PUSH2 0x23AD JUMPI DUP1 DUP3 PUSH1 0x40 MLOAD PUSH32 0x8F0F420600000000000000000000000000000000000000000000000000000000 DUP2 MSTORE PUSH1 0x4 ADD PUSH2 0x23A4 SWAP3 SWAP2 SWAP1 PUSH2 0x5641 JUMP JUMPDEST PUSH1 0x40 MLOAD DUP1 SWAP2 SUB SWAP1 REVERT JUMPDEST PUSH1 0x0 PUSH2 0x23B8 DUP5 PUSH2 0x31BF JUMP JUMPDEST SWAP1 POP DUP1 PUSH2 0x23F1 JUMPI PUSH1 0x40 MLOAD PUSH32 0x64D954B000000000000000000000000000000000000000000000000000000000 DUP2 MSTORE PUSH1 0x4 ADD PUSH1 0x40 MLOAD DUP1 SWAP2 SUB SWAP1 REVERT JUMPDEST POP POP POP POP JUMP JUMPDEST PUSH1 0x60 PUSH1 0x0 DUP1 PUSH1 0x0 DUP5 DUP1 PUSH1 0x20 ADD SWAP1 MLOAD DUP2 ADD SWAP1 PUSH2 0x2412 SWAP2 SWAP1 PUSH2 0x56A0 JUMP JUMPDEST SWAP3 POP SWAP3 POP SWAP3 POP PUSH1 0x0 PUSH8 0xFFFFFFFFFFFFFFFF AND DUP3 PUSH8 0xFFFFFFFFFFFFFFFF AND SUB PUSH2 0x2474 JUMPI PUSH1 0x0 DUP2 MLOAD EQ PUSH2 0x246F JUMPI PUSH1 0x40 MLOAD PUSH32 0xE74990700000000000000000000000000000000000000000000000000000000 DUP2 MSTORE PUSH1 0x4 ADD PUSH1 0x40 MLOAD DUP1 SWAP2 SUB SWAP1 REVERT JUMPDEST PUSH2 0x252E JUMP JUMPDEST PUSH1 0x51 PUSH8 0xFFFFFFFFFFFFFFFF AND DUP3 PUSH8 0xFFFFFFFFFFFFFFFF AND EQ DUP1 PUSH2 0x24AB JUMPI POP PUSH1 0x71 PUSH8 0xFFFFFFFFFFFFFFFF AND DUP3 PUSH8 0xFFFFFFFFFFFFFFFF AND EQ JUMPDEST ISZERO PUSH2 0x24F0 JUMPI PUSH1 0x0 DUP2 MLOAD SUB PUSH2 0x24EB JUMPI PUSH1 0x40 MLOAD PUSH32 0xE74990700000000000000000000000000000000000000000000000000000000 DUP2 MSTORE PUSH1 0x4 ADD PUSH1 0x40 MLOAD DUP1 SWAP2 SUB SWAP1 REVERT JUMPDEST PUSH2 0x252D JUMP JUMPDEST DUP2 PUSH1 0x40 MLOAD PUSH32 0xF1F6BCED00000000000000000000000000000000000000000000000000000000 DUP2 MSTORE PUSH1 0x4 ADD PUSH2 0x2524 SWAP2 SWAP1 PUSH2 0x570F JUMP JUMPDEST PUSH1 0x40 MLOAD DUP1 SWAP2 SUB SWAP1 REVERT JUMPDEST JUMPDEST PUSH1 0x0 DUP4 EQ PUSH2 0x2573 JUMPI DUP3 PUSH1 0x40 MLOAD PUSH32 0xD4BB667100000000000000000000000000000000000000000000000000000000 DUP2 MSTORE PUSH1 0x4 ADD PUSH2 0x256A SWAP2 SWAP1 PUSH2 0x5739 JUMP JUMPDEST PUSH1 0x40 MLOAD DUP1 SWAP2 SUB SWAP1 REVERT JUMPDEST DUP1 SWAP4 POP POP POP POP SWAP2 SWAP1 POP JUMP JUMPDEST PUSH1 0x60 PUSH1 0x0 DUP1 PUSH1 0x0 PUSH2 0x258F DUP7 DUP7 PUSH2 0x31D5 JUMP JUMPDEST DUP2 PUSH8 0xFFFFFFFFFFFFFFFF AND SWAP2 POP DUP1 SWAP8 POP DUP2 SWAP4 POP DUP3 SWAP5 POP POP POP POP PUSH1 0x6 PUSH1 0xFF AND DUP3 PUSH1 0xFF AND EQ DUP1 PUSH2 0x25C3 JUMPI POP PUSH1 0x2 PUSH1 0xFF AND DUP3 PUSH1 0xFF AND EQ JUMPDEST PUSH2 0x2602 JUMPI PUSH1 0x40 MLOAD PUSH32 0x8C379A000000000000000000000000000000000000000000000000000000000 DUP2 MSTORE PUSH1 0x4 ADD PUSH2 0x25F9 SWAP1 PUSH2 0x57C6 JUMP JUMPDEST PUSH1 0x40 MLOAD DUP1 SWAP2 SUB SWAP1 REVERT JUMPDEST PUSH1 0x6 PUSH1 0xFF AND DUP3 PUSH1 0xFF AND SUB PUSH2 0x264B JUMPI PUSH2 0x261A DUP7 DUP7 PUSH2 0x31D5 JUMP JUMPDEST DUP2 PUSH8 0xFFFFFFFFFFFFFFFF AND SWAP2 POP DUP1 SWAP8 POP DUP2 SWAP4 POP DUP3 SWAP5 POP POP POP POP PUSH1 0x2 PUSH1 0xFF AND DUP3 PUSH1 0xFF AND EQ PUSH2 0x264A JUMPI PUSH2 0x2649 PUSH2 0x5507 JUMP JUMPDEST JUMPDEST JUMPDEST PUSH1 0x0 DUP2 DUP7 PUSH2 0x2659 SWAP2 SWAP1 PUSH2 0x53F2 JUMP JUMPDEST SWAP1 POP PUSH1 0x0 DUP3 PUSH8 0xFFFFFFFFFFFFFFFF DUP2 GT ISZERO PUSH2 0x2677 JUMPI PUSH2 0x2676 PUSH2 0x3D06 JUMP JUMPDEST JUMPDEST PUSH1 0x40 MLOAD SWAP1 DUP1 DUP3 MSTORE DUP1 PUSH1 0x1F ADD PUSH1 0x1F NOT AND PUSH1 0x20 ADD DUP3 ADD PUSH1 0x40 MSTORE DUP1 ISZERO PUSH2 0x26A9 JUMPI DUP2 PUSH1 0x20 ADD PUSH1 0x1 DUP3 MUL DUP1 CALLDATASIZE DUP4 CALLDATACOPY DUP1 DUP3 ADD SWAP2 POP POP SWAP1 POP JUMPDEST POP SWAP1 POP PUSH1 0x0 DUP1 DUP9 SWAP1 POP JUMPDEST DUP4 DUP2 LT ISZERO PUSH2 0x273C JUMPI DUP10 DUP2 DUP2 MLOAD DUP2 LT PUSH2 0x26CE JUMPI PUSH2 0x26CD PUSH2 0x55CA JUMP JUMPDEST JUMPDEST PUSH1 0x20 ADD ADD MLOAD PUSH1 0xF8 SHR PUSH1 0xF8 SHL DUP4 DUP4 DUP2 MLOAD DUP2 LT PUSH2 0x26EC JUMPI PUSH2 0x26EB PUSH2 0x55CA JUMP JUMPDEST JUMPDEST PUSH1 0x20 ADD ADD SWAP1 PUSH31 0xFFFFFFFFFFFFFFFFFFFFFFFFFFFFFFFFFFFFFFFFFFFFFFFFFFFFFFFFFFFFFF NOT AND SWAP1 DUP2 PUSH1 0x0 BYTE SWAP1 MSTORE8 POP DUP2 DUP1 PUSH2 0x2726 SWAP1 PUSH2 0x55F9 JUMP JUMPDEST SWAP3 POP POP DUP1 DUP1 PUSH2 0x2734 SWAP1 PUSH2 0x55F9 JUMP JUMPDEST SWAP2 POP POP PUSH2 0x26B3 JUMP JUMPDEST POP DUP2 DUP5 DUP10 PUSH2 0x274A SWAP2 SWAP1 PUSH2 0x53F2 JUMP JUMPDEST SWAP7 POP SWAP7 POP POP POP POP POP POP SWAP3 POP SWAP3 SWAP1 POP JUMP JUMPDEST PUSH2 0x2762 PUSH2 0x398B JUMP JUMPDEST PUSH1 0x0 DUP3 MLOAD SUB PUSH2 0x27A0 JUMPI PUSH1 0x40 MLOAD DUP1 PUSH1 0x40 ADD PUSH1 0x40 MSTORE DUP1 PUSH1 0x40 MLOAD DUP1 PUSH1 0x40 ADD PUSH1 0x40 MSTORE DUP1 PUSH1 0x1 DUP2 MSTORE PUSH1 0x20 ADD PUSH1 0x0 DUP2 MSTORE POP DUP2 MSTORE PUSH1 0x20 ADD PUSH1 0x0 ISZERO ISZERO DUP2 MSTORE POP SWAP1 POP PUSH2 0x28FC JUMP JUMPDEST PUSH1 0x0 PUSH1 0x1 DUP4 MLOAD PUSH2 0x27B0 SWAP2 SWAP1 PUSH2 0x5596 JUMP JUMPDEST PUSH8 0xFFFFFFFFFFFFFFFF DUP2 GT ISZERO PUSH2 0x27C9 JUMPI PUSH2 0x27C8 PUSH2 0x3D06 JUMP JUMPDEST JUMPDEST PUSH1 0x40 MLOAD SWAP1 DUP1 DUP3 MSTORE DUP1 PUSH1 0x1F ADD PUSH1 0x1F NOT AND PUSH1 0x20 ADD DUP3 ADD PUSH1 0x40 MSTORE DUP1 ISZERO PUSH2 0x27FB JUMPI DUP2 PUSH1 0x20 ADD PUSH1 0x1 DUP3 MUL DUP1 CALLDATASIZE DUP4 CALLDATACOPY DUP1 DUP3 ADD SWAP2 POP POP SWAP1 POP JUMPDEST POP SWAP1 POP PUSH1 0x0 PUSH1 0x1 PUSH1 0xF8 SHL DUP5 PUSH1 0x0 DUP2 MLOAD DUP2 LT PUSH2 0x2819 JUMPI PUSH2 0x2818 PUSH2 0x55CA JUMP JUMPDEST JUMPDEST PUSH1 0x20 ADD ADD MLOAD PUSH1 0xF8 SHR PUSH1 0xF8 SHL PUSH31 0xFFFFFFFFFFFFFFFFFFFFFFFFFFFFFFFFFFFFFFFFFFFFFFFFFFFFFFFFFFFFFF NOT AND SUB PUSH2 0x2850 JUMPI PUSH1 0x1 SWAP1 POP JUMPDEST PUSH1 0x0 PUSH1 0x1 SWAP1 POP JUMPDEST DUP5 MLOAD DUP2 LT ISZERO PUSH2 0x28DF JUMPI DUP5 DUP2 DUP2 MLOAD DUP2 LT PUSH2 0x2873 JUMPI PUSH2 0x2872 PUSH2 0x55CA JUMP JUMPDEST JUMPDEST PUSH1 0x20 ADD ADD MLOAD PUSH1 0xF8 SHR PUSH1 0xF8 SHL DUP4 PUSH1 0x1 DUP4 PUSH2 0x288C SWAP2 SWAP1 PUSH2 0x5596 JUMP JUMPDEST DUP2 MLOAD DUP2 LT PUSH2 0x289D JUMPI PUSH2 0x289C PUSH2 0x55CA JUMP JUMPDEST JUMPDEST PUSH1 0x20 ADD ADD SWAP1 PUSH31 0xFFFFFFFFFFFFFFFFFFFFFFFFFFFFFFFFFFFFFFFFFFFFFFFFFFFFFFFFFFFFFF NOT AND SWAP1 DUP2 PUSH1 0x0 BYTE SWAP1 MSTORE8 POP DUP1 DUP1 PUSH2 0x28D7 SWAP1 PUSH2 0x55F9 JUMP JUMPDEST SWAP2 POP POP PUSH2 0x2857 JUMP JUMPDEST POP PUSH1 0x40 MLOAD DUP1 PUSH1 0x40 ADD PUSH1 0x40 MSTORE DUP1 DUP4 DUP2 MSTORE PUSH1 0x20 ADD DUP3 ISZERO ISZERO DUP2 MSTORE POP SWAP3 POP POP POP JUMPDEST SWAP2 SWAP1 POP JUMP JUMPDEST PUSH2 0x290D DUP3 PUSH1 0x0 DUP4 PUSH2 0x2FFA JUMP JUMPDEST POP POP JUMP JUMPDEST PUSH1 0x0 DUP1 PUSH1 0x0 DUP1 PUSH2 0x2921 DUP7 DUP7 PUSH2 0x31D5 JUMP JUMPDEST DUP2 PUSH8 0xFFFFFFFFFFFFFFFF AND SWAP2 POP DUP1 SWAP8 POP DUP2 SWAP4 POP DUP3 SWAP5 POP POP POP POP PUSH1 0x4 PUSH1 0xFF AND DUP3 PUSH1 0xFF AND EQ PUSH2 0x2983 JUMPI PUSH1 0x40 MLOAD PUSH32 0x8C379A000000000000000000000000000000000000000000000000000000000 DUP2 MSTORE PUSH1 0x4 ADD PUSH2 0x297A SWAP1 PUSH2 0x5832 JUMP JUMPDEST PUSH1 0x40 MLOAD DUP1 SWAP2 SUB SWAP1 REVERT JUMPDEST DUP1 DUP6 SWAP4 POP SWAP4 POP POP POP SWAP3 POP SWAP3 SWAP1 POP JUMP JUMPDEST PUSH1 0x0 DUP1 PUSH1 0x0 PUSH2 0x29AA DUP5 DUP7 PUSH2 0x33C7 SWAP1 SWAP2 SWAP1 PUSH4 0xFFFFFFFF AND JUMP JUMPDEST DUP1 SWAP6 POP DUP2 SWAP3 POP POP POP DUP1 DUP5 SWAP3 POP SWAP3 POP POP SWAP3 POP SWAP3 SWAP1 POP JUMP JUMPDEST PUSH2 0x29C8 PUSH2 0x3AF5 JUMP JUMPDEST PUSH1 0x0 DUP1 PUSH1 0x0 PUSH2 0x29E0 DUP6 DUP8 PUSH2 0x31D5 SWAP1 SWAP2 SWAP1 PUSH4 0xFFFFFFFF AND JUMP JUMPDEST DUP2 PUSH8 0xFFFFFFFFFFFFFFFF AND SWAP2 POP DUP1 SWAP8 POP DUP2 SWAP4 POP DUP3 SWAP5 POP POP POP POP PUSH1 0x6 PUSH1 0xFF AND DUP3 PUSH1 0xFF AND EQ PUSH2 0x2A42 JUMPI PUSH1 0x40 MLOAD PUSH32 0x8C379A000000000000000000000000000000000000000000000000000000000 DUP2 MSTORE PUSH1 0x4 ADD PUSH2 0x2A39 SWAP1 PUSH2 0x58C4 JUMP JUMPDEST PUSH1 0x40 MLOAD DUP1 SWAP2 SUB SWAP1 REVERT JUMPDEST PUSH1 0x2A PUSH1 0xFF AND DUP2 EQ PUSH2 0x2A88 JUMPI PUSH1 0x40 MLOAD PUSH32 0x8C379A000000000000000000000000000000000000000000000000000000000 DUP2 MSTORE PUSH1 0x4 ADD PUSH2 0x2A7F SWAP1 PUSH2 0x5930 JUMP JUMPDEST PUSH1 0x40 MLOAD DUP1 SWAP2 SUB SWAP1 REVERT JUMPDEST PUSH1 0x60 PUSH2 0x2A9D DUP7 DUP9 PUSH2 0x257E SWAP1 SWAP2 SWAP1 PUSH4 0xFFFFFFFF AND JUMP JUMPDEST DUP1 SWAP8 POP DUP2 SWAP3 POP POP POP PUSH1 0x0 PUSH1 0xF8 SHL DUP2 PUSH1 0x0 DUP2 MLOAD DUP2 LT PUSH2 0x2ABE JUMPI PUSH2 0x2ABD PUSH2 0x55CA JUMP JUMPDEST JUMPDEST PUSH1 0x20 ADD ADD MLOAD PUSH1 0xF8 SHR PUSH1 0xF8 SHL PUSH31 0xFFFFFFFFFFFFFFFFFFFFFFFFFFFFFFFFFFFFFFFFFFFFFFFFFFFFFFFFFFFFFF NOT AND EQ PUSH2 0x2B2B JUMPI PUSH1 0x40 MLOAD PUSH32 0x8C379A000000000000000000000000000000000000000000000000000000000 DUP2 MSTORE PUSH1 0x4 ADD PUSH2 0x2B22 SWAP1 PUSH2 0x59C2 JUMP JUMPDEST PUSH1 0x40 MLOAD DUP1 SWAP2 SUB SWAP1 REVERT JUMPDEST PUSH2 0x2B33 PUSH2 0x3AF5 JUMP JUMPDEST PUSH1 0x1 DUP3 MLOAD PUSH2 0x2B41 SWAP2 SWAP1 PUSH2 0x5596 JUMP JUMPDEST PUSH8 0xFFFFFFFFFFFFFFFF DUP2 GT ISZERO PUSH2 0x2B5A JUMPI PUSH2 0x2B59 PUSH2 0x3D06 JUMP JUMPDEST JUMPDEST PUSH1 0x40 MLOAD SWAP1 DUP1 DUP3 MSTORE DUP1 PUSH1 0x1F ADD PUSH1 0x1F NOT AND PUSH1 0x20 ADD DUP3 ADD PUSH1 0x40 MSTORE DUP1 ISZERO PUSH2 0x2B8C JUMPI DUP2 PUSH1 0x20 ADD PUSH1 0x1 DUP3 MUL DUP1 CALLDATASIZE DUP4 CALLDATACOPY DUP1 DUP3 ADD SWAP2 POP POP SWAP1 POP JUMPDEST POP DUP2 PUSH1 0x0 ADD DUP2 SWAP1 MSTORE POP PUSH1 0x0 PUSH1 0x1 SWAP1 POP JUMPDEST DUP3 MLOAD DUP2 LT ISZERO PUSH2 0x2C28 JUMPI DUP3 DUP2 DUP2 MLOAD DUP2 LT PUSH2 0x2BB8 JUMPI PUSH2 0x2BB7 PUSH2 0x55CA JUMP JUMPDEST JUMPDEST PUSH1 0x20 ADD ADD MLOAD PUSH1 0xF8 SHR PUSH1 0xF8 SHL DUP3 PUSH1 0x0 ADD MLOAD PUSH1 0x1 DUP4 PUSH2 0x2BD5 SWAP2 SWAP1 PUSH2 0x5596 JUMP JUMPDEST DUP2 MLOAD DUP2 LT PUSH2 0x2BE6 JUMPI PUSH2 0x2BE5 PUSH2 0x55CA JUMP JUMPDEST JUMPDEST PUSH1 0x20 ADD ADD SWAP1 PUSH31 0xFFFFFFFFFFFFFFFFFFFFFFFFFFFFFFFFFFFFFFFFFFFFFFFFFFFFFFFFFFFFFF NOT AND SWAP1 DUP2 PUSH1 0x0 BYTE SWAP1 MSTORE8 POP DUP1 DUP1 PUSH2 0x2C20 SWAP1 PUSH2 0x55F9 JUMP JUMPDEST SWAP2 POP POP PUSH2 0x2B9C JUMP JUMPDEST POP DUP1 DUP8 SWAP6 POP SWAP6 POP POP POP POP POP SWAP3 POP SWAP3 SWAP1 POP JUMP JUMPDEST PUSH1 0x0 DUP1 PUSH1 0x0 DUP1 PUSH2 0x2C4A DUP7 DUP7 PUSH2 0x31D5 JUMP JUMPDEST DUP2 PUSH8 0xFFFFFFFFFFFFFFFF AND SWAP2 POP DUP1 SWAP8 POP DUP2 SWAP4 POP DUP3 SWAP5 POP POP POP POP PUSH1 0x0 PUSH1 0xFF AND DUP3 PUSH1 0xFF AND EQ PUSH2 0x2CAC JUMPI PUSH1 0x40 MLOAD PUSH32 0x8C379A000000000000000000000000000000000000000000000000000000000 DUP2 MSTORE PUSH1 0x4 ADD PUSH2 0x2CA3 SWAP1 PUSH2 0x5A54 JUMP JUMPDEST PUSH1 0x40 MLOAD DUP1 SWAP2 SUB SWAP1 REVERT JUMPDEST DUP1 DUP6 SWAP4 POP SWAP4 POP POP POP SWAP3 POP SWAP3 SWAP1 POP JUMP JUMPDEST PUSH1 0x0 DUP1 PUSH1 0x0 DUP1 PUSH2 0x2CCB DUP7 DUP7 PUSH2 0x31D5 JUMP JUMPDEST DUP2 PUSH8 0xFFFFFFFFFFFFFFFF AND SWAP2 POP DUP1 SWAP8 POP DUP2 SWAP4 POP DUP3 SWAP5 POP POP POP POP PUSH1 0x7 PUSH1 0xFF AND DUP3 PUSH1 0xFF AND EQ PUSH2 0x2D2D JUMPI PUSH1 0x40 MLOAD PUSH32 0x8C379A000000000000000000000000000000000000000000000000000000000 DUP2 MSTORE PUSH1 0x4 ADD PUSH2 0x2D24 SWAP1 PUSH2 0x5AC0 JUMP JUMPDEST PUSH1 0x40 MLOAD DUP1 SWAP2 SUB SWAP1 REVERT JUMPDEST PUSH1 0x15 PUSH1 0xFF AND DUP2 EQ DUP1 PUSH2 0x2D42 JUMPI POP PUSH1 0x14 PUSH1 0xFF AND DUP2 EQ JUMPDEST PUSH2 0x2D4F JUMPI PUSH2 0x2D4E PUSH2 0x5507 JUMP JUMPDEST JUMPDEST PUSH1 0x14 PUSH1 0xFF AND DUP2 EQ ISZERO DUP6 SWAP4 POP SWAP4 POP POP POP SWAP3 POP SWAP3 SWAP1 POP JUMP JUMPDEST PUSH2 0x2D6D PUSH2 0x3B08 JUMP JUMPDEST PUSH1 0x0 PUSH1 0x40 MLOAD DUP1 PUSH1 0x20 ADD PUSH1 0x40 MSTORE DUP1 DUP5 DUP2 MSTORE POP SWAP1 POP PUSH2 0x2D89 DUP2 PUSH2 0x3459 JUMP JUMPDEST PUSH2 0x2DBF JUMPI PUSH1 0x40 MLOAD PUSH32 0xE6C4247B00000000000000000000000000000000000000000000000000000000 DUP2 MSTORE PUSH1 0x4 ADD PUSH1 0x40 MLOAD DUP1 SWAP2 SUB SWAP1 REVERT JUMPDEST DUP1 SWAP2 POP POP SWAP2 SWAP1 POP JUMP JUMPDEST PUSH2 0x2DD0 PUSH2 0x3B1B JUMP JUMPDEST PUSH1 0x0 DUP1 PUSH1 0x0 PUSH2 0x2DDF DUP7 DUP7 PUSH2 0x31D5 JUMP JUMPDEST DUP2 PUSH8 0xFFFFFFFFFFFFFFFF AND SWAP2 POP DUP1 SWAP8 POP DUP2 SWAP4 POP DUP3 SWAP5 POP POP POP POP PUSH1 0x2 PUSH1 0xFF AND DUP3 PUSH1 0xFF AND EQ DUP1 PUSH2 0x2E13 JUMPI POP PUSH1 0x3 PUSH1 0xFF AND DUP3 PUSH1 0xFF AND EQ JUMPDEST PUSH2 0x2E52 JUMPI PUSH1 0x40 MLOAD PUSH32 0x8C379A000000000000000000000000000000000000000000000000000000000 DUP2 MSTORE PUSH1 0x4 ADD PUSH2 0x2E49 SWAP1 PUSH2 0x5B52 JUMP JUMPDEST PUSH1 0x40 MLOAD DUP1 SWAP2 SUB SWAP1 REVERT JUMPDEST PUSH1 0x0 DUP2 DUP7 PUSH2 0x2E60 SWAP2 SWAP1 PUSH2 0x53F2 JUMP JUMPDEST SWAP1 POP PUSH1 0x0 DUP3 PUSH8 0xFFFFFFFFFFFFFFFF DUP2 GT ISZERO PUSH2 0x2E7E JUMPI PUSH2 0x2E7D PUSH2 0x3D06 JUMP JUMPDEST JUMPDEST PUSH1 0x40 MLOAD SWAP1 DUP1 DUP3 MSTORE DUP1 PUSH1 0x1F ADD PUSH1 0x1F NOT AND PUSH1 0x20 ADD DUP3 ADD PUSH1 0x40 MSTORE DUP1 ISZERO PUSH2 0x2EB0 JUMPI DUP2 PUSH1 0x20 ADD PUSH1 0x1 DUP3 MUL DUP1 CALLDATASIZE DUP4 CALLDATACOPY DUP1 DUP3 ADD SWAP2 POP POP SWAP1 POP JUMPDEST POP SWAP1 POP PUSH1 0x0 DUP1 DUP9 SWAP1 POP JUMPDEST DUP4 DUP2 LT ISZERO PUSH2 0x2F43 JUMPI DUP10 DUP2 DUP2 MLOAD DUP2 LT PUSH2 0x2ED5 JUMPI PUSH2 0x2ED4 PUSH2 0x55CA JUMP JUMPDEST JUMPDEST PUSH1 0x20 ADD ADD MLOAD PUSH1 0xF8 SHR PUSH1 0xF8 SHL DUP4 DUP4 DUP2 MLOAD DUP2 LT PUSH2 0x2EF3 JUMPI PUSH2 0x2EF2 PUSH2 0x55CA JUMP JUMPDEST JUMPDEST PUSH1 0x20 ADD ADD SWAP1 PUSH31 0xFFFFFFFFFFFFFFFFFFFFFFFFFFFFFFFFFFFFFFFFFFFFFFFFFFFFFFFFFFFFFF NOT AND SWAP1 DUP2 PUSH1 0x0 BYTE SWAP1 MSTORE8 POP DUP2 DUP1 PUSH2 0x2F2D SWAP1 PUSH2 0x55F9 JUMP JUMPDEST SWAP3 POP POP DUP1 DUP1 PUSH2 0x2F3B SWAP1 PUSH2 0x55F9 JUMP JUMPDEST SWAP2 POP POP PUSH2 0x2EBA JUMP JUMPDEST POP PUSH1 0x40 MLOAD DUP1 PUSH1 0x40 ADD PUSH1 0x40 MSTORE DUP1 DUP4 DUP2 MSTORE PUSH1 0x20 ADD PUSH1 0x3 PUSH1 0xFF AND DUP8 PUSH1 0xFF AND EQ ISZERO ISZERO DUP2 MSTORE POP DUP5 DUP10 PUSH2 0x2F70 SWAP2 SWAP1 PUSH2 0x53F2 JUMP JUMPDEST SWAP7 POP SWAP7 POP POP POP POP POP POP SWAP3 POP SWAP3 SWAP1 POP JUMP JUMPDEST PUSH2 0x2F88 PUSH2 0x3A97 JUMP JUMPDEST PUSH1 0x0 DUP4 PUSH1 0x0 ADD MLOAD MLOAD SWAP1 POP PUSH1 0x0 PUSH1 0x1 DUP3 PUSH2 0x2FA1 SWAP2 SWAP1 PUSH2 0x53F2 JUMP JUMPDEST SWAP1 POP DUP5 PUSH1 0x20 ADD MLOAD DUP3 LT PUSH2 0x2FC5 JUMPI PUSH2 0x2FC4 DUP6 PUSH1 0x2 DUP4 PUSH2 0x2FBF SWAP2 SWAP1 PUSH2 0x5B72 JUMP JUMPDEST PUSH2 0x363E JUMP JUMPDEST JUMPDEST DUP5 MLOAD PUSH1 0x20 DUP4 DUP3 ADD ADD DUP6 DUP2 MSTORE8 DUP2 MLOAD DUP4 GT ISZERO PUSH2 0x2FDD JUMPI DUP3 DUP3 MSTORE JUMPDEST POP POP DUP5 SWAP3 POP POP POP SWAP3 SWAP2 POP POP JUMP JUMPDEST PUSH2 0x2FF5 DUP4 DUP4 DUP4 PUSH2 0x2FFA JUMP JUMPDEST POP POP POP JUMP JUMPDEST PUSH1 0x17 DUP2 PUSH8 0xFFFFFFFFFFFFFFFF AND GT PUSH2 0x3035 JUMPI PUSH2 0x302F DUP2 PUSH1 0x5 DUP5 PUSH1 0xFF AND SWAP1 SHL PUSH1 0xFF AND OR DUP5 PUSH1 0x0 ADD MLOAD PUSH2 0x2F80 SWAP1 SWAP2 SWAP1 PUSH4 0xFFFFFFFF AND JUMP JUMPDEST POP PUSH2 0x319E JUMP JUMPDEST PUSH1 0xFF DUP2 PUSH8 0xFFFFFFFFFFFFFFFF AND GT PUSH2 0x3093 JUMPI PUSH2 0x3068 PUSH1 0x18 PUSH1 0x5 DUP5 PUSH1 0xFF AND SWAP1 SHL OR DUP5 PUSH1 0x0 ADD MLOAD PUSH2 0x2F80 SWAP1 SWAP2 SWAP1 PUSH4 0xFFFFFFFF AND JUMP JUMPDEST POP PUSH2 0x308D DUP2 PUSH8 0xFFFFFFFFFFFFFFFF AND PUSH1 0x1 DUP6 PUSH1 0x0 ADD MLOAD PUSH2 0x3662 SWAP1 SWAP3 SWAP2 SWAP1 PUSH4 0xFFFFFFFF AND JUMP JUMPDEST POP PUSH2 0x319D JUMP JUMPDEST PUSH2 0xFFFF DUP2 PUSH8 0xFFFFFFFFFFFFFFFF AND GT PUSH2 0x30F2 JUMPI PUSH2 0x30C7 PUSH1 0x19 PUSH1 0x5 DUP5 PUSH1 0xFF AND SWAP1 SHL OR DUP5 PUSH1 0x0 ADD MLOAD PUSH2 0x2F80 SWAP1 SWAP2 SWAP1 PUSH4 0xFFFFFFFF AND JUMP JUMPDEST POP PUSH2 0x30EC DUP2 PUSH8 0xFFFFFFFFFFFFFFFF AND PUSH1 0x2 DUP6 PUSH1 0x0 ADD MLOAD PUSH2 0x3662 SWAP1 SWAP3 SWAP2 SWAP1 PUSH4 0xFFFFFFFF AND JUMP JUMPDEST POP PUSH2 0x319C JUMP JUMPDEST PUSH4 0xFFFFFFFF DUP2 PUSH8 0xFFFFFFFFFFFFFFFF AND GT PUSH2 0x3153 JUMPI PUSH2 0x3128 PUSH1 0x1A PUSH1 0x5 DUP5 PUSH1 0xFF AND SWAP1 SHL OR DUP5 PUSH1 0x0 ADD MLOAD PUSH2 0x2F80 SWAP1 SWAP2 SWAP1 PUSH4 0xFFFFFFFF AND JUMP JUMPDEST POP PUSH2 0x314D DUP2 PUSH8 0xFFFFFFFFFFFFFFFF AND PUSH1 0x4 DUP6 PUSH1 0x0 ADD MLOAD PUSH2 0x3662 SWAP1 SWAP3 SWAP2 SWAP1 PUSH4 0xFFFFFFFF AND JUMP JUMPDEST POP PUSH2 0x319B JUMP JUMPDEST PUSH2 0x3174 PUSH1 0x1B PUSH1 0x5 DUP5 PUSH1 0xFF AND SWAP1 SHL OR DUP5 PUSH1 0x0 ADD MLOAD PUSH2 0x2F80 SWAP1 SWAP2 SWAP1 PUSH4 0xFFFFFFFF AND JUMP JUMPDEST POP PUSH2 0x3199 DUP2 PUSH8 0xFFFFFFFFFFFFFFFF AND PUSH1 0x8 DUP6 PUSH1 0x0 ADD MLOAD PUSH2 0x3662 SWAP1 SWAP3 SWAP2 SWAP1 PUSH4 0xFFFFFFFF AND JUMP JUMPDEST POP JUMPDEST JUMPDEST JUMPDEST JUMPDEST POP POP POP JUMP JUMPDEST PUSH2 0x31AB PUSH2 0x3A97 JUMP JUMPDEST PUSH2 0x31B7 DUP4 DUP4 DUP5 MLOAD PUSH2 0x36EF JUMP JUMPDEST SWAP1 POP SWAP3 SWAP2 POP POP JUMP JUMPDEST PUSH1 0x0 DUP1 DUP3 EXTCODEHASH SWAP1 POP PUSH1 0x0 DUP1 SHL DUP2 EQ ISZERO SWAP2 POP POP SWAP2 SWAP1 POP JUMP JUMPDEST PUSH1 0x0 DUP1 PUSH1 0x0 DUP1 PUSH2 0x31E5 DUP7 DUP7 PUSH2 0x37D2 JUMP JUMPDEST SWAP1 POP PUSH1 0x1 DUP6 PUSH2 0x31F4 SWAP2 SWAP1 PUSH2 0x53F2 JUMP JUMPDEST SWAP5 POP PUSH1 0x0 PUSH1 0x5 PUSH1 0xE0 DUP4 AND PUSH1 0xFF AND SWAP1 SHR SWAP1 POP PUSH1 0x0 PUSH1 0x1F DUP4 AND SWAP1 POP PUSH1 0x1C DUP2 PUSH1 0xFF AND LT PUSH2 0x3253 JUMPI PUSH1 0x40 MLOAD PUSH32 0x8C379A000000000000000000000000000000000000000000000000000000000 DUP2 MSTORE PUSH1 0x4 ADD PUSH2 0x324A SWAP1 PUSH2 0x5C26 JUMP JUMPDEST PUSH1 0x40 MLOAD DUP1 SWAP2 SUB SWAP1 REVERT JUMPDEST PUSH1 0x18 DUP2 PUSH1 0xFF AND LT ISZERO PUSH2 0x3276 JUMPI DUP2 DUP2 DUP9 DUP2 PUSH1 0xFF AND SWAP2 POP SWAP6 POP SWAP6 POP SWAP6 POP POP POP POP PUSH2 0x33C0 JUMP JUMPDEST PUSH1 0x18 DUP2 PUSH1 0xFF AND SUB PUSH2 0x32FD JUMPI PUSH1 0x0 PUSH2 0x328D DUP10 DUP10 PUSH2 0x37D2 JUMP JUMPDEST SWAP1 POP PUSH1 0x1 DUP9 PUSH2 0x329C SWAP2 SWAP1 PUSH2 0x53F2 JUMP JUMPDEST SWAP8 POP PUSH1 0x18 DUP2 PUSH1 0xFF AND LT ISZERO PUSH2 0x32E5 JUMPI PUSH1 0x40 MLOAD PUSH32 0x8C379A000000000000000000000000000000000000000000000000000000000 DUP2 MSTORE PUSH1 0x4 ADD PUSH2 0x32DC SWAP1 PUSH2 0x5C92 JUMP JUMPDEST PUSH1 0x40 MLOAD DUP1 SWAP2 SUB SWAP1 REVERT JUMPDEST DUP3 DUP2 DUP10 DUP2 PUSH1 0xFF AND SWAP2 POP SWAP7 POP SWAP7 POP SWAP7 POP POP POP POP POP PUSH2 0x33C0 JUMP JUMPDEST PUSH1 0x19 DUP2 PUSH1 0xFF AND SUB PUSH2 0x333E JUMPI PUSH1 0x0 PUSH2 0x3314 DUP10 DUP10 PUSH2 0x384D JUMP JUMPDEST SWAP1 POP PUSH1 0x2 DUP9 PUSH2 0x3323 SWAP2 SWAP1 PUSH2 0x53F2 JUMP JUMPDEST SWAP8 POP DUP3 DUP2 DUP10 DUP2 PUSH2 0xFFFF AND SWAP2 POP SWAP7 POP SWAP7 POP SWAP7 POP POP POP POP POP PUSH2 0x33C0 JUMP JUMPDEST PUSH1 0x1A DUP2 PUSH1 0xFF AND SUB PUSH2 0x3381 JUMPI PUSH1 0x0 PUSH2 0x3355 DUP10 DUP10 PUSH2 0x38B7 JUMP JUMPDEST SWAP1 POP PUSH1 0x4 DUP9 PUSH2 0x3364 SWAP2 SWAP1 PUSH2 0x53F2 JUMP JUMPDEST SWAP8 POP DUP3 DUP2 DUP10 DUP2 PUSH4 0xFFFFFFFF AND SWAP2 POP SWAP7 POP SWAP7 POP SWAP7 POP POP POP POP POP PUSH2 0x33C0 JUMP JUMPDEST PUSH1 0x1B DUP2 PUSH1 0xFF AND EQ PUSH2 0x3395 JUMPI PUSH2 0x3394 PUSH2 0x5507 JUMP JUMPDEST JUMPDEST PUSH1 0x0 PUSH2 0x33A1 DUP10 DUP10 PUSH2 0x3921 JUMP JUMPDEST SWAP1 POP PUSH1 0x8 DUP9 PUSH2 0x33B0 SWAP2 SWAP1 PUSH2 0x53F2 JUMP JUMPDEST SWAP8 POP DUP3 DUP2 DUP10 SWAP7 POP SWAP7 POP SWAP7 POP POP POP POP POP JUMPDEST SWAP3 POP SWAP3 POP SWAP3 JUMP JUMPDEST PUSH1 0x0 DUP1 PUSH1 0x0 DUP1 PUSH2 0x33D7 DUP7 DUP7 PUSH2 0x31D5 JUMP JUMPDEST DUP2 PUSH8 0xFFFFFFFFFFFFFFFF AND SWAP2 POP DUP1 SWAP8 POP DUP2 SWAP4 POP DUP3 SWAP5 POP POP POP POP PUSH1 0x1 PUSH1 0xFF AND DUP3 PUSH1 0xFF AND EQ DUP1 PUSH2 0x340B JUMPI POP PUSH1 0x0 PUSH1 0xFF AND DUP3 PUSH1 0xFF AND EQ JUMPDEST PUSH2 0x344A JUMPI PUSH1 0x40 MLOAD PUSH32 0x8C379A000000000000000000000000000000000000000000000000000000000 DUP2 MSTORE PUSH1 0x4 ADD PUSH2 0x3441 SWAP1 PUSH2 0x5D24 JUMP JUMPDEST PUSH1 0x40 MLOAD DUP1 SWAP2 SUB SWAP1 REVERT JUMPDEST DUP1 DUP6 SWAP4 POP SWAP4 POP POP POP SWAP3 POP SWAP3 SWAP1 POP JUMP JUMPDEST PUSH1 0x0 DUP1 PUSH1 0xF8 SHL DUP3 PUSH1 0x0 ADD MLOAD PUSH1 0x0 DUP2 MLOAD DUP2 LT PUSH2 0x3477 JUMPI PUSH2 0x3476 PUSH2 0x55CA JUMP JUMPDEST JUMPDEST PUSH1 0x20 ADD ADD MLOAD PUSH1 0xF8 SHR PUSH1 0xF8 SHL PUSH31 0xFFFFFFFFFFFFFFFFFFFFFFFFFFFFFFFFFFFFFFFFFFFFFFFFFFFFFFFFFFFFFF NOT AND SUB PUSH2 0x34BA JUMPI PUSH1 0xA DUP3 PUSH1 0x0 ADD MLOAD MLOAD GT ISZERO SWAP1 POP PUSH2 0x3639 JUMP JUMPDEST PUSH1 0x1 PUSH1 0xF8 SHL DUP3 PUSH1 0x0 ADD MLOAD PUSH1 0x0 DUP2 MLOAD DUP2 LT PUSH2 0x34D7 JUMPI PUSH2 0x34D6 PUSH2 0x55CA JUMP JUMPDEST JUMPDEST PUSH1 0x20 ADD ADD MLOAD PUSH1 0xF8 SHR PUSH1 0xF8 SHL PUSH31 0xFFFFFFFFFFFFFFFFFFFFFFFFFFFFFFFFFFFFFFFFFFFFFFFFFFFFFFFFFFFFFF NOT AND EQ DUP1 PUSH2 0x3557 JUMPI POP PUSH1 0x2 PUSH1 0xF8 SHL DUP3 PUSH1 0x0 ADD MLOAD PUSH1 0x0 DUP2 MLOAD DUP2 LT PUSH2 0x3528 JUMPI PUSH2 0x3527 PUSH2 0x55CA JUMP JUMPDEST JUMPDEST PUSH1 0x20 ADD ADD MLOAD PUSH1 0xF8 SHR PUSH1 0xF8 SHL PUSH31 0xFFFFFFFFFFFFFFFFFFFFFFFFFFFFFFFFFFFFFFFFFFFFFFFFFFFFFFFFFFFFFF NOT AND EQ JUMPDEST ISZERO PUSH2 0x356C JUMPI PUSH1 0x15 DUP3 PUSH1 0x0 ADD MLOAD MLOAD EQ SWAP1 POP PUSH2 0x3639 JUMP JUMPDEST PUSH1 0x3 PUSH1 0xF8 SHL DUP3 PUSH1 0x0 ADD MLOAD PUSH1 0x0 DUP2 MLOAD DUP2 LT PUSH2 0x3589 JUMPI PUSH2 0x3588 PUSH2 0x55CA JUMP JUMPDEST JUMPDEST PUSH1 0x20 ADD ADD MLOAD PUSH1 0xF8 SHR PUSH1 0xF8 SHL PUSH31 0xFFFFFFFFFFFFFFFFFFFFFFFFFFFFFFFFFFFFFFFFFFFFFFFFFFFFFFFFFFFFFF NOT AND SUB PUSH2 0x35CB JUMPI PUSH1 0x31 DUP3 PUSH1 0x0 ADD MLOAD MLOAD EQ SWAP1 POP PUSH2 0x3639 JUMP JUMPDEST PUSH1 0x4 PUSH1 0xF8 SHL DUP3 PUSH1 0x0 ADD MLOAD PUSH1 0x0 DUP2 MLOAD DUP2 LT PUSH2 0x35E8 JUMPI PUSH2 0x35E7 PUSH2 0x55CA JUMP JUMPDEST JUMPDEST PUSH1 0x20 ADD ADD MLOAD PUSH1 0xF8 SHR PUSH1 0xF8 SHL PUSH31 0xFFFFFFFFFFFFFFFFFFFFFFFFFFFFFFFFFFFFFFFFFFFFFFFFFFFFFFFFFFFFFF NOT AND SUB PUSH2 0x362B JUMPI PUSH1 0x40 DUP3 PUSH1 0x0 ADD MLOAD MLOAD GT ISZERO SWAP1 POP PUSH2 0x3639 JUMP JUMPDEST PUSH2 0x100 DUP3 PUSH1 0x0 ADD MLOAD MLOAD GT ISZERO SWAP1 POP JUMPDEST SWAP2 SWAP1 POP JUMP JUMPDEST PUSH1 0x0 DUP3 PUSH1 0x0 ADD MLOAD SWAP1 POP PUSH2 0x3651 DUP4 DUP4 PUSH2 0x1F4F JUMP JUMPDEST POP PUSH2 0x365C DUP4 DUP3 PUSH2 0x31A3 JUMP JUMPDEST POP POP POP POP JUMP JUMPDEST PUSH2 0x366A PUSH2 0x3A97 JUMP JUMPDEST PUSH1 0x0 DUP5 PUSH1 0x0 ADD MLOAD MLOAD SWAP1 POP PUSH1 0x0 DUP2 DUP5 PUSH2 0x3682 SWAP2 SWAP1 PUSH2 0x53F2 JUMP JUMPDEST SWAP1 POP DUP6 PUSH1 0x20 ADD MLOAD DUP2 GT ISZERO PUSH2 0x36A7 JUMPI PUSH2 0x36A6 DUP7 PUSH1 0x2 DUP4 PUSH2 0x36A1 SWAP2 SWAP1 PUSH2 0x5B72 JUMP JUMPDEST PUSH2 0x363E JUMP JUMPDEST JUMPDEST PUSH1 0x0 PUSH1 0x1 DUP6 PUSH2 0x100 PUSH2 0x36B9 SWAP2 SWAP1 PUSH2 0x5E77 JUMP JUMPDEST PUSH2 0x36C3 SWAP2 SWAP1 PUSH2 0x5596 JUMP JUMPDEST SWAP1 POP DUP7 MLOAD DUP3 DUP2 ADD DUP8 DUP4 NOT DUP3 MLOAD AND OR DUP2 MSTORE DUP2 MLOAD DUP5 GT ISZERO PUSH2 0x36E0 JUMPI DUP4 DUP3 MSTORE JUMPDEST POP POP DUP7 SWAP4 POP POP POP POP SWAP4 SWAP3 POP POP POP JUMP JUMPDEST PUSH2 0x36F7 PUSH2 0x3A97 JUMP JUMPDEST DUP3 MLOAD DUP3 GT ISZERO PUSH2 0x3705 JUMPI PUSH1 0x0 DUP1 REVERT JUMPDEST PUSH1 0x0 DUP5 PUSH1 0x0 ADD MLOAD MLOAD SWAP1 POP PUSH1 0x0 DUP4 DUP3 PUSH2 0x371D SWAP2 SWAP1 PUSH2 0x53F2 JUMP JUMPDEST SWAP1 POP DUP6 PUSH1 0x20 ADD MLOAD DUP2 GT ISZERO PUSH2 0x3742 JUMPI PUSH2 0x3741 DUP7 PUSH1 0x2 DUP4 PUSH2 0x373C SWAP2 SWAP1 PUSH2 0x5B72 JUMP JUMPDEST PUSH2 0x363E JUMP JUMPDEST JUMPDEST PUSH1 0x0 DUP1 DUP8 MLOAD DUP1 MLOAD DUP6 PUSH1 0x20 DUP4 ADD ADD SWAP4 POP DUP1 DUP6 GT ISZERO PUSH2 0x375D JUMPI DUP5 DUP3 MSTORE JUMPDEST PUSH1 0x20 DUP10 ADD SWAP3 POP POP POP JUMPDEST PUSH1 0x20 DUP7 LT PUSH2 0x37A4 JUMPI DUP1 MLOAD DUP3 MSTORE PUSH1 0x20 DUP3 PUSH2 0x377F SWAP2 SWAP1 PUSH2 0x53F2 JUMP JUMPDEST SWAP2 POP PUSH1 0x20 DUP2 PUSH2 0x378E SWAP2 SWAP1 PUSH2 0x53F2 JUMP JUMPDEST SWAP1 POP PUSH1 0x20 DUP7 PUSH2 0x379D SWAP2 SWAP1 PUSH2 0x5596 JUMP JUMPDEST SWAP6 POP PUSH2 0x3766 JUMP JUMPDEST PUSH1 0x0 PUSH1 0x1 DUP8 PUSH1 0x20 SUB PUSH2 0x100 EXP SUB SWAP1 POP DUP1 NOT DUP3 MLOAD AND DUP2 DUP5 MLOAD AND DUP2 DUP2 OR DUP6 MSTORE POP POP POP DUP8 SWAP5 POP POP POP POP POP SWAP4 SWAP3 POP POP POP JUMP JUMPDEST PUSH1 0x0 PUSH1 0x1 DUP3 PUSH2 0x37E1 SWAP2 SWAP1 PUSH2 0x53F2 JUMP JUMPDEST DUP4 MLOAD LT ISZERO PUSH2 0x3824 JUMPI PUSH1 0x40 MLOAD PUSH32 0x8C379A000000000000000000000000000000000000000000000000000000000 DUP2 MSTORE PUSH1 0x4 ADD PUSH2 0x381B SWAP1 PUSH2 0x5F0E JUMP JUMPDEST PUSH1 0x40 MLOAD DUP1 SWAP2 SUB SWAP1 REVERT JUMPDEST DUP3 DUP3 DUP2 MLOAD DUP2 LT PUSH2 0x3837 JUMPI PUSH2 0x3836 PUSH2 0x55CA JUMP JUMPDEST JUMPDEST PUSH1 0x20 ADD ADD MLOAD PUSH1 0xF8 SHR PUSH1 0xF8 SHL PUSH1 0xF8 SHR SWAP1 POP SWAP3 SWAP2 POP POP JUMP JUMPDEST PUSH1 0x0 PUSH1 0x2 DUP3 PUSH2 0x385C SWAP2 SWAP1 PUSH2 0x53F2 JUMP JUMPDEST DUP4 MLOAD LT ISZERO PUSH2 0x389F JUMPI PUSH1 0x40 MLOAD PUSH32 0x8C379A000000000000000000000000000000000000000000000000000000000 DUP2 MSTORE PUSH1 0x4 ADD PUSH2 0x3896 SWAP1 PUSH2 0x5F0E JUMP JUMPDEST PUSH1 0x40 MLOAD DUP1 SWAP2 SUB SWAP1 REVERT JUMPDEST PUSH1 0x0 DUP3 PUSH1 0x20 ADD DUP5 ADD MLOAD SWAP1 POP DUP1 PUSH1 0xF0 SHR SWAP2 POP POP SWAP3 SWAP2 POP POP JUMP JUMPDEST PUSH1 0x0 PUSH1 0x4 DUP3 PUSH2 0x38C6 SWAP2 SWAP1 PUSH2 0x53F2 JUMP JUMPDEST DUP4 MLOAD LT ISZERO PUSH2 0x3909 JUMPI PUSH1 0x40 MLOAD PUSH32 0x8C379A000000000000000000000000000000000000000000000000000000000 DUP2 MSTORE PUSH1 0x4 ADD PUSH2 0x3900 SWAP1 PUSH2 0x5F0E JUMP JUMPDEST PUSH1 0x40 MLOAD DUP1 SWAP2 SUB SWAP1 REVERT JUMPDEST PUSH1 0x0 DUP3 PUSH1 0x20 ADD DUP5 ADD MLOAD SWAP1 POP DUP1 PUSH1 0xE0 SHR SWAP2 POP POP SWAP3 SWAP2 POP POP JUMP JUMPDEST PUSH1 0x0 PUSH1 0x8 DUP3 PUSH2 0x3930 SWAP2 SWAP1 PUSH2 0x53F2 JUMP JUMPDEST DUP4 MLOAD LT ISZERO PUSH2 0x3973 JUMPI PUSH1 0x40 MLOAD PUSH32 0x8C379A000000000000000000000000000000000000000000000000000000000 DUP2 MSTORE PUSH1 0x4 ADD PUSH2 0x396A SWAP1 PUSH2 0x5F0E JUMP JUMPDEST PUSH1 0x40 MLOAD DUP1 SWAP2 SUB SWAP1 REVERT JUMPDEST PUSH1 0x0 DUP3 PUSH1 0x20 ADD DUP5 ADD MLOAD SWAP1 POP DUP1 PUSH1 0xC0 SHR SWAP2 POP POP SWAP3 SWAP2 POP POP JUMP JUMPDEST PUSH1 0x40 MLOAD DUP1 PUSH1 0x40 ADD PUSH1 0x40 MSTORE DUP1 PUSH1 0x60 DUP2 MSTORE PUSH1 0x20 ADD PUSH1 0x0 ISZERO ISZERO DUP2 MSTORE POP SWAP1 JUMP JUMPDEST PUSH1 0x40 MLOAD DUP1 PUSH1 0x40 ADD PUSH1 0x40 MSTORE DUP1 PUSH1 0x0 PUSH1 0x7 SIGNEXTEND DUP2 MSTORE PUSH1 0x20 ADD PUSH1 0x0 PUSH1 0x7 SIGNEXTEND DUP2 MSTORE POP SWAP1 JUMP JUMPDEST PUSH1 0x40 MLOAD DUP1 PUSH1 0x40 ADD PUSH1 0x40 MSTORE DUP1 PUSH2 0x39DA PUSH2 0x3A97 JUMP JUMPDEST DUP2 MSTORE PUSH1 0x20 ADD PUSH1 0x0 DUP2 MSTORE POP SWAP1 JUMP JUMPDEST PUSH1 0x40 MLOAD DUP1 PUSH1 0x40 ADD PUSH1 0x40 MSTORE DUP1 PUSH1 0x60 DUP2 MSTORE PUSH1 0x20 ADD PUSH1 0x60 DUP2 MSTORE POP SWAP1 JUMP JUMPDEST PUSH1 0x40 MLOAD DUP1 PUSH2 0x160 ADD PUSH1 0x40 MSTORE DUP1 PUSH2 0x3A15 PUSH2 0x3AF5 JUMP JUMPDEST DUP2 MSTORE PUSH1 0x20 ADD PUSH1 0x0 PUSH8 0xFFFFFFFFFFFFFFFF AND DUP2 MSTORE PUSH1 0x20 ADD PUSH1 0x0 ISZERO ISZERO DUP2 MSTORE PUSH1 0x20 ADD PUSH2 0x3A3C PUSH2 0x3B08 JUMP JUMPDEST DUP2 MSTORE PUSH1 0x20 ADD PUSH2 0x3A49 PUSH2 0x3B08 JUMP JUMPDEST DUP2 MSTORE PUSH1 0x20 ADD PUSH2 0x3A56 PUSH2 0x3B1B JUMP JUMPDEST DUP2 MSTORE PUSH1 0x20 ADD PUSH1 0x0 PUSH1 0x7 SIGNEXTEND DUP2 MSTORE PUSH1 0x20 ADD PUSH1 0x0 PUSH1 0x7 SIGNEXTEND DUP2 MSTORE PUSH1 0x20 ADD PUSH2 0x3A77 PUSH2 0x398B JUMP JUMPDEST DUP2 MSTORE PUSH1 0x20 ADD PUSH2 0x3A84 PUSH2 0x398B JUMP JUMPDEST DUP2 MSTORE PUSH1 0x20 ADD PUSH2 0x3A91 PUSH2 0x398B JUMP JUMPDEST DUP2 MSTORE POP SWAP1 JUMP JUMPDEST PUSH1 0x40 MLOAD DUP1 PUSH1 0x40 ADD PUSH1 0x40 MSTORE DUP1 PUSH1 0x60 DUP2 MSTORE PUSH1 0x20 ADD PUSH1 0x0 DUP2 MSTORE POP SWAP1 JUMP JUMPDEST PUSH1 0x40 MLOAD DUP1 PUSH1 0x40 ADD PUSH1 0x40 MSTORE DUP1 PUSH1 0x60 DUP2 MSTORE PUSH1 0x20 ADD PUSH1 0x0 PUSH8 0xFFFFFFFFFFFFFFFF AND DUP2 MSTORE POP SWAP1 JUMP JUMPDEST PUSH1 0x40 MLOAD DUP1 PUSH1 0x40 ADD PUSH1 0x40 MSTORE DUP1 PUSH2 0x3AE8 PUSH2 0x3A97 JUMP JUMPDEST DUP2 MSTORE PUSH1 0x20 ADD PUSH1 0x0 DUP2 MSTORE POP SWAP1 JUMP JUMPDEST PUSH1 0x40 MLOAD DUP1 PUSH1 0x20 ADD PUSH1 0x40 MSTORE DUP1 PUSH1 0x60 DUP2 MSTORE POP SWAP1 JUMP JUMPDEST PUSH1 0x40 MLOAD DUP1 PUSH1 0x20 ADD PUSH1 0x40 MSTORE DUP1 PUSH1 0x60 DUP2 MSTORE POP SWAP1 JUMP JUMPDEST PUSH1 0x40 MLOAD DUP1 PUSH1 0x40 ADD PUSH1 0x40 MSTORE DUP1 PUSH1 0x60 DUP2 MSTORE PUSH1 0x20 ADD PUSH1 0x0 ISZERO ISZERO DUP2 MSTORE POP SWAP1 JUMP JUMPDEST PUSH1 0x0 PUSH1 0x40 MLOAD SWAP1 POP SWAP1 JUMP JUMPDEST PUSH1 0x0 DUP1 REVERT JUMPDEST PUSH1 0x0 DUP1 REVERT JUMPDEST PUSH1 0x0 PUSH20 0xFFFFFFFFFFFFFFFFFFFFFFFFFFFFFFFFFFFFFFFF DUP3 AND SWAP1 POP SWAP2 SWAP1 POP JUMP JUMPDEST PUSH1 0x0 PUSH2 0x3B76 DUP3 PUSH2 0x3B4B JUMP JUMPDEST SWAP1 POP SWAP2 SWAP1 POP JUMP JUMPDEST PUSH2 0x3B86 DUP2 PUSH2 0x3B6B JUMP JUMPDEST DUP2 EQ PUSH2 0x3B91 JUMPI PUSH1 0x0 DUP1 REVERT JUMPDEST POP JUMP JUMPDEST PUSH1 0x0 DUP2 CALLDATALOAD SWAP1 POP PUSH2 0x3BA3 DUP2 PUSH2 0x3B7D JUMP JUMPDEST SWAP3 SWAP2 POP POP JUMP JUMPDEST PUSH1 0x0 DUP2 SWAP1 POP SWAP2 SWAP1 POP JUMP JUMPDEST PUSH2 0x3BBC DUP2 PUSH2 0x3BA9 JUMP JUMPDEST DUP2 EQ PUSH2 0x3BC7 JUMPI PUSH1 0x0 DUP1 REVERT JUMPDEST POP JUMP JUMPDEST PUSH1 0x0 DUP2 CALLDATALOAD SWAP1 POP PUSH2 0x3BD9 DUP2 PUSH2 0x3BB3 JUMP JUMPDEST SWAP3 SWAP2 POP POP JUMP JUMPDEST PUSH1 0x0 DUP1 PUSH1 0x40 DUP4 DUP6 SUB SLT ISZERO PUSH2 0x3BF6 JUMPI PUSH2 0x3BF5 PUSH2 0x3B41 JUMP JUMPDEST JUMPDEST PUSH1 0x0 PUSH2 0x3C04 DUP6 DUP3 DUP7 ADD PUSH2 0x3B94 JUMP JUMPDEST SWAP3 POP POP PUSH1 0x20 PUSH2 0x3C15 DUP6 DUP3 DUP7 ADD PUSH2 0x3BCA JUMP JUMPDEST SWAP2 POP POP SWAP3 POP SWAP3 SWAP1 POP JUMP JUMPDEST PUSH2 0x3C28 DUP2 PUSH2 0x3BA9 JUMP JUMPDEST DUP3 MSTORE POP POP JUMP JUMPDEST PUSH1 0x0 PUSH1 0x20 DUP3 ADD SWAP1 POP PUSH2 0x3C43 PUSH1 0x0 DUP4 ADD DUP5 PUSH2 0x3C1F JUMP JUMPDEST SWAP3 SWAP2 POP POP JUMP JUMPDEST PUSH1 0x0 DUP1 REVERT JUMPDEST PUSH1 0x0 PUSH2 0x180 DUP3 DUP5 SUB SLT ISZERO PUSH2 0x3C65 JUMPI PUSH2 0x3C64 PUSH2 0x3C49 JUMP JUMPDEST JUMPDEST DUP2 SWAP1 POP SWAP3 SWAP2 POP POP JUMP JUMPDEST PUSH1 0x0 PUSH1 0x20 DUP3 DUP5 SUB SLT ISZERO PUSH2 0x3C84 JUMPI PUSH2 0x3C83 PUSH2 0x3B41 JUMP JUMPDEST JUMPDEST PUSH1 0x0 DUP3 ADD CALLDATALOAD PUSH8 0xFFFFFFFFFFFFFFFF DUP2 GT ISZERO PUSH2 0x3CA2 JUMPI PUSH2 0x3CA1 PUSH2 0x3B46 JUMP JUMPDEST JUMPDEST PUSH2 0x3CAE DUP5 DUP3 DUP6 ADD PUSH2 0x3C4E JUMP JUMPDEST SWAP2 POP POP SWAP3 SWAP2 POP POP JUMP JUMPDEST PUSH1 0x0 DUP2 SWAP1 POP SWAP2 SWAP1 POP JUMP JUMPDEST PUSH2 0x3CCA DUP2 PUSH2 0x3CB7 JUMP JUMPDEST DUP3 MSTORE POP POP JUMP JUMPDEST PUSH1 0x0 PUSH1 0x20 DUP3 ADD SWAP1 POP PUSH2 0x3CE5 PUSH1 0x0 DUP4 ADD DUP5 PUSH2 0x3CC1 JUMP JUMPDEST SWAP3 SWAP2 POP POP JUMP JUMPDEST PUSH1 0x0 DUP1 REVERT JUMPDEST PUSH1 0x0 DUP1 REVERT JUMPDEST PUSH1 0x0 PUSH1 0x1F NOT PUSH1 0x1F DUP4 ADD AND SWAP1 POP SWAP2 SWAP1 POP JUMP JUMPDEST PUSH32 0x4E487B7100000000000000000000000000000000000000000000000000000000 PUSH1 0x0 MSTORE PUSH1 0x41 PUSH1 0x4 MSTORE PUSH1 0x24 PUSH1 0x0 REVERT JUMPDEST PUSH2 0x3D3E DUP3 PUSH2 0x3CF5 JUMP JUMPDEST DUP2 ADD DUP2 DUP2 LT PUSH8 0xFFFFFFFFFFFFFFFF DUP3 GT OR ISZERO PUSH2 0x3D5D JUMPI PUSH2 0x3D5C PUSH2 0x3D06 JUMP JUMPDEST JUMPDEST DUP1 PUSH1 0x40 MSTORE POP POP POP JUMP JUMPDEST PUSH1 0x0 PUSH2 0x3D70 PUSH2 0x3B37 JUMP JUMPDEST SWAP1 POP PUSH2 0x3D7C DUP3 DUP3 PUSH2 0x3D35 JUMP JUMPDEST SWAP2 SWAP1 POP JUMP JUMPDEST PUSH1 0x0 PUSH8 0xFFFFFFFFFFFFFFFF DUP3 GT ISZERO PUSH2 0x3D9C JUMPI PUSH2 0x3D9B PUSH2 0x3D06 JUMP JUMPDEST JUMPDEST PUSH2 0x3DA5 DUP3 PUSH2 0x3CF5 JUMP JUMPDEST SWAP1 POP PUSH1 0x20 DUP2 ADD SWAP1 POP SWAP2 SWAP1 POP JUMP JUMPDEST DUP3 DUP2 DUP4 CALLDATACOPY PUSH1 0x0 DUP4 DUP4 ADD MSTORE POP POP POP JUMP JUMPDEST PUSH1 0x0 PUSH2 0x3DD4 PUSH2 0x3DCF DUP5 PUSH2 0x3D81 JUMP JUMPDEST PUSH2 0x3D66 JUMP JUMPDEST SWAP1 POP DUP3 DUP2 MSTORE PUSH1 0x20 DUP2 ADD DUP5 DUP5 DUP5 ADD GT ISZERO PUSH2 0x3DF0 JUMPI PUSH2 0x3DEF PUSH2 0x3CF0 JUMP JUMPDEST JUMPDEST PUSH2 0x3DFB DUP5 DUP3 DUP6 PUSH2 0x3DB2 JUMP JUMPDEST POP SWAP4 SWAP3 POP POP POP JUMP JUMPDEST PUSH1 0x0 DUP3 PUSH1 0x1F DUP4 ADD SLT PUSH2 0x3E18 JUMPI PUSH2 0x3E17 PUSH2 0x3CEB JUMP JUMPDEST JUMPDEST DUP2 CALLDATALOAD PUSH2 0x3E28 DUP5 DUP3 PUSH1 0x20 DUP7 ADD PUSH2 0x3DC1 JUMP JUMPDEST SWAP2 POP POP SWAP3 SWAP2 POP POP JUMP JUMPDEST PUSH1 0x0 PUSH1 0x20 DUP3 DUP5 SUB SLT ISZERO PUSH2 0x3E47 JUMPI PUSH2 0x3E46 PUSH2 0x3B41 JUMP JUMPDEST JUMPDEST PUSH1 0x0 DUP3 ADD CALLDATALOAD PUSH8 0xFFFFFFFFFFFFFFFF DUP2 GT ISZERO PUSH2 0x3E65 JUMPI PUSH2 0x3E64 PUSH2 0x3B46 JUMP JUMPDEST JUMPDEST PUSH2 0x3E71 DUP5 DUP3 DUP6 ADD PUSH2 0x3E03 JUMP JUMPDEST SWAP2 POP POP SWAP3 SWAP2 POP POP JUMP JUMPDEST PUSH1 0x0 PUSH1 0x20 DUP3 DUP5 SUB SLT ISZERO PUSH2 0x3E90 JUMPI PUSH2 0x3E8F PUSH2 0x3B41 JUMP JUMPDEST JUMPDEST PUSH1 0x0 PUSH2 0x3E9E DUP5 DUP3 DUP6 ADD PUSH2 0x3B94 JUMP JUMPDEST SWAP2 POP POP SWAP3 SWAP2 POP POP JUMP JUMPDEST PUSH1 0x0 PUSH8 0xFFFFFFFFFFFFFFFF DUP3 AND SWAP1 POP SWAP2 SWAP1 POP JUMP JUMPDEST PUSH2 0x3EC4 DUP2 PUSH2 0x3EA7 JUMP JUMPDEST DUP2 EQ PUSH2 0x3ECF JUMPI PUSH1 0x0 DUP1 REVERT JUMPDEST POP JUMP JUMPDEST PUSH1 0x0 DUP2 CALLDATALOAD SWAP1 POP PUSH2 0x3EE1 DUP2 PUSH2 0x3EBB JUMP JUMPDEST SWAP3 SWAP2 POP POP JUMP JUMPDEST PUSH1 0x0 DUP1 PUSH1 0x0 PUSH1 0x60 DUP5 DUP7 SUB SLT ISZERO PUSH2 0x3F00 JUMPI PUSH2 0x3EFF PUSH2 0x3B41 JUMP JUMPDEST JUMPDEST PUSH1 0x0 PUSH2 0x3F0E DUP7 DUP3 DUP8 ADD PUSH2 0x3ED2 JUMP JUMPDEST SWAP4 POP POP PUSH1 0x20 PUSH2 0x3F1F DUP7 DUP3 DUP8 ADD PUSH2 0x3ED2 JUMP JUMPDEST SWAP3 POP POP PUSH1 0x40 DUP5 ADD CALLDATALOAD PUSH8 0xFFFFFFFFFFFFFFFF DUP2 GT ISZERO PUSH2 0x3F40 JUMPI PUSH2 0x3F3F PUSH2 0x3B46 JUMP JUMPDEST JUMPDEST PUSH2 0x3F4C DUP7 DUP3 DUP8 ADD PUSH2 0x3E03 JUMP JUMPDEST SWAP2 POP POP SWAP3 POP SWAP3 POP SWAP3 JUMP JUMPDEST PUSH1 0x0 PUSH4 0xFFFFFFFF DUP3 AND SWAP1 POP SWAP2 SWAP1 POP JUMP JUMPDEST PUSH2 0x3F6F DUP2 PUSH2 0x3F56 JUMP JUMPDEST DUP3 MSTORE POP POP JUMP JUMPDEST PUSH2 0x3F7E DUP2 PUSH2 0x3EA7 JUMP JUMPDEST DUP3 MSTORE POP POP JUMP JUMPDEST PUSH1 0x0 DUP2 MLOAD SWAP1 POP SWAP2 SWAP1 POP JUMP JUMPDEST PUSH1 0x0 DUP3 DUP3 MSTORE PUSH1 0x20 DUP3 ADD SWAP1 POP SWAP3 SWAP2 POP POP JUMP JUMPDEST PUSH1 0x0 JUMPDEST DUP4 DUP2 LT ISZERO PUSH2 0x3FBE JUMPI DUP1 DUP3 ADD MLOAD DUP2 DUP5 ADD MSTORE PUSH1 0x20 DUP2 ADD SWAP1 POP PUSH2 0x3FA3 JUMP JUMPDEST PUSH1 0x0 DUP5 DUP5 ADD MSTORE POP POP POP POP JUMP JUMPDEST PUSH1 0x0 PUSH2 0x3FD5 DUP3 PUSH2 0x3F84 JUMP JUMPDEST PUSH2 0x3FDF DUP2 DUP6 PUSH2 0x3F8F JUMP JUMPDEST SWAP4 POP PUSH2 0x3FEF DUP2 DUP6 PUSH1 0x20 DUP7 ADD PUSH2 0x3FA0 JUMP JUMPDEST PUSH2 0x3FF8 DUP2 PUSH2 0x3CF5 JUMP JUMPDEST DUP5 ADD SWAP2 POP POP SWAP3 SWAP2 POP POP JUMP JUMPDEST PUSH1 0x0 PUSH1 0x60 DUP3 ADD SWAP1 POP PUSH2 0x4018 PUSH1 0x0 DUP4 ADD DUP7 PUSH2 0x3F66 JUMP JUMPDEST PUSH2 0x4025 PUSH1 0x20 DUP4 ADD DUP6 PUSH2 0x3F75 JUMP JUMPDEST DUP2 DUP2 SUB PUSH1 0x40 DUP4 ADD MSTORE PUSH2 0x4037 DUP2 DUP5 PUSH2 0x3FCA JUMP JUMPDEST SWAP1 POP SWAP5 SWAP4 POP POP POP POP JUMP JUMPDEST PUSH1 0x0 DUP2 SWAP1 POP SWAP2 SWAP1 POP JUMP JUMPDEST PUSH1 0x0 PUSH2 0x4066 PUSH2 0x4061 PUSH2 0x405C DUP5 PUSH2 0x3B4B JUMP JUMPDEST PUSH2 0x4041 JUMP JUMPDEST PUSH2 0x3B4B JUMP JUMPDEST SWAP1 POP SWAP2 SWAP1 POP JUMP JUMPDEST PUSH1 0x0 PUSH2 0x4078 DUP3 PUSH2 0x404B JUMP JUMPDEST SWAP1 POP SWAP2 SWAP1 POP JUMP JUMPDEST PUSH1 0x0 PUSH2 0x408A DUP3 PUSH2 0x406D JUMP JUMPDEST SWAP1 POP SWAP2 SWAP1 POP JUMP JUMPDEST PUSH2 0x409A DUP2 PUSH2 0x407F JUMP JUMPDEST DUP3 MSTORE POP POP JUMP JUMPDEST PUSH1 0x0 PUSH1 0x20 DUP3 ADD SWAP1 POP PUSH2 0x40B5 PUSH1 0x0 DUP4 ADD DUP5 PUSH2 0x4091 JUMP JUMPDEST SWAP3 SWAP2 POP POP JUMP JUMPDEST PUSH1 0x0 PUSH2 0x40C6 DUP3 PUSH2 0x3B6B JUMP JUMPDEST SWAP1 POP SWAP2 SWAP1 POP JUMP JUMPDEST PUSH2 0x40D6 DUP2 PUSH2 0x40BB JUMP JUMPDEST DUP2 EQ PUSH2 0x40E1 JUMPI PUSH1 0x0 DUP1 REVERT JUMPDEST POP JUMP JUMPDEST PUSH1 0x0 DUP2 CALLDATALOAD SWAP1 POP PUSH2 0x40F3 DUP2 PUSH2 0x40CD JUMP JUMPDEST SWAP3 SWAP2 POP POP JUMP JUMPDEST PUSH1 0x0 PUSH1 0x20 DUP3 DUP5 SUB SLT ISZERO PUSH2 0x410F JUMPI PUSH2 0x410E PUSH2 0x3B41 JUMP JUMPDEST JUMPDEST PUSH1 0x0 PUSH2 0x411D DUP5 DUP3 DUP6 ADD PUSH2 0x40E4 JUMP JUMPDEST SWAP2 POP POP SWAP3 SWAP2 POP POP JUMP JUMPDEST PUSH2 0x412F DUP2 PUSH2 0x3B6B JUMP JUMPDEST DUP3 MSTORE POP POP JUMP JUMPDEST PUSH1 0x0 PUSH1 0x20 DUP3 ADD SWAP1 POP PUSH2 0x414A PUSH1 0x0 DUP4 ADD DUP5 PUSH2 0x4126 JUMP JUMPDEST SWAP3 SWAP2 POP POP JUMP JUMPDEST PUSH1 0x0 DUP1 REVERT JUMPDEST PUSH1 0x0 DUP1 REVERT JUMPDEST PUSH1 0x0 PUSH2 0x416D PUSH2 0x4168 DUP5 PUSH2 0x3D81 JUMP JUMPDEST PUSH2 0x3D66 JUMP JUMPDEST SWAP1 POP DUP3 DUP2 MSTORE PUSH1 0x20 DUP2 ADD DUP5 DUP5 DUP5 ADD GT ISZERO PUSH2 0x4189 JUMPI PUSH2 0x4188 PUSH2 0x3CF0 JUMP JUMPDEST JUMPDEST PUSH2 0x4194 DUP5 DUP3 DUP6 PUSH2 0x3FA0 JUMP JUMPDEST POP SWAP4 SWAP3 POP POP POP JUMP JUMPDEST PUSH1 0x0 DUP3 PUSH1 0x1F DUP4 ADD SLT PUSH2 0x41B1 JUMPI PUSH2 0x41B0 PUSH2 0x3CEB JUMP JUMPDEST JUMPDEST DUP2 MLOAD PUSH2 0x41C1 DUP5 DUP3 PUSH1 0x20 DUP7 ADD PUSH2 0x415A JUMP JUMPDEST SWAP2 POP POP SWAP3 SWAP2 POP POP JUMP JUMPDEST PUSH1 0x0 PUSH1 0x20 DUP3 DUP5 SUB SLT ISZERO PUSH2 0x41E0 JUMPI PUSH2 0x41DF PUSH2 0x4150 JUMP JUMPDEST JUMPDEST PUSH2 0x41EA PUSH1 0x20 PUSH2 0x3D66 JUMP JUMPDEST SWAP1 POP PUSH1 0x0 DUP3 ADD MLOAD PUSH8 0xFFFFFFFFFFFFFFFF DUP2 GT ISZERO PUSH2 0x420A JUMPI PUSH2 0x4209 PUSH2 0x4155 JUMP JUMPDEST JUMPDEST PUSH2 0x4216 DUP5 DUP3 DUP6 ADD PUSH2 0x419C JUMP JUMPDEST PUSH1 0x0 DUP4 ADD MSTORE POP SWAP3 SWAP2 POP POP JUMP JUMPDEST PUSH1 0x0 PUSH1 0x20 DUP3 DUP5 SUB SLT ISZERO PUSH2 0x4238 JUMPI PUSH2 0x4237 PUSH2 0x3B41 JUMP JUMPDEST JUMPDEST PUSH1 0x0 DUP3 ADD MLOAD PUSH8 0xFFFFFFFFFFFFFFFF DUP2 GT ISZERO PUSH2 0x4256 JUMPI PUSH2 0x4255 PUSH2 0x3B46 JUMP JUMPDEST JUMPDEST PUSH2 0x4262 DUP5 DUP3 DUP6 ADD PUSH2 0x41CA JUMP JUMPDEST SWAP2 POP POP SWAP3 SWAP2 POP POP JUMP JUMPDEST PUSH2 0x4274 DUP2 PUSH2 0x3BA9 JUMP JUMPDEST DUP3 MSTORE POP POP JUMP JUMPDEST PUSH1 0x0 PUSH1 0x20 DUP3 ADD SWAP1 POP PUSH2 0x428F PUSH1 0x0 DUP4 ADD DUP5 PUSH2 0x426B JUMP JUMPDEST SWAP3 SWAP2 POP POP JUMP JUMPDEST PUSH1 0x0 DUP2 ISZERO ISZERO SWAP1 POP SWAP2 SWAP1 POP JUMP JUMPDEST PUSH2 0x42AA DUP2 PUSH2 0x4295 JUMP JUMPDEST DUP2 EQ PUSH2 0x42B5 JUMPI PUSH1 0x0 DUP1 REVERT JUMPDEST POP JUMP JUMPDEST PUSH1 0x0 DUP2 MLOAD SWAP1 POP PUSH2 0x42C7 DUP2 PUSH2 0x42A1 JUMP JUMPDEST SWAP3 SWAP2 POP POP JUMP JUMPDEST PUSH1 0x0 PUSH1 0x40 DUP3 DUP5 SUB SLT ISZERO PUSH2 0x42E3 JUMPI PUSH2 0x42E2 PUSH2 0x4150 JUMP JUMPDEST JUMPDEST PUSH2 0x42ED PUSH1 0x40 PUSH2 0x3D66 JUMP JUMPDEST SWAP1 POP PUSH1 0x0 DUP3 ADD MLOAD PUSH8 0xFFFFFFFFFFFFFFFF DUP2 GT ISZERO PUSH2 0x430D JUMPI PUSH2 0x430C PUSH2 0x4155 JUMP JUMPDEST JUMPDEST PUSH2 0x4319 DUP5 DUP3 DUP6 ADD PUSH2 0x419C JUMP JUMPDEST PUSH1 0x0 DUP4 ADD MSTORE POP PUSH1 0x20 PUSH2 0x432D DUP5 DUP3 DUP6 ADD PUSH2 0x42B8 JUMP JUMPDEST PUSH1 0x20 DUP4 ADD MSTORE POP SWAP3 SWAP2 POP POP JUMP JUMPDEST PUSH1 0x0 PUSH1 0x20 DUP3 DUP5 SUB SLT ISZERO PUSH2 0x434F JUMPI PUSH2 0x434E PUSH2 0x3B41 JUMP JUMPDEST JUMPDEST PUSH1 0x0 DUP3 ADD MLOAD PUSH8 0xFFFFFFFFFFFFFFFF DUP2 GT ISZERO PUSH2 0x436D JUMPI PUSH2 0x436C PUSH2 0x3B46 JUMP JUMPDEST JUMPDEST PUSH2 0x4379 DUP5 DUP3 DUP6 ADD PUSH2 0x42CD JUMP JUMPDEST SWAP2 POP POP SWAP3 SWAP2 POP POP JUMP JUMPDEST PUSH1 0x0 DUP2 SWAP1 POP SWAP3 SWAP2 POP POP JUMP JUMPDEST POP JUMP JUMPDEST PUSH1 0x0 PUSH2 0x439D PUSH1 0x0 DUP4 PUSH2 0x4382 JUMP JUMPDEST SWAP2 POP PUSH2 0x43A8 DUP3 PUSH2 0x438D JUMP JUMPDEST PUSH1 0x0 DUP3 ADD SWAP1 POP SWAP2 SWAP1 POP JUMP JUMPDEST PUSH1 0x0 PUSH2 0x43BE DUP3 PUSH2 0x4390 JUMP JUMPDEST SWAP2 POP DUP2 SWAP1 POP SWAP2 SWAP1 POP JUMP JUMPDEST PUSH1 0x0 DUP3 DUP3 MSTORE PUSH1 0x20 DUP3 ADD SWAP1 POP SWAP3 SWAP2 POP POP JUMP JUMPDEST PUSH1 0x0 PUSH2 0x43E4 DUP3 PUSH2 0x3F84 JUMP JUMPDEST PUSH2 0x43EE DUP2 DUP6 PUSH2 0x43C8 JUMP JUMPDEST SWAP4 POP PUSH2 0x43FE DUP2 DUP6 PUSH1 0x20 DUP7 ADD PUSH2 0x3FA0 JUMP JUMPDEST PUSH2 0x4407 DUP2 PUSH2 0x3CF5 JUMP JUMPDEST DUP5 ADD SWAP2 POP POP SWAP3 SWAP2 POP POP JUMP JUMPDEST PUSH2 0x441B DUP2 PUSH2 0x4295 JUMP JUMPDEST DUP3 MSTORE POP POP JUMP JUMPDEST PUSH1 0x0 PUSH1 0x40 DUP4 ADD PUSH1 0x0 DUP4 ADD MLOAD DUP5 DUP3 SUB PUSH1 0x0 DUP7 ADD MSTORE PUSH2 0x443E DUP3 DUP3 PUSH2 0x43D9 JUMP JUMPDEST SWAP2 POP POP PUSH1 0x20 DUP4 ADD MLOAD PUSH2 0x4453 PUSH1 0x20 DUP7 ADD DUP3 PUSH2 0x4412 JUMP JUMPDEST POP DUP1 SWAP2 POP POP SWAP3 SWAP2 POP POP JUMP JUMPDEST PUSH1 0x0 PUSH1 0x20 DUP3 ADD SWAP1 POP DUP2 DUP2 SUB PUSH1 0x0 DUP4 ADD MSTORE PUSH2 0x4478 DUP2 DUP5 PUSH2 0x4421 JUMP JUMPDEST SWAP1 POP SWAP3 SWAP2 POP POP JUMP JUMPDEST PUSH1 0x0 DUP2 MLOAD SWAP1 POP PUSH2 0x448F DUP2 PUSH2 0x3BB3 JUMP JUMPDEST SWAP3 SWAP2 POP POP JUMP JUMPDEST PUSH1 0x0 PUSH1 0x20 DUP3 DUP5 SUB SLT ISZERO PUSH2 0x44AB JUMPI PUSH2 0x44AA PUSH2 0x3B41 JUMP JUMPDEST JUMPDEST PUSH1 0x0 PUSH2 0x44B9 DUP5 DUP3 DUP6 ADD PUSH2 0x4480 JUMP JUMPDEST SWAP2 POP POP SWAP3 SWAP2 POP POP JUMP JUMPDEST PUSH32 0x4E487B7100000000000000000000000000000000000000000000000000000000 PUSH1 0x0 MSTORE PUSH1 0x21 PUSH1 0x4 MSTORE PUSH1 0x24 PUSH1 0x0 REVERT JUMPDEST PUSH1 0x0 DUP1 REVERT JUMPDEST PUSH1 0x0 DUP1 REVERT JUMPDEST PUSH1 0x0 DUP1 REVERT JUMPDEST PUSH1 0x0 DUP1 DUP4 CALLDATALOAD PUSH1 0x1 PUSH1 0x20 SUB DUP5 CALLDATASIZE SUB SUB DUP2 SLT PUSH2 0x451D JUMPI PUSH2 0x451C PUSH2 0x44F1 JUMP JUMPDEST JUMPDEST DUP1 DUP5 ADD SWAP3 POP DUP3 CALLDATALOAD SWAP2 POP PUSH8 0xFFFFFFFFFFFFFFFF DUP3 GT ISZERO PUSH2 0x453F JUMPI PUSH2 0x453E PUSH2 0x44F6 JUMP JUMPDEST JUMPDEST PUSH1 0x20 DUP4 ADD SWAP3 POP PUSH1 0x1 DUP3 MUL CALLDATASIZE SUB DUP4 SGT ISZERO PUSH2 0x455B JUMPI PUSH2 0x455A PUSH2 0x44FB JUMP JUMPDEST JUMPDEST POP SWAP3 POP SWAP3 SWAP1 POP JUMP JUMPDEST PUSH1 0x0 PUSH2 0x456F DUP4 DUP6 PUSH2 0x3F8F JUMP JUMPDEST SWAP4 POP PUSH2 0x457C DUP4 DUP6 DUP5 PUSH2 0x3DB2 JUMP JUMPDEST PUSH2 0x4585 DUP4 PUSH2 0x3CF5 JUMP JUMPDEST DUP5 ADD SWAP1 POP SWAP4 SWAP3 POP POP POP JUMP JUMPDEST PUSH1 0x0 PUSH1 0x20 DUP3 ADD SWAP1 POP DUP2 DUP2 SUB PUSH1 0x0 DUP4 ADD MSTORE PUSH2 0x45AB DUP2 DUP5 DUP7 PUSH2 0x4563 JUMP JUMPDEST SWAP1 POP SWAP4 SWAP3 POP POP POP JUMP JUMPDEST PUSH1 0x5 DUP2 LT PUSH2 0x45C1 JUMPI PUSH1 0x0 DUP1 REVERT JUMPDEST POP JUMP JUMPDEST PUSH1 0x0 DUP2 MLOAD SWAP1 POP PUSH2 0x45D3 DUP2 PUSH2 0x45B4 JUMP JUMPDEST SWAP3 SWAP2 POP POP JUMP JUMPDEST PUSH1 0x0 PUSH1 0x20 DUP3 DUP5 SUB SLT ISZERO PUSH2 0x45EF JUMPI PUSH2 0x45EE PUSH2 0x3B41 JUMP JUMPDEST JUMPDEST PUSH1 0x0 PUSH2 0x45FD DUP5 DUP3 DUP6 ADD PUSH2 0x45C4 JUMP JUMPDEST SWAP2 POP POP SWAP3 SWAP2 POP POP JUMP JUMPDEST PUSH1 0x0 DUP1 REVERT JUMPDEST PUSH1 0x0 DUP1 REVERT JUMPDEST PUSH1 0x0 DUP1 REVERT JUMPDEST PUSH1 0x0 DUP1 DUP4 CALLDATALOAD PUSH1 0x1 PUSH1 0x20 SUB DUP5 CALLDATASIZE SUB SUB DUP2 SLT PUSH2 0x4632 JUMPI PUSH2 0x4631 PUSH2 0x4610 JUMP JUMPDEST JUMPDEST DUP4 DUP2 ADD SWAP3 POP DUP3 CALLDATALOAD SWAP2 POP PUSH1 0x20 DUP4 ADD SWAP3 POP PUSH8 0xFFFFFFFFFFFFFFFF DUP3 GT ISZERO PUSH2 0x465A JUMPI PUSH2 0x4659 PUSH2 0x4606 JUMP JUMPDEST JUMPDEST PUSH1 0x1 DUP3 MUL CALLDATASIZE SUB DUP4 SGT ISZERO PUSH2 0x4670 JUMPI PUSH2 0x466F PUSH2 0x460B JUMP JUMPDEST JUMPDEST POP SWAP3 POP SWAP3 SWAP1 POP JUMP JUMPDEST PUSH1 0x0 DUP3 DUP3 MSTORE PUSH1 0x20 DUP3 ADD SWAP1 POP SWAP3 SWAP2 POP POP JUMP JUMPDEST PUSH1 0x0 PUSH2 0x4695 DUP4 DUP6 PUSH2 0x4678 JUMP JUMPDEST SWAP4 POP PUSH2 0x46A2 DUP4 DUP6 DUP5 PUSH2 0x3DB2 JUMP JUMPDEST PUSH2 0x46AB DUP4 PUSH2 0x3CF5 JUMP JUMPDEST DUP5 ADD SWAP1 POP SWAP4 SWAP3 POP POP POP JUMP JUMPDEST PUSH1 0x0 PUSH2 0x46C5 PUSH1 0x20 DUP5 ADD DUP5 PUSH2 0x3ED2 JUMP JUMPDEST SWAP1 POP SWAP3 SWAP2 POP POP JUMP JUMPDEST PUSH2 0x46D6 DUP2 PUSH2 0x3EA7 JUMP JUMPDEST DUP3 MSTORE POP POP JUMP JUMPDEST PUSH1 0x0 DUP2 CALLDATALOAD SWAP1 POP PUSH2 0x46EB DUP2 PUSH2 0x42A1 JUMP JUMPDEST SWAP3 SWAP2 POP POP JUMP JUMPDEST PUSH1 0x0 PUSH2 0x4700 PUSH1 0x20 DUP5 ADD DUP5 PUSH2 0x46DC JUMP JUMPDEST SWAP1 POP SWAP3 SWAP2 POP POP JUMP JUMPDEST PUSH2 0x4711 DUP2 PUSH2 0x4295 JUMP JUMPDEST DUP3 MSTORE POP POP JUMP JUMPDEST PUSH1 0x0 DUP1 DUP4 CALLDATALOAD PUSH1 0x1 PUSH1 0x20 SUB DUP5 CALLDATASIZE SUB SUB DUP2 SLT PUSH2 0x4734 JUMPI PUSH2 0x4733 PUSH2 0x4610 JUMP JUMPDEST JUMPDEST DUP4 DUP2 ADD SWAP3 POP DUP3 CALLDATALOAD SWAP2 POP PUSH1 0x20 DUP4 ADD SWAP3 POP PUSH8 0xFFFFFFFFFFFFFFFF DUP3 GT ISZERO PUSH2 0x475C JUMPI PUSH2 0x475B PUSH2 0x4606 JUMP JUMPDEST JUMPDEST PUSH1 0x1 DUP3 MUL CALLDATASIZE SUB DUP4 SGT ISZERO PUSH2 0x4772 JUMPI PUSH2 0x4771 PUSH2 0x460B JUMP JUMPDEST JUMPDEST POP SWAP3 POP SWAP3 SWAP1 POP JUMP JUMPDEST PUSH1 0x0 DUP3 DUP3 MSTORE PUSH1 0x20 DUP3 ADD SWAP1 POP SWAP3 SWAP2 POP POP JUMP JUMPDEST PUSH1 0x0 PUSH2 0x4797 DUP4 DUP6 PUSH2 0x477A JUMP JUMPDEST SWAP4 POP PUSH2 0x47A4 DUP4 DUP6 DUP5 PUSH2 0x3DB2 JUMP JUMPDEST PUSH2 0x47AD DUP4 PUSH2 0x3CF5 JUMP JUMPDEST DUP5 ADD SWAP1 POP SWAP4 SWAP3 POP POP POP JUMP JUMPDEST PUSH1 0x0 DUP2 PUSH1 0x7 SIGNEXTEND SWAP1 POP SWAP2 SWAP1 POP JUMP JUMPDEST PUSH2 0x47CE DUP2 PUSH2 0x47B8 JUMP JUMPDEST DUP2 EQ PUSH2 0x47D9 JUMPI PUSH1 0x0 DUP1 REVERT JUMPDEST POP JUMP JUMPDEST PUSH1 0x0 DUP2 CALLDATALOAD SWAP1 POP PUSH2 0x47EB DUP2 PUSH2 0x47C5 JUMP JUMPDEST SWAP3 SWAP2 POP POP JUMP JUMPDEST PUSH1 0x0 PUSH2 0x4800 PUSH1 0x20 DUP5 ADD DUP5 PUSH2 0x47DC JUMP JUMPDEST SWAP1 POP SWAP3 SWAP2 POP POP JUMP JUMPDEST PUSH2 0x4811 DUP2 PUSH2 0x47B8 JUMP JUMPDEST DUP3 MSTORE POP POP JUMP JUMPDEST PUSH1 0x0 PUSH2 0x4826 PUSH1 0x20 DUP5 ADD DUP5 PUSH2 0x3BCA JUMP JUMPDEST SWAP1 POP SWAP3 SWAP2 POP POP JUMP JUMPDEST PUSH2 0x4837 DUP2 PUSH2 0x3BA9 JUMP JUMPDEST DUP3 MSTORE POP POP JUMP JUMPDEST PUSH1 0x0 DUP3 CALLDATALOAD PUSH1 0x1 PUSH1 0x80 SUB DUP4 CALLDATASIZE SUB SUB DUP2 SLT PUSH2 0x4859 JUMPI PUSH2 0x4858 PUSH2 0x4610 JUMP JUMPDEST JUMPDEST DUP3 DUP2 ADD SWAP2 POP POP SWAP3 SWAP2 POP POP JUMP JUMPDEST PUSH1 0x0 PUSH1 0x80 DUP4 ADD PUSH2 0x4878 PUSH1 0x0 DUP5 ADD DUP5 PUSH2 0x4717 JUMP JUMPDEST DUP6 DUP4 SUB PUSH1 0x0 DUP8 ADD MSTORE PUSH2 0x488B DUP4 DUP3 DUP5 PUSH2 0x478B JUMP JUMPDEST SWAP3 POP POP POP PUSH2 0x489C PUSH1 0x20 DUP5 ADD DUP5 PUSH2 0x46B6 JUMP JUMPDEST PUSH2 0x48A9 PUSH1 0x20 DUP7 ADD DUP3 PUSH2 0x46CD JUMP JUMPDEST POP PUSH2 0x48B7 PUSH1 0x40 DUP5 ADD DUP5 PUSH2 0x46F1 JUMP JUMPDEST PUSH2 0x48C4 PUSH1 0x40 DUP7 ADD DUP3 PUSH2 0x4708 JUMP JUMPDEST POP PUSH2 0x48D2 PUSH1 0x60 DUP5 ADD DUP5 PUSH2 0x46F1 JUMP JUMPDEST PUSH2 0x48DF PUSH1 0x60 DUP7 ADD DUP3 PUSH2 0x4708 JUMP JUMPDEST POP DUP1 SWAP2 POP POP SWAP3 SWAP2 POP POP JUMP JUMPDEST PUSH1 0x0 PUSH2 0x180 DUP4 ADD PUSH2 0x48FE PUSH1 0x0 DUP5 ADD DUP5 PUSH2 0x4615 JUMP JUMPDEST DUP6 DUP4 SUB PUSH1 0x0 DUP8 ADD MSTORE PUSH2 0x4911 DUP4 DUP3 DUP5 PUSH2 0x4689 JUMP JUMPDEST SWAP3 POP POP POP PUSH2 0x4922 PUSH1 0x20 DUP5 ADD DUP5 PUSH2 0x46B6 JUMP JUMPDEST PUSH2 0x492F PUSH1 0x20 DUP7 ADD DUP3 PUSH2 0x46CD JUMP JUMPDEST POP PUSH2 0x493D PUSH1 0x40 DUP5 ADD DUP5 PUSH2 0x46F1 JUMP JUMPDEST PUSH2 0x494A PUSH1 0x40 DUP7 ADD DUP3 PUSH2 0x4708 JUMP JUMPDEST POP PUSH2 0x4958 PUSH1 0x60 DUP5 ADD DUP5 PUSH2 0x4717 JUMP JUMPDEST DUP6 DUP4 SUB PUSH1 0x60 DUP8 ADD MSTORE PUSH2 0x496B DUP4 DUP3 DUP5 PUSH2 0x478B JUMP JUMPDEST SWAP3 POP POP POP PUSH2 0x497C PUSH1 0x80 DUP5 ADD DUP5 PUSH2 0x47F1 JUMP JUMPDEST PUSH2 0x4989 PUSH1 0x80 DUP7 ADD DUP3 PUSH2 0x4808 JUMP JUMPDEST POP PUSH2 0x4997 PUSH1 0xA0 DUP5 ADD DUP5 PUSH2 0x47F1 JUMP JUMPDEST PUSH2 0x49A4 PUSH1 0xA0 DUP7 ADD DUP3 PUSH2 0x4808 JUMP JUMPDEST POP PUSH2 0x49B2 PUSH1 0xC0 DUP5 ADD DUP5 PUSH2 0x4817 JUMP JUMPDEST PUSH2 0x49BF PUSH1 0xC0 DUP7 ADD DUP3 PUSH2 0x482E JUMP JUMPDEST POP PUSH2 0x49CD PUSH1 0xE0 DUP5 ADD DUP5 PUSH2 0x4817 JUMP JUMPDEST PUSH2 0x49DA PUSH1 0xE0 DUP7 ADD DUP3 PUSH2 0x482E JUMP JUMPDEST POP PUSH2 0x49E9 PUSH2 0x100 DUP5 ADD DUP5 PUSH2 0x4817 JUMP JUMPDEST PUSH2 0x49F7 PUSH2 0x100 DUP7 ADD DUP3 PUSH2 0x482E JUMP JUMPDEST POP PUSH2 0x4A06 PUSH2 0x120 DUP5 ADD DUP5 PUSH2 0x4717 JUMP JUMPDEST DUP6 DUP4 SUB PUSH2 0x120 DUP8 ADD MSTORE PUSH2 0x4A1A DUP4 DUP3 DUP5 PUSH2 0x478B JUMP JUMPDEST SWAP3 POP POP POP PUSH2 0x4A2C PUSH2 0x140 DUP5 ADD DUP5 PUSH2 0x46B6 JUMP JUMPDEST PUSH2 0x4A3A PUSH2 0x140 DUP7 ADD DUP3 PUSH2 0x46CD JUMP JUMPDEST POP PUSH2 0x4A49 PUSH2 0x160 DUP5 ADD DUP5 PUSH2 0x483D JUMP JUMPDEST DUP5 DUP3 SUB PUSH2 0x160 DUP7 ADD MSTORE PUSH2 0x4A5C DUP3 DUP3 PUSH2 0x4865 JUMP JUMPDEST SWAP2 POP POP DUP1 SWAP2 POP POP SWAP3 SWAP2 POP POP JUMP JUMPDEST PUSH1 0x0 PUSH1 0x20 DUP3 ADD SWAP1 POP DUP2 DUP2 SUB PUSH1 0x0 DUP4 ADD MSTORE PUSH2 0x4A83 DUP2 DUP5 PUSH2 0x48EA JUMP JUMPDEST SWAP1 POP SWAP3 SWAP2 POP POP JUMP JUMPDEST PUSH1 0x0 DUP2 SWAP1 POP SWAP2 SWAP1 POP JUMP JUMPDEST PUSH2 0x4AA6 PUSH2 0x4AA1 DUP3 PUSH2 0x3BA9 JUMP JUMPDEST PUSH2 0x4A8B JUMP JUMPDEST DUP3 MSTORE POP POP JUMP JUMPDEST PUSH1 0x0 DUP2 PUSH1 0x60 SHL SWAP1 POP SWAP2 SWAP1 POP JUMP JUMPDEST PUSH1 0x0 PUSH2 0x4AC4 DUP3 PUSH2 0x4AAC JUMP JUMPDEST SWAP1 POP SWAP2 SWAP1 POP JUMP JUMPDEST PUSH1 0x0 PUSH2 0x4AD6 DUP3 PUSH2 0x4AB9 JUMP JUMPDEST SWAP1 POP SWAP2 SWAP1 POP JUMP JUMPDEST PUSH2 0x4AEE PUSH2 0x4AE9 DUP3 PUSH2 0x3B6B JUMP JUMPDEST PUSH2 0x4ACB JUMP JUMPDEST DUP3 MSTORE POP POP JUMP JUMPDEST PUSH1 0x0 PUSH2 0x4B00 DUP3 DUP7 PUSH2 0x4A95 JUMP JUMPDEST PUSH1 0x20 DUP3 ADD SWAP2 POP PUSH2 0x4B10 DUP3 DUP6 PUSH2 0x4ADD JUMP JUMPDEST PUSH1 0x14 DUP3 ADD SWAP2 POP PUSH2 0x4B20 DUP3 DUP5 PUSH2 0x4A95 JUMP JUMPDEST PUSH1 0x20 DUP3 ADD SWAP2 POP DUP2 SWAP1 POP SWAP5 SWAP4 POP POP POP POP JUMP JUMPDEST PUSH2 0x4B3A DUP2 PUSH2 0x3B6B JUMP JUMPDEST DUP3 MSTORE POP POP JUMP JUMPDEST PUSH1 0x0 PUSH1 0x60 DUP3 ADD SWAP1 POP PUSH2 0x4B55 PUSH1 0x0 DUP4 ADD DUP7 PUSH2 0x3CC1 JUMP JUMPDEST PUSH2 0x4B62 PUSH1 0x20 DUP4 ADD DUP6 PUSH2 0x3C1F JUMP JUMPDEST PUSH2 0x4B6F PUSH1 0x40 DUP4 ADD DUP5 PUSH2 0x4B31 JUMP JUMPDEST SWAP5 SWAP4 POP POP POP POP JUMP JUMPDEST PUSH1 0x0 PUSH1 0x40 DUP3 ADD SWAP1 POP DUP2 DUP2 SUB PUSH1 0x0 DUP4 ADD MSTORE PUSH2 0x4B92 DUP2 DUP6 DUP8 PUSH2 0x4563 JUMP JUMPDEST SWAP1 POP PUSH2 0x4BA1 PUSH1 0x20 DUP4 ADD DUP5 PUSH2 0x3CC1 JUMP JUMPDEST SWAP5 SWAP4 POP POP POP POP JUMP JUMPDEST PUSH1 0x5 DUP2 LT PUSH2 0x4BBA JUMPI PUSH2 0x4BB9 PUSH2 0x44C2 JUMP JUMPDEST JUMPDEST POP JUMP JUMPDEST PUSH1 0x0 DUP2 SWAP1 POP PUSH2 0x4BCB DUP3 PUSH2 0x4BA9 JUMP JUMPDEST SWAP2 SWAP1 POP JUMP JUMPDEST PUSH1 0x0 PUSH2 0x4BDB DUP3 PUSH2 0x4BBD JUMP JUMPDEST SWAP1 POP SWAP2 SWAP1 POP JUMP JUMPDEST PUSH2 0x4BEB DUP2 PUSH2 0x4BD0 JUMP JUMPDEST DUP3 MSTORE POP POP JUMP JUMPDEST PUSH1 0x0 PUSH1 0x40 DUP3 ADD SWAP1 POP DUP2 DUP2 SUB PUSH1 0x0 DUP4 ADD MSTORE PUSH2 0x4C0C DUP2 DUP6 DUP8 PUSH2 0x4563 JUMP JUMPDEST SWAP1 POP PUSH2 0x4C1B PUSH1 0x20 DUP4 ADD DUP5 PUSH2 0x4BE2 JUMP JUMPDEST SWAP5 SWAP4 POP POP POP POP JUMP JUMPDEST PUSH1 0x0 PUSH1 0x20 DUP3 DUP5 SUB SLT ISZERO PUSH2 0x4C39 JUMPI PUSH2 0x4C38 PUSH2 0x3B41 JUMP JUMPDEST JUMPDEST PUSH1 0x0 PUSH2 0x4C47 DUP5 DUP3 DUP6 ADD PUSH2 0x46DC JUMP JUMPDEST SWAP2 POP POP SWAP3 SWAP2 POP POP JUMP JUMPDEST PUSH1 0x0 PUSH1 0x20 DUP3 DUP5 SUB SLT ISZERO PUSH2 0x4C66 JUMPI PUSH2 0x4C65 PUSH2 0x3B41 JUMP JUMPDEST JUMPDEST PUSH1 0x0 PUSH2 0x4C74 DUP5 DUP3 DUP6 ADD PUSH2 0x3ED2 JUMP JUMPDEST SWAP2 POP POP SWAP3 SWAP2 POP POP JUMP JUMPDEST PUSH1 0x0 PUSH1 0x40 DUP3 ADD SWAP1 POP PUSH2 0x4C92 PUSH1 0x0 DUP4 ADD DUP6 PUSH2 0x3F75 JUMP JUMPDEST PUSH2 0x4C9F PUSH1 0x20 DUP4 ADD DUP5 PUSH2 0x3C1F JUMP JUMPDEST SWAP4 SWAP3 POP POP POP JUMP JUMPDEST PUSH1 0x0 PUSH1 0x20 DUP3 ADD SWAP1 POP DUP2 DUP2 SUB PUSH1 0x0 DUP4 ADD MSTORE PUSH2 0x4CC0 DUP2 DUP5 PUSH2 0x3FCA JUMP JUMPDEST SWAP1 POP SWAP3 SWAP2 POP POP JUMP JUMPDEST PUSH1 0x0 DUP2 MLOAD SWAP1 POP PUSH2 0x4CD7 DUP2 PUSH2 0x3EBB JUMP JUMPDEST SWAP3 SWAP2 POP POP JUMP JUMPDEST PUSH1 0x0 PUSH1 0x20 DUP3 DUP5 SUB SLT ISZERO PUSH2 0x4CF3 JUMPI PUSH2 0x4CF2 PUSH2 0x3B41 JUMP JUMPDEST JUMPDEST PUSH1 0x0 PUSH2 0x4D01 DUP5 DUP3 DUP6 ADD PUSH2 0x4CC8 JUMP JUMPDEST SWAP2 POP POP SWAP3 SWAP2 POP POP JUMP JUMPDEST PUSH1 0x0 PUSH1 0x40 DUP3 ADD SWAP1 POP DUP2 DUP2 SUB PUSH1 0x0 DUP4 ADD MSTORE PUSH2 0x4D24 DUP2 DUP6 PUSH2 0x3FCA JUMP JUMPDEST SWAP1 POP PUSH2 0x4D33 PUSH1 0x20 DUP4 ADD DUP5 PUSH2 0x4BE2 JUMP JUMPDEST SWAP4 SWAP3 POP POP POP JUMP JUMPDEST PUSH1 0x0 DUP3 DUP3 MSTORE PUSH1 0x20 DUP3 ADD SWAP1 POP SWAP3 SWAP2 POP POP JUMP JUMPDEST PUSH32 0x4461746143617020526563656976656421000000000000000000000000000000 PUSH1 0x0 DUP3 ADD MSTORE POP JUMP JUMPDEST PUSH1 0x0 PUSH2 0x4D81 PUSH1 0x11 DUP4 PUSH2 0x4D3A JUMP JUMPDEST SWAP2 POP PUSH2 0x4D8C DUP3 PUSH2 0x4D4B JUMP JUMPDEST PUSH1 0x20 DUP3 ADD SWAP1 POP SWAP2 SWAP1 POP JUMP JUMPDEST PUSH1 0x0 PUSH1 0x20 DUP3 ADD SWAP1 POP DUP2 DUP2 SUB PUSH1 0x0 DUP4 ADD MSTORE PUSH2 0x4DB0 DUP2 PUSH2 0x4D74 JUMP JUMPDEST SWAP1 POP SWAP2 SWAP1 POP JUMP JUMPDEST PUSH32 0x496E697469616C697A61626C653A20636F6E747261637420697320616C726561 PUSH1 0x0 DUP3 ADD MSTORE PUSH32 0x647920696E697469616C697A6564000000000000000000000000000000000000 PUSH1 0x20 DUP3 ADD MSTORE POP JUMP JUMPDEST PUSH1 0x0 PUSH2 0x4E13 PUSH1 0x2E DUP4 PUSH2 0x4D3A JUMP JUMPDEST SWAP2 POP PUSH2 0x4E1E DUP3 PUSH2 0x4DB7 JUMP JUMPDEST PUSH1 0x40 DUP3 ADD SWAP1 POP SWAP2 SWAP1 POP JUMP JUMPDEST PUSH1 0x0 PUSH1 0x20 DUP3 ADD SWAP1 POP DUP2 DUP2 SUB PUSH1 0x0 DUP4 ADD MSTORE PUSH2 0x4E42 DUP2 PUSH2 0x4E06 JUMP JUMPDEST SWAP1 POP SWAP2 SWAP1 POP JUMP JUMPDEST PUSH1 0x0 DUP2 SWAP1 POP SWAP2 SWAP1 POP JUMP JUMPDEST PUSH1 0x0 PUSH1 0xFF DUP3 AND SWAP1 POP SWAP2 SWAP1 POP JUMP JUMPDEST PUSH1 0x0 PUSH2 0x4E7B PUSH2 0x4E76 PUSH2 0x4E71 DUP5 PUSH2 0x4E49 JUMP JUMPDEST PUSH2 0x4041 JUMP JUMPDEST PUSH2 0x4E53 JUMP JUMPDEST SWAP1 POP SWAP2 SWAP1 POP JUMP JUMPDEST PUSH2 0x4E8B DUP2 PUSH2 0x4E60 JUMP JUMPDEST DUP3 MSTORE POP POP JUMP JUMPDEST PUSH1 0x0 PUSH1 0x20 DUP3 ADD SWAP1 POP PUSH2 0x4EA6 PUSH1 0x0 DUP4 ADD DUP5 PUSH2 0x4E82 JUMP JUMPDEST SWAP3 SWAP2 POP POP JUMP JUMPDEST PUSH2 0x4EB5 DUP2 PUSH2 0x3CB7 JUMP JUMPDEST DUP2 EQ PUSH2 0x4EC0 JUMPI PUSH1 0x0 DUP1 REVERT JUMPDEST POP JUMP JUMPDEST PUSH1 0x0 DUP2 MLOAD SWAP1 POP PUSH2 0x4ED2 DUP2 PUSH2 0x4EAC JUMP JUMPDEST SWAP3 SWAP2 POP POP JUMP JUMPDEST PUSH1 0x0 PUSH1 0x40 DUP3 DUP5 SUB SLT ISZERO PUSH2 0x4EEE JUMPI PUSH2 0x4EED PUSH2 0x4150 JUMP JUMPDEST JUMPDEST PUSH2 0x4EF8 PUSH1 0x40 PUSH2 0x3D66 JUMP JUMPDEST SWAP1 POP PUSH1 0x0 PUSH2 0x4F08 DUP5 DUP3 DUP6 ADD PUSH2 0x4EC3 JUMP JUMPDEST PUSH1 0x0 DUP4 ADD MSTORE POP PUSH1 0x20 PUSH2 0x4F1C DUP5 DUP3 DUP6 ADD PUSH2 0x42B8 JUMP JUMPDEST PUSH1 0x20 DUP4 ADD MSTORE POP SWAP3 SWAP2 POP POP JUMP JUMPDEST PUSH1 0x0 PUSH1 0x40 DUP3 DUP5 SUB SLT ISZERO PUSH2 0x4F3E JUMPI PUSH2 0x4F3D PUSH2 0x3B41 JUMP JUMPDEST JUMPDEST PUSH1 0x0 PUSH2 0x4F4C DUP5 DUP3 DUP6 ADD PUSH2 0x4ED8 JUMP JUMPDEST SWAP2 POP POP SWAP3 SWAP2 POP POP JUMP JUMPDEST PUSH1 0x0 PUSH8 0xFFFFFFFFFFFFFFFF DUP3 GT ISZERO PUSH2 0x4F70 JUMPI PUSH2 0x4F6F PUSH2 0x3D06 JUMP JUMPDEST JUMPDEST PUSH2 0x4F79 DUP3 PUSH2 0x3CF5 JUMP JUMPDEST SWAP1 POP PUSH1 0x20 DUP2 ADD SWAP1 POP SWAP2 SWAP1 POP JUMP JUMPDEST PUSH1 0x0 PUSH2 0x4F99 PUSH2 0x4F94 DUP5 PUSH2 0x4F55 JUMP JUMPDEST PUSH2 0x3D66 JUMP JUMPDEST SWAP1 POP DUP3 DUP2 MSTORE PUSH1 0x20 DUP2 ADD DUP5 DUP5 DUP5 ADD GT ISZERO PUSH2 0x4FB5 JUMPI PUSH2 0x4FB4 PUSH2 0x3CF0 JUMP JUMPDEST JUMPDEST PUSH2 0x4FC0 DUP5 DUP3 DUP6 PUSH2 0x3FA0 JUMP JUMPDEST POP SWAP4 SWAP3 POP POP POP JUMP JUMPDEST PUSH1 0x0 DUP3 PUSH1 0x1F DUP4 ADD SLT PUSH2 0x4FDD JUMPI PUSH2 0x4FDC PUSH2 0x3CEB JUMP JUMPDEST JUMPDEST DUP2 MLOAD PUSH2 0x4FED DUP5 DUP3 PUSH1 0x20 DUP7 ADD PUSH2 0x4F86 JUMP JUMPDEST SWAP2 POP POP SWAP3 SWAP2 POP POP JUMP JUMPDEST PUSH1 0x0 DUP2 MLOAD SWAP1 POP PUSH2 0x5005 DUP2 PUSH2 0x47C5 JUMP JUMPDEST SWAP3 SWAP2 POP POP JUMP JUMPDEST PUSH1 0x0 PUSH1 0x80 DUP3 DUP5 SUB SLT ISZERO PUSH2 0x5021 JUMPI PUSH2 0x5020 PUSH2 0x4150 JUMP JUMPDEST JUMPDEST PUSH2 0x502B PUSH1 0x80 PUSH2 0x3D66 JUMP JUMPDEST SWAP1 POP PUSH1 0x0 DUP3 ADD MLOAD PUSH8 0xFFFFFFFFFFFFFFFF DUP2 GT ISZERO PUSH2 0x504B JUMPI PUSH2 0x504A PUSH2 0x4155 JUMP JUMPDEST JUMPDEST PUSH2 0x5057 DUP5 DUP3 DUP6 ADD PUSH2 0x4FC8 JUMP JUMPDEST PUSH1 0x0 DUP4 ADD MSTORE POP PUSH1 0x20 PUSH2 0x506B DUP5 DUP3 DUP6 ADD PUSH2 0x4CC8 JUMP JUMPDEST PUSH1 0x20 DUP4 ADD MSTORE POP PUSH1 0x40 PUSH2 0x507F DUP5 DUP3 DUP6 ADD PUSH2 0x42B8 JUMP JUMPDEST PUSH1 0x40 DUP4 ADD MSTORE POP PUSH1 0x60 PUSH2 0x5093 DUP5 DUP3 DUP6 ADD PUSH2 0x42B8 JUMP JUMPDEST PUSH1 0x60 DUP4 ADD MSTORE POP SWAP3 SWAP2 POP POP JUMP JUMPDEST PUSH1 0x0 PUSH2 0x180 DUP3 DUP5 SUB SLT ISZERO PUSH2 0x50B6 JUMPI PUSH2 0x50B5 PUSH2 0x4150 JUMP JUMPDEST JUMPDEST PUSH2 0x50C1 PUSH2 0x180 PUSH2 0x3D66 JUMP JUMPDEST SWAP1 POP PUSH1 0x0 DUP3 ADD MLOAD PUSH8 0xFFFFFFFFFFFFFFFF DUP2 GT ISZERO PUSH2 0x50E1 JUMPI PUSH2 0x50E0 PUSH2 0x4155 JUMP JUMPDEST JUMPDEST PUSH2 0x50ED DUP5 DUP3 DUP6 ADD PUSH2 0x419C JUMP JUMPDEST PUSH1 0x0 DUP4 ADD MSTORE POP PUSH1 0x20 PUSH2 0x5101 DUP5 DUP3 DUP6 ADD PUSH2 0x4CC8 JUMP JUMPDEST PUSH1 0x20 DUP4 ADD MSTORE POP PUSH1 0x40 PUSH2 0x5115 DUP5 DUP3 DUP6 ADD PUSH2 0x42B8 JUMP JUMPDEST PUSH1 0x40 DUP4 ADD MSTORE POP PUSH1 0x60 DUP3 ADD MLOAD PUSH8 0xFFFFFFFFFFFFFFFF DUP2 GT ISZERO PUSH2 0x5139 JUMPI PUSH2 0x5138 PUSH2 0x4155 JUMP JUMPDEST JUMPDEST PUSH2 0x5145 DUP5 DUP3 DUP6 ADD PUSH2 0x4FC8 JUMP JUMPDEST PUSH1 0x60 DUP4 ADD MSTORE POP PUSH1 0x80 PUSH2 0x5159 DUP5 DUP3 DUP6 ADD PUSH2 0x4FF6 JUMP JUMPDEST PUSH1 0x80 DUP4 ADD MSTORE POP PUSH1 0xA0 PUSH2 0x516D DUP5 DUP3 DUP6 ADD PUSH2 0x4FF6 JUMP JUMPDEST PUSH1 0xA0 DUP4 ADD MSTORE POP PUSH1 0xC0 PUSH2 0x5181 DUP5 DUP3 DUP6 ADD PUSH2 0x4480 JUMP JUMPDEST PUSH1 0xC0 DUP4 ADD MSTORE POP PUSH1 0xE0 PUSH2 0x5195 DUP5 DUP3 DUP6 ADD PUSH2 0x4480 JUMP JUMPDEST PUSH1 0xE0 DUP4 ADD MSTORE POP PUSH2 0x100 PUSH2 0x51AA DUP5 DUP3 DUP6 ADD PUSH2 0x4480 JUMP JUMPDEST PUSH2 0x100 DUP4 ADD MSTORE POP PUSH2 0x120 DUP3 ADD MLOAD PUSH8 0xFFFFFFFFFFFFFFFF DUP2 GT ISZERO PUSH2 0x51D0 JUMPI PUSH2 0x51CF PUSH2 0x4155 JUMP JUMPDEST JUMPDEST PUSH2 0x51DC DUP5 DUP3 DUP6 ADD PUSH2 0x4FC8 JUMP JUMPDEST PUSH2 0x120 DUP4 ADD MSTORE POP PUSH2 0x140 PUSH2 0x51F2 DUP5 DUP3 DUP6 ADD PUSH2 0x4CC8 JUMP JUMPDEST PUSH2 0x140 DUP4 ADD MSTORE POP PUSH2 0x160 DUP3 ADD MLOAD PUSH8 0xFFFFFFFFFFFFFFFF DUP2 GT ISZERO PUSH2 0x5218 JUMPI PUSH2 0x5217 PUSH2 0x4155 JUMP JUMPDEST JUMPDEST PUSH2 0x5224 DUP5 DUP3 DUP6 ADD PUSH2 0x500B JUMP JUMPDEST PUSH2 0x160 DUP4 ADD MSTORE POP SWAP3 SWAP2 POP POP JUMP JUMPDEST PUSH1 0x0 PUSH1 0x20 DUP3 DUP5 SUB SLT ISZERO PUSH2 0x5247 JUMPI PUSH2 0x5246 PUSH2 0x3B41 JUMP JUMPDEST JUMPDEST PUSH1 0x0 DUP3 ADD MLOAD PUSH8 0xFFFFFFFFFFFFFFFF DUP2 GT ISZERO PUSH2 0x5265 JUMPI PUSH2 0x5264 PUSH2 0x3B46 JUMP JUMPDEST JUMPDEST PUSH2 0x5271 DUP5 DUP3 DUP6 ADD PUSH2 0x509F JUMP JUMPDEST SWAP2 POP POP SWAP3 SWAP2 POP POP JUMP JUMPDEST PUSH32 0x496E76616C69642043424F520000000000000000000000000000000000000000 PUSH1 0x0 DUP3 ADD MSTORE POP JUMP JUMPDEST PUSH1 0x0 PUSH2 0x52B0 PUSH1 0xC DUP4 PUSH2 0x4D3A JUMP JUMPDEST SWAP2 POP PUSH2 0x52BB DUP3 PUSH2 0x527A JUMP JUMPDEST PUSH1 0x20 DUP3 ADD SWAP1 POP SWAP2 SWAP1 POP JUMP JUMPDEST PUSH1 0x0 PUSH1 0x20 DUP3 ADD SWAP1 POP DUP2 DUP2 SUB PUSH1 0x0 DUP4 ADD MSTORE PUSH2 0x52DF DUP2 PUSH2 0x52A3 JUMP JUMPDEST SWAP1 POP SWAP2 SWAP1 POP JUMP JUMPDEST PUSH1 0x0 PUSH2 0x52F1 DUP3 PUSH2 0x3F84 JUMP JUMPDEST PUSH2 0x52FB DUP2 DUP6 PUSH2 0x4678 JUMP JUMPDEST SWAP4 POP PUSH2 0x530B DUP2 DUP6 PUSH1 0x20 DUP7 ADD PUSH2 0x3FA0 JUMP JUMPDEST PUSH2 0x5314 DUP2 PUSH2 0x3CF5 JUMP JUMPDEST DUP5 ADD SWAP2 POP POP SWAP3 SWAP2 POP POP JUMP JUMPDEST PUSH1 0x0 PUSH1 0x40 DUP4 ADD PUSH1 0x0 DUP4 ADD MLOAD DUP5 DUP3 SUB PUSH1 0x0 DUP7 ADD MSTORE PUSH2 0x533C DUP3 DUP3 PUSH2 0x52E6 JUMP JUMPDEST SWAP2 POP POP PUSH1 0x20 DUP4 ADD MLOAD PUSH2 0x5351 PUSH1 0x20 DUP7 ADD DUP3 PUSH2 0x4708 JUMP JUMPDEST POP DUP1 SWAP2 POP POP SWAP3 SWAP2 POP POP JUMP JUMPDEST PUSH1 0x0 PUSH1 0x40 DUP3 ADD SWAP1 POP DUP2 DUP2 SUB PUSH1 0x0 DUP4 ADD MSTORE PUSH2 0x5376 DUP2 DUP6 PUSH2 0x3FCA JUMP JUMPDEST SWAP1 POP DUP2 DUP2 SUB PUSH1 0x20 DUP4 ADD MSTORE PUSH2 0x538A DUP2 DUP5 PUSH2 0x531F JUMP JUMPDEST SWAP1 POP SWAP4 SWAP3 POP POP POP JUMP JUMPDEST PUSH1 0x0 PUSH1 0x40 DUP3 ADD SWAP1 POP DUP2 DUP2 SUB PUSH1 0x0 DUP4 ADD MSTORE PUSH2 0x53AD DUP2 DUP6 PUSH2 0x3FCA JUMP JUMPDEST SWAP1 POP PUSH2 0x53BC PUSH1 0x20 DUP4 ADD DUP5 PUSH2 0x3F75 JUMP JUMPDEST SWAP4 SWAP3 POP POP POP JUMP JUMPDEST PUSH32 0x4E487B7100000000000000000000000000000000000000000000000000000000 PUSH1 0x0 MSTORE PUSH1 0x11 PUSH1 0x4 MSTORE PUSH1 0x24 PUSH1 0x0 REVERT JUMPDEST PUSH1 0x0 PUSH2 0x53FD DUP3 PUSH2 0x3BA9 JUMP JUMPDEST SWAP2 POP PUSH2 0x5408 DUP4 PUSH2 0x3BA9 JUMP JUMPDEST SWAP3 POP DUP3 DUP3 ADD SWAP1 POP DUP1 DUP3 GT ISZERO PUSH2 0x5420 JUMPI PUSH2 0x541F PUSH2 0x53C3 JUMP JUMPDEST JUMPDEST SWAP3 SWAP2 POP POP JUMP JUMPDEST PUSH1 0x0 PUSH2 0x5441 PUSH2 0x543C PUSH2 0x5437 DUP5 PUSH2 0x3EA7 JUMP JUMPDEST PUSH2 0x4041 JUMP JUMPDEST PUSH2 0x3EA7 JUMP JUMPDEST SWAP1 POP SWAP2 SWAP1 POP JUMP JUMPDEST PUSH2 0x5451 DUP2 PUSH2 0x5426 JUMP JUMPDEST DUP3 MSTORE POP POP JUMP JUMPDEST PUSH1 0x0 PUSH1 0xC0 DUP3 ADD SWAP1 POP PUSH2 0x546C PUSH1 0x0 DUP4 ADD DUP10 PUSH2 0x3F75 JUMP JUMPDEST PUSH2 0x5479 PUSH1 0x20 DUP4 ADD DUP9 PUSH2 0x3C1F JUMP JUMPDEST PUSH2 0x5486 PUSH1 0x40 DUP4 ADD DUP8 PUSH2 0x3F75 JUMP JUMPDEST PUSH2 0x5493 PUSH1 0x60 DUP4 ADD DUP7 PUSH2 0x3F75 JUMP JUMPDEST DUP2 DUP2 SUB PUSH1 0x80 DUP4 ADD MSTORE PUSH2 0x54A5 DUP2 DUP6 PUSH2 0x3FCA JUMP JUMPDEST SWAP1 POP PUSH2 0x54B4 PUSH1 0xA0 DUP4 ADD DUP5 PUSH2 0x5448 JUMP JUMPDEST SWAP8 SWAP7 POP POP POP POP POP POP POP JUMP JUMPDEST PUSH1 0x0 PUSH2 0x54CA DUP3 PUSH2 0x3F84 JUMP JUMPDEST PUSH2 0x54D4 DUP2 DUP6 PUSH2 0x4382 JUMP JUMPDEST SWAP4 POP PUSH2 0x54E4 DUP2 DUP6 PUSH1 0x20 DUP7 ADD PUSH2 0x3FA0 JUMP JUMPDEST DUP1 DUP5 ADD SWAP2 POP POP SWAP3 SWAP2 POP POP JUMP JUMPDEST PUSH1 0x0 PUSH2 0x54FC DUP3 DUP5 PUSH2 0x54BF JUMP JUMPDEST SWAP2 POP DUP2 SWAP1 POP SWAP3 SWAP2 POP POP JUMP JUMPDEST PUSH32 0x4E487B7100000000000000000000000000000000000000000000000000000000 PUSH1 0x0 MSTORE PUSH1 0x1 PUSH1 0x4 MSTORE PUSH1 0x24 PUSH1 0x0 REVERT JUMPDEST PUSH32 0x4E487B7100000000000000000000000000000000000000000000000000000000 PUSH1 0x0 MSTORE PUSH1 0x12 PUSH1 0x4 MSTORE PUSH1 0x24 PUSH1 0x0 REVERT JUMPDEST PUSH1 0x0 PUSH2 0x5570 DUP3 PUSH2 0x3BA9 JUMP JUMPDEST SWAP2 POP PUSH2 0x557B DUP4 PUSH2 0x3BA9 JUMP JUMPDEST SWAP3 POP DUP3 PUSH2 0x558B JUMPI PUSH2 0x558A PUSH2 0x5536 JUMP JUMPDEST JUMPDEST DUP3 DUP3 MOD SWAP1 POP SWAP3 SWAP2 POP POP JUMP JUMPDEST PUSH1 0x0 PUSH2 0x55A1 DUP3 PUSH2 0x3BA9 JUMP JUMPDEST SWAP2 POP PUSH2 0x55AC DUP4 PUSH2 0x3BA9 JUMP JUMPDEST SWAP3 POP DUP3 DUP3 SUB SWAP1 POP DUP2 DUP2 GT ISZERO PUSH2 0x55C4 JUMPI PUSH2 0x55C3 PUSH2 0x53C3 JUMP JUMPDEST JUMPDEST SWAP3 SWAP2 POP POP JUMP JUMPDEST PUSH32 0x4E487B7100000000000000000000000000000000000000000000000000000000 PUSH1 0x0 MSTORE PUSH1 0x32 PUSH1 0x4 MSTORE PUSH1 0x24 PUSH1 0x0 REVERT JUMPDEST PUSH1 0x0 PUSH2 0x5604 DUP3 PUSH2 0x3BA9 JUMP JUMPDEST SWAP2 POP PUSH32 0xFFFFFFFFFFFFFFFFFFFFFFFFFFFFFFFFFFFFFFFFFFFFFFFFFFFFFFFFFFFFFFFF DUP3 SUB PUSH2 0x5636 JUMPI PUSH2 0x5635 PUSH2 0x53C3 JUMP JUMPDEST JUMPDEST PUSH1 0x1 DUP3 ADD SWAP1 POP SWAP2 SWAP1 POP JUMP JUMPDEST PUSH1 0x0 PUSH1 0x40 DUP3 ADD SWAP1 POP PUSH2 0x5656 PUSH1 0x0 DUP4 ADD DUP6 PUSH2 0x3C1F JUMP JUMPDEST PUSH2 0x5663 PUSH1 0x20 DUP4 ADD DUP5 PUSH2 0x3C1F JUMP JUMPDEST SWAP4 SWAP3 POP POP POP JUMP JUMPDEST PUSH1 0x0 DUP2 SWAP1 POP SWAP2 SWAP1 POP JUMP JUMPDEST PUSH2 0x567D DUP2 PUSH2 0x566A JUMP JUMPDEST DUP2 EQ PUSH2 0x5688 JUMPI PUSH1 0x0 DUP1 REVERT JUMPDEST POP JUMP JUMPDEST PUSH1 0x0 DUP2 MLOAD SWAP1 POP PUSH2 0x569A DUP2 PUSH2 0x5674 JUMP JUMPDEST SWAP3 SWAP2 POP POP JUMP JUMPDEST PUSH1 0x0 DUP1 PUSH1 0x0 PUSH1 0x60 DUP5 DUP7 SUB SLT ISZERO PUSH2 0x56B9 JUMPI PUSH2 0x56B8 PUSH2 0x3B41 JUMP JUMPDEST JUMPDEST PUSH1 0x0 PUSH2 0x56C7 DUP7 DUP3 DUP8 ADD PUSH2 0x568B JUMP JUMPDEST SWAP4 POP POP PUSH1 0x20 PUSH2 0x56D8 DUP7 DUP3 DUP8 ADD PUSH2 0x4CC8 JUMP JUMPDEST SWAP3 POP POP PUSH1 0x40 DUP5 ADD MLOAD PUSH8 0xFFFFFFFFFFFFFFFF DUP2 GT ISZERO PUSH2 0x56F9 JUMPI PUSH2 0x56F8 PUSH2 0x3B46 JUMP JUMPDEST JUMPDEST PUSH2 0x5705 DUP7 DUP3 DUP8 ADD PUSH2 0x419C JUMP JUMPDEST SWAP2 POP POP SWAP3 POP SWAP3 POP SWAP3 JUMP JUMPDEST PUSH1 0x0 PUSH1 0x20 DUP3 ADD SWAP1 POP PUSH2 0x5724 PUSH1 0x0 DUP4 ADD DUP5 PUSH2 0x3F75 JUMP JUMPDEST SWAP3 SWAP2 POP POP JUMP JUMPDEST PUSH2 0x5733 DUP2 PUSH2 0x566A JUMP JUMPDEST DUP3 MSTORE POP POP JUMP JUMPDEST PUSH1 0x0 PUSH1 0x20 DUP3 ADD SWAP1 POP PUSH2 0x574E PUSH1 0x0 DUP4 ADD DUP5 PUSH2 0x572A JUMP JUMPDEST SWAP3 SWAP2 POP POP JUMP JUMPDEST PUSH32 0x696E76616C6964206D616A20286578706563746564204D616A546167206F7220 PUSH1 0x0 DUP3 ADD MSTORE PUSH32 0x4D616A42797465537472696E6729000000000000000000000000000000000000 PUSH1 0x20 DUP3 ADD MSTORE POP JUMP JUMPDEST PUSH1 0x0 PUSH2 0x57B0 PUSH1 0x2E DUP4 PUSH2 0x4D3A JUMP JUMPDEST SWAP2 POP PUSH2 0x57BB DUP3 PUSH2 0x5754 JUMP JUMPDEST PUSH1 0x40 DUP3 ADD SWAP1 POP SWAP2 SWAP1 POP JUMP JUMPDEST PUSH1 0x0 PUSH1 0x20 DUP3 ADD SWAP1 POP DUP2 DUP2 SUB PUSH1 0x0 DUP4 ADD MSTORE PUSH2 0x57DF DUP2 PUSH2 0x57A3 JUMP JUMPDEST SWAP1 POP SWAP2 SWAP1 POP JUMP JUMPDEST PUSH32 0x696E76616C6964206D616A20286578706563746564204D616A41727261792900 PUSH1 0x0 DUP3 ADD MSTORE POP JUMP JUMPDEST PUSH1 0x0 PUSH2 0x581C PUSH1 0x1F DUP4 PUSH2 0x4D3A JUMP JUMPDEST SWAP2 POP PUSH2 0x5827 DUP3 PUSH2 0x57E6 JUMP JUMPDEST PUSH1 0x20 DUP3 ADD SWAP1 POP SWAP2 SWAP1 POP JUMP JUMPDEST PUSH1 0x0 PUSH1 0x20 DUP3 ADD SWAP1 POP DUP2 DUP2 SUB PUSH1 0x0 DUP4 ADD MSTORE PUSH2 0x584B DUP2 PUSH2 0x580F JUMP JUMPDEST SWAP1 POP SWAP2 SWAP1 POP JUMP JUMPDEST PUSH32 0x6578706563746564206D616A6F72207479706520746167207768656E20706172 PUSH1 0x0 DUP3 ADD MSTORE PUSH32 0x73696E6720636964000000000000000000000000000000000000000000000000 PUSH1 0x20 DUP3 ADD MSTORE POP JUMP JUMPDEST PUSH1 0x0 PUSH2 0x58AE PUSH1 0x28 DUP4 PUSH2 0x4D3A JUMP JUMPDEST SWAP2 POP PUSH2 0x58B9 DUP3 PUSH2 0x5852 JUMP JUMPDEST PUSH1 0x40 DUP3 ADD SWAP1 POP SWAP2 SWAP1 POP JUMP JUMPDEST PUSH1 0x0 PUSH1 0x20 DUP3 ADD SWAP1 POP DUP2 DUP2 SUB PUSH1 0x0 DUP4 ADD MSTORE PUSH2 0x58DD DUP2 PUSH2 0x58A1 JUMP JUMPDEST SWAP1 POP SWAP2 SWAP1 POP JUMP JUMPDEST PUSH32 0x657870656374656420746167203432207768656E2070617273696E6720636964 PUSH1 0x0 DUP3 ADD MSTORE POP JUMP JUMPDEST PUSH1 0x0 PUSH2 0x591A PUSH1 0x20 DUP4 PUSH2 0x4D3A JUMP JUMPDEST SWAP2 POP PUSH2 0x5925 DUP3 PUSH2 0x58E4 JUMP JUMPDEST PUSH1 0x20 DUP3 ADD SWAP1 POP SWAP2 SWAP1 POP JUMP JUMPDEST PUSH1 0x0 PUSH1 0x20 DUP3 ADD SWAP1 POP DUP2 DUP2 SUB PUSH1 0x0 DUP4 ADD MSTORE PUSH2 0x5949 DUP2 PUSH2 0x590D JUMP JUMPDEST SWAP1 POP SWAP2 SWAP1 POP JUMP JUMPDEST PUSH32 0x6578706563746564206669727374206279746520746F2062652030207768656E PUSH1 0x0 DUP3 ADD MSTORE PUSH32 0x2070617273696E67206369640000000000000000000000000000000000000000 PUSH1 0x20 DUP3 ADD MSTORE POP JUMP JUMPDEST PUSH1 0x0 PUSH2 0x59AC PUSH1 0x2C DUP4 PUSH2 0x4D3A JUMP JUMPDEST SWAP2 POP PUSH2 0x59B7 DUP3 PUSH2 0x5950 JUMP JUMPDEST PUSH1 0x40 DUP3 ADD SWAP1 POP SWAP2 SWAP1 POP JUMP JUMPDEST PUSH1 0x0 PUSH1 0x20 DUP3 ADD SWAP1 POP DUP2 DUP2 SUB PUSH1 0x0 DUP4 ADD MSTORE PUSH2 0x59DB DUP2 PUSH2 0x599F JUMP JUMPDEST SWAP1 POP SWAP2 SWAP1 POP JUMP JUMPDEST PUSH32 0x696E76616C6964206D616A20286578706563746564204D616A556E7369676E65 PUSH1 0x0 DUP3 ADD MSTORE PUSH32 0x64496E7429000000000000000000000000000000000000000000000000000000 PUSH1 0x20 DUP3 ADD MSTORE POP JUMP JUMPDEST PUSH1 0x0 PUSH2 0x5A3E PUSH1 0x25 DUP4 PUSH2 0x4D3A JUMP JUMPDEST SWAP2 POP PUSH2 0x5A49 DUP3 PUSH2 0x59E2 JUMP JUMPDEST PUSH1 0x40 DUP3 ADD SWAP1 POP SWAP2 SWAP1 POP JUMP JUMPDEST PUSH1 0x0 PUSH1 0x20 DUP3 ADD SWAP1 POP DUP2 DUP2 SUB PUSH1 0x0 DUP4 ADD MSTORE PUSH2 0x5A6D DUP2 PUSH2 0x5A31 JUMP JUMPDEST SWAP1 POP SWAP2 SWAP1 POP JUMP JUMPDEST PUSH32 0x696E76616C6964206D616A20286578706563746564204D616A4F746865722900 PUSH1 0x0 DUP3 ADD MSTORE POP JUMP JUMPDEST PUSH1 0x0 PUSH2 0x5AAA PUSH1 0x1F DUP4 PUSH2 0x4D3A JUMP JUMPDEST SWAP2 POP PUSH2 0x5AB5 DUP3 PUSH2 0x5A74 JUMP JUMPDEST PUSH1 0x20 DUP3 ADD SWAP1 POP SWAP2 SWAP1 POP JUMP JUMPDEST PUSH1 0x0 PUSH1 0x20 DUP3 ADD SWAP1 POP DUP2 DUP2 SUB PUSH1 0x0 DUP4 ADD MSTORE PUSH2 0x5AD9 DUP2 PUSH2 0x5A9D JUMP JUMPDEST SWAP1 POP SWAP2 SWAP1 POP JUMP JUMPDEST PUSH32 0x696E76616C6964206D616A20286578706563746564204D616A42797465537472 PUSH1 0x0 DUP3 ADD MSTORE PUSH32 0x696E67206F72204D616A54657874537472696E67290000000000000000000000 PUSH1 0x20 DUP3 ADD MSTORE POP JUMP JUMPDEST PUSH1 0x0 PUSH2 0x5B3C PUSH1 0x35 DUP4 PUSH2 0x4D3A JUMP JUMPDEST SWAP2 POP PUSH2 0x5B47 DUP3 PUSH2 0x5AE0 JUMP JUMPDEST PUSH1 0x40 DUP3 ADD SWAP1 POP SWAP2 SWAP1 POP JUMP JUMPDEST PUSH1 0x0 PUSH1 0x20 DUP3 ADD SWAP1 POP DUP2 DUP2 SUB PUSH1 0x0 DUP4 ADD MSTORE PUSH2 0x5B6B DUP2 PUSH2 0x5B2F JUMP JUMPDEST SWAP1 POP SWAP2 SWAP1 POP JUMP JUMPDEST PUSH1 0x0 PUSH2 0x5B7D DUP3 PUSH2 0x3BA9 JUMP JUMPDEST SWAP2 POP PUSH2 0x5B88 DUP4 PUSH2 0x3BA9 JUMP JUMPDEST SWAP3 POP DUP3 DUP3 MUL PUSH2 0x5B96 DUP2 PUSH2 0x3BA9 JUMP JUMPDEST SWAP2 POP DUP3 DUP3 DIV DUP5 EQ DUP4 ISZERO OR PUSH2 0x5BAD JUMPI PUSH2 0x5BAC PUSH2 0x53C3 JUMP JUMPDEST JUMPDEST POP SWAP3 SWAP2 POP POP JUMP JUMPDEST PUSH32 0x63616E6E6F742068616E646C6520686561646572732077697468206578747261 PUSH1 0x0 DUP3 ADD MSTORE PUSH32 0x203E203237000000000000000000000000000000000000000000000000000000 PUSH1 0x20 DUP3 ADD MSTORE POP JUMP JUMPDEST PUSH1 0x0 PUSH2 0x5C10 PUSH1 0x25 DUP4 PUSH2 0x4D3A JUMP JUMPDEST SWAP2 POP PUSH2 0x5C1B DUP3 PUSH2 0x5BB4 JUMP JUMPDEST PUSH1 0x40 DUP3 ADD SWAP1 POP SWAP2 SWAP1 POP JUMP JUMPDEST PUSH1 0x0 PUSH1 0x20 DUP3 ADD SWAP1 POP DUP2 DUP2 SUB PUSH1 0x0 DUP4 ADD MSTORE PUSH2 0x5C3F DUP2 PUSH2 0x5C03 JUMP JUMPDEST SWAP1 POP SWAP2 SWAP1 POP JUMP JUMPDEST PUSH32 0x696E76616C69642063626F720000000000000000000000000000000000000000 PUSH1 0x0 DUP3 ADD MSTORE POP JUMP JUMPDEST PUSH1 0x0 PUSH2 0x5C7C PUSH1 0xC DUP4 PUSH2 0x4D3A JUMP JUMPDEST SWAP2 POP PUSH2 0x5C87 DUP3 PUSH2 0x5C46 JUMP JUMPDEST PUSH1 0x20 DUP3 ADD SWAP1 POP SWAP2 SWAP1 POP JUMP JUMPDEST PUSH1 0x0 PUSH1 0x20 DUP3 ADD SWAP1 POP DUP2 DUP2 SUB PUSH1 0x0 DUP4 ADD MSTORE PUSH2 0x5CAB DUP2 PUSH2 0x5C6F JUMP JUMPDEST SWAP1 POP SWAP2 SWAP1 POP JUMP JUMPDEST PUSH32 0x696E76616C6964206D616A20286578706563746564204D616A5369676E656449 PUSH1 0x0 DUP3 ADD MSTORE PUSH32 0x6E74206F72204D616A556E7369676E6564496E74290000000000000000000000 PUSH1 0x20 DUP3 ADD MSTORE POP JUMP JUMPDEST PUSH1 0x0 PUSH2 0x5D0E PUSH1 0x35 DUP4 PUSH2 0x4D3A JUMP JUMPDEST SWAP2 POP PUSH2 0x5D19 DUP3 PUSH2 0x5CB2 JUMP JUMPDEST PUSH1 0x40 DUP3 ADD SWAP1 POP SWAP2 SWAP1 POP JUMP JUMPDEST PUSH1 0x0 PUSH1 0x20 DUP3 ADD SWAP1 POP DUP2 DUP2 SUB PUSH1 0x0 DUP4 ADD MSTORE PUSH2 0x5D3D DUP2 PUSH2 0x5D01 JUMP JUMPDEST SWAP1 POP SWAP2 SWAP1 POP JUMP JUMPDEST PUSH1 0x0 DUP2 PUSH1 0x1 SHR SWAP1 POP SWAP2 SWAP1 POP JUMP JUMPDEST PUSH1 0x0 DUP1 DUP3 SWAP2 POP DUP4 SWAP1 POP JUMPDEST PUSH1 0x1 DUP6 GT ISZERO PUSH2 0x5D9B JUMPI DUP1 DUP7 DIV DUP2 GT ISZERO PUSH2 0x5D77 JUMPI PUSH2 0x5D76 PUSH2 0x53C3 JUMP JUMPDEST JUMPDEST PUSH1 0x1 DUP6 AND ISZERO PUSH2 0x5D86 JUMPI DUP1 DUP3 MUL SWAP2 POP JUMPDEST DUP1 DUP2 MUL SWAP1 POP PUSH2 0x5D94 DUP6 PUSH2 0x5D44 JUMP JUMPDEST SWAP5 POP PUSH2 0x5D5B JUMP JUMPDEST SWAP5 POP SWAP5 SWAP3 POP POP POP JUMP JUMPDEST PUSH1 0x0 DUP3 PUSH2 0x5DB4 JUMPI PUSH1 0x1 SWAP1 POP PUSH2 0x5E70 JUMP JUMPDEST DUP2 PUSH2 0x5DC2 JUMPI PUSH1 0x0 SWAP1 POP PUSH2 0x5E70 JUMP JUMPDEST DUP2 PUSH1 0x1 DUP2 EQ PUSH2 0x5DD8 JUMPI PUSH1 0x2 DUP2 EQ PUSH2 0x5DE2 JUMPI PUSH2 0x5E11 JUMP JUMPDEST PUSH1 0x1 SWAP2 POP POP PUSH2 0x5E70 JUMP JUMPDEST PUSH1 0xFF DUP5 GT ISZERO PUSH2 0x5DF4 JUMPI PUSH2 0x5DF3 PUSH2 0x53C3 JUMP JUMPDEST JUMPDEST DUP4 PUSH1 0x2 EXP SWAP2 POP DUP5 DUP3 GT ISZERO PUSH2 0x5E0B JUMPI PUSH2 0x5E0A PUSH2 0x53C3 JUMP JUMPDEST JUMPDEST POP PUSH2 0x5E70 JUMP JUMPDEST POP PUSH1 0x20 DUP4 LT PUSH2 0x133 DUP4 LT AND PUSH1 0x4E DUP5 LT PUSH1 0xB DUP5 LT AND OR ISZERO PUSH2 0x5E46 JUMPI DUP3 DUP3 EXP SWAP1 POP DUP4 DUP2 GT ISZERO PUSH2 0x5E41 JUMPI PUSH2 0x5E40 PUSH2 0x53C3 JUMP JUMPDEST JUMPDEST PUSH2 0x5E70 JUMP JUMPDEST PUSH2 0x5E53 DUP5 DUP5 DUP5 PUSH1 0x1 PUSH2 0x5D51 JUMP JUMPDEST SWAP3 POP SWAP1 POP DUP2 DUP5 DIV DUP2 GT ISZERO PUSH2 0x5E6A JUMPI PUSH2 0x5E69 PUSH2 0x53C3 JUMP JUMPDEST JUMPDEST DUP2 DUP2 MUL SWAP1 POP JUMPDEST SWAP4 SWAP3 POP POP POP JUMP JUMPDEST PUSH1 0x0 PUSH2 0x5E82 DUP3 PUSH2 0x3BA9 JUMP JUMPDEST SWAP2 POP PUSH2 0x5E8D DUP4 PUSH2 0x3BA9 JUMP JUMPDEST SWAP3 POP PUSH2 0x5EBA PUSH32 0xFFFFFFFFFFFFFFFFFFFFFFFFFFFFFFFFFFFFFFFFFFFFFFFFFFFFFFFFFFFFFFFF DUP5 DUP5 PUSH2 0x5DA4 JUMP JUMPDEST SWAP1 POP SWAP3 SWAP2 POP POP JUMP JUMPDEST PUSH32 0x736C6963696E67206F7574206F662072616E6765000000000000000000000000 PUSH1 0x0 DUP3 ADD MSTORE POP JUMP JUMPDEST PUSH1 0x0 PUSH2 0x5EF8 PUSH1 0x14 DUP4 PUSH2 0x4D3A JUMP JUMPDEST SWAP2 POP PUSH2 0x5F03 DUP3 PUSH2 0x5EC2 JUMP JUMPDEST PUSH1 0x20 DUP3 ADD SWAP1 POP SWAP2 SWAP1 POP JUMP JUMPDEST PUSH1 0x0 PUSH1 0x20 DUP3 ADD SWAP1 POP DUP2 DUP2 SUB PUSH1 0x0 DUP4 ADD MSTORE PUSH2 0x5F27 DUP2 PUSH2 0x5EEB JUMP JUMPDEST SWAP1 POP SWAP2 SWAP1 POP JUMP INVALID LOG2 PUSH5 0x6970667358 0x22 SLT KECCAK256 0xB1 MSTORE8 0xD2 0xCC 0x2A 0xB0 GAS GASPRICE DUP15 PUSH10 0x2BE6CEC066402435E1AE PUSH31 0x570BEEB43A19B76ED4F0DD64736F6C63430008110033000000000000000000 "
		},
		"gasEstimates": {
			"creation": {
				"codeDepositCost": "4884000",
				"executionCost": "5775",
				"totalCost": "4889775"
			},
			"external": {
				"addBalance()": "infinite",
				"handle_filecoin_method(uint64,uint64,bytes)": "infinite",
				"initialize(address)": "108386",
				"makeDealProposal((bytes,uint64,bool,string,int64,int64,uint256,uint256,uint256,string,uint64,(string,uint64,bool,bool)))": "infinite",
				"s()": "infinite",
				"setDao(address)": "26960",
				"updateActivationStatus(bytes)": "infinite",
				"withdrawBalance(address,uint256)": "infinite"
			},
			"internal": {
				"authenticateMessage(bytes memory)": "infinite",
				"dealNotify(bytes memory)": "infinite"
			}
		},
		"methodIdentifiers": {
			"addBalance()": "b163cc38",
			"handle_filecoin_method(uint64,uint64,bytes)": "868e10c4",
			"initialize(address)": "c4d66de8",
			"makeDealProposal((bytes,uint64,bool,string,int64,int64,uint256,uint256,uint256,string,uint64,(string,uint64,bool,bool)))": "10c79fa4",
			"s()": "86b714e2",
			"setDao(address)": "6637b882",
			"updateActivationStatus(bytes)": "66263735",
			"withdrawBalance(address,uint256)": "0cf20cc9"
		}
	},
	"abi": [
		{
			"inputs": [
				{
					"internalType": "int256",
					"name": "errorCode",
					"type": "int256"
				}
			],
			"name": "ActorError",
			"type": "error"
		},
		{
			"inputs": [],
			"name": "ActorNotFound",
			"type": "error"
		},
		{
			"inputs": [],
			"name": "FailToCallActor",
			"type": "error"
		},
		{
			"inputs": [],
			"name": "InvalidAddress",
			"type": "error"
		},
		{
			"inputs": [
				{
					"internalType": "uint64",
					"name": "",
					"type": "uint64"
				}
			],
			"name": "InvalidCodec",
			"type": "error"
		},
		{
			"inputs": [],
			"name": "InvalidResponseLength",
			"type": "error"
		},
		{
			"inputs": [],
			"name": "InvalidVerifiedDealParam",
			"type": "error"
		},
		{
			"inputs": [
				{
					"internalType": "uint256",
					"name": "balance",
					"type": "uint256"
				},
				{
					"internalType": "uint256",
					"name": "value",
					"type": "uint256"
				}
			],
			"name": "NotEnoughBalance",
			"type": "error"
		},
		{
			"inputs": [],
			"name": "StoragePriceTooBig",
			"type": "error"
		},
		{
			"anonymous": false,
			"inputs": [
				{
					"indexed": true,
					"internalType": "bytes32",
					"name": "id",
					"type": "bytes32"
				},
				{
					"indexed": false,
					"internalType": "uint64",
					"name": "size",
					"type": "uint64"
				},
				{
					"indexed": true,
					"internalType": "bool",
					"name": "verified",
					"type": "bool"
				},
				{
					"indexed": false,
					"internalType": "uint256",
					"name": "price",
					"type": "uint256"
				}
			],
			"name": "DealProposalCreate",
			"type": "event"
		},
		{
			"anonymous": false,
			"inputs": [
				{
					"indexed": false,
					"internalType": "uint8",
					"name": "version",
					"type": "uint8"
				}
			],
			"name": "Initialized",
			"type": "event"
		},
		{
			"anonymous": false,
			"inputs": [
				{
					"indexed": false,
					"internalType": "string",
					"name": "received",
					"type": "string"
				}
			],
			"name": "ReceivedDataCap",
			"type": "event"
		},
		{
			"inputs": [],
			"name": "addBalance",
			"outputs": [],
			"stateMutability": "payable",
			"type": "function"
		},
		{
			"inputs": [
				{
					"internalType": "uint64",
					"name": "method",
					"type": "uint64"
				},
				{
					"internalType": "uint64",
					"name": "",
					"type": "uint64"
				},
				{
					"internalType": "bytes",
					"name": "params",
					"type": "bytes"
				}
			],
			"name": "handle_filecoin_method",
			"outputs": [
				{
					"internalType": "uint32",
					"name": "",
					"type": "uint32"
				},
				{
					"internalType": "uint64",
					"name": "",
					"type": "uint64"
				},
				{
					"internalType": "bytes",
					"name": "",
					"type": "bytes"
				}
			],
			"stateMutability": "nonpayable",
			"type": "function"
		},
		{
			"inputs": [
				{
					"internalType": "contract Storage",
					"name": "_s",
					"type": "address"
				}
			],
			"name": "initialize",
			"outputs": [],
			"stateMutability": "nonpayable",
			"type": "function"
		},
		{
			"inputs": [
				{
					"components": [
						{
							"internalType": "bytes",
							"name": "piece_cid",
							"type": "bytes"
						},
						{
							"internalType": "uint64",
							"name": "piece_size",
							"type": "uint64"
						},
						{
							"internalType": "bool",
							"name": "verified_deal",
							"type": "bool"
						},
						{
							"internalType": "string",
							"name": "label",
							"type": "string"
						},
						{
							"internalType": "int64",
							"name": "start_epoch",
							"type": "int64"
						},
						{
							"internalType": "int64",
							"name": "end_epoch",
							"type": "int64"
						},
						{
							"internalType": "uint256",
							"name": "storage_price_per_epoch",
							"type": "uint256"
						},
						{
							"internalType": "uint256",
							"name": "provider_collateral",
							"type": "uint256"
						},
						{
							"internalType": "uint256",
							"name": "client_collateral",
							"type": "uint256"
						},
						{
							"internalType": "string",
							"name": "dataCid",
							"type": "string"
						},
						{
							"internalType": "uint64",
							"name": "extra_params_version",
							"type": "uint64"
						},
						{
							"components": [
								{
									"internalType": "string",
									"name": "location_ref",
									"type": "string"
								},
								{
									"internalType": "uint64",
									"name": "car_size",
									"type": "uint64"
								},
								{
									"internalType": "bool",
									"name": "skip_ipni_announce",
									"type": "bool"
								},
								{
									"internalType": "bool",
									"name": "remove_unsealed_copy",
									"type": "bool"
								}
							],
							"internalType": "struct Structs.ExtraParamsV1",
							"name": "extra_params",
							"type": "tuple"
						}
					],
					"internalType": "struct Structs.DealRequest",
					"name": "deal",
					"type": "tuple"
				}
			],
			"name": "makeDealProposal",
			"outputs": [
				{
					"internalType": "bytes32",
					"name": "",
					"type": "bytes32"
				}
			],
			"stateMutability": "nonpayable",
			"type": "function"
		},
		{
			"inputs": [],
			"name": "s",
			"outputs": [
				{
					"internalType": "contract Storage",
					"name": "",
					"type": "address"
				}
			],
			"stateMutability": "view",
			"type": "function"
		},
		{
			"inputs": [
				{
					"internalType": "address",
					"name": "_dao",
					"type": "address"
				}
			],
			"name": "setDao",
			"outputs": [],
			"stateMutability": "nonpayable",
			"type": "function"
		},
		{
			"inputs": [
				{
					"internalType": "bytes",
					"name": "pieceCid",
					"type": "bytes"
				}
			],
			"name": "updateActivationStatus",
			"outputs": [],
			"stateMutability": "nonpayable",
			"type": "function"
		},
		{
			"inputs": [
				{
					"internalType": "address",
					"name": "client",
					"type": "address"
				},
				{
					"internalType": "uint256",
					"name": "value",
					"type": "uint256"
				}
			],
			"name": "withdrawBalance",
			"outputs": [
				{
					"internalType": "uint256",
					"name": "",
					"type": "uint256"
				}
			],
			"stateMutability": "nonpayable",
			"type": "function"
		}
	]
}