{
	"src/utils/Base64.sol": {
		"Base64": {
			"abi": [
				{
					"inputs": [
						{
							"internalType": "bytes",
							"name": "data",
							"type": "bytes"
						}
					],
					"name": "encode",
					"outputs": [
						{
							"internalType": "string",
							"name": "",
							"type": "string"
						}
					],
					"stateMutability": "pure",
					"type": "function"
				}
			],
			"devdoc": {
				"author": "Brecht Devos <brecht@loopring.org>",
				"kind": "dev",
				"methods": {},
				"title": "Base64",
				"version": 1
			},
			"evm": {
				"assembly": "    /* \"src/utils/Base64.sol\":207:2140  library Base64 {... */\n  dataSize(sub_0)\n  dataOffset(sub_0)\n  0x0b\n  dup3\n  dup3\n  dup3\n  codecopy\n  dup1\n  mload\n  0x00\n  byte\n  0x73\n  eq\n  tag_1\n  jumpi\n  mstore(0x00, 0x4e487b7100000000000000000000000000000000000000000000000000000000)\n  mstore(0x04, 0x00)\n  revert(0x00, 0x24)\ntag_1:\n  mstore(0x00, address)\n  0x73\n  dup2\n  mstore8\n  dup3\n  dup2\n  return\nstop\n\nsub_0: assembly {\n        /* \"src/utils/Base64.sol\":207:2140  library Base64 {... */\n      eq(address, deployTimeAddress())\n      mstore(0x40, 0x80)\n      jumpi(tag_1, lt(calldatasize, 0x04))\n      shr(0xe0, calldataload(0x00))\n      dup1\n      0x12496a1b\n      eq\n      tag_2\n      jumpi\n    tag_1:\n      0x00\n      dup1\n      revert\n        /* \"src/utils/Base64.sol\":409:2138  function encode(bytes memory data) public pure returns (string memory) {... */\n    tag_2:\n      tag_3\n      0x04\n      dup1\n      calldatasize\n      sub\n      dup2\n      add\n      swap1\n      tag_4\n      swap2\n      swap1\n      tag_5\n      jump\t// in\n    tag_4:\n      tag_6\n      jump\t// in\n    tag_3:\n      mload(0x40)\n      tag_7\n      swap2\n      swap1\n      tag_8\n      jump\t// in\n    tag_7:\n      mload(0x40)\n      dup1\n      swap2\n      sub\n      swap1\n      return\n    tag_6:\n        /* \"src/utils/Base64.sol\":465:478  string memory */\n      0x60\n        /* \"src/utils/Base64.sol\":490:501  uint256 len */\n      0x00\n        /* \"src/utils/Base64.sol\":504:508  data */\n      dup3\n        /* \"src/utils/Base64.sol\":504:515  data.length */\n      mload\n        /* \"src/utils/Base64.sol\":490:515  uint256 len = data.length */\n      swap1\n      pop\n        /* \"src/utils/Base64.sol\":536:537  0 */\n      0x00\n        /* \"src/utils/Base64.sol\":529:532  len */\n      dup2\n        /* \"src/utils/Base64.sol\":529:537  len == 0 */\n      sub\n        /* \"src/utils/Base64.sol\":525:548  if (len == 0) return \"\" */\n      tag_10\n      jumpi\n        /* \"src/utils/Base64.sol\":539:548  return \"\" */\n      mload(0x40)\n      dup1\n      0x20\n      add\n      0x40\n      mstore\n      dup1\n      0x00\n      dup2\n      mstore\n      pop\n      swap2\n      pop\n      pop\n      jump(tag_9)\n        /* \"src/utils/Base64.sol\":525:548  if (len == 0) return \"\" */\n    tag_10:\n        /* \"src/utils/Base64.sol\":597:615  uint256 encodedLen */\n      0x00\n        /* \"src/utils/Base64.sol\":635:636  3 */\n      0x03\n        /* \"src/utils/Base64.sol\":630:631  2 */\n      0x02\n        /* \"src/utils/Base64.sol\":624:627  len */\n      dup4\n        /* \"src/utils/Base64.sol\":624:631  len + 2 */\n      tag_11\n      swap2\n      swap1\n      tag_12\n      jump\t// in\n    tag_11:\n        /* \"src/utils/Base64.sol\":623:636  (len + 2) / 3 */\n      tag_13\n      swap2\n      swap1\n      tag_14\n      jump\t// in\n    tag_13:\n        /* \"src/utils/Base64.sol\":618:619  4 */\n      0x04\n        /* \"src/utils/Base64.sol\":618:637  4 * ((len + 2) / 3) */\n      tag_15\n      swap2\n      swap1\n      tag_16\n      jump\t// in\n    tag_15:\n        /* \"src/utils/Base64.sol\":597:637  uint256 encodedLen = 4 * ((len + 2) / 3) */\n      swap1\n      pop\n        /* \"src/utils/Base64.sol\":692:711  bytes memory result */\n      0x00\n        /* \"src/utils/Base64.sol\":737:739  32 */\n      0x20\n        /* \"src/utils/Base64.sol\":724:734  encodedLen */\n      dup3\n        /* \"src/utils/Base64.sol\":724:739  encodedLen + 32 */\n      tag_17\n      swap2\n      swap1\n      tag_12\n      jump\t// in\n    tag_17:\n        /* \"src/utils/Base64.sol\":714:740  new bytes(encodedLen + 32) */\n      0xffffffffffffffff\n      dup2\n      gt\n      iszero\n      tag_18\n      jumpi\n      tag_19\n      tag_20\n      jump\t// in\n    tag_19:\n    tag_18:\n      mload(0x40)\n      swap1\n      dup1\n      dup3\n      mstore\n      dup1\n      0x1f\n      add\n      not(0x1f)\n      and\n      0x20\n      add\n      dup3\n      add\n      0x40\n      mstore\n      dup1\n      iszero\n      tag_21\n      jumpi\n      dup2\n      0x20\n      add\n      0x01\n      dup3\n      mul\n      dup1\n      calldatasize\n      dup4\n      calldatacopy\n      dup1\n      dup3\n      add\n      swap2\n      pop\n      pop\n      swap1\n      pop\n    tag_21:\n      pop\n        /* \"src/utils/Base64.sol\":692:740  bytes memory result = new bytes(encodedLen + 32) */\n      swap1\n      pop\n        /* \"src/utils/Base64.sol\":751:769  bytes memory table */\n      0x00\n        /* \"src/utils/Base64.sol\":772:777  TABLE */\n      mload(0x40)\n      dup1\n      0x60\n      add\n      0x40\n      mstore\n      dup1\n      0x40\n      dup2\n      mstore\n      0x20\n      add\n      data_84d8a590de33e00cbdc16e1f28c3506f5ec15c599fab9a6a4bcd575cc2f110ce\n      0x40\n      swap2\n      codecopy\n        /* \"src/utils/Base64.sol\":751:777  bytes memory table = TABLE */\n      swap1\n      pop\n        /* \"src/utils/Base64.sol\":838:839  1 */\n      0x01\n        /* \"src/utils/Base64.sol\":831:836  table */\n      dup2\n        /* \"src/utils/Base64.sol\":827:840  add(table, 1) */\n      add\n        /* \"src/utils/Base64.sol\":882:884  32 */\n      0x20\n        /* \"src/utils/Base64.sol\":874:880  result */\n      dup4\n        /* \"src/utils/Base64.sol\":870:885  add(result, 32) */\n      add\n        /* \"src/utils/Base64.sol\":930:931  0 */\n      0x00\n        /* \"src/utils/Base64.sol\":899:1830  for {... */\n    tag_22:\n        /* \"src/utils/Base64.sol\":952:955  len */\n      dup7\n        /* \"src/utils/Base64.sol\":949:950  i */\n      dup2\n        /* \"src/utils/Base64.sol\":946:956  lt(i, len) */\n      lt\n        /* \"src/utils/Base64.sol\":899:1830  for {... */\n      iszero\n      tag_24\n      jumpi\n        /* \"src/utils/Base64.sol\":1004:1005  3 */\n      0x03\n        /* \"src/utils/Base64.sol\":1001:1002  i */\n      dup2\n        /* \"src/utils/Base64.sol\":997:1006  add(i, 3) */\n      add\n        /* \"src/utils/Base64.sol\":992:1006  i := add(i, 3) */\n      swap1\n      pop\n        /* \"src/utils/Base64.sol\":1061:1069  0xffffff */\n      0xffffff\n        /* \"src/utils/Base64.sol\":1056:1057  i */\n      dup2\n        /* \"src/utils/Base64.sol\":1050:1054  data */\n      dup11\n        /* \"src/utils/Base64.sol\":1046:1058  add(data, i) */\n      add\n        /* \"src/utils/Base64.sol\":1040:1059  mload(add(data, i)) */\n      mload\n        /* \"src/utils/Base64.sol\":1036:1070  and(mload(add(data, i)), 0xffffff) */\n      and\n        /* \"src/utils/Base64.sol\":1139:1143  0x3F */\n      0x3f\n        /* \"src/utils/Base64.sol\":1131:1136  input */\n      dup2\n        /* \"src/utils/Base64.sol\":1127:1129  18 */\n      0x12\n        /* \"src/utils/Base64.sol\":1123:1137  shr(18, input) */\n      shr\n        /* \"src/utils/Base64.sol\":1119:1144  and(shr(18, input), 0x3F) */\n      and\n        /* \"src/utils/Base64.sol\":1109:1117  tablePtr */\n      dup5\n        /* \"src/utils/Base64.sol\":1105:1145  add(tablePtr, and(shr(18, input), 0x3F)) */\n      add\n        /* \"src/utils/Base64.sol\":1099:1146  mload(add(tablePtr, and(shr(18, input), 0x3F))) */\n      mload\n        /* \"src/utils/Base64.sol\":1177:1180  out */\n      dup1\n        /* \"src/utils/Base64.sol\":1174:1175  8 */\n      0x08\n        /* \"src/utils/Base64.sol\":1170:1181  shl(8, out) */\n      shl\n        /* \"src/utils/Base64.sol\":1163:1181  out := shl(8, out) */\n      swap1\n      pop\n        /* \"src/utils/Base64.sol\":1308:1312  0xFF */\n      0xff\n        /* \"src/utils/Base64.sol\":1299:1303  0x3F */\n      0x3f\n        /* \"src/utils/Base64.sol\":1291:1296  input */\n      dup4\n        /* \"src/utils/Base64.sol\":1287:1289  12 */\n      0x0c\n        /* \"src/utils/Base64.sol\":1283:1297  shr(12, input) */\n      shr\n        /* \"src/utils/Base64.sol\":1279:1304  and(shr(12, input), 0x3F) */\n      and\n        /* \"src/utils/Base64.sol\":1269:1277  tablePtr */\n      dup7\n        /* \"src/utils/Base64.sol\":1265:1305  add(tablePtr, and(shr(12, input), 0x3F)) */\n      add\n        /* \"src/utils/Base64.sol\":1259:1306  mload(add(tablePtr, and(shr(12, input), 0x3F))) */\n      mload\n        /* \"src/utils/Base64.sol\":1255:1313  and(mload(add(tablePtr, and(shr(12, input), 0x3F))), 0xFF) */\n      and\n        /* \"src/utils/Base64.sol\":1230:1233  out */\n      dup2\n        /* \"src/utils/Base64.sol\":1205:1331  add(... */\n      add\n        /* \"src/utils/Base64.sol\":1198:1331  out := add(... */\n      swap1\n      pop\n        /* \"src/utils/Base64.sol\":1362:1365  out */\n      dup1\n        /* \"src/utils/Base64.sol\":1359:1360  8 */\n      0x08\n        /* \"src/utils/Base64.sol\":1355:1366  shl(8, out) */\n      shl\n        /* \"src/utils/Base64.sol\":1348:1366  out := shl(8, out) */\n      swap1\n      pop\n        /* \"src/utils/Base64.sol\":1492:1496  0xFF */\n      0xff\n        /* \"src/utils/Base64.sol\":1483:1487  0x3F */\n      0x3f\n        /* \"src/utils/Base64.sol\":1475:1480  input */\n      dup4\n        /* \"src/utils/Base64.sol\":1472:1473  6 */\n      0x06\n        /* \"src/utils/Base64.sol\":1468:1481  shr(6, input) */\n      shr\n        /* \"src/utils/Base64.sol\":1464:1488  and(shr(6, input), 0x3F) */\n      and\n        /* \"src/utils/Base64.sol\":1454:1462  tablePtr */\n      dup7\n        /* \"src/utils/Base64.sol\":1450:1489  add(tablePtr, and(shr(6, input), 0x3F)) */\n      add\n        /* \"src/utils/Base64.sol\":1444:1490  mload(add(tablePtr, and(shr(6, input), 0x3F))) */\n      mload\n        /* \"src/utils/Base64.sol\":1440:1497  and(mload(add(tablePtr, and(shr(6, input), 0x3F))), 0xFF) */\n      and\n        /* \"src/utils/Base64.sol\":1415:1418  out */\n      dup2\n        /* \"src/utils/Base64.sol\":1390:1515  add(... */\n      add\n        /* \"src/utils/Base64.sol\":1383:1515  out := add(... */\n      swap1\n      pop\n        /* \"src/utils/Base64.sol\":1546:1549  out */\n      dup1\n        /* \"src/utils/Base64.sol\":1543:1544  8 */\n      0x08\n        /* \"src/utils/Base64.sol\":1539:1550  shl(8, out) */\n      shl\n        /* \"src/utils/Base64.sol\":1532:1550  out := shl(8, out) */\n      swap1\n      pop\n        /* \"src/utils/Base64.sol\":1668:1672  0xFF */\n      0xff\n        /* \"src/utils/Base64.sol\":1659:1663  0x3F */\n      0x3f\n        /* \"src/utils/Base64.sol\":1652:1657  input */\n      dup4\n        /* \"src/utils/Base64.sol\":1648:1664  and(input, 0x3F) */\n      and\n        /* \"src/utils/Base64.sol\":1638:1646  tablePtr */\n      dup7\n        /* \"src/utils/Base64.sol\":1634:1665  add(tablePtr, and(input, 0x3F)) */\n      add\n        /* \"src/utils/Base64.sol\":1628:1666  mload(add(tablePtr, and(input, 0x3F))) */\n      mload\n        /* \"src/utils/Base64.sol\":1624:1673  and(mload(add(tablePtr, and(input, 0x3F))), 0xFF) */\n      and\n        /* \"src/utils/Base64.sol\":1599:1602  out */\n      dup2\n        /* \"src/utils/Base64.sol\":1574:1691  add(... */\n      add\n        /* \"src/utils/Base64.sol\":1567:1691  out := add(... */\n      swap1\n      pop\n        /* \"src/utils/Base64.sol\":1724:1727  out */\n      dup1\n        /* \"src/utils/Base64.sol\":1719:1722  224 */\n      0xe0\n        /* \"src/utils/Base64.sol\":1715:1728  shl(224, out) */\n      shl\n        /* \"src/utils/Base64.sol\":1708:1728  out := shl(224, out) */\n      swap1\n      pop\n        /* \"src/utils/Base64.sol\":1764:1767  out */\n      dup1\n        /* \"src/utils/Base64.sol\":1753:1762  resultPtr */\n      dup5\n        /* \"src/utils/Base64.sol\":1746:1768  mstore(resultPtr, out) */\n      mstore\n        /* \"src/utils/Base64.sol\":1814:1815  4 */\n      0x04\n        /* \"src/utils/Base64.sol\":1803:1812  resultPtr */\n      dup5\n        /* \"src/utils/Base64.sol\":1799:1816  add(resultPtr, 4) */\n      add\n        /* \"src/utils/Base64.sol\":1786:1816  resultPtr := add(resultPtr, 4) */\n      swap4\n      pop\n        /* \"src/utils/Base64.sol\":974:1830  {... */\n      pop\n      pop\n        /* \"src/utils/Base64.sol\":899:1830  for {... */\n      jump(tag_22)\n    tag_24:\n        /* \"src/utils/Base64.sol\":903:945  {... */\n      pop\n        /* \"src/utils/Base64.sol\":1860:1861  3 */\n      0x03\n        /* \"src/utils/Base64.sol\":1855:1858  len */\n      dup7\n        /* \"src/utils/Base64.sol\":1851:1862  mod(len, 3) */\n      mod\n        /* \"src/utils/Base64.sol\":1880:1881  1 */\n      0x01\n        /* \"src/utils/Base64.sol\":1875:1957  case 1 {... */\n      dup2\n      eq\n      tag_26\n      jumpi\n        /* \"src/utils/Base64.sol\":1975:1976  2 */\n      0x02\n        /* \"src/utils/Base64.sol\":1970:2050  case 2 {... */\n      dup2\n      eq\n      tag_27\n      jumpi\n        /* \"src/utils/Base64.sol\":1844:2050  switch mod(len, 3)... */\n      jump(tag_25)\n        /* \"src/utils/Base64.sol\":1875:1957  case 1 {... */\n    tag_26:\n        /* \"src/utils/Base64.sol\":1935:1941  0x3d3d */\n      0x3d3d\n        /* \"src/utils/Base64.sol\":1930:1933  240 */\n      0xf0\n        /* \"src/utils/Base64.sol\":1926:1942  shl(240, 0x3d3d) */\n      shl\n        /* \"src/utils/Base64.sol\":1922:1923  2 */\n      0x02\n        /* \"src/utils/Base64.sol\":1911:1920  resultPtr */\n      dup4\n        /* \"src/utils/Base64.sol\":1907:1924  sub(resultPtr, 2) */\n      sub\n        /* \"src/utils/Base64.sol\":1900:1943  mstore(sub(resultPtr, 2), shl(240, 0x3d3d)) */\n      mstore\n        /* \"src/utils/Base64.sol\":1875:1957  case 1 {... */\n      jump(tag_25)\n        /* \"src/utils/Base64.sol\":1970:2050  case 2 {... */\n    tag_27:\n        /* \"src/utils/Base64.sol\":2030:2034  0x3d */\n      0x3d\n        /* \"src/utils/Base64.sol\":2025:2028  248 */\n      0xf8\n        /* \"src/utils/Base64.sol\":2021:2035  shl(248, 0x3d) */\n      shl\n        /* \"src/utils/Base64.sol\":2017:2018  1 */\n      0x01\n        /* \"src/utils/Base64.sol\":2006:2015  resultPtr */\n      dup4\n        /* \"src/utils/Base64.sol\":2002:2019  sub(resultPtr, 1) */\n      sub\n        /* \"src/utils/Base64.sol\":1995:2036  mstore(sub(resultPtr, 1), shl(248, 0x3d)) */\n      mstore\n        /* \"src/utils/Base64.sol\":1844:2050  switch mod(len, 3)... */\n    tag_25:\n      pop\n        /* \"src/utils/Base64.sol\":2079:2089  encodedLen */\n      dup5\n        /* \"src/utils/Base64.sol\":2071:2077  result */\n      dup5\n        /* \"src/utils/Base64.sol\":2064:2090  mstore(result, encodedLen) */\n      mstore\n        /* \"src/utils/Base64.sol\":797:2100  {... */\n      pop\n      pop\n        /* \"src/utils/Base64.sol\":2124:2130  result */\n      dup2\n        /* \"src/utils/Base64.sol\":2110:2131  return string(result) */\n      swap5\n      pop\n      pop\n      pop\n      pop\n      pop\n        /* \"src/utils/Base64.sol\":409:2138  function encode(bytes memory data) public pure returns (string memory) {... */\n    tag_9:\n      swap2\n      swap1\n      pop\n      jump\t// out\n        /* \"#utility.yul\":7:82   */\n    tag_28:\n        /* \"#utility.yul\":40:46   */\n      0x00\n        /* \"#utility.yul\":73:75   */\n      0x40\n        /* \"#utility.yul\":67:76   */\n      mload\n        /* \"#utility.yul\":57:76   */\n      swap1\n      pop\n        /* \"#utility.yul\":7:82   */\n      swap1\n      jump\t// out\n        /* \"#utility.yul\":88:205   */\n    tag_29:\n        /* \"#utility.yul\":197:198   */\n      0x00\n        /* \"#utility.yul\":194:195   */\n      dup1\n        /* \"#utility.yul\":187:199   */\n      revert\n        /* \"#utility.yul\":211:328   */\n    tag_30:\n        /* \"#utility.yul\":320:321   */\n      0x00\n        /* \"#utility.yul\":317:318   */\n      dup1\n        /* \"#utility.yul\":310:322   */\n      revert\n        /* \"#utility.yul\":334:451   */\n    tag_31:\n        /* \"#utility.yul\":443:444   */\n      0x00\n        /* \"#utility.yul\":440:441   */\n      dup1\n        /* \"#utility.yul\":433:445   */\n      revert\n        /* \"#utility.yul\":457:574   */\n    tag_32:\n        /* \"#utility.yul\":566:567   */\n      0x00\n        /* \"#utility.yul\":563:564   */\n      dup1\n        /* \"#utility.yul\":556:568   */\n      revert\n        /* \"#utility.yul\":580:682   */\n    tag_33:\n        /* \"#utility.yul\":621:627   */\n      0x00\n        /* \"#utility.yul\":672:674   */\n      0x1f\n        /* \"#utility.yul\":668:675   */\n      not\n        /* \"#utility.yul\":663:665   */\n      0x1f\n        /* \"#utility.yul\":656:661   */\n      dup4\n        /* \"#utility.yul\":652:666   */\n      add\n        /* \"#utility.yul\":648:676   */\n      and\n        /* \"#utility.yul\":638:676   */\n      swap1\n      pop\n        /* \"#utility.yul\":580:682   */\n      swap2\n      swap1\n      pop\n      jump\t// out\n        /* \"#utility.yul\":688:868   */\n    tag_20:\n        /* \"#utility.yul\":736:813   */\n      0x4e487b7100000000000000000000000000000000000000000000000000000000\n        /* \"#utility.yul\":733:734   */\n      0x00\n        /* \"#utility.yul\":726:814   */\n      mstore\n        /* \"#utility.yul\":833:837   */\n      0x41\n        /* \"#utility.yul\":830:831   */\n      0x04\n        /* \"#utility.yul\":823:838   */\n      mstore\n        /* \"#utility.yul\":857:861   */\n      0x24\n        /* \"#utility.yul\":854:855   */\n      0x00\n        /* \"#utility.yul\":847:862   */\n      revert\n        /* \"#utility.yul\":874:1155   */\n    tag_34:\n        /* \"#utility.yul\":957:984   */\n      tag_56\n        /* \"#utility.yul\":979:983   */\n      dup3\n        /* \"#utility.yul\":957:984   */\n      tag_33\n      jump\t// in\n    tag_56:\n        /* \"#utility.yul\":949:955   */\n      dup2\n        /* \"#utility.yul\":945:985   */\n      add\n        /* \"#utility.yul\":1087:1093   */\n      dup2\n        /* \"#utility.yul\":1075:1085   */\n      dup2\n        /* \"#utility.yul\":1072:1094   */\n      lt\n        /* \"#utility.yul\":1051:1069   */\n      0xffffffffffffffff\n        /* \"#utility.yul\":1039:1049   */\n      dup3\n        /* \"#utility.yul\":1036:1070   */\n      gt\n        /* \"#utility.yul\":1033:1095   */\n      or\n        /* \"#utility.yul\":1030:1118   */\n      iszero\n      tag_57\n      jumpi\n        /* \"#utility.yul\":1098:1116   */\n      tag_58\n      tag_20\n      jump\t// in\n    tag_58:\n        /* \"#utility.yul\":1030:1118   */\n    tag_57:\n        /* \"#utility.yul\":1138:1148   */\n      dup1\n        /* \"#utility.yul\":1134:1136   */\n      0x40\n        /* \"#utility.yul\":1127:1149   */\n      mstore\n        /* \"#utility.yul\":917:1155   */\n      pop\n        /* \"#utility.yul\":874:1155   */\n      pop\n      pop\n      jump\t// out\n        /* \"#utility.yul\":1161:1290   */\n    tag_35:\n        /* \"#utility.yul\":1195:1201   */\n      0x00\n        /* \"#utility.yul\":1222:1242   */\n      tag_60\n      tag_28\n      jump\t// in\n    tag_60:\n        /* \"#utility.yul\":1212:1242   */\n      swap1\n      pop\n        /* \"#utility.yul\":1251:1284   */\n      tag_61\n        /* \"#utility.yul\":1279:1283   */\n      dup3\n        /* \"#utility.yul\":1271:1277   */\n      dup3\n        /* \"#utility.yul\":1251:1284   */\n      tag_34\n      jump\t// in\n    tag_61:\n        /* \"#utility.yul\":1161:1290   */\n      swap2\n      swap1\n      pop\n      jump\t// out\n        /* \"#utility.yul\":1296:1603   */\n    tag_36:\n        /* \"#utility.yul\":1357:1361   */\n      0x00\n        /* \"#utility.yul\":1447:1465   */\n      0xffffffffffffffff\n        /* \"#utility.yul\":1439:1445   */\n      dup3\n        /* \"#utility.yul\":1436:1466   */\n      gt\n        /* \"#utility.yul\":1433:1489   */\n      iszero\n      tag_63\n      jumpi\n        /* \"#utility.yul\":1469:1487   */\n      tag_64\n      tag_20\n      jump\t// in\n    tag_64:\n        /* \"#utility.yul\":1433:1489   */\n    tag_63:\n        /* \"#utility.yul\":1507:1536   */\n      tag_65\n        /* \"#utility.yul\":1529:1535   */\n      dup3\n        /* \"#utility.yul\":1507:1536   */\n      tag_33\n      jump\t// in\n    tag_65:\n        /* \"#utility.yul\":1499:1536   */\n      swap1\n      pop\n        /* \"#utility.yul\":1591:1595   */\n      0x20\n        /* \"#utility.yul\":1585:1589   */\n      dup2\n        /* \"#utility.yul\":1581:1596   */\n      add\n        /* \"#utility.yul\":1573:1596   */\n      swap1\n      pop\n        /* \"#utility.yul\":1296:1603   */\n      swap2\n      swap1\n      pop\n      jump\t// out\n        /* \"#utility.yul\":1609:1755   */\n    tag_37:\n        /* \"#utility.yul\":1706:1712   */\n      dup3\n        /* \"#utility.yul\":1701:1704   */\n      dup2\n        /* \"#utility.yul\":1696:1699   */\n      dup4\n        /* \"#utility.yul\":1683:1713   */\n      calldatacopy\n        /* \"#utility.yul\":1747:1748   */\n      0x00\n        /* \"#utility.yul\":1738:1744   */\n      dup4\n        /* \"#utility.yul\":1733:1736   */\n      dup4\n        /* \"#utility.yul\":1729:1745   */\n      add\n        /* \"#utility.yul\":1722:1749   */\n      mstore\n        /* \"#utility.yul\":1609:1755   */\n      pop\n      pop\n      pop\n      jump\t// out\n        /* \"#utility.yul\":1761:2184   */\n    tag_38:\n        /* \"#utility.yul\":1838:1843   */\n      0x00\n        /* \"#utility.yul\":1863:1928   */\n      tag_68\n        /* \"#utility.yul\":1879:1927   */\n      tag_69\n        /* \"#utility.yul\":1920:1926   */\n      dup5\n        /* \"#utility.yul\":1879:1927   */\n      tag_36\n      jump\t// in\n    tag_69:\n        /* \"#utility.yul\":1863:1928   */\n      tag_35\n      jump\t// in\n    tag_68:\n        /* \"#utility.yul\":1854:1928   */\n      swap1\n      pop\n        /* \"#utility.yul\":1951:1957   */\n      dup3\n        /* \"#utility.yul\":1944:1949   */\n      dup2\n        /* \"#utility.yul\":1937:1958   */\n      mstore\n        /* \"#utility.yul\":1989:1993   */\n      0x20\n        /* \"#utility.yul\":1982:1987   */\n      dup2\n        /* \"#utility.yul\":1978:1994   */\n      add\n        /* \"#utility.yul\":2027:2030   */\n      dup5\n        /* \"#utility.yul\":2018:2024   */\n      dup5\n        /* \"#utility.yul\":2013:2016   */\n      dup5\n        /* \"#utility.yul\":2009:2025   */\n      add\n        /* \"#utility.yul\":2006:2031   */\n      gt\n        /* \"#utility.yul\":2003:2115   */\n      iszero\n      tag_70\n      jumpi\n        /* \"#utility.yul\":2034:2113   */\n      tag_71\n      tag_32\n      jump\t// in\n    tag_71:\n        /* \"#utility.yul\":2003:2115   */\n    tag_70:\n        /* \"#utility.yul\":2124:2178   */\n      tag_72\n        /* \"#utility.yul\":2171:2177   */\n      dup5\n        /* \"#utility.yul\":2166:2169   */\n      dup3\n        /* \"#utility.yul\":2161:2164   */\n      dup6\n        /* \"#utility.yul\":2124:2178   */\n      tag_37\n      jump\t// in\n    tag_72:\n        /* \"#utility.yul\":1844:2184   */\n      pop\n        /* \"#utility.yul\":1761:2184   */\n      swap4\n      swap3\n      pop\n      pop\n      pop\n      jump\t// out\n        /* \"#utility.yul\":2203:2541   */\n    tag_39:\n        /* \"#utility.yul\":2258:2263   */\n      0x00\n        /* \"#utility.yul\":2307:2310   */\n      dup3\n        /* \"#utility.yul\":2300:2304   */\n      0x1f\n        /* \"#utility.yul\":2292:2298   */\n      dup4\n        /* \"#utility.yul\":2288:2305   */\n      add\n        /* \"#utility.yul\":2284:2311   */\n      slt\n        /* \"#utility.yul\":2274:2396   */\n      tag_74\n      jumpi\n        /* \"#utility.yul\":2315:2394   */\n      tag_75\n      tag_31\n      jump\t// in\n    tag_75:\n        /* \"#utility.yul\":2274:2396   */\n    tag_74:\n        /* \"#utility.yul\":2432:2438   */\n      dup2\n        /* \"#utility.yul\":2419:2439   */\n      calldataload\n        /* \"#utility.yul\":2457:2535   */\n      tag_76\n        /* \"#utility.yul\":2531:2534   */\n      dup5\n        /* \"#utility.yul\":2523:2529   */\n      dup3\n        /* \"#utility.yul\":2516:2520   */\n      0x20\n        /* \"#utility.yul\":2508:2514   */\n      dup7\n        /* \"#utility.yul\":2504:2521   */\n      add\n        /* \"#utility.yul\":2457:2535   */\n      tag_38\n      jump\t// in\n    tag_76:\n        /* \"#utility.yul\":2448:2535   */\n      swap2\n      pop\n        /* \"#utility.yul\":2264:2541   */\n      pop\n        /* \"#utility.yul\":2203:2541   */\n      swap3\n      swap2\n      pop\n      pop\n      jump\t// out\n        /* \"#utility.yul\":2547:3054   */\n    tag_5:\n        /* \"#utility.yul\":2615:2621   */\n      0x00\n        /* \"#utility.yul\":2664:2666   */\n      0x20\n        /* \"#utility.yul\":2652:2661   */\n      dup3\n        /* \"#utility.yul\":2643:2650   */\n      dup5\n        /* \"#utility.yul\":2639:2662   */\n      sub\n        /* \"#utility.yul\":2635:2667   */\n      slt\n        /* \"#utility.yul\":2632:2751   */\n      iszero\n      tag_78\n      jumpi\n        /* \"#utility.yul\":2670:2749   */\n      tag_79\n      tag_29\n      jump\t// in\n    tag_79:\n        /* \"#utility.yul\":2632:2751   */\n    tag_78:\n        /* \"#utility.yul\":2818:2819   */\n      0x00\n        /* \"#utility.yul\":2807:2816   */\n      dup3\n        /* \"#utility.yul\":2803:2820   */\n      add\n        /* \"#utility.yul\":2790:2821   */\n      calldataload\n        /* \"#utility.yul\":2848:2866   */\n      0xffffffffffffffff\n        /* \"#utility.yul\":2840:2846   */\n      dup2\n        /* \"#utility.yul\":2837:2867   */\n      gt\n        /* \"#utility.yul\":2834:2951   */\n      iszero\n      tag_80\n      jumpi\n        /* \"#utility.yul\":2870:2949   */\n      tag_81\n      tag_30\n      jump\t// in\n    tag_81:\n        /* \"#utility.yul\":2834:2951   */\n    tag_80:\n        /* \"#utility.yul\":2975:3037   */\n      tag_82\n        /* \"#utility.yul\":3029:3036   */\n      dup5\n        /* \"#utility.yul\":3020:3026   */\n      dup3\n        /* \"#utility.yul\":3009:3018   */\n      dup6\n        /* \"#utility.yul\":3005:3027   */\n      add\n        /* \"#utility.yul\":2975:3037   */\n      tag_39\n      jump\t// in\n    tag_82:\n        /* \"#utility.yul\":2965:3037   */\n      swap2\n      pop\n        /* \"#utility.yul\":2761:3047   */\n      pop\n        /* \"#utility.yul\":2547:3054   */\n      swap3\n      swap2\n      pop\n      pop\n      jump\t// out\n        /* \"#utility.yul\":3060:3159   */\n    tag_40:\n        /* \"#utility.yul\":3112:3118   */\n      0x00\n        /* \"#utility.yul\":3146:3151   */\n      dup2\n        /* \"#utility.yul\":3140:3152   */\n      mload\n        /* \"#utility.yul\":3130:3152   */\n      swap1\n      pop\n        /* \"#utility.yul\":3060:3159   */\n      swap2\n      swap1\n      pop\n      jump\t// out\n        /* \"#utility.yul\":3165:3342   */\n    tag_41:\n        /* \"#utility.yul\":3257:3268   */\n      0x00\n        /* \"#utility.yul\":3291:3297   */\n      dup3\n        /* \"#utility.yul\":3286:3289   */\n      dup3\n        /* \"#utility.yul\":3279:3298   */\n      mstore\n        /* \"#utility.yul\":3331:3335   */\n      0x20\n        /* \"#utility.yul\":3326:3329   */\n      dup3\n        /* \"#utility.yul\":3322:3336   */\n      add\n        /* \"#utility.yul\":3307:3336   */\n      swap1\n      pop\n        /* \"#utility.yul\":3165:3342   */\n      swap3\n      swap2\n      pop\n      pop\n      jump\t// out\n        /* \"#utility.yul\":3348:3594   */\n    tag_42:\n        /* \"#utility.yul\":3429:3430   */\n      0x00\n        /* \"#utility.yul\":3439:3552   */\n    tag_86:\n        /* \"#utility.yul\":3453:3459   */\n      dup4\n        /* \"#utility.yul\":3450:3451   */\n      dup2\n        /* \"#utility.yul\":3447:3460   */\n      lt\n        /* \"#utility.yul\":3439:3552   */\n      iszero\n      tag_88\n      jumpi\n        /* \"#utility.yul\":3538:3539   */\n      dup1\n        /* \"#utility.yul\":3533:3536   */\n      dup3\n        /* \"#utility.yul\":3529:3540   */\n      add\n        /* \"#utility.yul\":3523:3541   */\n      mload\n        /* \"#utility.yul\":3519:3520   */\n      dup2\n        /* \"#utility.yul\":3514:3517   */\n      dup5\n        /* \"#utility.yul\":3510:3521   */\n      add\n        /* \"#utility.yul\":3503:3542   */\n      mstore\n        /* \"#utility.yul\":3475:3477   */\n      0x20\n        /* \"#utility.yul\":3472:3473   */\n      dup2\n        /* \"#utility.yul\":3468:3478   */\n      add\n        /* \"#utility.yul\":3463:3478   */\n      swap1\n      pop\n        /* \"#utility.yul\":3439:3552   */\n      jump(tag_86)\n    tag_88:\n        /* \"#utility.yul\":3586:3587   */\n      0x00\n        /* \"#utility.yul\":3577:3583   */\n      dup5\n        /* \"#utility.yul\":3572:3575   */\n      dup5\n        /* \"#utility.yul\":3568:3584   */\n      add\n        /* \"#utility.yul\":3561:3588   */\n      mstore\n        /* \"#utility.yul\":3410:3594   */\n      pop\n        /* \"#utility.yul\":3348:3594   */\n      pop\n      pop\n      pop\n      jump\t// out\n        /* \"#utility.yul\":3600:3993   */\n    tag_43:\n        /* \"#utility.yul\":3696:3699   */\n      0x00\n        /* \"#utility.yul\":3724:3763   */\n      tag_90\n        /* \"#utility.yul\":3757:3762   */\n      dup3\n        /* \"#utility.yul\":3724:3763   */\n      tag_40\n      jump\t// in\n    tag_90:\n        /* \"#utility.yul\":3779:3858   */\n      tag_91\n        /* \"#utility.yul\":3851:3857   */\n      dup2\n        /* \"#utility.yul\":3846:3849   */\n      dup6\n        /* \"#utility.yul\":3779:3858   */\n      tag_41\n      jump\t// in\n    tag_91:\n        /* \"#utility.yul\":3772:3858   */\n      swap4\n      pop\n        /* \"#utility.yul\":3867:3932   */\n      tag_92\n        /* \"#utility.yul\":3925:3931   */\n      dup2\n        /* \"#utility.yul\":3920:3923   */\n      dup6\n        /* \"#utility.yul\":3913:3917   */\n      0x20\n        /* \"#utility.yul\":3906:3911   */\n      dup7\n        /* \"#utility.yul\":3902:3918   */\n      add\n        /* \"#utility.yul\":3867:3932   */\n      tag_42\n      jump\t// in\n    tag_92:\n        /* \"#utility.yul\":3957:3986   */\n      tag_93\n        /* \"#utility.yul\":3979:3985   */\n      dup2\n        /* \"#utility.yul\":3957:3986   */\n      tag_33\n      jump\t// in\n    tag_93:\n        /* \"#utility.yul\":3952:3955   */\n      dup5\n        /* \"#utility.yul\":3948:3987   */\n      add\n        /* \"#utility.yul\":3941:3987   */\n      swap2\n      pop\n        /* \"#utility.yul\":3700:3993   */\n      pop\n        /* \"#utility.yul\":3600:3993   */\n      swap3\n      swap2\n      pop\n      pop\n      jump\t// out\n        /* \"#utility.yul\":3999:4328   */\n    tag_8:\n        /* \"#utility.yul\":4120:4124   */\n      0x00\n        /* \"#utility.yul\":4158:4160   */\n      0x20\n        /* \"#utility.yul\":4147:4156   */\n      dup3\n        /* \"#utility.yul\":4143:4161   */\n      add\n        /* \"#utility.yul\":4135:4161   */\n      swap1\n      pop\n        /* \"#utility.yul\":4207:4216   */\n      dup2\n        /* \"#utility.yul\":4201:4205   */\n      dup2\n        /* \"#utility.yul\":4197:4217   */\n      sub\n        /* \"#utility.yul\":4193:4194   */\n      0x00\n        /* \"#utility.yul\":4182:4191   */\n      dup4\n        /* \"#utility.yul\":4178:4195   */\n      add\n        /* \"#utility.yul\":4171:4218   */\n      mstore\n        /* \"#utility.yul\":4235:4321   */\n      tag_95\n        /* \"#utility.yul\":4316:4320   */\n      dup2\n        /* \"#utility.yul\":4307:4313   */\n      dup5\n        /* \"#utility.yul\":4235:4321   */\n      tag_43\n      jump\t// in\n    tag_95:\n        /* \"#utility.yul\":4227:4321   */\n      swap1\n      pop\n        /* \"#utility.yul\":3999:4328   */\n      swap3\n      swap2\n      pop\n      pop\n      jump\t// out\n        /* \"#utility.yul\":4334:4411   */\n    tag_44:\n        /* \"#utility.yul\":4371:4378   */\n      0x00\n        /* \"#utility.yul\":4400:4405   */\n      dup2\n        /* \"#utility.yul\":4389:4405   */\n      swap1\n      pop\n        /* \"#utility.yul\":4334:4411   */\n      swap2\n      swap1\n      pop\n      jump\t// out\n        /* \"#utility.yul\":4417:4597   */\n    tag_45:\n        /* \"#utility.yul\":4465:4542   */\n      0x4e487b7100000000000000000000000000000000000000000000000000000000\n        /* \"#utility.yul\":4462:4463   */\n      0x00\n        /* \"#utility.yul\":4455:4543   */\n      mstore\n        /* \"#utility.yul\":4562:4566   */\n      0x11\n        /* \"#utility.yul\":4559:4560   */\n      0x04\n        /* \"#utility.yul\":4552:4567   */\n      mstore\n        /* \"#utility.yul\":4586:4590   */\n      0x24\n        /* \"#utility.yul\":4583:4584   */\n      0x00\n        /* \"#utility.yul\":4576:4591   */\n      revert\n        /* \"#utility.yul\":4603:4794   */\n    tag_12:\n        /* \"#utility.yul\":4643:4646   */\n      0x00\n        /* \"#utility.yul\":4662:4682   */\n      tag_99\n        /* \"#utility.yul\":4680:4681   */\n      dup3\n        /* \"#utility.yul\":4662:4682   */\n      tag_44\n      jump\t// in\n    tag_99:\n        /* \"#utility.yul\":4657:4682   */\n      swap2\n      pop\n        /* \"#utility.yul\":4696:4716   */\n      tag_100\n        /* \"#utility.yul\":4714:4715   */\n      dup4\n        /* \"#utility.yul\":4696:4716   */\n      tag_44\n      jump\t// in\n    tag_100:\n        /* \"#utility.yul\":4691:4716   */\n      swap3\n      pop\n        /* \"#utility.yul\":4739:4740   */\n      dup3\n        /* \"#utility.yul\":4736:4737   */\n      dup3\n        /* \"#utility.yul\":4732:4741   */\n      add\n        /* \"#utility.yul\":4725:4741   */\n      swap1\n      pop\n        /* \"#utility.yul\":4760:4763   */\n      dup1\n        /* \"#utility.yul\":4757:4758   */\n      dup3\n        /* \"#utility.yul\":4754:4764   */\n      gt\n        /* \"#utility.yul\":4751:4787   */\n      iszero\n      tag_101\n      jumpi\n        /* \"#utility.yul\":4767:4785   */\n      tag_102\n      tag_45\n      jump\t// in\n    tag_102:\n        /* \"#utility.yul\":4751:4787   */\n    tag_101:\n        /* \"#utility.yul\":4603:4794   */\n      swap3\n      swap2\n      pop\n      pop\n      jump\t// out\n        /* \"#utility.yul\":4800:4980   */\n    tag_46:\n        /* \"#utility.yul\":4848:4925   */\n      0x4e487b7100000000000000000000000000000000000000000000000000000000\n        /* \"#utility.yul\":4845:4846   */\n      0x00\n        /* \"#utility.yul\":4838:4926   */\n      mstore\n        /* \"#utility.yul\":4945:4949   */\n      0x12\n        /* \"#utility.yul\":4942:4943   */\n      0x04\n        /* \"#utility.yul\":4935:4950   */\n      mstore\n        /* \"#utility.yul\":4969:4973   */\n      0x24\n        /* \"#utility.yul\":4966:4967   */\n      0x00\n        /* \"#utility.yul\":4959:4974   */\n      revert\n        /* \"#utility.yul\":4986:5171   */\n    tag_14:\n        /* \"#utility.yul\":5026:5027   */\n      0x00\n        /* \"#utility.yul\":5043:5063   */\n      tag_105\n        /* \"#utility.yul\":5061:5062   */\n      dup3\n        /* \"#utility.yul\":5043:5063   */\n      tag_44\n      jump\t// in\n    tag_105:\n        /* \"#utility.yul\":5038:5063   */\n      swap2\n      pop\n        /* \"#utility.yul\":5077:5097   */\n      tag_106\n        /* \"#utility.yul\":5095:5096   */\n      dup4\n        /* \"#utility.yul\":5077:5097   */\n      tag_44\n      jump\t// in\n    tag_106:\n        /* \"#utility.yul\":5072:5097   */\n      swap3\n      pop\n        /* \"#utility.yul\":5116:5117   */\n      dup3\n        /* \"#utility.yul\":5106:5141   */\n      tag_107\n      jumpi\n        /* \"#utility.yul\":5121:5139   */\n      tag_108\n      tag_46\n      jump\t// in\n    tag_108:\n        /* \"#utility.yul\":5106:5141   */\n    tag_107:\n        /* \"#utility.yul\":5163:5164   */\n      dup3\n        /* \"#utility.yul\":5160:5161   */\n      dup3\n        /* \"#utility.yul\":5156:5165   */\n      div\n        /* \"#utility.yul\":5151:5165   */\n      swap1\n      pop\n        /* \"#utility.yul\":4986:5171   */\n      swap3\n      swap2\n      pop\n      pop\n      jump\t// out\n        /* \"#utility.yul\":5177:5587   */\n    tag_16:\n        /* \"#utility.yul\":5217:5224   */\n      0x00\n        /* \"#utility.yul\":5240:5260   */\n      tag_110\n        /* \"#utility.yul\":5258:5259   */\n      dup3\n        /* \"#utility.yul\":5240:5260   */\n      tag_44\n      jump\t// in\n    tag_110:\n        /* \"#utility.yul\":5235:5260   */\n      swap2\n      pop\n        /* \"#utility.yul\":5274:5294   */\n      tag_111\n        /* \"#utility.yul\":5292:5293   */\n      dup4\n        /* \"#utility.yul\":5274:5294   */\n      tag_44\n      jump\t// in\n    tag_111:\n        /* \"#utility.yul\":5269:5294   */\n      swap3\n      pop\n        /* \"#utility.yul\":5329:5330   */\n      dup3\n        /* \"#utility.yul\":5326:5327   */\n      dup3\n        /* \"#utility.yul\":5322:5331   */\n      mul\n        /* \"#utility.yul\":5351:5381   */\n      tag_112\n        /* \"#utility.yul\":5369:5380   */\n      dup2\n        /* \"#utility.yul\":5351:5381   */\n      tag_44\n      jump\t// in\n    tag_112:\n        /* \"#utility.yul\":5340:5381   */\n      swap2\n      pop\n        /* \"#utility.yul\":5530:5531   */\n      dup3\n        /* \"#utility.yul\":5521:5528   */\n      dup3\n        /* \"#utility.yul\":5517:5532   */\n      div\n        /* \"#utility.yul\":5514:5515   */\n      dup5\n        /* \"#utility.yul\":5511:5533   */\n      eq\n        /* \"#utility.yul\":5491:5492   */\n      dup4\n        /* \"#utility.yul\":5484:5493   */\n      iszero\n        /* \"#utility.yul\":5464:5547   */\n      or\n        /* \"#utility.yul\":5441:5580   */\n      tag_113\n      jumpi\n        /* \"#utility.yul\":5560:5578   */\n      tag_114\n      tag_45\n      jump\t// in\n    tag_114:\n        /* \"#utility.yul\":5441:5580   */\n    tag_113:\n        /* \"#utility.yul\":5225:5587   */\n      pop\n        /* \"#utility.yul\":5177:5587   */\n      swap3\n      swap2\n      pop\n      pop\n      jump\t// out\n    stop\n    data_84d8a590de33e00cbdc16e1f28c3506f5ec15c599fab9a6a4bcd575cc2f110ce 4142434445464748494a4b4c4d4e4f505152535455565758595a6162636465666768696a6b6c6d6e6f707172737475767778797a303132333435363738392b2f\n\n    auxdata: 0xa264697066735822122055d3169274b0400d9d2aacb3a5ba323a64453f4ff316df1a31f80cc3d78c623164736f6c63430008110033\n}\n",
				"bytecode": {
					"linkReferences": {},
					"object": "6105ca610053600b82828239805160001a607314610046577f4e487b7100000000000000000000000000000000000000000000000000000000600052600060045260246000fd5b30600052607381538281f3fe73000000000000000000000000000000000000000030146080604052600436106100355760003560e01c806312496a1b1461003a575b600080fd5b610054600480360381019061004f919061035b565b61006a565b6040516100619190610423565b60405180910390f35b60606000825190506000810361009257604051806020016040528060008152509150506101fc565b600060036002836100a3919061047e565b6100ad91906104e1565b60046100b99190610512565b905060006020826100ca919061047e565b67ffffffffffffffff8111156100e3576100e2610230565b5b6040519080825280601f01601f1916602001820160405280156101155781602001600182028036833780820191505090505b5090506000604051806060016040528060408152602001610555604091399050600181016020830160005b868110156101b95760038101905062ffffff818a015116603f8160121c168401518060081b905060ff603f83600c1c1686015116810190508060081b905060ff603f8360061c1686015116810190508060081b905060ff603f831686015116810190508060e01b90508084526004840193505050610140565b5060038606600181146101d357600281146101e3576101ee565b613d3d60f01b60028303526101ee565b603d60f81b60018303525b508484525050819450505050505b919050565b6000604051905090565b600080fd5b600080fd5b600080fd5b600080fd5b6000601f19601f8301169050919050565b7f4e487b7100000000000000000000000000000000000000000000000000000000600052604160045260246000fd5b6102688261021f565b810181811067ffffffffffffffff8211171561028757610286610230565b5b80604052505050565b600061029a610201565b90506102a6828261025f565b919050565b600067ffffffffffffffff8211156102c6576102c5610230565b5b6102cf8261021f565b9050602081019050919050565b82818337600083830152505050565b60006102fe6102f9846102ab565b610290565b90508281526020810184848401111561031a5761031961021a565b5b6103258482856102dc565b509392505050565b600082601f83011261034257610341610215565b5b81356103528482602086016102eb565b91505092915050565b6000602082840312156103715761037061020b565b5b600082013567ffffffffffffffff81111561038f5761038e610210565b5b61039b8482850161032d565b91505092915050565b600081519050919050565b600082825260208201905092915050565b60005b838110156103de5780820151818401526020810190506103c3565b60008484015250505050565b60006103f5826103a4565b6103ff81856103af565b935061040f8185602086016103c0565b6104188161021f565b840191505092915050565b6000602082019050818103600083015261043d81846103ea565b905092915050565b6000819050919050565b7f4e487b7100000000000000000000000000000000000000000000000000000000600052601160045260246000fd5b600061048982610445565b915061049483610445565b92508282019050808211156104ac576104ab61044f565b5b92915050565b7f4e487b7100000000000000000000000000000000000000000000000000000000600052601260045260246000fd5b60006104ec82610445565b91506104f783610445565b925082610507576105066104b2565b5b828204905092915050565b600061051d82610445565b915061052883610445565b925082820261053681610445565b9150828204841483151761054d5761054c61044f565b5b509291505056fe4142434445464748494a4b4c4d4e4f505152535455565758595a6162636465666768696a6b6c6d6e6f707172737475767778797a303132333435363738392b2fa264697066735822122055d3169274b0400d9d2aacb3a5ba323a64453f4ff316df1a31f80cc3d78c623164736f6c63430008110033",
					"opcodes": "PUSH2 0x5CA PUSH2 0x53 PUSH1 0xB DUP3 DUP3 DUP3 CODECOPY DUP1 MLOAD PUSH1 0x0 BYTE PUSH1 0x73 EQ PUSH2 0x46 JUMPI PUSH32 0x4E487B7100000000000000000000000000000000000000000000000000000000 PUSH1 0x0 MSTORE PUSH1 0x0 PUSH1 0x4 MSTORE PUSH1 0x24 PUSH1 0x0 REVERT JUMPDEST ADDRESS PUSH1 0x0 MSTORE PUSH1 0x73 DUP2 MSTORE8 DUP3 DUP2 RETURN INVALID PUSH20 0x0 ADDRESS EQ PUSH1 0x80 PUSH1 0x40 MSTORE PUSH1 0x4 CALLDATASIZE LT PUSH2 0x35 JUMPI PUSH1 0x0 CALLDATALOAD PUSH1 0xE0 SHR DUP1 PUSH4 0x12496A1B EQ PUSH2 0x3A JUMPI JUMPDEST PUSH1 0x0 DUP1 REVERT JUMPDEST PUSH2 0x54 PUSH1 0x4 DUP1 CALLDATASIZE SUB DUP2 ADD SWAP1 PUSH2 0x4F SWAP2 SWAP1 PUSH2 0x35B JUMP JUMPDEST PUSH2 0x6A JUMP JUMPDEST PUSH1 0x40 MLOAD PUSH2 0x61 SWAP2 SWAP1 PUSH2 0x423 JUMP JUMPDEST PUSH1 0x40 MLOAD DUP1 SWAP2 SUB SWAP1 RETURN JUMPDEST PUSH1 0x60 PUSH1 0x0 DUP3 MLOAD SWAP1 POP PUSH1 0x0 DUP2 SUB PUSH2 0x92 JUMPI PUSH1 0x40 MLOAD DUP1 PUSH1 0x20 ADD PUSH1 0x40 MSTORE DUP1 PUSH1 0x0 DUP2 MSTORE POP SWAP2 POP POP PUSH2 0x1FC JUMP JUMPDEST PUSH1 0x0 PUSH1 0x3 PUSH1 0x2 DUP4 PUSH2 0xA3 SWAP2 SWAP1 PUSH2 0x47E JUMP JUMPDEST PUSH2 0xAD SWAP2 SWAP1 PUSH2 0x4E1 JUMP JUMPDEST PUSH1 0x4 PUSH2 0xB9 SWAP2 SWAP1 PUSH2 0x512 JUMP JUMPDEST SWAP1 POP PUSH1 0x0 PUSH1 0x20 DUP3 PUSH2 0xCA SWAP2 SWAP1 PUSH2 0x47E JUMP JUMPDEST PUSH8 0xFFFFFFFFFFFFFFFF DUP2 GT ISZERO PUSH2 0xE3 JUMPI PUSH2 0xE2 PUSH2 0x230 JUMP JUMPDEST JUMPDEST PUSH1 0x40 MLOAD SWAP1 DUP1 DUP3 MSTORE DUP1 PUSH1 0x1F ADD PUSH1 0x1F NOT AND PUSH1 0x20 ADD DUP3 ADD PUSH1 0x40 MSTORE DUP1 ISZERO PUSH2 0x115 JUMPI DUP2 PUSH1 0x20 ADD PUSH1 0x1 DUP3 MUL DUP1 CALLDATASIZE DUP4 CALLDATACOPY DUP1 DUP3 ADD SWAP2 POP POP SWAP1 POP JUMPDEST POP SWAP1 POP PUSH1 0x0 PUSH1 0x40 MLOAD DUP1 PUSH1 0x60 ADD PUSH1 0x40 MSTORE DUP1 PUSH1 0x40 DUP2 MSTORE PUSH1 0x20 ADD PUSH2 0x555 PUSH1 0x40 SWAP2 CODECOPY SWAP1 POP PUSH1 0x1 DUP2 ADD PUSH1 0x20 DUP4 ADD PUSH1 0x0 JUMPDEST DUP7 DUP2 LT ISZERO PUSH2 0x1B9 JUMPI PUSH1 0x3 DUP2 ADD SWAP1 POP PUSH3 0xFFFFFF DUP2 DUP11 ADD MLOAD AND PUSH1 0x3F DUP2 PUSH1 0x12 SHR AND DUP5 ADD MLOAD DUP1 PUSH1 0x8 SHL SWAP1 POP PUSH1 0xFF PUSH1 0x3F DUP4 PUSH1 0xC SHR AND DUP7 ADD MLOAD AND DUP2 ADD SWAP1 POP DUP1 PUSH1 0x8 SHL SWAP1 POP PUSH1 0xFF PUSH1 0x3F DUP4 PUSH1 0x6 SHR AND DUP7 ADD MLOAD AND DUP2 ADD SWAP1 POP DUP1 PUSH1 0x8 SHL SWAP1 POP PUSH1 0xFF PUSH1 0x3F DUP4 AND DUP7 ADD MLOAD AND DUP2 ADD SWAP1 POP DUP1 PUSH1 0xE0 SHL SWAP1 POP DUP1 DUP5 MSTORE PUSH1 0x4 DUP5 ADD SWAP4 POP POP POP PUSH2 0x140 JUMP JUMPDEST POP PUSH1 0x3 DUP7 MOD PUSH1 0x1 DUP2 EQ PUSH2 0x1D3 JUMPI PUSH1 0x2 DUP2 EQ PUSH2 0x1E3 JUMPI PUSH2 0x1EE JUMP JUMPDEST PUSH2 0x3D3D PUSH1 0xF0 SHL PUSH1 0x2 DUP4 SUB MSTORE PUSH2 0x1EE JUMP JUMPDEST PUSH1 0x3D PUSH1 0xF8 SHL PUSH1 0x1 DUP4 SUB MSTORE JUMPDEST POP DUP5 DUP5 MSTORE POP POP DUP2 SWAP5 POP POP POP POP POP JUMPDEST SWAP2 SWAP1 POP JUMP JUMPDEST PUSH1 0x0 PUSH1 0x40 MLOAD SWAP1 POP SWAP1 JUMP JUMPDEST PUSH1 0x0 DUP1 REVERT JUMPDEST PUSH1 0x0 DUP1 REVERT JUMPDEST PUSH1 0x0 DUP1 REVERT JUMPDEST PUSH1 0x0 DUP1 REVERT JUMPDEST PUSH1 0x0 PUSH1 0x1F NOT PUSH1 0x1F DUP4 ADD AND SWAP1 POP SWAP2 SWAP1 POP JUMP JUMPDEST PUSH32 0x4E487B7100000000000000000000000000000000000000000000000000000000 PUSH1 0x0 MSTORE PUSH1 0x41 PUSH1 0x4 MSTORE PUSH1 0x24 PUSH1 0x0 REVERT JUMPDEST PUSH2 0x268 DUP3 PUSH2 0x21F JUMP JUMPDEST DUP2 ADD DUP2 DUP2 LT PUSH8 0xFFFFFFFFFFFFFFFF DUP3 GT OR ISZERO PUSH2 0x287 JUMPI PUSH2 0x286 PUSH2 0x230 JUMP JUMPDEST JUMPDEST DUP1 PUSH1 0x40 MSTORE POP POP POP JUMP JUMPDEST PUSH1 0x0 PUSH2 0x29A PUSH2 0x201 JUMP JUMPDEST SWAP1 POP PUSH2 0x2A6 DUP3 DUP3 PUSH2 0x25F JUMP JUMPDEST SWAP2 SWAP1 POP JUMP JUMPDEST PUSH1 0x0 PUSH8 0xFFFFFFFFFFFFFFFF DUP3 GT ISZERO PUSH2 0x2C6 JUMPI PUSH2 0x2C5 PUSH2 0x230 JUMP JUMPDEST JUMPDEST PUSH2 0x2CF DUP3 PUSH2 0x21F JUMP JUMPDEST SWAP1 POP PUSH1 0x20 DUP2 ADD SWAP1 POP SWAP2 SWAP1 POP JUMP JUMPDEST DUP3 DUP2 DUP4 CALLDATACOPY PUSH1 0x0 DUP4 DUP4 ADD MSTORE POP POP POP JUMP JUMPDEST PUSH1 0x0 PUSH2 0x2FE PUSH2 0x2F9 DUP5 PUSH2 0x2AB JUMP JUMPDEST PUSH2 0x290 JUMP JUMPDEST SWAP1 POP DUP3 DUP2 MSTORE PUSH1 0x20 DUP2 ADD DUP5 DUP5 DUP5 ADD GT ISZERO PUSH2 0x31A JUMPI PUSH2 0x319 PUSH2 0x21A JUMP JUMPDEST JUMPDEST PUSH2 0x325 DUP5 DUP3 DUP6 PUSH2 0x2DC JUMP JUMPDEST POP SWAP4 SWAP3 POP POP POP JUMP JUMPDEST PUSH1 0x0 DUP3 PUSH1 0x1F DUP4 ADD SLT PUSH2 0x342 JUMPI PUSH2 0x341 PUSH2 0x215 JUMP JUMPDEST JUMPDEST DUP2 CALLDATALOAD PUSH2 0x352 DUP5 DUP3 PUSH1 0x20 DUP7 ADD PUSH2 0x2EB JUMP JUMPDEST SWAP2 POP POP SWAP3 SWAP2 POP POP JUMP JUMPDEST PUSH1 0x0 PUSH1 0x20 DUP3 DUP5 SUB SLT ISZERO PUSH2 0x371 JUMPI PUSH2 0x370 PUSH2 0x20B JUMP JUMPDEST JUMPDEST PUSH1 0x0 DUP3 ADD CALLDATALOAD PUSH8 0xFFFFFFFFFFFFFFFF DUP2 GT ISZERO PUSH2 0x38F JUMPI PUSH2 0x38E PUSH2 0x210 JUMP JUMPDEST JUMPDEST PUSH2 0x39B DUP5 DUP3 DUP6 ADD PUSH2 0x32D JUMP JUMPDEST SWAP2 POP POP SWAP3 SWAP2 POP POP JUMP JUMPDEST PUSH1 0x0 DUP2 MLOAD SWAP1 POP SWAP2 SWAP1 POP JUMP JUMPDEST PUSH1 0x0 DUP3 DUP3 MSTORE PUSH1 0x20 DUP3 ADD SWAP1 POP SWAP3 SWAP2 POP POP JUMP JUMPDEST PUSH1 0x0 JUMPDEST DUP4 DUP2 LT ISZERO PUSH2 0x3DE JUMPI DUP1 DUP3 ADD MLOAD DUP2 DUP5 ADD MSTORE PUSH1 0x20 DUP2 ADD SWAP1 POP PUSH2 0x3C3 JUMP JUMPDEST PUSH1 0x0 DUP5 DUP5 ADD MSTORE POP POP POP POP JUMP JUMPDEST PUSH1 0x0 PUSH2 0x3F5 DUP3 PUSH2 0x3A4 JUMP JUMPDEST PUSH2 0x3FF DUP2 DUP6 PUSH2 0x3AF JUMP JUMPDEST SWAP4 POP PUSH2 0x40F DUP2 DUP6 PUSH1 0x20 DUP7 ADD PUSH2 0x3C0 JUMP JUMPDEST PUSH2 0x418 DUP2 PUSH2 0x21F JUMP JUMPDEST DUP5 ADD SWAP2 POP POP SWAP3 SWAP2 POP POP JUMP JUMPDEST PUSH1 0x0 PUSH1 0x20 DUP3 ADD SWAP1 POP DUP2 DUP2 SUB PUSH1 0x0 DUP4 ADD MSTORE PUSH2 0x43D DUP2 DUP5 PUSH2 0x3EA JUMP JUMPDEST SWAP1 POP SWAP3 SWAP2 POP POP JUMP JUMPDEST PUSH1 0x0 DUP2 SWAP1 POP SWAP2 SWAP1 POP JUMP JUMPDEST PUSH32 0x4E487B7100000000000000000000000000000000000000000000000000000000 PUSH1 0x0 MSTORE PUSH1 0x11 PUSH1 0x4 MSTORE PUSH1 0x24 PUSH1 0x0 REVERT JUMPDEST PUSH1 0x0 PUSH2 0x489 DUP3 PUSH2 0x445 JUMP JUMPDEST SWAP2 POP PUSH2 0x494 DUP4 PUSH2 0x445 JUMP JUMPDEST SWAP3 POP DUP3 DUP3 ADD SWAP1 POP DUP1 DUP3 GT ISZERO PUSH2 0x4AC JUMPI PUSH2 0x4AB PUSH2 0x44F JUMP JUMPDEST JUMPDEST SWAP3 SWAP2 POP POP JUMP JUMPDEST PUSH32 0x4E487B7100000000000000000000000000000000000000000000000000000000 PUSH1 0x0 MSTORE PUSH1 0x12 PUSH1 0x4 MSTORE PUSH1 0x24 PUSH1 0x0 REVERT JUMPDEST PUSH1 0x0 PUSH2 0x4EC DUP3 PUSH2 0x445 JUMP JUMPDEST SWAP2 POP PUSH2 0x4F7 DUP4 PUSH2 0x445 JUMP JUMPDEST SWAP3 POP DUP3 PUSH2 0x507 JUMPI PUSH2 0x506 PUSH2 0x4B2 JUMP JUMPDEST JUMPDEST DUP3 DUP3 DIV SWAP1 POP SWAP3 SWAP2 POP POP JUMP JUMPDEST PUSH1 0x0 PUSH2 0x51D DUP3 PUSH2 0x445 JUMP JUMPDEST SWAP2 POP PUSH2 0x528 DUP4 PUSH2 0x445 JUMP JUMPDEST SWAP3 POP DUP3 DUP3 MUL PUSH2 0x536 DUP2 PUSH2 0x445 JUMP JUMPDEST SWAP2 POP DUP3 DUP3 DIV DUP5 EQ DUP4 ISZERO OR PUSH2 0x54D JUMPI PUSH2 0x54C PUSH2 0x44F JUMP JUMPDEST JUMPDEST POP SWAP3 SWAP2 POP POP JUMP INVALID COINBASE TIMESTAMP NUMBER DIFFICULTY GASLIMIT CHAINID SELFBALANCE BASEFEE 0x49 0x4A 0x4B 0x4C 0x4D 0x4E 0x4F POP MLOAD MSTORE MSTORE8 SLOAD SSTORE JUMP JUMPI PC MSIZE GAS PUSH2 0x6263 PUSH5 0x6566676869 PUSH11 0x6B6C6D6E6F707172737475 PUSH23 0x7778797A303132333435363738392B2FA2646970667358 0x22 SLT KECCAK256 SSTORE 0xD3 AND SWAP3 PUSH21 0xB0400D9D2AACB3A5BA323A64453F4FF316DF1A31F8 0xC 0xC3 0xD7 DUP13 PUSH3 0x316473 PUSH16 0x6C634300081100330000000000000000 "
				},
				"gasEstimates": {
					"creation": {
						"codeDepositCost": "296400",
						"executionCost": "362",
						"totalCost": "296762"
					},
					"external": {
						"encode(bytes)": "infinite"
					}
				},
				"methodIdentifiers": {
					"encode(bytes)": "12496a1b"
				}
			},
			"storageLayout": {
				"storage": [],
				"types": null
			},
			"userdoc": {
				"kind": "user",
				"methods": {
					"encode(bytes)": {
						"notice": "Encodes some bytes to the base64 representation"
					}
				},
				"notice": "[MIT License]Provides a function for encoding some bytes in base64",
				"version": 1
			}
		}
	}
}